S02B0000546F75636853637265656E436F6E74726F6C6C65725F4D53535F434D335F305F6170702E73726563CF
S315200000000000012099020020090300200B03002094
S315200000100D0300200F030020110300200000000024
S315200000200000000000000000000000001303002074
S3152000003015030020000000001703002019030020EC
S315200000401B0300201D0300201F0300202103002086
S315200000502303002025030020270300202903002056
S315200000602B0300202D0300202F0300203103002026
S31520000070D513002001140020370300203903002067
S315200000803B0300203D0300203F03002041030020C6
S315200000904303002045030020470300204903002096
S315200000A04B030020000000000000000000000000BC
S315200000B00000000000000000000000004D030020AA
S315200000C04F03002051030020530300205503002036
S315200000D057030020590300205B0300205D03002006
S315200000E05F030020610300206303002065030020D6
S315200000F067030020690300206B0300206D030020A6
S315200001006F03002071030020730300207503002075
S3152000011077030020790300207B0300207D03002045
S315200001207F03002081030020830300208503002015
S3152000013087030020890300208B0300208D030020E5
S315200001408F030020910300209303002095030020B5
S3152000015097030020990300209B0300209D03002085
S315200001609F030020A1030020A3030020A503002055
S31520000170A7030020A9030020AB030020AD03002025
S31520000180AF030020B1030020B3030020B5030020F5
S31520000190B7030020B9030020BB030020BD030020C5
S315200001A0BF030020C1030020C3030020C503002095
S315200001B0C7030020C9030020CB030020CD03002065
S315200001C0CF030020D1030020D3030020D503002035
S315200001D0D7030020D9030020DB030020DD03002005
S315200001E0DF030020E1030020E3030020E5030020D5
S315200001F0E7030020E9030020EB030020ED030020A5
S31520000200EF030020F1030020F3030020F503002074
S31520000210F7030020F90300207D170020A5170020F2
S31520000220CD170020F51700201D18002045180020A6
S315200002306D18002095180020BD180020E518002014
S315200002400D190020351900205D1900208519002080
S31520000250AD190020D5190020FD190020251A0020EF
S315200002604D1A0020751A00209D1A0020C51A00205C
S31520000270ED1A0020151B00203D1B0020651B0020C9
S315200002808D1B0020B51B0020DD1B0020051C002037
S315200002902D1C0020551C00206848804768480028EF
S315200002A00BD168486849694A884206D091421CBFEA
S315200002B050F8043B41F8043BF8D165486549664A45
S315200002C0884206D091421CBF50F8043B41F8043BBB
S315200002D0F8D162486249634A914218BF41F8040B3B
S315200002E0FAD100000000000000000000000000001D
S315200002F0DFF874010FF2030E00474FF000004FF0B5
S315200003000001DFF868F1FEE7FEE7FEE7FEE7FEE71D
S31520000310FEE7FEE7FEE7FEE7FEE7FEE7FEE7FEE78F
S31520000320FEE7FEE7FEE7FEE7FEE7FEE7FEE7FEE77F
S31520000330FEE7FEE7FEE7FEE7FEE7FEE7FEE7FEE76F
S31520000340FEE7FEE7FEE7FEE7FEE7FEE7FEE7FEE75F
S31520000350FEE7FEE7FEE7FEE7FEE7FEE7FEE7FEE74F
S31520000360FEE7FEE7FEE7FEE7FEE7FEE7FEE7FEE73F
S31520000370FEE7FEE7FEE7FEE7FEE7FEE7FEE7FEE72F
S31520000380FEE7FEE7FEE7FEE7FEE7FEE7FEE7FEE71F
S31520000390FEE7FEE7FEE7FEE7FEE7FEE7FEE7FEE70F
S315200003A0FEE7FEE7FEE7FEE7FEE7FEE7FEE7FEE7FF
S315200003B0FEE7FEE7FEE7FEE7FEE7FEE7FEE7FEE7EF
S315200003C0FEE7FEE7FEE7FEE7FEE7FEE7FEE7FEE7DF
S315200003D0FEE7FEE7FEE7FEE7FEE7FEE7FEE7FEE7CF
S315200003E0FEE7FEE7FEE7FEE7FEE7FEE7FEE7FEE7BF
S315200003F0FEE7FEE7FEE7FEE7FEE7FEE7FEE7FEE7AF
S31520000400FEE7FEE7FEE7FEE7FEE7FEE7FEE7FEE79E
S31520000410FEE7FEE7FEE7FEE7FEE7FEE7FEE7FEE78E
S31520000420FEE7FEE7FEE7FEE7FEE7FEE7FEE7FEE77E
S31520000430FEE7FEE7FEE7FEE7FEE700006115002087
S31520000440000000000000002000000020702700208F
S315200004507027002070270020A4270020000000001D
S31520000460A4270020C028002061240020A104002009
S3152000047042F2A473C2F200031A780AB90120187056
S31520000480704700BF42F27070C2F2000008B50368E0
S315200004902BB140F20003C0F2000303B1984708BD18
S315200004A080B500AF00F02EF84FF0000000F0C4F841
S315200004B0FAE700BF80B400AF40F20003C4F20A237B
S315200004C04FF00102C3F88021BD4680BC704700BFB3
S315200004D080B400AF40F20003C4F20A234FF00002BA
S315200004E0C3F88021BD4680BC704700BF80B400AFF2
S315200004F045F20003C4F200031B681846BD4680BCC3
S31520000500704700BF80B582B000AF42F28453C2F27A
S3152000051000033B6042F2B870C2F2000000F020FAFD
S3152000052000F0A2FF4FF000004FF0050100F0D2FFCF
S3152000053001F00EF84FF0080000F066F94FF00100C8
S3152000054000F04EF94FF0960000F016F91DE03B68DA
S315200005501A78BA7103F101033B60BB7903F07F037C
S31520000560FB713A467979FB79084611461A4600F01E
S31520000570A7F83A68FB7913443B60BB795BB2002B42
S3152000058003DA4FF0960000F0F7F83B681A787A7194
S315200005907A79002A0CBF00220122D2B203F101038C
S315200005A03B60002AD3D107F10807BD4680BD00BFB6
S315200005B080B582B000AFF880B9807A803B80FA8817
S315200005C07B8813449BB203F1FF339AB2B9883B88E8
S315200005D00B449BB203F1FF339BB2F888B98800F035
S315200005E041F84FF02C0000F0FBF83B88BB801BE065
S315200005F07B88FB800AE007F1100318464FF01001B4
S3152000060000F090F8FB8803F1FF33FB80FB88002B7A
S31520000610F1D107F1100318464FF0100100F082F8CF
S31520000620BB8803F1FF33BB80BB88002BE0D107F1E9
S315200006300807BD4680BD00BF80B584B002AF034623
S31520000640FB80FB8800934FF000004FF000014FF035
S31520000650EF0240F23F13FFF7ABFF07F10807BD4655
S3152000066080BD00BF80B582B000AFF880B9807A80A7
S315200006703B804FF02A0000F0B3F807F10603184636
S315200006804FF0080100F04EF807F1020318464FF02C
S31520000690080100F047F84FF02B0000F0A1F807F111
S315200006A0040318464FF0080100F03CF83B46184674
S315200006B04FF0080100F036F807F10807BD4680BD67
S315200006C080B586B000AFB96013460246FA73FB7157
S315200006D04FF0080000F098F800F0BEF800F0DEF8C1
S315200006E0FB7B184600F0A8F800F0CEF84FF0000388
S315200006F07B610CE0BB681B78184600F09DF8BB6850
S3152000070003F10103BB607B6903F101037B61FA7985
S315200007107B699A42EEDC00F0ABF807F11807BD467C
S3152000072080BD00BF80B584B000AF78600B46FB70FB
S3152000073000F092F800F0A8F84FF0080000F064F8F6
S315200007404FF00003FB600CE07B681B78184600F036
S3152000075073F87B6803F101037B60FB6803F10103F7
S31520000760FB60FA78FB689A42EEDC00F081F807F12C
S315200007701007BD4680BD00BF80B584B000AF78604D
S31520000780FFF7B4FE0346BB60786801F0B9FB02466A
S315200007900B461046194610A3D3E9002301F050FD5D
S315200007A002460B461046194601F032FE0346BA6849
S315200007B0C3EB0203FB60FFF77DFEFFF797FE0246C1
S315200007C0FB689A42F9D8FFF783FE07F11007BD466A
S315200007D080BD00BFAFF300807B14AE47E17A843F33
S315200007E080B582B000AF0346FB7100F035F800F00B
S315200007F055F8FB79184600F01FF800F039F807F194
S315200008000807BD4680BD00BF80B584B002AF034651
S31520000810FB71FB79009342F2B870C2F200004FF0F0
S3152000082000014FF000024FF0050300F0E3F907F155
S315200008300807BD4680BD00BF80B582B000AF786096
S3152000084042F2B870C2F20000796800F02FFB07F17F
S315200008500807BD4680BD00BF80B500AF42F2B87024
S31520000860C2F200004FF0000100F054FA80BD00BF34
S3152000087080B500AF42F2B870C2F200004FF000011E
S3152000088000F0CCFA80BD00BF80B500AF4FF000006D
S315200008904FF0010100F03CFE80BD00BF80B500AFE7
S315200008A04FF000004FF0000100F032FE80BD00BF87
S315200008B080B483B000AF0346FB804EF20013CEF225
S315200008C00003B7F906204FEA5212F98801F01F01FA
S315200008D04FF0010000FA01F143F8221007F10C074E
S315200008E0BD4680BC704700BF80B483B000AF0346CE
S315200008F0FB804EF20013CEF20003B7F906204FEA32
S315200009005212F98801F01F014FF0010000FA01F19F
S3152000091002F1200243F8221007F10C07BD4680BCE5
S31520000920704700BF80B483B000AF0346FB804EF211
S315200009300013CEF20003B7F906204FEA5212F988C7
S3152000094001F01F014FF0010000FA01F102F16002EF
S3152000095043F8221007F10C07BD4680BC704700BF44
S3152000096080B584B000AF78607A6842F63C03C2F264
S3152000097000039A4207D07A6842F2B873C2F20003A3
S315200009809A4200D000BE7B689B881BB21846FFF7B0
S31520000990ABFF78684FF000014FF0840201F088FD2C
S315200009A07B684FF001025A624FF00003FB810DE095
S315200009B0FB897A6803F106034FEAC30313444FF019
S315200009C0FF325A60FB8903F10103FB81FB89072B68
S315200009D0EED97A6842F63C03C2F200039A4226D147
S315200009E07A6841F20003C4F2000313607B684FF07B
S315200009F00C029A8042F20003CEF2040342F2000275
S31520000A00CEF20402126B42F400721A634FF00C000D
S31520000A10FFF788FF42F20003CEF2040342F20002FF
S31520000A20CEF20402126B22F400721A6325E07A6871
S31520000A3041F20003C4F2010313607B684FF00D02FC
S31520000A409A8042F20003CEF2040342F20002CEF272
S31520000A500402126B42F480621A634FF00D00FFF716
S31520000A6061FF42F20003CEF2040342F20002CEF20C
S31520000A700402126B22F480621A637B681B687A6810
S31520000A801268126822F000421A6007F11007BD466C
S31520000A9080BD00BF80B58AB000AF78607B681B68D8
S31520000AA01B68FB607B681B689B693B617B681B68D6
S31520000AB05B687B617B681B689B6ABB617B681B6884
S31520000AC01B6BFB617B681B685B6B3B627B681B68EF
S31520000AD0DB697B627A6842F63C03C2F200039A42E3
S31520000AE02ED17A6841F20003C4F2000313607B68BA
S31520000AF04FF00C029A8042F20003CEF2040342F237
S31520000B000002CEF20402126B42F400721A634FF016
S31520000B100C00FFF707FF42F20003CEF2040342F275
S31520000B200002CEF20402126B22F400721A637B6872
S31520000B301B687A681268126822F000421A602DE05B
S31520000B407A6841F20003C4F2010313607B684FF018
S31520000B500D029A8042F20003CEF2040342F2000212
S31520000B60CEF20402126B42F480621A634FF00D003B
S31520000B70FFF7D8FE42F20003CEF2040342F200024F
S31520000B80CEF20402126B22F480621A637B681B6821
S31520000B907A681268126822F000421A60FB6823F015
S31520000BA00103FB607B681B68FA681A607B681B6818
S31520000BB03A699A617B681B687A695A607B681B6808
S31520000BC07A681268126842F001021A607B681B6814
S31520000BD0BA699A627B681B68FA691A637B681B6824
S31520000BE03A6A5A637B681B687A6ADA6107F12807D2
S31520000BF0BD4680BD80B584B000AFF8607A600A46F5
S31520000C00FA72FB70FA6842F63C03C2F200039A427B
S31520000C1007D0FA6842F2B873C2F200039A4200D0B3
S31520000C2000BEFB7A072B00D900BE3B7E202B00D9C5
S31520000C3000BEFB689B881BB21846FFF755FEFB6873
S31520000C404FF0000283F88020FB681B68FA68126860
S31520000C50126822F001021A60FB681B68FA681268A3
S31520000C60126842F002021A60FB681B68FA68126872
S31520000C70126842F001021A60FB7A072B3FD87B6884
S31520000C80002B0BD07B68B3F1007F07D07B68B3F1D4
S31520000C90807F03D07B68B3F1407F0FD1FA7A7968E1
S31520000CA040F20213C2F2004341EA0303F96802F15B
S31520000CB006024FEAC2020A4453600EE0FA7A7968C5
S31520000CC040F20213C2F2000341EA0303F96802F17B
S31520000CD006024FEAC2020A445360FB7AFA6803F11D
S31520000CE006034FEAC30313443A7E1A72FB7AFA6864
S31520000CF003F106034FEAC3031344FA785A72FB68DA
S31520000D009B881BB21846FFF7D3FD07F11007BD4697
S31520000D1080BD00BF80B584B000AF78600B46FB7005
S31520000D207A6842F63C03C2F200039A4207D07A68F8
S31520000D3042F2B873C2F200039A4200D000BE7B682A
S31520000D401B681B6803F00203002B00D100BEFB7852
S31520000D507A6803F106034FEAC30313445B68B3F1D1
S31520000D60FF3F00D100BE7B689B881BB21846FFF769
S31520000D70BBFD7B681B689B6803F00403FB60FB6874
S31520000D80002B02D07868FFF785FE7B681B687A689F
S31520000D901268126822F001021A607B681A68FB78D2
S31520000DA0796803F106034FEAC3030B445B681360BB
S31520000DB07B681A68FB78796803F106034FEAC30358
S31520000DC00B445B7A93617B681A68FB78796803F138
S31520000DD006034FEAC3030B441B7A53607B681B68E8
S31520000DE07A681268126842F001021A607B681B68F2
S31520000DF07A681268D169FA784FF0010000FA02F297
S31520000E0041EA0202DA617B689B881BB21846FFF72B
S31520000E104FFD07F11007BD4680BD00BF80B584B0E9
S31520000E2000AF78600B46FB707A6842F63C03C2F24C
S31520000E3000039A4207D07A6842F2B873C2F20003DE
S31520000E409A4200D000BE7B681B681B6803F0020331
S31520000E50002B00D100BE7B689B881BB21846FFF78B
S31520000E6043FD7B681B689B6803F00403FB60FB68FB
S31520000E70002B02D07868FFF70DFE7B681B687A6826
S31520000E801268D169FA784FF0010000FA02F26FEA8F
S31520000E90020201EA0202DA617B689B881BB21846CD
S31520000EA0FFF706FD07F11007BD4680BD80B487B069
S31520000EB000AF786039607A6842F63C03C2F20003DC
S31520000EC09A4207D07A6842F2B873C2F200039A4275
S31520000ED000D000BE7B681B681B6803F00203002B52
S31520000EE000D100BE7B681A687B681B68196840F2CF
S31520000EF0FF03CFF6007301EA030343F48073136004
S31520000F007B681B687A681268D26A42F00C02DA6241
S31520000F107B681B689B6803F04003FB600BE07B68E3
S31520000F201B681B69BB60BB68BB607B681B689B68D2
S31520000F3003F04003FB60FB68002BF0D07B681B6846
S31520000F403A685A617B681B689B6803F001037B61E2
S31520000F5005E07B681B689B6803F001037B617B6966
S31520000F60002BF6D07B681B689B6803F002033B616D
S31520000F7005E07B681B689B6803F002033B613B69C5
S31520000F80002BF6D07B681B681B69184607F11C07E7
S31520000F90BD4680BC704700BF80B485B000AF786086
S31520000FA04FF00003FB600EE07B681B687A6891684F
S31520000FB07A6812690A4412785A617B681B6903F1C0
S31520000FC001027B681A617B681B689B6803F4807347
S31520000FD0002B05D17B681A697B68DB689A42E3D3CC
S31520000FE07B681A697B68DB689A421CD30EE07B68B3
S31520000FF01B687A6851697A68D2690A4412785A61FC
S315200010007B68DB6903F101027B68DA617B681B6818
S315200010109B6803F48073002B05D17B68DA697B68B3
S315200010209B699A42E3D37B685B6A002B1FD07B685F
S315200010301A697B68DB689A4219D37B68DA697B6810
S315200010409B699A4213D308E07B681B684FF0000225
S315200010505A61FB6803F10103FB607B681B689B6890
S3152000106003F48073002B02D1FB681F2BECD907F108
S315200010701407BD4680BC704780B584B000AF786049
S315200010807B6893F88030022B15D10CE07B681B68B7
S315200010901B69FB607B685B6F002B04D07B685B6FF2
S315200010A0FA68104698477B681B689B6803F04003E4
S315200010B0002BEBD032E07B6893F88030012B25D1D2
S315200010C017E07B681B681B69FB607B681A6B7B6873
S315200010D0DB6A9A4207D27B689A6A7B681B6B134449
S315200010E0FA68D2B21A707B681B6B03F101027B6827
S315200010F01A637B681B689B6803F04003002BE0D0D3
S315200011000CE07B681B681B69FB6000E000BF7B6806
S315200011101B689B6803F04003002BF2D007F11007F1
S31520001120BD4680BD80B586B000AF78607B681B6801
S3152000113003F120033B617A6842F63C03C2F20003C6
S315200011409A4207D07A6842F2B873C2F200039A42F2
S3152000115000D000BE3B691B6803F00203002B52D06F
S315200011607B6893F88030022B15D10CE07B681B68D6
S315200011701B69FB607B685B6F002B04D07B685B6F11
S31520001180FA68104698477B681B689B6803F0400303
S31520001190002BEBD032E07B6893F88030012B25D1F1
S315200011A017E07B681B681B69FB607B681A6B7B6892
S315200011B0DB6A9A4207D27B689A6A7B681B6B134468
S315200011C0FA68D2B21A707B681B6B03F101027B6846
S315200011D01A637B681B689B6803F04003002BE0D0F2
S315200011E00CE07B681B681B69FB6000E000BF7B6826
S315200011F01B689B6803F04003002BF2D07B681B68BA
S315200012004FF00202DA603B691B6803F00103DBB290
S31520001210002B12D07B6893F88030022B05D17B6897
S315200012201B687A68926F5A6102E07868FFF7B4FE0D
S315200012307B681B684FF00102DA603B691B6803F08C
S315200012401003002B23D07868FFF716FF7B681B6AF4
S31520001250002B0BD07B681B6A7A68916A7A68126BBE
S315200012600846114698477868FFF796FE7B684FF048
S3152000127001025A627B681B687A681268926A22F0B9
S3152000128010029A627B681B684FF01002DA603B6995
S315200012901B6803F00403002B0FD07B681B687A6859
S315200012A01268D26A42F00402DA627868FFF7F2FB2B
S315200012B07B681B684FF00402DA603B691B6803F009
S315200012C00803002B31D07B681B687A681268D26AC3
S315200012D042F00802DA627B6893F88030022B13D141
S315200012E07B681A687B681B68196840F2FF03CFF693
S315200012F0007301EA030343F4807313607B681B6861
S315200013007A68926F5A610BE07B6893F88030012BE4
S3152000131006D17B684FF000021A617868FFF73CFE21
S315200013207B681B684FF00802DA603B691B6803F094
S315200013302003002B49D07868FFF79EFE7B681B6B45
S315200013407B617B681B6A002B1CD07B684FF00002F8
S315200013505A627B684FF000025A617B684FF00002A8
S315200013609A617B684FF00002DA617B681B684FF058
S315200013701002DA607B681B687A681268926A42F00B
S3152000138010029A627B684FF000021A617B681B6824
S315200013907A681268D26A42F00C02DA627868FFF73D
S315200013A0FBFD7B684FF000021A637B68DB6F002B26
S315200013B006D07B68DB6F7A68926A1046796998470F
S315200013C07B681B684FF02002DA6007F11807BD46DC
S315200013D080BD00BF684620F007018D4689B500AF65
S315200013E042F63C00C2F20000FFF79CFE4FF00C00D4
S315200013F0FFF798FABD46BDE889408546704700BF8D
S31520001400684620F007018D4689B500AF42F2B870D4
S31520001410C2F20000FFF786FE4FF00D00FFF782FABA
S31520001420BD46BDE889408546704700BF80B483B07D
S3152000143000AF0346FB804EF20013CEF20003B7F94D
S3152000144006204FEA5212F98801F01F014FF00100E1
S3152000145000FA01F102F1600243F8221007F10C07AD
S31520001460BD4680BC704700BF80B582B000AF42F257
S315200014700003CEF2040342F20002CEF20402126B03
S3152000148042F480421A634FF000037B600EE07A68D4
S3152000149042F27463C2F2000333F812301BB21846CC
S315200014A0FFF7C4FF7B6803F101037B607B681F2B7A
S315200014B0EDD942F20003CEF2040342F20002CEF24C
S315200014C00402126B22F480421A6307F10807BD4614
S315200014D080BD00BF80B485B000AF03463960FB7184
S315200014E0FB79FB60FB681F2B00D900BEFB681F2B16
S315200014F008D8FA6842F2F453C2F2000353F82230B5
S315200015003A681A6007F11407BD4680BC704700BFD1
S3152000151080B485B000AF02460B46FA71BB71FB79E9
S31520001520FB60FB681F2B00D900BEFB681F2B09D868
S3152000153040F20003C4F22623FA68B97902F58862DC
S3152000154043F8221007F11407BD4680BC704700BF40
S3152000155080B500AF00F002F900F008F880BD00BFAA
S3152000156080B400AFBD4680BC704700BF80B487B052
S3152000157000AF40F20003C4F20203D3F8C830FB6088
S3152000158040F20003C4F202034FF00002C3F8C82061
S315200015904FF00003FB7139E0FB794FEA53037B746C
S315200015A040F20002C4F20202797C0B464FEA430362
S315200015B00B444FEA0313134403F508731B79BB74DA
S315200015C0FB7903F00103FB74FB7C002B0DD0F9792A
S315200015D0BB7C4FEA5313DBB21A4602F0030242F2F7
S315200015E0A873C2F200035A540CE0F979BB7C4FEA87
S315200015F05303DBB21A4602F0030242F2A873C2F288
S3152000160000035A54FB7903F10103FB71FB79092B83
S31520001610C2D94FF00003BB6073E0BA6842F274731C
S31520001620C2F200034FEA021213441B79BB75BA7D3E
S3152000163042F22073C2F200039B5C3B75BA7D42F2F4
S31520001640F063C2F200039B5C012B07D0022B27D04C
S31520001650002B47D14FF00003FB7547E03B7DFF2B66
S3152000166000D100BE40F20002C4F20202397D0B46D0
S315200016704FEA43030B444FEA0313134403F508735D
S315200016801B7A7B757B7D03F00103DBB2002B03D035
S315200016904FF00003FB7529E04FF00103FB7525E0B1
S315200016A03B7DFF2B00D100BE40F20002C4F20202B5
S315200016B0397D0B464FEA43030B444FEA0313134489
S315200016C003F50A731B797B757B7D03F00103DBB27F
S315200016D0002B03D04FF00003FB7507E04FF0020309
S315200016E0FB7503E000BE4FF00003FB75BA6842F2BB
S315200016F0B473C2F20003F97D9954BB6803F1010368
S31520001700BB60BB68022B88DD40F20003C4F20203F3
S31520001710FA68C3F8C82007F11C07BD4680BC70478D
S3152000172080B483B000AF0346FB804EF20013CEF2A6
S315200017300003B7F906204FEA5212F98801F01F017B
S315200017404FF0010000FA01F102F1600243F8221085
S3152000175007F10C07BD4680BC704700BF80B400AFC0
S31520001760BD4680BC704700BF80B483B000AF03463F
S31520001770FB7107F10C07BD4680BC7047684620F018
S3152000178007018D4689B500AF4FF00000FFF7ECFF4B
S315200017904FF07600FFF7C4FFBD46BDE88940854679
S315200017A0704700BF684620F007018D4689B500AF17
S315200017B04FF00100FFF7D8FF4FF07700FFF7B0FF9B
S315200017C0BD46BDE889408546704700BF684620F083
S315200017D007018D4689B500AF4FF00200FFF7C4FF21
S315200017E04FF07800FFF79CFFBD46BDE8894085464F
S315200017F0704700BF684620F007018D4689B500AFC7
S315200018004FF00300FFF7B0FF4FF07900FFF788FF96
S31520001810BD46BDE889408546704700BF684620F032
S3152000182007018D4689B500AF4FF00400FFF79CFFF6
S315200018304FF07A00FFF774FFBD46BDE88940854624
S31520001840704700BF684620F007018D4689B500AF76
S315200018504FF00500FFF788FF4FF07B00FFF760FF92
S31520001860BD46BDE889408546704700BF684620F0E2
S3152000187007018D4689B500AF4FF00600FFF774FFCC
S315200018804FF07C00FFF74CFFBD46BDE889408546FA
S31520001890704700BF684620F007018D4689B500AF26
S315200018A04FF00700FFF760FF4FF07D00FFF738FF8E
S315200018B0BD46BDE889408546704700BF684620F092
S315200018C007018D4689B500AF4FF00800FFF74CFFA2
S315200018D04FF07E00FFF724FFBD46BDE889408546D0
S315200018E0704700BF684620F007018D4689B500AFD6
S315200018F04FF00900FFF738FF4FF07F00FFF710FF8A
S31520001900BD46BDE889408546704700BF684620F041
S3152000191007018D4689B500AF4FF00A00FFF724FF77
S315200019204FF08000FFF7FCFEBD46BDE889408546A6
S31520001930704700BF684620F007018D4689B500AF85
S315200019404FF00B00FFF710FF4FF08100FFF7E8FE86
S31520001950BD46BDE889408546704700BF684620F0F1
S3152000196007018D4689B500AF4FF00C00FFF7FCFE4E
S315200019704FF08200FFF7D4FEBD46BDE8894085467C
S31520001980704700BF684620F007018D4689B500AF35
S315200019904FF00D00FFF7E8FE4FF08300FFF7C0FE83
S315200019A0BD46BDE889408546704700BF684620F0A1
S315200019B007018D4689B500AF4FF00E00FFF7D4FE24
S315200019C04FF08400FFF7ACFEBD46BDE88940854652
S315200019D0704700BF684620F007018D4689B500AFE5
S315200019E04FF00F00FFF7C0FE4FF08500FFF798FE7F
S315200019F0BD46BDE889408546704700BF684620F051
S31520001A0007018D4689B500AF4FF01000FFF7ACFEF9
S31520001A104FF08600FFF784FEBD46BDE88940854627
S31520001A20704700BF684620F007018D4689B500AF94
S31520001A304FF01100FFF798FE4FF08700FFF770FE7A
S31520001A40BD46BDE889408546704700BF684620F000
S31520001A5007018D4689B500AF4FF01200FFF784FECF
S31520001A604FF08800FFF75CFEBD46BDE889408546FD
S31520001A70704700BF684620F007018D4689B500AF44
S31520001A804FF01300FFF770FE4FF08900FFF748FE76
S31520001A90BD46BDE889408546704700BF684620F0B0
S31520001AA007018D4689B500AF4FF01400FFF75CFEA5
S31520001AB04FF08A00FFF734FEBD46BDE889408546D3
S31520001AC0704700BF684620F007018D4689B500AFF4
S31520001AD04FF01500FFF748FE4FF08B00FFF720FE72
S31520001AE0BD46BDE889408546704700BF684620F060
S31520001AF007018D4689B500AF4FF01600FFF734FE7B
S31520001B004FF08C00FFF70CFEBD46BDE889408546A8
S31520001B10704700BF684620F007018D4689B500AFA3
S31520001B204FF01700FFF720FE4FF08D00FFF7F8FD6E
S31520001B30BD46BDE889408546704700BF684620F00F
S31520001B4007018D4689B500AF4FF01800FFF70CFE50
S31520001B504FF08E00FFF7E4FDBD46BDE8894085467F
S31520001B60704700BF684620F007018D4689B500AF53
S31520001B704FF01900FFF7F8FD4FF08F00FFF7D0FD6B
S31520001B80BD46BDE889408546704700BF684620F0BF
S31520001B9007018D4689B500AF4FF01A00FFF7E4FD27
S31520001BA04FF09000FFF7BCFDBD46BDE88940854655
S31520001BB0704700BF684620F007018D4689B500AF03
S31520001BC04FF01B00FFF7D0FD4FF09100FFF7A8FD67
S31520001BD0BD46BDE889408546704700BF684620F06F
S31520001BE007018D4689B500AF4FF01C00FFF7BCFDFD
S31520001BF04FF09200FFF794FDBD46BDE8894085462B
S31520001C00704700BF684620F007018D4689B500AFB2
S31520001C104FF01D00FFF7A8FD4FF09300FFF780FD62
S31520001C20BD46BDE889408546704700BF684620F01E
S31520001C3007018D4689B500AF4FF01E00FFF794FDD2
S31520001C404FF09400FFF76CFDBD46BDE88940854600
S31520001C50704700BF684620F007018D4689B500AF62
S31520001C604FF01F00FFF780FD4FF09500FFF758FD5E
S31520001C70BD46BDE889408546704700BF81F00041DA
S31520001C8002E000BF83F0004330B54FEA41044FEA3B
S31520001C90430594EA050F08BF90EA020F1FBF54EAD6
S31520001CA0000C55EA020C7FEA645C7FEA655C00F072
S31520001CB0E2804FEA5454D4EB5555B8BF6D420CDD43
S31520001CC02C4480EA020281EA030382EA000083EAC6
S31520001CD0010180EA020281EA0303362D88BF30BD66
S31520001CE011F0004F4FEA01314FF4801C4CEA1131BC
S31520001CF002D0404261EB410113F0004F4FEA03331B
S31520001D004CEA133302D0524263EB430394EA050FA5
S31520001D1000F0A780A4F10104D5F1200E0DDB02FA14
S31520001D200EFC22FA05F2801841F1000103FA0EF2A8
S31520001D30801843FA05F359410EE0A5F120050EF16E
S31520001D40200E012A03FA0EFC28BF4CF0020C43FA9F
S31520001D5005F3C01851EBE37101F0004507D54FF0AC
S31520001D60000EDCF1000C7EEB00006EEB0101B1F5FC
S31520001D70801F1BD3B1F5001F0CD349085FEA300042
S31520001D804FEA3C0C04F101044FEA445212F5800F4D
S31520001D9080F09A80BCF1004F08BF5FEA500C50F1EA
S31520001DA0000041EB045141EA050130BD5FEA4C0CCD
S31520001DB0404141EB010111F4801FA4F10104E9D156
S31520001DC091F0000F04BF01460020B1FA81F308BF4D
S31520001DD02033A3F10B03B3F120020CDA0C3208DD19
S31520001DE002F1140CC2F10C0201FA0CF021FA02F1F4
S31520001DF00CE002F11402D8BFC2F1200C01FA02F164
S31520001E0020FA0CFCDCBF41EA0C019040E41AA2BF88
S31520001E1001EB0451294330BD6FEA04041F3C1CDA50
S31520001E200C340EDC04F11404C4F1200220FA04F070
S31520001E3001FA02F340EA030021FA04F345EA03011A
S31520001E4030BDC4F10C04C4F1200220FA02F001FADC
S31520001E5004F340EA0300294630BD21FA04F029465E
S31520001E6030BD94F0000F83F4801306BF81F48011F7
S31520001E700134013D4EE77FEA645C18BF7FEA655C6A
S31520001E8029D094EA050F08BF90EA020F05D054EA3C
S31520001E90000C04BF1946104630BD91EA030F1EBF41
S31520001EA00021002030BD5FEA545C05D14000494145
S31520001EB028BF41F0004130BD14F580043CBF01F538
S31520001EC0801130BD01F0004545F0FE4141F470011E
S31520001ED04FF0000030BD7FEA645C1ABF19461046F9
S31520001EE07FEA655C1CBF0B46024650EA013406BFFA
S31520001EF052EA033591EA030F41F4002130BD00BFB9
S31520001F0090F0000F04BF0021704730B54FF4806475
S31520001F1004F132044FF000054FF0000150E700BFF6
S31520001F2090F0000F04BF0021704730B54FF4806455
S31520001F3004F1320410F0004548BF40424FF0000142
S31520001F403EE700BF42004FEAE2014FEA31014FEA85
S31520001F5002701FBF12F07F4393F07F4F81F06051D4
S31520001F60704792F0000F14BF93F07F4F704730B543
S31520001F704FF4607401F0004521F0004120E700BFD6
S31520001F8050EA010208BF704730B54FF000050AE05D
S31520001F9050EA010208BF704730B511F0004502D55E
S31520001FA0404261EB41014FF4806404F132045FEA60
S31520001FB0915C3FF4DCAE4FF003025FEADC0C18BF05
S31520001FC003325FEADC0C18BF033202EBDC02C2F1FB
S31520001FD0200300FA03FC20FA02F001FA03FE40EA8D
S31520001FE00E0021FA02F11444C1E600BF70B54FF08D
S31520001FF0FF0C4CF4E06C1CEA11541DBF1CEA13556F
S3152000200094EA0C0F95EA0C0F00F0DEF82C4481EAD6
S31520002010030621EA4C5123EA4C5350EA013518BFF6
S3152000202052EA033541F4801143F4801338D0A0FBE3
S3152000203002CE4FF00005E1FB02E506F00042E0FB90
S3152000204003E54FF00006E1FB03569CF0000F18BF96
S315200020504EF0010EA4F1FF04B6F5007F64F540743E
S3152000206004D25FEA4E0E6D4146EB060642EAC621D1
S3152000207041EA55514FEAC52040EA5E504FEACE2E3E
S31520002080B4F1FD0C88BFBCF5E06F1ED8BEF1004F41
S3152000209008BF5FEA500E50F1000041EB045170BDBD
S315200020A006F0004646EA010140EA020081EA030101
S315200020B0B4EB5C04C2BFD4EB0C0541EA045170BDFD
S315200020C041F480114FF0000E013C00F3AB8014F177
S315200020D0360FDEBF002001F0004170BDC4F10004C0
S315200020E0203C35DA0C341BDC04F11404C4F1200541
S315200020F000FA05F320FA04F001FA05F240EA02009C
S3152000210001F0004221F0004110EBD37021FA04F6D1
S3152000211042EB06015EEA430E08BF20EAD37070BD8B
S31520002120C4F10C04C4F1200500FA04F320FA05F0EA
S3152000213001FA04F240EA020001F0004110EBD370EC
S3152000214041F100015EEA430E08BF20EAD37070BD5C
S31520002150C4F1200500FA05F24EEA020E20FA04F335
S3152000216001FA05F243EA020321FA04F001F00041E4
S3152000217021FA04F220EA020000EBD3705EEA430E55
S3152000218008BF20EAD37070BD94F0000F0FD101F084
S315200021900046400041EB010111F4801F08BF013CBD
S315200021A0F7D041EA060195F0000F18BF704703F0FB
S315200021B00046520043EB030313F4801F08BF013D82
S315200021C0F7D043EA0603704794EA0C0F0CEA13553E
S315200021D018BF95EA0C0F0CD050EA410618BF52EAF8
S315200021E04306D1D181EA030101F000414FF00000FE
S315200021F070BD50EA410606BF1046194652EA43060C
S3152000220019D094EA0C0F02D150EA013613D195EA7F
S315200022100C0F05D152EA03361CBF104619460AD1C7
S3152000222081EA030101F0004141F0FE4141F47001D1
S315200022304FF0000070BD41F0FE4141F4780170BDC1
S3152000224070B54FF0FF0C4CF4E06C1CEA11541DBF26
S315200022501CEA135594EA0C0F95EA0C0F00F0A7F828
S31520002260A4EB050481EA030E52EA03354FEA013155
S3152000227000F088804FEA03334FF0805545EA131368
S3152000228043EA12634FEA022245EA111545EA106530
S315200022904FEA00260EF000419D4208BF964244F1C7
S315200022A0FD0404F5407402D25B084FEA3202B61AE6
S315200022B065EB03055B084FEA32024FF480104FF4BA
S315200022C0002CB6EB020E75EB030E22BFB61A75462E
S315200022D040EA0C005B084FEA3202B6EB020E75EBC1
S315200022E0030E22BFB61A754640EA5C005B084FEA29
S315200022F03202B6EB020E75EB030E22BFB61A7546F6
S3152000230040EA9C005B084FEA3202B6EB020E75EB00
S31520002310030E22BFB61A754640EADC0055EA060EC1
S3152000232018D04FEA051545EA16754FEA06164FEA04
S31520002330C30343EA52734FEAC2025FEA1C1CC0D1B0
S3152000234011F4801F0BD141EA00014FF000004FF03D
S31520002350004CB6E711F4801F04BF01430020B4F1FE
S31520002360FD0C88BFBCF5E06F3FF6AFAEB5EB030CB6
S3152000237004BFB6EB020C5FEA500C50F1000041EBB3
S31520002380045170BD0EF0004E4EEA113114EB5C0480
S31520002390C2BFD4EB0C0541EA045170BD41F4801153
S315200023A04FF0000E013C90E645EA060E8DE60CEA5B
S315200023B0135594EA0C0F08BF95EA0C0F3FF43BAF78
S315200023C094EA0C0F0AD150EA01347FF434AF95EA2F
S315200023D00C0F7FF425AF104619462CE795EA0C0F13
S315200023E006D152EA03353FF4FDAE1046194622E7E0
S315200023F050EA410618BF52EA43067FF4C5AE50EABA
S3152000240041047FF40DAF52EA43057FF4EBAE12E7A9
S315200024104FEA410212F5001215D211D56FF47873E6
S31520002420B3EB625212D94FEAC12343F0004343EA89
S31520002430505311F0004F23FA02F018BF4042704764
S315200024404FF00000704750EA013005D111F00040EE
S3152000245008BF6FF0004070474FF00000704700BF84
S3152000246070B542F2687642F26875C2F20006C2F290
S315200024700005761BB61006D0002455F8243001340A
S315200024809847A642F9D842F2687542F26C76C2F2B3
S315200024900005C2F20006761B00F05AF9B61006D0E7
S315200024A0002455F8243001349847A642F9D870BD47
S315200024B0032AC9B230B407D822B10023C15401334C
S315200024C09342FBD130BC704700EB020C034601E07F
S315200024D003F8011C03F003041A460133002CF7D13C
S315200024E04FF00133C2EB0C0403FB01F31FE042F86B
S315200024F0403C42F83C3C42F8383C42F8343C42F8F6
S31520002500303C42F82C3C42F8283C42F8243C42F825
S31520002510203C42F81C3C42F8183C42F8143C42F855
S31520002520103C42F80C3C42F8083C42F8043C154664
S3152000253040323F2CA4F14004D9DC2A46C5EB0C04DA
S3152000254007E042F8103C42F80C3C42F8083C42F8BE
S31520002550043C154610320F2CA4F11004F1DC2A4657
S31520002560C5EB0C0501E042F8043C14460432032D69
S31520002570A5F10405F7DC01E004F8011B6445FBD353
S31520002580A0E700BFEF03038002CF0300C130ED04B4
S3152000259064031281E803850078CB05392C003402C8
S315200025A0F70120EA020000C00123C10110C5023E46
S315200025B028C701863601483701003A0155B1020085
S315200025C018B603088227F20100260101E00F0F3119
S315200025D02B0C0E084EF1370710030E0900E10F00F1
S315200025E00E1403110731C148080F0C31360F118024
S315200025F029800000003001400430014008300140AD
S315200026000C30014010300140143001401830014098
S315200026101C30014020300140243001402830014048
S315200026202C300140303001403430014038300140F8
S315200026303C300140403001404430014048300140A8
S315200026404C30014050300140543001405830014058
S315200026505C30014060300140643001406830014008
S315200026606C300140703001407430014078300140B8
S315200026707C30014020002100220023002400250078
S3152000268026002700280029002A002B002C002D00D8
S315200026902E002F0030003100320033003400350088
S315200026A036003700380039003A003B003C003D0038
S315200026B03E003F00414443446972656374496E702D
S315200026C075745F32000000004144434469726563BB
S315200026D074496E7075745F330000000041444344B2
S315200026E06972656374496E7075745F34000000000A
S315200026F000000001020000010200000000FFFF00B0
S3152000270000000001020000010200000000FFFF009F
S315200027100000000102FFFFFFFF00000000FFFF0096
S31520002720FF0000000001010101FFFFFFFFFFFFFF87
S31520002730FF0202020203030303FFFFFFFFFFFFFF67
S31520002740FF04040404FFFFFFFFFFFFFFFFFFFFFF5F
S31520002750F8B500BFF8BC08BC9E467047F8B500BF68
S31520002760F8BC08BC9E4670478504002071040020F2
S3152000277000000000B42600200B001000000000001E
S3152000278000000000C82600200C00190000000000F0
S3152000279000000000DC2600201900220000000000B6
S309200027A0000000000F
S705200002993F
