S02800005768697465426F6172645F506C6F747465725F4D53535F434D335F305F6170702E7372656327
S315200000000000012099020020090300200B03002094
S315200000100D0300200F030020110300200000000024
S315200000200000000000000000000000001303002074
S3152000003015030020000000001703002019030020EC
S315200000401B0300201D0300201F0300202103002086
S315200000502303002025030020270300202903002056
S315200000602B0300202D030020390B0020650B0020D8
S3152000007033030020350300203703002039030020F6
S315200000803B0300203D0300203F03002041030020C6
S31520000090190700204D0700204703002049030020B0
S315200000A04B030020000000000000000000000000BC
S315200000B00000000000000000000000004D030020AA
S315200000C04F03002051030020530300205503002036
S315200000D057030020590300205B0300205D03002006
S315200000E05F030020610300206303002065030020D6
S315200000F067030020690300206B0300206D030020A6
S315200001006F03002071030020730300207503002075
S3152000011077030020790300207B0300207D03002045
S315200001207F03002081030020830300208503002015
S3152000013087030020890300208B0300208D030020E5
S315200001408F030020910300209303002095030020B5
S3152000015097030020990300209B0300209D03002085
S315200001609F030020A1030020A3030020A503002055
S31520000170A7030020A9030020AB030020AD03002025
S31520000180AF030020B1030020B3030020B5030020F5
S31520000190B7030020B9030020BB030020BD030020C5
S315200001A0BF030020C1030020C3030020C503002095
S315200001B0C7030020C9030020CB030020CD03002065
S315200001C0CF030020D1030020D3030020D503002035
S315200001D0D7030020D9030020DB030020DD03002005
S315200001E0DF030020E1030020E3030020E5030020D5
S315200001F0E7030020E9030020EB030020ED030020A5
S31520000200EF030020F1030020F3030020F503002074
S31520000210F7030020F9030020FB030020FD03002044
S31520000220FF03002001040020030400200504002011
S3152000023007040020090400200B0400200D040020E0
S315200002400F040020110400201304002015040020B0
S3152000025017040020190400201B0400201D04002080
S315200002601F04002021040020230400202504002050
S3152000027027040020290400202B0400202D04002020
S315200002802F040020310400203304002035040020F0
S315200002903704002039040020684880476848002831
S315200002A00BD168486849694A884206D091421CBFEA
S315200002B050F8043B41F8043BF8D165486549664A45
S315200002C0884206D091421CBF50F8043B41F8043BBB
S315200002D0F8D162486249634A914218BF41F8040B3B
S315200002E0FAD100000000000000000000000000001D
S315200002F0DFF874010FF2030E00474FF000004FF0B5
S315200003000001DFF868F1FEE7FEE7FEE7FEE7FEE71D
S31520000310FEE7FEE7FEE7FEE7FEE7FEE7FEE7FEE78F
S31520000320FEE7FEE7FEE7FEE7FEE7FEE7FEE7FEE77F
S31520000330FEE7FEE7FEE7FEE7FEE7FEE7FEE7FEE76F
S31520000340FEE7FEE7FEE7FEE7FEE7FEE7FEE7FEE75F
S31520000350FEE7FEE7FEE7FEE7FEE7FEE7FEE7FEE74F
S31520000360FEE7FEE7FEE7FEE7FEE7FEE7FEE7FEE73F
S31520000370FEE7FEE7FEE7FEE7FEE7FEE7FEE7FEE72F
S31520000380FEE7FEE7FEE7FEE7FEE7FEE7FEE7FEE71F
S31520000390FEE7FEE7FEE7FEE7FEE7FEE7FEE7FEE70F
S315200003A0FEE7FEE7FEE7FEE7FEE7FEE7FEE7FEE7FF
S315200003B0FEE7FEE7FEE7FEE7FEE7FEE7FEE7FEE7EF
S315200003C0FEE7FEE7FEE7FEE7FEE7FEE7FEE7FEE7DF
S315200003D0FEE7FEE7FEE7FEE7FEE7FEE7FEE7FEE7CF
S315200003E0FEE7FEE7FEE7FEE7FEE7FEE7FEE7FEE7BF
S315200003F0FEE7FEE7FEE7FEE7FEE7FEE7FEE7FEE7AF
S31520000400FEE7FEE7FEE7FEE7FEE7FEE7FEE7FEE79E
S31520000410FEE7FEE7FEE7FEE7FEE7FEE7FEE7FEE78E
S31520000420FEE7FEE7FEE7FEE7FEE7FEE7FEE7FEE77E
S31520000430FEE7FEE7FEE7FEE7FEE70000910B002061
S31520000440000000000000002000000020B01700205F
S31520000450B0170020B0170020B818002000000000B8
S31520000460B8180020782200208D14002009090020C9
S3152000047041F6B803C2F200031A780AB901201870AF
S31520000480704700BF41F2B070C2F2000008B50368A1
S315200004902BB140F20003C0F2000303B1984708BD18
S315200004A080B483B000AF0346FB804EF20013CEF239
S315200004B00003B7F906204FEA5212F98801F01F010E
S315200004C04FF0010000FA01F143F8221007F10C0762
S315200004D0BD4680BC704700BF80B400AF40F2000329
S315200004E0C4F20A234FF00102C3F88021BD4680BC26
S315200004F0704700BF80B483B000AF786045F2000338
S31520000500C4F200037A685A6007F10C07BD4680BC26
S31520000510704700BF80B500AF40F20003C4F20A2343
S315200005204FF00102C3F888214FF01400FFF7B8FFFF
S3152000053080BD00BF80B400AF45F20003C4F20003C3
S315200005404FF001021A61BFF34F8FBD4680BC704742
S3152000055080B400AF40F20003C4F20A234FF0010238
S31520000560C3F88024BD4680BC704700BF80B483B0EA
S3152000057000AF786045F20003C4F200037A68DA61BE
S3152000058007F10C07BD4680BC704700BF80B500AFA1
S3152000059040F20003C4F20A234FF00102C3F8882474
S315200005A04FF01500FFF77CFF80BD00BF80B400AF81
S315200005B045F20003C4F200034FF001029A62BFF332
S315200005C04F8FBD4680BC704780B582B000AF786043
S315200005D078684FF0000100F0D5F97B68022B17D11F
S315200005E042F22023C2F20003D3E900231046194623
S315200005F01DA3D3E9002300F0D7FA02460B46104686
S31520000600194642F22023C2F20003C3E9000119E091
S315200006107B68012B16D142F22023C2F20003D3E9D4
S3152000062000231046194610A3D3E9002300F0BAFA96
S3152000063002460B461046194642F22023C2F2000318
S31520000640C3E9000142F20823C2F200031B6803F14A
S31520000650010242F20823C2F200031A6007F10807DA
S31520000660BD4680BDAFF30080DBF97E6ABC74533F84
S3152000067080B582B000AF78604FF00000796800F056
S3152000068081F97B68012B17D141F60813C2F20003CA
S31520000690D3E90023104619461DA3D3E9002300F011
S315200006A083FA02460B461046194641F60813C2F253
S315200006B00003C3E9000119E07B68022B16D141F63D
S315200006C00813C2F20003D3E900231046194610A3EB
S315200006D0D3E9002300F066FA02460B461046194677
S315200006E041F60813C2F20003C3E9000142F20823CF
S315200006F0C2F200031B6803F1010242F20823C2F290
S3152000070000031A6007F10807BD4680BDAFF30080DD
S31520000710DBF97E6ABC74533F80B500AF41F2B473F7
S31520000720C2F200031B681846FFF74EFFFFF702FFD1
S3152000073041F2BC73C2F200031B681846FFF7DAFECB
S31520000740FFF7CAFEFFF7E6FE80BD00BF80B500AF0B
S3152000075041F2B873C2F200031B681846FFF788FF00
S31520000760FFF724FF41F2BC73C2F200031B68184650
S3152000077000F066FB42F21023C2F20003D3E9002305
S3152000078000F0C4FB02460B461046194600F058FE00
S3152000079003461846FFF7EAFEFFF7DAFEFFF7F6FEF6
S315200007A080BD00BFB0B584B000AFC7E90201C7E97C
S315200007B0002342F20023C2F20003D7E90201C3E973
S315200007C0000141F60013C2F20003D7E90001C3E994
S315200007D0000141F60013C2F20003D3E900231046BC
S315200007E019464FF000024FF0804300F0B9FC024654
S315200007F00B461046194642F21823C2F20003C3E9FB
S31520000800000142F20023C2F20003D3E9002310467E
S3152000081019464FF000024FF0804300F0A1FC02463B
S315200008200B461046194641F61013C2F20003C3E9DF
S31520000830000142F21823C2F20003D3E90023104636
S31520000840194600F063FB02460B4614461D4641F648
S315200008501013C2F20003D3E900231046194600F014
S3152000086055FB02460B462046294600F09DF90246D6
S315200008700B461046194600F031FE42F22023C2F202
S315200008800003C3E9000141F60013C2F20003D3E9D5
S31520000890000142F21823C2F20003D3E9002300F03C
S315200008A081F902460B461046194600F02FFB0246F8
S315200008B00B4614461D4641F61013C2F20003D3E937
S315200008C000231046194600F021FB02460B4620461F
S315200008D0294600F069F902460B461046194600F0F3
S315200008E0FDFD41F60813C2F20003C3E9000142F2FE
S315200008F00823C2F200034FF000021A6007F1100726
S31520000900BD46B0BD0000000080B500AF4FF0070027
S315200009104FF0070100F024F805A1D1E9000106A354
S31520000920D3E90023FFF73EFF4FF00003184680BDB2
S315200009300000000000804C400000000000405540B0
S3152000094080B483B000AF786043F20003C4F20103A1
S315200009507A68C3F8882007F10C07BD4680BC70472B
S3152000096080B582B000AF786039603B684FEAC30239
S315200009707B6842EA03031846FFF7E2FF07F1080700
S31520000980BD4680BD80B485B000AF786039604FF039
S315200009900003FB607B68002B08D07B6803F1FF33E4
S315200009A043F00403FA6842EA0303FB603B68002B2A
S315200009B00AD03B6803F1FF334FEA430343F00803B1
S315200009C0FA6842EA0303FB6040F20003C4F205031F
S315200009D0FA681A6007F11407BD4680BC704700BF4D
S315200009E080B483B000AF0346FB804EF20013CEF2F4
S315200009F00003B7F906204FEA5212F98801F01F01C9
S31520000A004FF0010000FA01F102F1600243F82210D2
S31520000A1007F10C07BD4680BC704700BF80B584B087
S31520000A2000AF78607A6842F25023C2F200039A42FD
S31520000A3007D07A6842F22823C2F200039A4200D0F5
S31520000A4000BE7A6842F25023C2F200039A4206D0D0
S31520000A507A6842F22823C2F200039A4267D17B6861
S31520000A601B681B7ADBB203F00F03FB73FB7B0C2B9B
S31520000A7054D801A252F823F0AD0A00201D0B002005
S31520000A80C90A00201D0B0020E50A00201D0B0020AE
S31520000A90010B00201D0B00201D0B00201D0B00202C
S31520000AA01D0B00201D0B0020E50A00207B685B6AD9
S31520000AB0002B00D100BE7B685B6A002B30D07B68A0
S31520000AC05B6A7868984732E07B681B6A002B00D106
S31520000AD000BE7B681B6A002B24D07B681B6A786863
S31520000AE0984724E07B68DB69002B00D100BE7B6839
S31520000AF0DB69002B18D07B68DB697868984716E09D
S31520000B007B689B69002B00D100BE7B689B69002B0C
S31520000B100CD07B689B697868984708E000BE06E0A1
S31520000B2000BF04E000BF02E000BF00E000BF07F105
S31520000B301007BD4680BD00BF684620F007018D46E0
S31520000B4089B500AF42F25020C2F20000FFF766FFDF
S31520000B504FF00A00FFF744FFBD46BDE889408546B1
S31520000B60704700BF684620F007018D4689B500AF63
S31520000B7042F22820C2F20000FFF750FF4FF00B0090
S31520000B80FFF72EFFBD46BDE889408546704700BF6A
S31520000B9080B400AFBD4680BC704700BF81F00041E5
S31520000BA002E000BF83F0004330B54FEA41044FEA2C
S31520000BB0430594EA050F08BF90EA020F1FBF54EAC7
S31520000BC0000C55EA020C7FEA645C7FEA655C00F063
S31520000BD0E2804FEA5454D4EB5555B8BF6D420CDD34
S31520000BE02C4480EA020281EA030382EA000083EAB7
S31520000BF0010180EA020281EA0303362D88BF30BD57
S31520000C0011F0004F4FEA01314FF4801C4CEA1131AC
S31520000C1002D0404261EB410113F0004F4FEA03330B
S31520000C204CEA133302D0524263EB430394EA050F96
S31520000C3000F0A780A4F10104D5F1200E0DDB02FA05
S31520000C400EFC22FA05F2801841F1000103FA0EF299
S31520000C50801843FA05F359410EE0A5F120050EF15F
S31520000C60200E012A03FA0EFC28BF4CF0020C43FA90
S31520000C7005F3C01851EBE37101F0004507D54FF09D
S31520000C80000EDCF1000C7EEB00006EEB0101B1F5ED
S31520000C90801F1BD3B1F5001F0CD349085FEA300033
S31520000CA04FEA3C0C04F101044FEA445212F5800F3E
S31520000CB080F09A80BCF1004F08BF5FEA500C50F1DB
S31520000CC0000041EB045141EA050130BD5FEA4C0CBE
S31520000CD0404141EB010111F4801FA4F10104E9D147
S31520000CE091F0000F04BF01460020B1FA81F308BF3E
S31520000CF02033A3F10B03B3F120020CDA0C3208DD0A
S31520000D0002F1140CC2F10C0201FA0CF021FA02F1E4
S31520000D100CE002F11402D8BFC2F1200C01FA02F154
S31520000D2020FA0CFCDCBF41EA0C019040E41AA2BF79
S31520000D3001EB0451294330BD6FEA04041F3C1CDA41
S31520000D400C340EDC04F11404C4F1200220FA04F061
S31520000D5001FA02F340EA030021FA04F345EA03010B
S31520000D6030BDC4F10C04C4F1200220FA02F001FACD
S31520000D7004F340EA0300294630BD21FA04F029464F
S31520000D8030BD94F0000F83F4801306BF81F48011E8
S31520000D900134013D4EE77FEA645C18BF7FEA655C5B
S31520000DA029D094EA050F08BF90EA020F05D054EA2D
S31520000DB0000C04BF1946104630BD91EA030F1EBF32
S31520000DC00021002030BD5FEA545C05D14000494136
S31520000DD028BF41F0004130BD14F580043CBF01F529
S31520000DE0801130BD01F0004545F0FE4141F470010F
S31520000DF04FF0000030BD7FEA645C1ABF19461046EA
S31520000E007FEA655C1CBF0B46024650EA013406BFEA
S31520000E1052EA033591EA030F41F4002130BD00BFA9
S31520000E2090F0000F04BF0021704730B54FF4806466
S31520000E3004F132044FF000054FF0000150E700BFE7
S31520000E4090F0000F04BF0021704730B54FF4806446
S31520000E5004F1320410F0004548BF40424FF0000133
S31520000E603EE700BF42004FEAE2014FEA31014FEA76
S31520000E7002701FBF12F07F4393F07F4F81F06051C5
S31520000E80704792F0000F14BF93F07F4F704730B534
S31520000E904FF4607401F0004521F0004120E700BFC7
S31520000EA050EA010208BF704730B54FF000050AE04E
S31520000EB050EA010208BF704730B511F0004502D54F
S31520000EC0404261EB41014FF4806404F132045FEA51
S31520000ED0915C3FF4DCAE4FF003025FEADC0C18BFF6
S31520000EE003325FEADC0C18BF033202EBDC02C2F1EC
S31520000EF0200300FA03FC20FA02F001FA03FE40EA7E
S31520000F000E0021FA02F11444C1E600BF70B54FF07D
S31520000F10FF0C4CF4E06C1CEA11541DBF1CEA13555F
S31520000F2094EA0C0F95EA0C0F00F0DEF82C4481EAC7
S31520000F30030621EA4C5123EA4C5350EA013518BFE7
S31520000F4052EA033541F4801143F4801338D0A0FBD4
S31520000F5002CE4FF00005E1FB02E506F00042E0FB81
S31520000F6003E54FF00006E1FB03569CF0000F18BF87
S31520000F704EF0010EA4F1FF04B6F5007F64F540742F
S31520000F8004D25FEA4E0E6D4146EB060642EAC621C2
S31520000F9041EA55514FEAC52040EA5E504FEACE2E2F
S31520000FA0B4F1FD0C88BFBCF5E06F1ED8BEF1004F32
S31520000FB008BF5FEA500E50F1000041EB045170BDAE
S31520000FC006F0004646EA010140EA020081EA0301F2
S31520000FD0B4EB5C04C2BFD4EB0C0541EA045170BDEE
S31520000FE041F480114FF0000E013C00F3AB8014F168
S31520000FF0360FDEBF002001F0004170BDC4F10004B1
S31520001000203C35DA0C341BDC04F11404C4F1200531
S3152000101000FA05F320FA04F001FA05F240EA02008C
S3152000102001F0004221F0004110EBD37021FA04F6C2
S3152000103042EB06015EEA430E08BF20EAD37070BD7C
S31520001040C4F10C04C4F1200500FA04F320FA05F0DB
S3152000105001FA04F240EA020001F0004110EBD370DD
S3152000106041F100015EEA430E08BF20EAD37070BD4D
S31520001070C4F1200500FA05F24EEA020E20FA04F326
S3152000108001FA05F243EA020321FA04F001F00041D5
S3152000109021FA04F220EA020000EBD3705EEA430E46
S315200010A008BF20EAD37070BD94F0000F0FD101F075
S315200010B00046400041EB010111F4801F08BF013CAE
S315200010C0F7D041EA060195F0000F18BF704703F0EC
S315200010D00046520043EB030313F4801F08BF013D73
S315200010E0F7D043EA0603704794EA0C0F0CEA13552F
S315200010F018BF95EA0C0F0CD050EA410618BF52EAE9
S315200011004306D1D181EA030101F000414FF00000EE
S3152000111070BD50EA410606BF1046194652EA4306FC
S3152000112019D094EA0C0F02D150EA013613D195EA70
S315200011300C0F05D152EA03361CBF104619460AD1B8
S3152000114081EA030101F0004141F0FE4141F47001C2
S315200011504FF0000070BD41F0FE4141F4780170BDB2
S3152000116070B54FF0FF0C4CF4E06C1CEA11541DBF17
S315200011701CEA135594EA0C0F95EA0C0F00F0A7F819
S31520001180A4EB050481EA030E52EA03354FEA013146
S3152000119000F088804FEA03334FF0805545EA131359
S315200011A043EA12634FEA022245EA111545EA106521
S315200011B04FEA00260EF000419D4208BF964244F1B8
S315200011C0FD0404F5407402D25B084FEA3202B61AD7
S315200011D065EB03055B084FEA32024FF480104FF4AB
S315200011E0002CB6EB020E75EB030E22BFB61A75461F
S315200011F040EA0C005B084FEA3202B6EB020E75EBB2
S31520001200030E22BFB61A754640EA5C005B084FEA19
S315200012103202B6EB020E75EB030E22BFB61A7546E6
S3152000122040EA9C005B084FEA3202B6EB020E75EBF1
S31520001230030E22BFB61A754640EADC0055EA060EB2
S3152000124018D04FEA051545EA16754FEA06164FEAF5
S31520001250C30343EA52734FEAC2025FEA1C1CC0D1A1
S3152000126011F4801F0BD141EA00014FF000004FF02E
S31520001270004CB6E711F4801F04BF01430020B4F1EF
S31520001280FD0C88BFBCF5E06F3FF6AFAEB5EB030CA7
S3152000129004BFB6EB020C5FEA500C50F1000041EBA4
S315200012A0045170BD0EF0004E4EEA113114EB5C0471
S315200012B0C2BFD4EB0C0541EA045170BD41F4801144
S315200012C04FF0000E013C90E645EA060E8DE60CEA4C
S315200012D0135594EA0C0F08BF95EA0C0F3FF43BAF69
S315200012E094EA0C0F0AD150EA01347FF434AF95EA20
S315200012F00C0F7FF425AF104619462CE795EA0C0F04
S3152000130006D152EA03353FF4FDAE1046194622E7D0
S3152000131050EA410618BF52EA43067FF4C5AE50EAAA
S3152000132041047FF40DAF52EA43057FF4EBAE12E79A
S315200013304FF0FF3C06E000BF4FF0010C02E000BF7B
S315200013404FF0010C4DF804CD4FEA410C7FEA6C5C5E
S315200013504FEA430C18BF7FEA6C5C1BD001B050EA01
S31520001360410C0CBF52EA430C91EA030F02BF90EAEC
S31520001370020F0020704710F1000F91EA030F58BFAB
S31520001380994208BF90422CBFD8176FEAE37040F00D
S31520001390010070474FEA410C7FEA6C5C02D150EAAB
S315200013A0013C07D14FEA430C7FEA6C5CD6D152EA66
S315200013B0033CD3D05DF8040B704700BF844610462B
S315200013C062468C461946634600E000BF01B5FFF72A
S315200013D0B7FF002848BF10F1000F01BD4DF808EDFA
S315200013E0FFF7F4FF0CBF012000205DF808FB00BFCB
S315200013F04DF808EDFFF7EAFF34BF012000205DF825
S3152000140008FB00BF4DF808EDFFF7E0FF94BF012071
S3152000141000205DF808FB00BF4DF808EDFFF7CEFF72
S3152000142094BF012000205DF808FB00BF4DF808EDB1
S31520001430FFF7C4FF34BF012000205DF808FB00BF82
S315200014404A0011D212F5001211D20DD56FF478731D
S31520001450B3EB62520ED44FEAC12343F0004343EA72
S31520001460505323FA02F070474FF00000704750EABD
S31520001470013002D14FF0FF3070474FF00000704727
S3152000148041F2C073C2F200031868704770B541F28A
S31520001490A87641F2A875C2F20006C2F20005761BB4
S315200014A0B61006D0002455F8243001349847A642B9
S315200014B0F9D841F2A87541F2AC76C2F20005C2F223
S315200014C00006761B00F064F9B61006D0002455F805
S315200014D0243001349847A642F9D870BD2DE9F04F43
S315200014E08BB006460F4600F04FF841F6B404C2F220
S315200014F0000494F90030B3F1FF3F8046894631D08D
S315200015003046394600F02EF9054600282AD14FF0FC
S31520001510000A4FF0000B3046394652465B46FFF72D
S3152000152067FFF8B1247841F28873C2F20003089568
S3152000153001930123CDE902670093CDE90467B4B195
S315200015405046594652465B46FFF70AFE022CCDE925
S3152000155006010ED1FFF794FF21230360089B73B980
S31520001560DDE90689404649460BB0BDE8F08FCDE956
S3152000157006AB684600F004F90028EFD1EAE7FFF74A
S315200015807FFF089B0360EBE740F2000C0B46C7F693
S31520001590F07C02462DE9F047664601EA0C0C04462B
S315200015A0B4450D468046894600F0BE80002940F3AA
S315200015B08C805FEA215800F09680A8F57E7823F08B
S315200015C07F43A8F1070823F4700318F0010F43F4B2
S315200015D080136AD1D10F4FF0000C01EB4303520068
S315200015E0654660464FF400114418D60F52009C42BF
S315200015F00CF1010C02DC1B1B6D1860184908BCF1AC
S31520001600160F06EB4303EFD100244FF00041A2460C
S31520001610264613E0834214BF0027012794458CBF3A
S31520001620002707F001076FB9013407464908D00F94
S315200016305200202C00EB43031BD03846984201EB86
S31520001640060CE7DA0CF000470CEB0106B7F1004F69
S3152000165027D007461B1A9445CCEB020288BF013BD4
S3152000166001348A44D00F49085200202C00EB430352
S31520001670E3D113431ED14FEA5A0A4FEA680115F007
S31520001680010F18BF4AF0004A0905544601F17E5160
S3152000169001F5C00101EB65031D4620462946BDE83C
S315200016A0F087002ED5DB471CD4E7D10F520001EB83
S315200016B043038FE7BAF1FF3F1CBF0AF001039A44A8
S315200016C0D9D101354FF0000AD7E721F0004C5CEA6A
S315200016D0000CE2D000293AD18846D30AA8F1150891
S315200016E05205002BF9D013F480112DD15B00013166
S315200016F013F4801FFAD0C1F1200008F1010832FA54
S3152000170000F0C1EB08080343A8F57E788A40A8F1CB
S31520001710070823F07F4318F0010F23F4700343F4E6
S3152000172080133FF457AFC0E702460B46FFF7EEFBA8
S3152000173002460B4620462946FFF736FA04460D4652
S3152000174020462946BDE8F08720200021D5E702461D
S315200017500B46FFF727FA02460B46FFF701FD044624
S315200017600D469AE702464042104321F0004141EAE5
S31520001770D070C0F1FE4000F57000C00F704700BF6A
S31520001780002070474300000073717274000000004F
S31520001790F8B500BFF8BC08BC9E467047F8B500BF38
S315200017A0F8BC08BC9E4670478504002071040020C2
S315200017B0000000000100000002000000A0860100D9
S315200017C0C4170020000000000000000000000000F8
S315200017D000000000000000000000000000000000E3
S315200017E00000000084170020000000000000000018
S315200017F000000000000000000000000000000000C3
S3152000180000000000000000000000000000000000B2
S3152000181000000000000000000000000000000000A2
S315200018200000000000000000000000000000000092
S315200018300000000000000000000000000000000082
S315200018400000000000000000000000000000000072
S315200018500000000000000000000000000000000062
S315200018600000000000000000000000000000000052
S315200018700000000000000000000000000000000042
S315200018800000000000000000000000000000000032
S315200018900000000000000000000000000000000022
S315200018A00000000000000000000000000000000012
S30D200018B0000000000100000009
S705200002993F
