:020000042000DA
:100000000000012099020020090300200B030020BA
:100010000D0300200F03002011030020000000004A
:10002000000000000000000000000000130300209A
:100030001503002000000000170300201903002012
:100040001B0300201D0300201F03002021030020AC
:10005000230300202503002027030020290300207C
:100060002B0300202D030020F5590020215A0020E9
:10007000330300203503002037030020390300201C
:100080003B0300203D0300203F03002041030020EC
:100090005D0D0020910D0020470300204903002042
:1000A0004B030020000000000000000000000000E2
:1000B0000000000000000000000000004D030020D0
:1000C0004F0300205103002053030020550300205C
:1000D00057030020590300205B0300205D0300202C
:1000E0005F030020610300206303002065030020FC
:1000F00067030020690300206B0300206D030020CC
:100100006F0300207103002073030020750300209B
:1001100077030020790300207B0300207D0300206B
:100120007F0300208103002083030020850300203B
:1001300087030020890300208B0300208D0300200B
:100140008F030020910300209303002095030020DB
:1001500097030020990300209B0300209D030020AB
:100160009F030020A1030020A3030020A50300207B
:10017000A7030020A9030020AB030020AD0300204B
:10018000AF030020B1030020B3030020B50300201B
:10019000B7030020B9030020BB030020BD030020EB
:1001A000BF030020C1030020C3030020C5030020BB
:1001B000C7030020C9030020CB030020CD0300208B
:1001C000CF030020D1030020D3030020D50300205B
:1001D000D7030020D9030020DB030020DD0300202B
:1001E000DF030020E1030020E3030020E5030020FB
:1001F000E7030020E9030020EB030020ED030020CB
:10020000EF030020F1030020F3030020F50300209A
:10021000F7030020F9030020FB030020FD0300206A
:10022000FF03002001040020030400200504002037
:1002300007040020090400200B0400200D04002006
:100240000F040020110400201304002015040020D6
:1002500017040020190400201B0400201D040020A6
:100260001F04002021040020230400202504002076
:1002700027040020290400202B0400202D04002046
:100280002F04002031040020330400203504002016
:100290003704002039040020684880476848002857
:1002A0000BD168486849694A884206D091421CBF10
:1002B00050F8043B41F8043BF8D165486549664A6B
:1002C000884206D091421CBF50F8043B41F8043BE1
:1002D000F8D162486249634A914218BF41F8040B61
:1002E000FAD1000000000000000000000000000043
:1002F000DFF874010FF2030E00474FF000004FF0DB
:100300000001DFF868F1FEE7FEE7FEE7FEE7FEE743
:10031000FEE7FEE7FEE7FEE7FEE7FEE7FEE7FEE7B5
:10032000FEE7FEE7FEE7FEE7FEE7FEE7FEE7FEE7A5
:10033000FEE7FEE7FEE7FEE7FEE7FEE7FEE7FEE795
:10034000FEE7FEE7FEE7FEE7FEE7FEE7FEE7FEE785
:10035000FEE7FEE7FEE7FEE7FEE7FEE7FEE7FEE775
:10036000FEE7FEE7FEE7FEE7FEE7FEE7FEE7FEE765
:10037000FEE7FEE7FEE7FEE7FEE7FEE7FEE7FEE755
:10038000FEE7FEE7FEE7FEE7FEE7FEE7FEE7FEE745
:10039000FEE7FEE7FEE7FEE7FEE7FEE7FEE7FEE735
:1003A000FEE7FEE7FEE7FEE7FEE7FEE7FEE7FEE725
:1003B000FEE7FEE7FEE7FEE7FEE7FEE7FEE7FEE715
:1003C000FEE7FEE7FEE7FEE7FEE7FEE7FEE7FEE705
:1003D000FEE7FEE7FEE7FEE7FEE7FEE7FEE7FEE7F5
:1003E000FEE7FEE7FEE7FEE7FEE7FEE7FEE7FEE7E5
:1003F000FEE7FEE7FEE7FEE7FEE7FEE7FEE7FEE7D5
:10040000FEE7FEE7FEE7FEE7FEE7FEE7FEE7FEE7C4
:10041000FEE7FEE7FEE7FEE7FEE7FEE7FEE7FEE7B4
:10042000FEE7FEE7FEE7FEE7FEE7FEE7FEE7FEE7A4
:10043000FEE7FEE7FEE7FEE7FEE700004D5A00207C
:10044000000000000000002000000020C468002020
:10045000C8680020C8680020006A00200000000072
:10046000006A0020F8800020816500206151002092
:1004700046F60023C2F200031A780AB90120187068
:10048000704700BF46F6C800C2F2000008B5036816
:100490002BB140F20003C0F2000303B1984708BD3E
:1004A00080B483B000AF0346FB804EF20013CEF25F
:1004B0000003B7F906204FEA5212F98801F01F0134
:1004C0004FF0010000FA01F143F8221007F10C0788
:1004D000BD4680BC704700BF80B483B000AF034608
:1004E000FB804EF20013CEF20003B7F906204FEA6C
:1004F0005212F98801F01F014FF0010000FA01F1DA
:1005000002F1200243F8221007F10C07BD4680BC1F
:10051000704700BF80B483B000AF0346FB804EF24B
:100520000013CEF20003B7F906204FEA5212F98801
:1005300001F01F014FF0010000FA01F102F1600229
:1005400043F8221007F10C07BD4680BC704700BF7E
:1005500080B582B000AF0346FB714FF01400FFF787
:10056000BBFF42F20003CEF2040342F20002CEF2DD
:100570000402126B22F040021A6345F20003C4F237
:1005800000034FF000025A6540F20003C4F20A2350
:100590004FF00002C3F8802140F20003C4F20A23A6
:1005A0004FF00002C3F8882140F20003C4F20A238E
:1005B000FA79C3F8842145F20003C4F200034FF036
:1005C00001021A614FF01400FFF7A4FF07F10807BA
:1005D000BD4680BD80B400AF40F20003C4F20A23E0
:1005E0004FF00102C3F88021BD4680BC704700BFB8
:1005F00080B483B000AF786045F20003C4F200031A
:100600007A685A6007F10C07BD4680BC704700BF8E
:1006100080B500AF40F20003C4F20A234FF001029C
:10062000C3F888214FF01400FFF73AFF80BD00BFE8
:1006300080B400AF45F20003C4F200034FF00102A2
:100640001A61BFF34F8FBD4680BC704780B582B042
:1006500000AF0346FB714FF01500FFF73DFF42F27C
:100660000003CEF2040342F20002CEF20402126B47
:1006700022F040021A6345F20003C4F200034FF077
:1006800000025A6540F20003C4F20A234FF0000250
:10069000C3F8802440F20003C4F20A234FF00002A2
:1006A000C3F8882440F20003C4F20A23FA79C3F89D
:1006B000842445F20003C4F200034FF001029A6261
:1006C0004FF01500FFF726FF07F10807BD4680BD74
:1006D00080B400AF40F20003C4F20A234FF00102DD
:1006E000C3F88024BD4680BC704700BF80B483B08F
:1006F00000AF786045F20003C4F200037A68DA6163
:1007000007F10C07BD4680BC704700BF80B500AF45
:1007100040F20003C4F20A234FF00102C3F8882418
:100720004FF01500FFF7BCFE80BD00BF80B400AFE6
:1007300045F20003C4F200034FF001029A62BFF3D6
:100740004F8FBD4680BC7047B0B584B000AFC7E9DD
:100750000201C7E90023D7E90801D7E9022305F020
:100760009BFA02460B461046194605F049FC024624
:100770000B4614461D46D7E90A01D7E9002305F0C8
:100780008BFA02460B461046194605F039FC024624
:100790000B462046294605F081FA02460B461046D4
:1007A000194607F11007BD46B0BD00BF00000000AC
:1007B000F0B589B004AFC7E90201C7E90023BB6BFC
:1007C000002B3BD03EA3D3E90023CDE900234FF01B
:1007D00000024FF00003CDE90223D7E90201D7E977
:1007E0000023FFF7B1FF04460D4635A3D3E90023EC
:1007F000CDE900234FF000024FF00003CDE90223C2
:10080000D7E90A01D7E90C23FFF79EFF02460B4602
:100810004FF000010E462046294605F081FE0346B2
:10082000002B02D04FF001031E46F3B2002B02D082
:100830004FF002033FE04FF001033CE04FF00002B5
:100840004FF00003CDE900234FF000024FF000030A
:10085000CDE90223D7E90201D7E90023FFF774FFAE
:1008600004460D464FF000024FF00003CDE900238F
:100870004FF000024FF00003CDE90223D7E90A014F
:10088000D7E90C23FFF760FF02460B464FF000014B
:100890000E462046294605F043FE0346002B02D0B3
:1008A0004FF001031E46F3B2002B02D04FF00103BC
:1008B00001E04FF00203184607F11407BD46F0BDF2
:1008C00014AE47E17AF4544080B588B000AF786048
:1008D00013460A46FA703B804FF07E033B724FF09E
:1008E00000037B724FF00C03BB724FF00003FB72EE
:1008F0004FF001033B734FF00503BB610BE0BB6995
:1009000007F120010B444FF0000203F8182CBB69DB
:1009100003F10103BB61BB690A2BF0DD3B884FEAA1
:1009200013239BB2DBB2FB743B88DBB23B754FF009
:1009300000037B754FF00003BB610FE0BB6903F15F
:100940000E03B9697A680A44127807F120010B4452
:1009500003F8182CBB6903F10103BB61FA78BB698A
:100960009A42EBDC4FF00003FB774FF00303BB61CF
:100970000CE0BB6907F12002134413F8182CFB7F2D
:100980001344FB77BB6903F10103BB61BB690E2B09
:10099000EFDDFB7F6FEA0303DBB2FB7507F10803B2
:1009A00048F2A400C2F2000019464FF0100204F011
:1009B000DBFD07F12007BD4680BD00BF0000000041
:1009C000B0B582B000AF46F60423C2F200031B6844
:1009D000012B40F3D38047F65873C2F200031B7813
:1009E000BB7147F65873C2F200035B78FB71BB79A9
:1009F000184605F09FFA02460B46104619464FF07E
:100A000000024FF0804303F5101305F023FC02466B
:100A10000B46104619465CA3D3E9002305F03EF9C6
:100A200002460B461046194659A3D3E9002305F0A8
:100A300033F902460B4614461D46FB79184605F06D
:100A400079FA02460B46104619464FF000024FF065
:100A5000804303F5101305F0FDFB02460B461046DC
:100A600019464FF000024FF0804303F5521305F092
:100A700015F902460B46104619464FF000024FF09A
:100A8000804303F5721305F007F902460B46204632
:100A9000294600F059FA4FF002033B6066E03A68DD
:100AA00047F65873C2F200039B5C1A46BB79C3EB4E
:100AB0000203184605F03EFA02460B461046194658
:100AC0004FF000024FF0804303F5101305F0C2FB16
:100AD00002460B46104619462BA3D3E9002305F026
:100AE000DDF802460B4614461D463B6803F1010241
:100AF00047F65873C2F200039B5C1A46FB79C3EBBE
:100B00000203184605F016FA02460B46104619462F
:100B10004FF000024FF0804303F5101305F09AFBED
:100B200002460B46104619464FF000024FF0804334
:100B300003F5521305F0B2F802460B46204629464B
:100B400000F002FA3A6847F65873C2F200039B5C61
:100B5000BB713B6803F1010247F65873C2F2000310
:100B60009B5CFB713B6803F102033B6046F6042388
:100B7000C2F200031B683A689A4290DB07F108074B
:100B8000BD46B0BDAFF300800000000000C03D4096
:100B9000000000000040454080B582B000AF7860A2
:100BA00078684FF0000104F075FB7B68022B17D1C9
:100BB00048F29803C2F20003D3E900231046194615
:100BC0001DA3D3E9002305F069F802460B46104641
:100BD000194648F29803C2F20003C3E9000119E084
:100BE0007B68012B16D148F29803C2F20003D3E9C7
:100BF00000231046194610A3D3E9002305F04CF852
:100C000002460B461046194648F29803C2F200030A
:100C1000C3E9000147F64C73C2F200031B6803F1FD
:100C2000010247F64C73C2F200031A6007F108078D
:100C3000BD4680BDAFF30080DBF97E6ABC74533FD4
:100C400080B582B000AF78604FF00000796804F0A2
:100C500021FB7B68012B17D147F2D003C2F20003BE
:100C6000D3E90023104619461DA3D3E9002305F05C
:100C700015F802460B461046194647F2D003C2F259
:100C80000003C3E9000119E07B68022B16D147F28B
:100C9000D003C2F20003D3E900231046194610A383
:100CA000D3E9002304F0F8FF02460B46104619462C
:100CB00047F2D003C2F20003C3E9000147F64C73C8
:100CC000C2F200031B6803F1010247F64C73C2F243
:100CD00000031A6007F10807BD4680BDAFF300802E
:100CE000DBF97E6ABC74533F80B500AF4FF0000063
:100CF000FFF72EFC46F6E003C2F200031B6818461D
:100D0000FFF776FCFFF766FCFFF782FC80BD00BFB3
:100D100080B500AF4FF00000FFF798FC46F6E00307
:100D2000C2F200031B68184605F004F947F6507339
:100D3000C2F20003D3E9002305F062F902460B4634
:100D40001046194605F0F6FB03461846FFF7CEFCA1
:100D5000FFF7BEFCFFF7DAFC80BD00BF80B500AF37
:100D600046F6D803C2F200031B681846FFF714FFCB
:100D7000FFF75EFC46F6E003C2F200031B6818466C
:100D8000FFF736FCFFF726FCFFF742FC80BD00BFF3
:100D900080B500AF46F6DC03C2F200031B681846BC
:100DA000FFF74EFFFFF7C2FC46F6E003C2F2000376
:100DB0001B68184605F0BEF847F65073C2F20003F0
:100DC000D3E9002305F01CF902460B4610461946EC
:100DD00005F0B0FB03461846FFF788FCFFF778FCE8
:100DE000FFF794FC80BD00BFB0B584B000AFC7E989
:100DF0000201C7E9002347F64073C2F20003D7E9B6
:100E00000201C3E9000146F69873C2F20003D7E974
:100E10000001C3E9000146F69873C2F20003D3E96A
:100E20000023104619464FF000024FF0804305F0B2
:100E300011FA02460B461046194648F28803C2F2E0
:100E40000003C3E9000147F64073C2F20003D3E98F
:100E50000023104619464FF000024FF0804305F082
:100E6000F9F902460B461046194647F2D803C2F27A
:100E70000003C3E9000148F28803C2F20003D3E98A
:100E800000231046194605F0BBF802460B461446EF
:100E90001D4647F2D803C2F20003D3E900231046EF
:100EA000194605F0ADF802460B462046294604F0E7
:100EB000F5FE02460B461046194605F089FB48F23E
:100EC0009803C2F20003C3E9000146F69873C2F228
:100ED0000003D3E9000148F28803C2F20003D3E91A
:100EE000002304F0D9FE02460B461046194605F0D1
:100EF00087F802460B4614461D4647F2D803C2F255
:100F00000003D3E900231046194605F079F802469C
:100F10000B462046294604F0C1FE02460B46104609
:100F2000194605F055FB47F2D003C2F20003C3E9AE
:100F3000000147F64C73C2F200034FF000021A6042
:100F400007F11007BD46B0BD2DE9F04FA1B006AFC7
:100F5000C7E90A01C7E9082348F28803C2F200037F
:100F6000D3E90023D7E90A0104F098FE02460B46B4
:100F7000C7E90C2347F2D803C2F20003D3E90023E8
:100F8000D7E9080104F08AFE02460B46C7E90E23A2
:100F900048F28803C2F20003D3E9000147F2D80304
:100FA000C2F20003D3E90045D7E90C23CDE90023C1
:100FB000D7E90E23CDE902234FF000030493224624
:100FC0002B46FFF7F5FB03463B6448F28803C2F269
:100FD0000003D3E9000147F2D803C2F20003D3E9CA
:100FE0000045D7E90C23CDE90023D7E90E23CDE94D
:100FF00002234FF00103049322462B46FFF7D8FB50
:1010000003467B6446F6D803C2F200033A6C1A60CA
:1010100046F6DC03C2F200037A6C1A60D7E90C23AF
:101020001046194604F0ECFF02460B4614461D46D6
:10103000D7E90E231046194604F0E2FF02460B469C
:101040002046294604F02AFE02460B461046194661
:1010500005F0BEFA02460B46C7E9122346F698731E
:10106000C2F20003D3E9002310461946D7E90C2346
:1010700004F012FE02460B461046194604F0C0FF6B
:1010800002460B4614461D46D7E90E231046194664
:1010900004F0B6FF02460B462046294604F0FEFD4A
:1010A00002460B461046194605F092FA02460B46D8
:1010B000C7E9142348F29803C2F20003D3E90023DE
:1010C00010461946D7E9122304F0E6FD02460B4606
:1010D000C7E9162347F2D003C2F20003D3E9002385
:1010E00010461946D7E9142304F0D6FD02460B46F4
:1010F000C7E918234FF000031C46D7E916014FF04B
:1011000000024FF0000305F0EDF90346002B02D07A
:101110004FF001031C46E3B2002B05D0BB6DBB654D
:10112000FB6D83F00043FB654FF000031C46D7E9DD
:1011300018014FF000024FF0000305F0D3F9034609
:10114000002B02D04FF001031C46E3B2002B05D068
:101150003B6E3B667B6E83F000437B66D7E91601EE
:10116000D7E9182305F076F802460B4610461946D3
:1011700047F65073C2F20003C3E9000148F2980336
:10118000C2F20003D3E90023D7E9120104F084FD81
:1011900002460B461146396023F00041796046F65D
:1011A000E803C2F20003D3E900454FF000031E46F6
:1011B000D7E9000122462B4605F09EF90346002B95
:1011C00002D04FF001031E46F3B2002B3CD047F291
:1011D000D003C2F20003D3E90023D7E9140104F0DD
:1011E0005BFD02460B461146B96023F00041F960F1
:1011F00046F6E803C2F20003D3E900454FF00003CE
:101200001E46D7E9020122462B4605F089F903461E
:10121000002B02D04FF001031E46F3B2002B13D077
:1012200046F6D803C2F200034FF000021A6047F6F8
:101230005073C2F200034FF000004FF07E5101F5F1
:10124000E001C3E9000133E148F29803C2F2000370
:10125000D3E90023D7E9120104F01EFD02460B4634
:101260001146396123F00041796146F6E803C2F284
:101270000003D3E900454FF000031E46D7E90401FF
:1012800022462B4605F04CF90346002B02D04FF0C6
:1012900001031E46F3B2002B3CD047F2D003C2F24A
:1012A0000003D3E90023D7E9140104F0F5FC02465A
:1012B0000B461146B96123F00041F96146F6E80397
:1012C000C2F20003D3E900454FF000031E46D7E900
:1012D000060122462B4605F00FF90346002B02D0EB
:1012E0004FF001031E46F3B2002B13D046F6DC0389
:1012F000C2F200034FF000021A6047F65073C2F2C8
:1013000000034FF000004FF07E5101F5E001C3E90A
:101310000001CDE048F29803C2F20003D3E90023B4
:10132000D7E9120104F0B8FC02460B46924623F0BE
:10133000004B46F6E803C2F20003D3E900454FF044
:1013400000031E465046594622462B4605F0D4F867
:101350000346002B02D04FF001031E46F3B2002BD0
:1013600000F0A68047F2D003C2F20003D3E90023C5
:10137000D7E9140104F090FC02460B46904623F096
:10138000004946F6E803C2F20003D3E900454FF0F6
:1013900000031E464046494622462B4605F0ACF85F
:1013A0000346002B02D04FF001031E46F3B2002B80
:1013B0007ED048F29803C2F20003D3E9002310461E
:1013C000194604F01DFE02460B4614461D4647F220
:1013D000D003C2F20003D3E900231046194604F0FB
:1013E0000FFE02460B462046294604F055FC0246F5
:1013F0000B4614461D4646F69873C2F20003D3E925
:1014000000231046194604F0FBFD02460B46204619
:10141000294604F043FC02460B4614461D4646F698
:101420009873C2F20003D3E900231046194604F072
:1014300035FC02460B462046294604F00BFF0246C7
:101440000B461046194648F28803C2F20003C3E96E
:10145000000148F29803C2F20003D3E900231046CA
:10146000194604F0CDFD02460B4614461D4648F2CF
:101470008803C2F20003D3E900231046194604F0A2
:10148000BFFD02460B462046294604F005FC0246F5
:101490000B461046194605F09BF847F2D803C2F2F6
:1014A0000003C3E9000107F16C07BD46BDE8F08FFA
:1014B000FFF71AFCFFF72CFC00E000BF47F64C7367
:1014C000C2F200031B68092BF7DD47F64C73C2F22A
:1014D00000034FF000021A6094E500BF0000000016
:1014E00080B582B000AF0346FB71FB79302B40F032
:1014F00098804FF000004FF080414FF000024FF015
:101500003F4303F57003FFF71FFD46F6D400C2F218
:1015100000004FF0010143F23A72FFF7D5F94FF0A6
:1015200000004FF03F4101F570014FF000024FF015
:10153000404303F58023FFF707FD4FF000004FF015
:1015400000014FF000024FF03F4303F57803FFF72F
:10155000FBFC4FF000004FF07E5101F5E0014FF031
:1015600000024FF0404303F58023FFF7EDFC4FF0FE
:1015700000004FF07E5101F5E0014FF000024FF006
:101580000003FFF7E1FC4FF000004FF07E5101F542
:10159000E0014FF000024FF0804303F58023FFF796
:1015A000D3FC4FF000004FF000014FF000024FF06D
:1015B0007E5303F5F003FFF7C7FC4FF000004FF038
:1015C0003F4101F570014FF000024FF07E5303F5EB
:1015D000F003FFF7B9FC4FF000004FF03F4101F579
:1015E00070014FF000024FF00003FFF7ADFC46F62C
:1015F000D000C2F200004FF0010143F23A72FFF74F
:1016000063F94FF000004FF0804101F500214FF0E9
:1016100000024FF07E5303F5E003FFF795FC03F063
:10162000AEBCFB79312B77D14FF000004FF07E51EB
:1016300001F5E0014FF000024FF03F4303F5700366
:10164000FFF782FC46F6D400C2F200004FF0010121
:1016500043F23A72FFF738F94FF000004FF0804143
:1016600001F540214FF000024FF00003FFF76CFC42
:1016700046F6D000C2F200004FF0010143F23A7288
:10168000FFF722F94FF000004FF03F4101F57C01D8
:101690004FF000024FF00003FFF756FC46F6D4006F
:1016A000C2F200004FF0010143F23A72FFF70CF969
:1016B0004FF000004FF000014FF000024FF04043A8
:1016C00003F59013FFF740FC4FF000004FF03F414F
:1016D00001F578014FF000024FF07E5303F5F0035F
:1016E000FFF732FC46F6D000C2F200004FF00101D5
:1016F00043F23A72FFF7E8F84FF000004FF08041F4
:1017000001F560214FF000024FF0804303F5801394
:10171000FFF71AFC03F033BCFB79322B6BD14FF08F
:1017200000004FF0804101F580114FF000024FF0B2
:101730003F4303F57003FFF707FC46F6D400C2F2FF
:1017400000004FF0010143F23A72FFF7BDF84FF08D
:1017500000004FF0404101F500214FF000024FF032
:101760000003FFF7F1FB4FF000004FF000014FF0D6
:1017700000024FF04043FFF7E7FB4FF000004FF04F
:10178000804101F500214FF000024FF00003FFF708
:10179000DBFB4FF000004FF000014FF000024FF074
:1017A0003F4303F57803FFF7CFFB4FF000004FF006
:1017B000404101F500214FF000024FF00003FFF718
:1017C000C3FB46F6D000C2F200004FF0010143F225
:1017D0003A72FFF779F84FF000004FF0804101F5C1
:1017E00080114FF000024FF0804303F59013FFF794
:1017F000ABFB03F0C4BBFB79332B40F084804FF08C
:1018000000004FF07E5101F5E0014FF000024FF073
:101810004043FFF799FB46F6D400C2F200004FF0B8
:10182000010143F23A72FFF74FF84FF000004FF01A
:101830007E5101F5F0014FF000024FF07E5303F5A9
:10184000E003FFF781FB4FF000004FF07E5101F500
:10185000F0014FF000024FF03F4303F57003FFF734
:1018600073FB4FF000004FF03F4101F578014FF05E
:1018700000024FF03F4303F57803FFF765FB4FF09D
:1018800000004FF07E5101F5F0014FF000024FF0E3
:101890003F4303F57803FFF757FB4FF000004FF08D
:1018A0003F4101F578014FF000024FF03F4303F54F
:1018B0007003FFF749FB4FF000004FF03F4101F587
:1018C00078014FF000024FF07E5303F5E003FFF77D
:1018D0003BFB46F6D000C2F200004FF0010143F29C
:1018E0003A72FEF7F1FF4FF000004FF0804101F532
:1018F00080114FF000024FF0804303F5A013FFF773
:1019000023FB03F03CBBFB79342B53D14FF0000099
:101910004FF0804101F500214FF000024FF03F43AE
:1019200003F57003FFF710FB46F6D400C2F2000087
:101930004FF0010143F23A72FEF7C6FF4FF000008C
:101940004FF000014FF000024FF0404303F59013B9
:10195000FFF7FAFA4FF000004FF040414FF000025D
:101960004FF08043FFF7F0FA4FF000004FF0804156
:1019700001F540214FF000024FF00003FFF7E4FAB9
:1019800046F6D000C2F200004FF0010143F23A7275
:10199000FEF79AFF4FF000004FF07E5101F5C001B5
:1019A0004FF000024FF0804303F59013FFF7CCFA9D
:1019B00003F0E5BAFB79352B6BD14FF000004FF007
:1019C0007E5101F5E0014FF000024FF03F4303F577
:1019D0007003FFF7B9FA46F6D400C2F200004FF0E8
:1019E000010143F23A72FEF76FFF4FF000004FF033
:1019F000804101F500214FF000024FF00003FFF796
:101A0000A3FA4FF000004FF000014FF000024FF03A
:101A10004043FFF799FA4FF000004FF0404101F5C5
:101A200000214FF000024FF00003FFF78DFA4FF056
:101A300000004FF000014FF000024FF03F4303F56C
:101A40007803FFF781FA4FF000004FF0804101F575
:101A500000214FF000024FF00003FFF775FA46F641
:101A6000D000C2F200004FF0010143F23A72FEF7DB
:101A70002BFF4FF000004FF07E5101F5E0014FF0D9
:101A800000024FF0804303F59013FFF75DFA03F077
:101A900076BAFB79362B75D14FF000004FF07E51AE
:101AA00001F5E0014FF000024FF0404303F5002341
:101AB000FFF74AFA46F6D400C2F200004FF00101E7
:101AC00043F23A72FEF700FF4FF000004FF00001C2
:101AD0004FF000024FF04043FFF736FA4FF000009E
:101AE0004FF0804101F500214FF000024FF000035C
:101AF000FFF72AFA4FF000004FF000014FF000020C
:101B00004FF04043FFF720FA4FF000004FF0404104
:101B100001F500214FF000024FF00003FFF714FA27
:101B20004FF000004FF000014FF000024FF03F4334
:101B300003F57803FFF708FA4FF000004FF08041FB
:101B400001F500214FF000024FF00003FFF7FCF910
:101B500046F6D000C2F200004FF0010143F23A72A3
:101B6000FEF7B2FE4FF000004FF07E5101F5E001AC
:101B70004FF000024FF0804303F59013FFF7E4F9B4
:101B800003F0FDB9FB79372B49D14FF000004FF03E
:101B90007E5101F5E0014FF000024FF0404303F5A4
:101BA000A013FFF7D1F946F6D400C2F200004FF0BF
:101BB000010143F23A72FEF787FE4FF000004FF04A
:101BC000804101F500214FF000024FF00003FFF7C4
:101BD000BBF94FF000004FF040414FF000024FF0D2
:101BE000804303F58013FFF7AFF946F6D000C2F249
:101BF00000004FF0010143F23A72FEF765FE4FF02C
:101C000000004FF07E5101F5E0014FF000024FF06F
:101C10007E5303F5E003FFF797F903F0B0B9FB79C2
:101C2000382B40F08E804FF000004FF07E5101F5D0
:101C3000E0014FF000024FF03F4303F57003FFF760
:101C400083F946F6D400C2F200004FF0010143F2DE
:101C50003A72FEF739FE4FF000004FF000014FF0EE
:101C600000024FF0404303F5A013FFF76DF94FF06A
:101C700000004FF0804101F500214FF000024FF0CD
:101C80000003FFF761F94FF000004FF000014FF043
:101C900000024FF0804303F5A013FFF755F94FF012
:101CA00000004FF0404101F500214FF000024FF0DD
:101CB0000003FFF749F946F6D000C2F200004FF0EA
:101CC000010143F23A72FEF7FFFD4FF000004FF0C2
:101CD00000014FF000024FF0404303F58023FFF76F
:101CE00033F946F6D400C2F200004FF0010143F28E
:101CF0003A72FEF7E9FD4FF000004FF0804101F528
:101D000000214FF000024FF00003FFF71DF946F6E7
:101D1000D000C2F200004FF0010143F23A72FEF728
:101D2000D3FD4FF000004FF07E5101F5E0014FF080
:101D300000024FF0804303F54023FFF705F903F05D
:101D40001EB9FB79392B6DD14FF000004FF07E5159
:101D500001F5E0014FF000024FF03F4303F570033F
:101D6000FFF7F2F846F6D400C2F200004FF001018E
:101D700043F23A72FEF7A8FD4FF000004FF08041A9
:101D800001F500214FF000024FF00003FFF7DCF8EF
:101D90004FF000004FF000014FF000024FF04043C1
:101DA00003F5A013FFF7D0F84FF000004FF04041CB
:101DB00001F500214FF000024FF00003FFF7C4F8D7
:101DC0004FF000004FF000014FF000024FF0804351
:101DD00003F58023FFF7B8F84FF000004FF0804183
:101DE00001F500214FF000024FF00003FFF7ACF8BF
:101DF00046F6D000C2F200004FF0010143F23A7201
:101E0000FEF762FD4FF000004FF07E5101F5E0015A
:101E10004FF000024FF0804303F54023FFF794F8A2
:101E200003F0ADB8FB79412B6DD14FF000004FF0BE
:101E30007E5101F5E0014FF000024FF03F4303F502
:101E40007003FFF781F846F6D400C2F200004FF0AD
:101E5000010143F23A72FEF737FD4FF000004FF0F8
:101E600000014FF000024FF0404303F5C013FFF7AD
:101E70006BF84FF000004FF0804101F500214FF06A
:101E800000024FF00003FFF75FF84FF000004FF043
:101E900000014FF000024FF0804303F5C013FFF73D
:101EA00053F84FF000004FF000014FF000024FF0E8
:101EB000404303F50023FFF747F84FF000004FF0D1
:101EC000404101F500214FF000024FF00003FFF701
:101ED0003BF846F6D000C2F200004FF0010143F299
:101EE0003A72FEF7F1FC4FF000004FF0804101F52F
:101EF00080114FF000024FF0804303F58013FFF78D
:101F000023F803F03CB8FB79422B40F086804FF079
:101F100000004FF07E5101F5E0014FF000024FF05C
:101F20003F4303F57003FFF70FF846F6D400C2F203
:101F300000004FF0010143F23A72FEF7C5FC4FF08A
:101F400000004FF000014FF000024FF0404303F556
:101F5000C013FEF7F9FF4FF000004FF0804101F58C
:101F600000214FF000024FF00003FEF7EDFF4FF0AD
:101F700000004FF000014FF000024FF0804303F5E6
:101F80000023FEF7E1FF4FF000004FF0404101F564
:101F900000214FF000024FF00003FEF7D5FF4FF095
:101FA00000004FF0804101F500214FF000024FF09A
:101FB0000003FEF7C9FF4FF000004FF000014FF0A3
:101FC00000024FF0804303F50023FEF7BDFF4FF002
:101FD00000004FF0404101F500214FF000024FF0AA
:101FE0000003FEF7B1FF46F6D000C2F200004FF04A
:101FF000010143F23A72FEF767FC4FF000004FF028
:10200000804101F580114FF000024FF07E5303F53F
:10201000E003FEF799FF02F0B2BFFB79432B55D1E5
:102020004FF000004FF0804101F580114FF00002A9
:102030004FF03F4303F57003FEF786FF46F6D400EA
:10204000C2F200004FF0010143F23A72FEF73CFC8D
:102050004FF000004FF0404101F500214FF0000229
:102060004FF00003FEF770FF4FF000004FF000014B
:102070004FF000024FF0404303F5C013FEF764FF3A
:102080004FF000004FF0804101F500214FF00002B9
:102090004FF00003FEF758FF46F6D000C2F20000F2
:1020A0004FF0010143F23A72FEF70EFC4FF00000D0
:1020B0004FF07E5101F5E0014FF000024FF08043F8
:1020C00003F5E013FEF740FF02F059BFFB79442B04
:1020D00079D14FF000004FF0804101F580114FF0B1
:1020E00000024FF03F4303F57003FEF72DFF46F665
:1020F000D400C2F200004FF0010143F23A72FEF741
:10210000E3FB4FF000004FF0404101F500214FF09C
:1021100000024FF00003FEF717FF4FF000004FF0F2
:1021200000014FF000024FF07E5303F5C003FEF7AD
:102130000BFF4FF000004FF000014FF000024FF096
:10214000404303F5E013FEF7FFFE4FF000004FF0B1
:1021500000014FF000024FF07E5303F5C003FEF77D
:10216000F3FE4FF000004FF0804101F500214FF0E9
:1021700000024FF00003FEF7E7FE4FF000004FF0C3
:1021800000014FF000024FF0804303F5C013FEF74B
:10219000DBFE46F6D000C2F200004FF0010143F230
:1021A0003A72FEF791FB4FF000004FF07E5101F5BF
:1021B000E0014FF000024FF0804303F5E013FEF71B
:1021C000C3FE02F0DCBEFB79452B79D14FF0000055
:1021D0004FF0804101F580114FF000024FF0404375
:1021E00003F5E013FEF7B0FE46F6D400C2F200009D
:1021F0004FF0010143F23A72FEF766FB4FF0000028
:102200004FF0404101F500214FF000024FF0000374
:10221000FEF79AFE4FF000004FF000014FF0000271
:102220004FF0804303F50023FEF78EFE4FF00000D1
:102230004FF0804101F500214FF000024FF0000304
:10224000FEF782FE4FF000004FF0404101F5002103
:102250004FF000024FF00003FEF776FE4FF0000053
:102260004FF000014FF000024FF0804303F50023D0
:10227000FEF76AFE4FF000004FF0804101F50021AB
:102280004FF000024FF00003FEF75EFE46F6D0006E
:10229000C2F200004FF0010143F23A72FEF714FB64
:1022A0004FF000004FF07E5101F5E0014FF00002C9
:1022B0004FF07E5303F5E003FEF746FE02F05FBEEB
:1022C000FB79462B6DD14FF000004FF0804101F5B6
:1022D00080114FF000024FF0404303F5E013FEF78A
:1022E00033FE46F6D400C2F200004FF0010143F283
:1022F0003A72FEF7E9FA4FF000004FF0404101F565
:1023000000214FF000024FF00003FEF71DFE4FF0DA
:1023100000004FF000014FF000024FF0804303F542
:102320000023FEF711FE4FF000004FF0804101F551
:1023300000214FF000024FF00003FEF705FE4FF0C2
:1023400000004FF0404101F500214FF000024FF036
:102350000003FEF7F9FD4FF000004FF000014FF0D1
:1023600000024FF0804303F50023FEF7EDFD46F633
:10237000D000C2F200004FF0010143F23A72FEF7C2
:10238000A3FA4FF000004FF07E5101F5E0014FF04D
:1023900000024FF07E5303F5E003FEF7D5FD02F097
:1023A000EEBDFB79472B6BD14FF000004FF0804121
:1023B00001F580114FF000024FF0404303F5E013A8
:1023C000FEF7C2FD46F6D400C2F200004FF0010154
:1023D00043F23A72FEF778FA4FF000004FF04041B6
:1023E00001F500214FF000024FF00003FEF7ACFDB5
:1023F0004FF000004FF000014FF000024FF080431B
:1024000003F5C013FEF7A0FD4FF000004FF0804130
:1024100001F500214FF000024FF00003FEF794FD9C
:102420004FF000004FF000014FF000024FF08043EA
:1024300003F50023FEF788FD4FF000004FF0404108
:102440004FF000024FF00003FEF77EFD46F6D0008D
:10245000C2F200004FF0010143F23A72FEF734FA83
:102460004FF000004FF0804101F500214FF00002D5
:102470004FF0804303F58013FEF766FD02F07FBD49
:10248000FB79482B6DD14FF000004FF07E5101F5E4
:10249000E0014FF000024FF03F4303F57003FEF7F9
:1024A00053FD46F6D400C2F200004FF0010143F2A2
:1024B0003A72FEF709FA4FF000004FF000014FF0BA
:1024C00000024FF0404303F5C013FEF73DFD4FF00F
:1024D00000004FF000014FF000024FF0804303F581
:1024E0000023FEF731FD4FF000004FF0404101F5B1
:1024F00000214FF000024FF00003FEF725FD4FF0E2
:1025000000004FF000014FF000024FF0404303F590
:102510000023FEF719FD4FF000004FF000014FF0CF
:1025200000024FF0804303F5C013FEF70DFD46F6A1
:10253000D000C2F200004FF0010143F23A72FEF700
:10254000C3F94FF000004FF07E5101F5E0014FF06C
:1025500000024FF07E5303F5E003FEF7F5FC02F0B6
:102560000EBDFB79492B6DD14FF000004FF07E512D
:1025700001F5E0014FF000024FF03F4303F5700317
:10258000FEF7E2FC46F6D400C2F200004FF0010173
:1025900043F23A72FEF798F94FF000004FF0804195
:1025A00001F500214FF000024FF00003FEF7CCFCD4
:1025B0004FF000004FF03F4101F578014FF000026D
:1025C0004FF00003FEF7C0FC4FF000004FF0000199
:1025D0004FF000024FF0404303F5C013FEF7B4FC88
:1025E0004FF000004FF03F4101F578014FF000023D
:1025F0004FF00003FEF7A8FC4FF000004FF08041C1
:1026000001F500214FF000024FF00003FEF79CFCA3
:1026100046F6D000C2F200004FF0010143F23A72D8
:10262000FEF752F94FF000004FF07E5101F5E00146
:102630004FF000024FF0804303F5E013FEF784FCF7
:1026400002F09DBCFB794A2B6DD14FF000004FF09A
:10265000804101F580114FF000024FF0404303F537
:10266000E013FEF771FC46F6D400C2F200004FF012
:10267000010143F23A72FEF727F94FF000004FF0E4
:10268000404101F500214FF000024FF00003FEF73A
:102690005BFC4FF000004FF03F4101F578014FF037
:1026A00000024FF00003FEF74FFC4FF000004FF028
:1026B00000014FF000024FF0804303F5C013FEF716
:1026C00043FC4FF000004FF03F4101F578014FF01F
:1026D00000024FF00003FEF737FC4FF000004FF010
:1026E00000014FF000024FF0804303F50023FEF796
:1026F0002BFC46F6D000C2F200004FF0010143F27D
:102700003A72FEF7E1F84FF000004FF0804101F51A
:1027100080114FF000024FF0804303F58013FEF765
:1027200013FC02F02CBCFB794B2B40F082804FF065
:1027300000004FF07E5101F5E0014FF000024FF034
:102740003F4303F57003FEF7FFFB46F6D400C2F2E9
:1027500000004FF0010143F23A72FEF7B5F84FF076
:1027600000004FF000014FF000024FF0404303F52E
:10277000C013FEF7E9FB4FF000004FF000014FF0EF
:1027800000024FF0804303F50023FEF7DDFB4FF01E
:1027900000004FF0804101F500214FF000024FF0A2
:1027A000404303F50023FEF7CFFB4FF000004FF04E
:1027B000404101F500214FF000024FF0804303F546
:1027C0000023FEF7C1FB4FF000004FF0804101F500
:1027D00000214FF000024FF0804303F50023FEF785
:1027E000B3FB4FF000004FF0404101F500214FF0E6
:1027F00000024FF0404303F50023FEF7A5FB46F629
:10280000D000C2F200004FF0010143F23A72FEF72D
:102810005BF84FF000004FF0804101F580114FF060
:1028200000024FF0804303F58013FEF78DFB02F0AA
:10283000A6BBFB794C2B49D14FF000004FF07E51E5
:1028400001F5E0014FF000024FF0404303F5E013C3
:10285000FEF77AFB46F6D400C2F200004FF0010109
:1028600043F23A72FEF730F84FF000004FF00001EB
:102870004FF000024FF0804303F5C013FEF764FBF6
:102880004FF000004FF0804101F500214FF00002B1
:102890004FF00003FEF758FB46F6D000C2F20000EE
:1028A0004FF0010143F23A72FEF70EF84FF00000CC
:1028B0004FF07E5101F5E0014FF000024FF07E53E2
:1028C00003F5E003FEF740FB02F059BBFB794D2B0B
:1028D00065D14FF000004FF07E5101F5E0014FF05F
:1028E00000024FF03F4303F57003FEF72DFB46F661
:1028F000D400C2F200004FF0010143F23A72FDF73A
:10290000E3FF4FF000004FF000014FF000024FF0E6
:10291000404303F5C013FEF717FB4FF000004FF0E4
:102920007E5101F5F0014FF000024FF0804303F5B6
:10293000C013FEF709FB4FF000004FF07E5101F588
:10294000F0014FF000024FF0404303F5C013FEF7D3
:10295000FBFA4FF000004FF000014FF000024FF083
:10296000804303F5C013FEF7EFFA46F6D000C2F23B
:1029700000004FF0010143F23A72FDF7A5FF4FF05E
:1029800000004FF07E5101F5E0014FF000024FF0E2
:102990007E5303F5E003FEF7D7FA02F0F0BAFB79B5
:1029A0004E2B57D14FF000004FF07E5101F5E00162
:1029B0004FF000024FF03F4303F57003FEF7C4FAF7
:1029C00046F6D400C2F200004FF0010143F23A7221
:1029D000FDF77AFF4FF000004FF000014FF00002CA
:1029E0004FF0404303F5C013FEF7AEFA4FF000007E
:1029F0004FF0804101F500214FF000024FF080437D
:102A000003F5C013FEF7A0FA4FF000004FF00001ED
:102A10004FF000024FF0404303F5C013FEF794FA65
:102A200046F6D000C2F200004FF0010143F23A72C4
:102A3000FDF74AFF4FF000004FF07E5101F5E00135
:102A40004FF000024FF07E5303F5E003FEF77CFAEF
:102A500002F095BAFB794F2B61D14FF000004FF097
:102A6000804101F580114FF000024FF03F4303F524
:102A70007003FEF769FA46F6D400C2F200004FF088
:102A8000010143F23A72FDF71FFF4FF000004FF0D3
:102A9000404101F500214FF000024FF00003FEF726
:102AA00053FA4FF000004FF000014FF000024FF0DA
:102AB000404303F5C013FEF747FA4FF000004FF014
:102AC000804101F500214FF000024FF00003FEF7B6
:102AD0003BFA4FF000004FF000014FF000024FF0C2
:102AE000804303F5C013FEF72FFA46F6D000C2F27A
:102AF00000004FF0010143F23A72FDF7E5FE4FF09E
:102B000000004FF07E5101F5E0014FF000024FF060
:102B10007E5303F5E003FEF717FA02F030BAFB79B3
:102B2000502B61D14FF000004FF07E5101F5E001D4
:102B30004FF000024FF03F4303F57003FEF704FA35
:102B400046F6D400C2F200004FF0010143F23A729F
:102B5000FDF7BAFE4FF000004FF000014FF0000209
:102B60004FF0404303F5C013FEF7EEF94FF00000BD
:102B70004FF0804101F500214FF000024FF00003BB
:102B8000FEF7E2F94FF000004FF000014FF00002B5
:102B90004FF0804303F50023FEF7D6F94FF0000015
:102BA0004FF0404101F500214FF000024FF00003CB
:102BB000FEF7CAF946F6D000C2F200004FF001015C
:102BC00043F23A72FDF780FE4FF000004FF0804173
:102BD00001F580114FF000024FF0804303F58013A0
:102BE000FEF7B2F902F0CBB9FB79512B40F090809F
:102BF0004FF000004FF07E5101F5E0014FF0000270
:102C00004FF04043FEF7A0F946F6D400C2F20000B0
:102C10004FF0010143F23A72FDF756FE4FF000000B
:102C20004FF000014FF000024FF0404303F5A013B6
:102C3000FEF78AF94FF000004FF0804101F50021C6
:102C40004FF000024FF00003FEF77EF94FF0000056
:102C50004FF000014FF000024FF0804303F5A01346
:102C6000FEF772F94FF000004FF0404101F50021EE
:102C70004FF000024FF00003FEF766F946F6D00071
:102C8000C2F200004FF0010143F23A72FDF71CFE60
:102C90004FF000004FF07E5101F5F0014FF00002BF
:102CA0004FF0804303F58023FEF74EF946F6D4003B
:102CB000C2F200004FF0010143F23A72FDF704FE48
:102CC0004FF000004FF07E5101F5F0014FF000028F
:102CD0004FF0804303F54023FEF736F946F6D00067
:102CE000C2F200004FF0010143F23A72FDF7ECFD31
:102CF0004FF000004FF07E5101F5E0014FF000026F
:102D00004FF07E5303F5E003FEF71EF902F037B9EA
:102D1000FB79522B6FD14FF000004FF07E5101F53F
:102D2000E0014FF000024FF03F4303F57003FEF760
:102D30000BF946F6D400C2F200004FF0010143F255
:102D40003A72FDF7C1FD4FF000004FF000014FF067
:102D500000024FF0404303F5C013FEF7F5F84FF0C3
:102D600000004FF0804101F500214FF000024FF0CC
:102D70000003FEF7E9F84FF000004FF000014FF0BC
:102D800000024FF0804303F50023FEF7DDF84FF01B
:102D900000004FF0404101F500214FF000024FF0DC
:102DA0000003FEF7D1F84FF000004FF0804101F52D
:102DB00000214FF000024FF0804303F50023FEF79F
:102DC000C3F846F6D000C2F200004FF0010143F212
:102DD0003A72FDF779FD4FF000004FF07E5101F59A
:102DE000E0014FF000024FF07E5303F5E003FEF7E1
:102DF000ABF802F0C4B8FB79532B6DD14FF0000053
:102E00004FF07E5101F5E0014FF000024FF03F43DB
:102E100003F57003FEF798F846F6D400C2F20000FE
:102E20004FF0010143F23A72FDF74EFD4FF0000002
:102E30004FF0804101F500214FF000024FF00003F8
:102E4000FEF782F84FF000004FF000014FF0000253
:102E50004FF0404303F50023FEF776F84FF00000F3
:102E60004FF0404101F500214FF000024FF0000308
:102E7000FEF76AF84FF000004FF000014FF000023B
:102E80004FF0404303F50023FEF75EF84FF00000DB
:102E90004FF0804101F500214FF000024FF0000398
:102EA000FEF752F846F6D000C2F200004FF00101E2
:102EB00043F23A72FDF708FD4FF000004FF07E51EB
:102EC00001F5E0014FF000024FF0404303F5E0133D
:102ED000FEF73AF802F053B8FB79542B55D14FF076
:102EE00000004FF0804101F580214FF000024FF0CB
:102EF0003F4303F57003FEF727F846F6D400C2F20D
:102F000000004FF0010143F23A72FDF7DDFC4FF093
:102F100000004FF000014FF000024FF0404303F576
:102F2000C013FEF711F84FF000004FF03F4101F5DC
:102F300078014FF000024FF00003FEF705F84FF064
:102F400000004FF0804101F500214FF000024FF0EA
:102F50000003FDF7F9FF46F6D000C2F200004FF083
:102F6000010143F23A72FDF7AFFC4FF000004FF061
:102F70007E5101F5E0014FF000024FF0804303F570
:102F8000E013FDF7E1FF01F0FABFFB79552B55D1B6
:102F90004FF000004FF07E5101F5E0014FF00002CC
:102FA0004FF0404303F5E013FDF7CEFF46F6D400A3
:102FB000C2F200004FF0010143F23A72FDF784FCC7
:102FC0004FF000004FF000014FF000024FF080433F
:102FD00003F5C013FDF7B8FF4FF000004FF080413C
:102FE00001F500214FF000024FF00003FDF7ACFFA8
:102FF0004FF000004FF000014FF000024FF040434F
:1030000003F5C013FDF7A0FF46F6D000C2F20000A2
:103010004FF0010143F23A72FDF756FC4FF0000009
:103020004FF07E5101F5E0014FF000024FF0804378
:1030300003F5E013FDF788FF01F0A1BFFB79562BE4
:103040004DD14FF000004FF07E5101F5E0014FF0FF
:1030500000024FF0404303F5E013FDF775FF46F61D
:10306000D400C2F200004FF0010143F23A72FDF7C2
:103070002BFC4FF000004FF07E5101F5F0014FF0B6
:1030800000024FF0804303F5C013FDF75DFF4FF0E2
:1030900000004FF07E5101F5F0014FF000024FF0BB
:1030A000404303F5C013FDF74FFF46F6D000C2F2D0
:1030B00000004FF0010143F23A72FDF705FC4FF0BA
:1030C00000004FF07E5101F5E0014FF000024FF09B
:1030D000804303F5E013FDF737FF01F050BFFB79A4
:1030E000572B65D14FF000004FF07E5101F5E00104
:1030F0004FF000024FF0404303F5E013FDF724FFCB
:1031000046F6D400C2F200004FF0010143F23A72D9
:10311000FDF7DAFB4FF000004FF000014FF0000226
:103120004FF0804303F5C013FDF70EFF4FF0000092
:103130004FF07E5101F5F0014FF000024FF0404397
:1031400003F5C013FDF700FF4FF000004FF07E5174
:1031500001F5F0014FF000024FF0804303F5C0137A
:10316000FDF7F2FE4FF000004FF000014FF00002BB
:103170004FF0404303F5C013FDF7E6FE46F6D000DE
:10318000C2F200004FF0010143F23A72FDF79CFBDE
:103190004FF000004FF07E5101F5E0014FF00002CA
:1031A0004FF0804303F5E013FDF7CEFE01F0E7BEDC
:1031B000FB79582B6DD14FF000004FF07E5101F597
:1031C000E0014FF000024FF0404303F5E013FDF73C
:1031D000BBFE46F6D400C2F200004FF0010143F2FC
:1031E0003A72FDF771FB4FF000004FF0804101F59E
:1031F00000214FF000024FF0804303F5C013FDF7AC
:10320000A3FE46F6D000C2F200004FF0010143F2E7
:103210003A72FDF759FB4FF000004FF000014FF0FC
:1032200000024FF0404303F5C013FDF78DFE46F654
:10323000D400C2F200004FF0010143F23A72FDF7F0
:1032400043FB4FF000004FF0404101F500214FF0EB
:1032500000024FF0804303F5C013FDF775FE46F6FC
:10326000D000C2F200004FF0010143F23A72FDF7C4
:103270002BFB4FF000004FF07E5101F5E0014FF0C5
:1032800000024FF0804303F5E013FDF75DFE01F00F
:1032900076BEFB79592B67D14FF000004FF080418B
:1032A00001F580214FF000024FF03F4303F570031A
:1032B000FDF74AFE46F6D400C2F200004FF00101CD
:1032C00043F23A72FDF700FB4FF000004FF00001AF
:1032D0004FF000024FF0404303F50023FDF734FEAA
:1032E0004FF000004FF03F4101F578014FF0000230
:1032F0004FF0404303F50023FDF726FE4FF000009A
:103300004FF07E5101F5F0014FF000024FF0804385
:1033100003F50023FDF718FE4FF000004FF07E513B
:1033200001F5F0014FF000024FF0404303F5002398
:10333000FDF70AFE46F6D000C2F200004FF0010190
:1033400043F23A72FDF7C0FA4FF000004FF07E51A1
:1033500001F5E0014FF000024FF0804303F5E01368
:10336000FDF7F2FD01F00BBEFB795A2B57D14FF060
:1033700000004FF07E5101F5E0014FF000024FF0E8
:10338000404303F5E013FDF7DFFD46F6D400C2F23B
:1033900000004FF0010143F23A72FDF795FA4FF049
:1033A00000004FF0804101F500214FF000024FF086
:1033B0000003FDF7C9FD4FF000004FF0404101F55B
:1033C00000214FF000024FF0804303F5C013FDF7DA
:1033D000BBFD4FF000004FF0804101F500214FF0A0
:1033E00000024FF00003FDF7AFFD46F6D000C2F239
:1033F00000004FF0010143F23A72FDF765FA4FF019
:1034000000004FF07E5101F5E0014FF000024FF057
:103410007E5303F5E003FDF797FD01F0B0BDFB79A6
:10342000612B6FD14FF000004FF07E5101F5E001AC
:103430004FF000024FF0404303F58013FDF784FD89
:1034400046F6D400C2F200004FF0010143F23A7296
:10345000FDF73AFA4FF000004FF07E5101F5E00120
:103460004FF000024FF03F4303F57003FDF76CFD92
:103470004FF000004FF07E5101F5E0014FF00002E7
:103480004FF07E5303F5E003FDF75EFD4FF00000C3
:103490004FF000014FF000024FF08043FDF754FD64
:1034A0004FF000004FF040414FF000024FF03F431B
:1034B00003F57003FDF748FD4FF000004FF0804129
:1034C0004FF000024FF03F4303F57003FDF73CFD62
:1034D00046F6D000C2F200004FF0010143F23A720A
:1034E000FDF7F2F94FF000004FF07E5101F5E001D9
:1034F0004FF000024FF0804303F58013FDF724FDE9
:1035000001F03DBDFB79622B53D14FF000004FF02D
:1035100080414FF000024FF0404303F5C013FDF728
:1035200013FD46F6D400C2F200004FF0010143F251
:103530003A72FDF7C9F94FF000004FF000014FF06B
:1035400000024FF0804303F58013FDF7FDFC4FF0C0
:1035500000004FF080414FF000024FF03F4303F571
:103560007003FDF7F1FC4FF000004FF040414FF0C9
:1035700000024FF03F4303F57003FDF7E5FC46F60C
:10358000D000C2F200004FF0010143F23A72FDF7A1
:103590009BF94FF000004FF0804101F500214FF002
:1035A00000024FF0804303F58013FDF7CDFC01F0DE
:1035B000E6BCFB79632B73D14FF000004FF08041E4
:1035C00001F580114FF000024FF0404303F58013E6
:1035D000FDF7BAFC46F6D400C2F200004FF001013C
:1035E00043F23A72FDF770F94FF000004FF03F419F
:1035F00001F578014FF000024FF03F4303F57003EF
:10360000FDF7A2FC4FF000004FF03F4101F57801BB
:103610004FF000024FF07E5303F5E003FDF794FCFA
:103620004FF000004FF000014FF000024FF07E53CA
:1036300003F5F003FDF788FC4FF000004FF07E51DA
:1036400001F5F0014FF000024FF07E5303F5E00367
:10365000FDF77AFC4FF000004FF07E5101F5F001CC
:103660004FF000024FF03F4303F57003FDF76CFC91
:1036700046F6D000C2F200004FF0010143F23A7268
:10368000FDF722F94FF000004FF07E5101F5E00107
:103690004FF000024FF08043FDF756FC01F06FBC85
:1036A000FB79642B53D14FF000004FF0804101F5BE
:1036B00000214FF000024FF0404303F50023FDF7D7
:1036C00043FC46F6D400C2F200004FF0010143F281
:1036D0003A72FDF7F9F84FF000004FF040414FF01B
:1036E00000024FF07E5303F5E003FDF72DFC4FF091
:1036F00000004FF080414FF000024FF07E5303F581
:10370000E003FDF721FC4FF000004FF000014FF007
:1037100000024FF0404303F58013FDF715FC46F619
:10372000D000C2F200004FF0010143F23A72FDF7FF
:10373000CBF84FF000004FF080414FF000024FF007
:10374000804303F5A013FDF7FFFB01F018BCFB79E4
:10375000652B7BD14FF000004FF07E5101F5F00159
:103760004FF000024FF0404303F50023FDF7ECFB60
:1037700046F6D400C2F200004FF0010143F23A7263
:10378000FDF7A2F84FF000004FF080414FF000022B
:103790004FF00003FDF7D8FB4FF000004FF03F4122
:1037A00001F570014FF000024FF03F4303F578033D
:1037B000FDF7CAFB4FF000004FF040414FF0000210
:1037C0004FF07E5303F5F003FDF7BEFB4FF0000012
:1037D0004FF000014FF000024FF07E5303F5E0037D
:1037E000FDF7B2FB4FF000004FF07E5101F5E00114
:1037F0004FF000024FF07E5303F5F003FDF7A4FBFA
:103800004FF000004FF080414FF000024FF03F4377
:1038100003F57803FDF798FB46F6D000C2F20000EE
:103820004FF0010143F23A72FDF74EF84FF00000FD
:103830004FF07E5101F5F0014FF000024FF0804350
:1038400003F58013FDF780FB01F099BBFB79662B34
:1038500040F084804FF000004FF080414FF00002B4
:103860004FF03F4303F57003FDF76EFB46F6D400BF
:10387000C2F200004FF0010143F23A72FDF724F862
:103880004FF000004FF000014FF000024FF04043B6
:1038900003F58013FDF758FB4FF000004FF07E5109
:1038A00001F5E0014FF000024FF03F4303F57003D4
:1038B000FDF74AFB4FF000004FF07E5101F5E001AB
:1038C0004FF000024FF07E5303F5E003FDF73CFBA1
:1038D00046F6D000C2F200004FF0010143F23A7206
:1038E000FCF7F2FF4FF000004FF0404101F580215E
:1038F0004FF000024FF08043FDF726FB46F6D40060
:10390000C2F200004FF0010143F23A72FCF7DCFF13
:103910004FF000004FF0804101F580214FF0000290
:103920004FF00003FDF710FB46F6D000C2F2000096
:103930004FF0010143F23A72FCF7C6FF4FF000006E
:103940004FF07E5101F5E0014FF000024FF080434F
:1039500003F50023FDF7F8FA01F011BBFB79672BA3
:1039600040F090804FF000004FF07E5101F5E001F3
:103970004FF000024FF04043FDF7E6FA46F6D40060
:10398000C2F200004FF0010143F23A72FCF79CFFD3
:103990004FF000004FF07E5101F5F0014FF00002B2
:1039A0004FF07E5303F5E003FDF7CEFA4FF0000031
:1039B0004FF07E5101F5F0014FF000024FF03F4310
:1039C00003F57003FDF7C0FA4FF000004FF000015F
:1039D0004FF000024FF0404303F58023FDF7B4FAA7
:1039E0004FF000004FF03F4101F578014FF0000229
:1039F0004FF03F4303F57803FDF7A6FA4FF00000C0
:103A00004FF03F4101F578014FF000024FF07E5337
:103A100003F5F003FDF798FA4FF000004FF07E51E8
:103A200001F5F0014FF000024FF07E5303F5F00373
:103A3000FDF78AFA4FF000004FF07E5101F5F001DA
:103A40004FF000024FF03F4303F57803FDF77CFA97
:103A500046F6D000C2F200004FF0010143F23A7284
:103A6000FCF732FF4FF000004FF07E5101F5E0010E
:103A70004FF000024FF0804303F59013FDF764FA16
:103A800001F07DBAFB79682B40F084804FF0000094
:103A90004FF07E5101F5F0014FF000024FF03F432F
:103AA00003F57003FDF750FA46F6D400C2F20000A9
:103AB0004FF0010143F23A72FCF706FF4FF00000AD
:103AC0004FF000014FF000024FF0404303F5801328
:103AD000FDF73AFA46F6D000C2F200004FF00101BD
:103AE00043F23A72FCF7F0FE4FF000004FF0000195
:103AF0004FF000024FF0804303F58023FDF724FAD6
:103B000046F6D400C2F200004FF0010143F23A72CF
:103B1000FCF7DAFE4FF000004FF07E5101F5E001B6
:103B20004FF000024FF03F4303F57003FDF70CFA2E
:103B30004FF000004FF07E5101F5E0014FF0000220
:103B40004FF07E5303F5E003FDF7FEF94FF0000060
:103B50004FF000014FF000024FF08043FDF7F4F901
:103B600046F6D000C2F200004FF0010143F23A7273
:103B7000FCF7AAFE4FF000004FF07E5101F5F00176
:103B80004FF000024FF07E5303F5E003FDF7DCF940
:103B900001F0F5B9FB79692B5DD14FF000004FF0D2
:103BA000804101F580214FF000024FF03F4303F5C3
:103BB0007003FDF7C9F946F6D400C2F200004FF0D9
:103BC000010143F23A72FCF77FFE4FF000004FF024
:103BD00000014FF000024FF0404303F50023FDF7D2
:103BE000B3F946F6D000C2F200004FF0010143F2F3
:103BF0003A72FCF769FE4FF000004FF000014FF001
:103C000000024FF03F4303F57003FDF79DF946F6C0
:103C1000D400C2F200004FF0010143F23A72FCF707
:103C200053FE46F6D000C2F200004FF0010143F20D
:103C30003A72FCF749FE4FF000004FF0804101F569
:103C400080214FF000024FF0804303F5A013FDF7F1
:103C50007BF901F094B9FB796A2B77D14FF0000022
:103C60004FF07E5101F5F0014FF000024FF03F435D
:103C700003F57803FDF768F946F6D400C2F20000B8
:103C80004FF0010143F23A72FCF71EFE4FF00000C4
:103C90004FF07E5101F5E0014FF000024FF07E53EE
:103CA00003F5E003FDF750F94FF000004FF07E51AF
:103CB00001F5E0014FF000024FF03F4303F57003C0
:103CC000FDF742F94FF000004FF000014FF0000205
:103CD0004FF04043FDF738F946F6D000C2F200003D
:103CE0004FF0010143F23A72FCF7EEFD4FF0000095
:103CF0004FF000014FF000024FF03F4303F5700317
:103D0000FDF722F946F6D400C2F200004FF001019F
:103D100043F23A72FCF7D8FD46F6D000C2F200003A
:103D20004FF0010143F23A72FCF7CEFD4FF0000074
:103D30004FF07E5101F5F0014FF000024FF080434B
:103D400003F59013FDF700F901F019B9FB796B2B1E
:103D500079D14FF000004FF07E5101F5F0014FF0A6
:103D600000024FF03F4303F57003FDF7EDF846F610
:103D7000D400C2F200004FF0010143F23A72FCF7A6
:103D8000A3FD4FF000004FF000014FF000024FF094
:103D9000404303F59013FDF7D7F846F6D000C2F282
:103DA00000004FF0010143F23A72FCF78DFD4FF035
:103DB00000004FF07E5101F5F0014FF000024FF08E
:103DC0007E5303F5F003FDF7BFF846F6D400C2F2C8
:103DD00000004FF0010143F23A72FCF775FD4FF01D
:103DE00000004FF03F4101F578014FF000024FF025
:103DF0007E5303F5F003FDF7A7F84FF000004FF0F6
:103E00007E5101F5F0014FF000024FF07E5303F5B3
:103E1000F003FDF799F846F6D000C2F200004FF02B
:103E2000010143F23A72FCF74FFD4FF000004FF0F2
:103E300080414FF000024FF07E5303F5E003FDF7A1
:103E400083F801F09CB8FB796C2B3DD14FF000005A
:103E50004FF0804101F580214FF000024FF03F43C9
:103E600003F57003FDF770F846F6D400C2F20000C7
:103E70004FF0010143F23A72FCF726FD4FF00000CB
:103E80004FF000014FF000024FF0404303F5801364
:103E9000FDF75AF846F6D000C2F200004FF00101DB
:103EA00043F23A72FCF710FD4FF000004FF08041F2
:103EB00001F580214FF000024FF0804303F5A0137D
:103EC000FDF742F801F05BB8FB796D2B67D14FF03D
:103ED00000004FF07E5101F5E0014FF000024FF07D
:103EE0003F4303F57003FDF72FF846F6D400C2F206
:103EF00000004FF0010143F23A72FCF7E5FC4FF08D
:103F000000004FF07E5101F5D0014FF000024FF05C
:103F1000404303F58023FDF717F84FF000004FF002
:103F20007E5101F5D0014FF000024FF0804303F5C0
:103F30008023FDF709F84FF000004FF07E5101F5A6
:103F4000D0014FF000024FF0404303F58023FCF70F
:103F5000FBFF4FF000004FF07E5101F5D0010FF64E
:103F60009853D3E90023FCF7EFFF46F6D000C2F2E6
:103F700000004FF0010143F23A72FCF7A5FC4FF04C
:103F800000004FF07E5101F5E0014FF000024FF0CC
:103F90007E5303F5E003FCF7D7FF00F0F0BFFB7999
:103FA0006E2B40F084804FF000004FF07E5101F501
:103FB000F0014FF000024FF03F4303F57003FCF7B0
:103FC000C3FF46F6D400C2F200004FF0010143F2F5
:103FD0003A72FCF779FC4FF000004FF000014FF00F
:103FE00000024FF0404303F50023FCF7ADFF46F617
:103FF000D000C2F200004FF0010143F23A72FCF728
:1040000063FC4FF000004FF000014FF000024FF052
:104010007E5303F5E003FCF797FF46F6D400C2F2A7
:1040200000004FF0010143F23A72FCF74DFC4FF0F3
:1040300000004FF07E5101F5F0014FF000024FF00B
:104040003F4303F57003FCF77FFF4FF000004FF094
:104050007E5101F5F0014FF000024FF07E5303F561
:10406000E003FCF771FF4FF000004FF000014FF04C
:1040700000024FF08043FCF767FF46F6D000C2F223
:1040800000004FF0010143F23A72FCF71DFC4FF0C3
:1040900000004FF07E5101F5C0014FF000024FF0DB
:1040A0007E5303F5E003FCF74FFF00F068BFFB7998
:1040B0006F2B65D14FF000004FF07E5101F5F001FC
:1040C0004FF000024FF04043FCF73EFF46F6D400AD
:1040D000C2F200004FF0010143F23A72FCF7F4FB28
:1040E0004FF000004FF07E5101F5E0014FF000026B
:1040F0004FF03F4303F57003FCF726FF4FF000003D
:104100004FF07E5101F5E0014FF000024FF07E5379
:1041100003F5E003FCF718FF4FF000004FF03F41BC
:1041200001F570014FF000024FF07E5303F5E003FC
:10413000FCF70AFF4FF000004FF03F4101F570011E
:104140004FF000024FF03F4303F57003FCF7FCFE15
:1041500046F6D000C2F200004FF0010143F23A727D
:10416000FCF7B2FB4FF000004FF0804101F5402119
:104170004FF000024FF08043FCF7E6FE00F0FFBE78
:10418000FB79702B75D14FF000004FF07E5101F597
:10419000F0014FF000024FF03F4303F57003FCF7CE
:1041A000D3FE46F6D400C2F200004FF0010143F204
:1041B0003A72FCF789FB4FF000004FF000014FF01E
:1041C00000024FF0404303F50023FCF7BDFE4FF023
:1041D00000004FF07E5101F5E0014FF000024FF07A
:1041E0003F4303F57003FCF7AFFE4FF000004FF0C4
:1041F0007E5101F5E0014FF000024FF07E5303F5D0
:10420000E003FCF7A1FE4FF000004FF03F4101F545
:1042100070014FF000024FF07E5303F5E003FCF70E
:1042200093FE4FF000004FF03F4101F570014FF059
:1042300000024FF03F4303F57003FCF785FE46F69E
:10424000D000C2F200004FF0010143F23A72FCF7D5
:104250003BFB4FF000004FF0804101F540214FF053
:1042600000024FF0804303F58013FCF76DFE00F071
:1042700086BEFB79712B40F082804FF000004FF03A
:10428000804101F500214FF000024FF0404303F55B
:104290008013FCF759FE46F6D400C2F200004FF03E
:1042A000010143F23A72FCF70FFB4FF000004FF0B0
:1042B0003F4101F570014FF000024FF07E5303F5CE
:1042C000E003FCF741FE4FF000004FF03F4101F5E5
:1042D00070014FF000024FF03F4303F57003FCF70D
:1042E00033FE4FF000004FF07E5101F5E0014FF03A
:1042F00000024FF03F4303F57003FCF725FE4FF03B
:1043000000004FF07E5101F5E0014FF000024FF048
:104310007E5303F5E003FCF717FE4FF000004FF06B
:1043200000014FF000024FF0804303F50023FCF73B
:104330000BFE4FF000004FF07E5101F5E0014FF011
:1043400000024FF03F4303F57003FCF7FDFD46F616
:10435000D000C2F200004FF0010143F23A72FCF7C4
:10436000B3FA4FF000004FF07E5101F5E0014FF03D
:1043700000024FF08043FCF7E7FD00F000BEFB7940
:10438000722B79D14FF000004FF07E5101F5F00112
:104390004FF000024FF03F4303F57003FCF7D4FDEC
:1043A00046F6D400C2F200004FF0010143F23A7227
:1043B000FCF78AFA4FF000004FF000014FF00002C6
:1043C0004FF0404303F50023FCF7BEFD46F6D00056
:1043D000C2F200004FF0010143F23A72FCF774FAA6
:1043E0004FF000004FF000014FF000024FF07E53FD
:1043F00003F5E003FCF7A8FD46F6D400C2F2000086
:104400004FF0010143F23A72FCF75EFA4FF0000000
:104410004FF07E5101F5F0014FF000024FF03F43A5
:1044200003F57803FCF790FD4FF000004FF07E514C
:1044300001F5F0014FF000024FF07E5303F5F00359
:10444000FCF782FD46F6D000C2F200004FF00101F9
:1044500043F23A72FCF738FA4FF000004FF07E5109
:1044600001F5C0014FF000024FF0804303F5002337
:10447000FCF76AFD00F083BDFB79732B77D14FF019
:1044800000004FF07E5101F5E0014FF000024FF0C7
:104490003F4303F57803FCF757FD46F6D400C2F21C
:1044A00000004FF0010143F23A72FCF70DFA4FF0B1
:1044B00000004FF07E5101F5F0014FF000024FF087
:1044C0007E5303F5E003FCF73FFD4FF000004FF093
:1044D0007E5101F5F0014FF000024FF03F4303F52C
:1044E0007003FCF731FD4FF000004FF0404101F543
:1044F00000214FF000024FF03F4303F57803FCF733
:1045000023FD4FF000004FF07E5101F5F0014FF018
:1045100000024FF03F4303F57003FCF715FD4FF029
:1045200000004FF07E5101F5F0014FF000024FF016
:104530007E5303F5E003FCF707FD46F6D000C2F218
:1045400000004FF0010143F23A72FCF7BDF94FF061
:1045500000004FF07E5101F5E0014FF000024FF0F6
:10456000804303F50023FCF7EFFC00F008BDFB7966
:10457000742B6BD14FF000004FF07E5101F5E0013C
:104580004FF000024FF0404303F58013FCF7DCFCD2
:1045900046F6D400C2F200004FF0010143F23A7235
:1045A000FCF792F94FF000004FF0804101F5002137
:1045B0004FF000024FF00003FCF7C6FC46F6D000B7
:1045C000C2F200004FF0010143F23A72FCF77CF9AD
:1045D0004FF000004FF03F4101F578014FF000022D
:1045E0004FF03F4303F57003FCF7AEFC46F6D400F2
:1045F000C2F200004FF0010143F23A72FCF764F995
:104600004FF000004FF000014FF000024FF08043E8
:1046100003F58013FCF798FC46F6D000C2F20000C8
:104620004FF0010143F23A72FCF74EF94FF00000EF
:104630004FF0804101F580214FF000024FF07E5392
:1046400003F5E003FCF780FC00F099BCFB79752BC7
:1046500040F08E804FF000004FF07E5101F5E001F8
:104660004FF000024FF0404303F58013FCF76CFC61
:1046700046F6D400C2F200004FF0010143F23A7254
:10468000FCF722F94FF000004FF000014FF000025C
:104690004FF08043FCF758FC4FF000004FF07E5184
:1046A00001F5E0014FF000024FF07E5303F5E00307
:1046B000FCF74AFC4FF000004FF07E5101F5E0019D
:1046C0004FF000024FF00003FCF73EFC4FF00000FB
:1046D0004FF07E5101F5E0014FF000024FF03F43F3
:1046E00003F57003FCF730FC46F6D000C2F2000080
:1046F0004FF0010143F23A72FCF7E6F84FF0000088
:104700004FF000014FF000024FF04043FCF71CFC5B
:1047100046F6D400C2F200004FF0010143F23A72B3
:10472000FCF7D2F84FF000004FF000014FF000020C
:104730004FF0804303F50023FCF706FC46F6D0005B
:10474000C2F200004FF0010143F23A72FCF7BCF8EC
:104750004FF000004FF07E5101F5E0014FF00002F4
:104760004FF07E5303F5E003FCF7EEFB00F007BCCF
:10477000FB79762B4CD14FF000004FF07E5101F5C4
:10478000E0014FF000024FF0404303F58013FCF7C7
:10479000DBFB46F6D400C2F200004FF0010143F209
:1047A0003A72FCF791F84FF000004FF07E5101F59E
:1047B000F0014FF000024FF0804303F50023FCF7B7
:1047C000C3FB4FF000004FF07E5101F5F0014FF0B8
:1047D00000024FF0404303F50023FCF7B5FB46F61B
:1047E000D000C2F200004FF0010143F23A72FCF730
:1047F0006BF84FF000004FF07E5101F5E0014FF0F3
:1048000000024FF0804303F58013FCF79DFBB6E3F5
:10481000FB79772B68D14FF000004FF07E5101F506
:10482000C0014FF000024FF0404303F58013FCF746
:104830008BFB46F6D400C2F200004FF0010143F2B8
:104840003A72FCF741F84FF000004FF07E5101F54D
:10485000E0014FF000024FF0804303F50023FCF726
:1048600073FB4FF000004FF07E5101F5E0014FF077
:1048700000024FF0404303F50023FCF765FB4FF0C7
:1048800000004FF07E5101F5E0014FF000024FF0C3
:10489000804303F50023FCF757FB4FF000004FF077
:1048A0007E5101F5E0014FF000024FF0404303F567
:1048B0000023FCF749FB46F6D000C2F200004FF09F
:1048C000010143F23A72FBF7FFFF4FF000004FF097
:1048D0007E5101F5C0014FF000024FF0804303F517
:1048E0008013FCF731FB4AE3FB79782B6CD14FF056
:1048F00000004FF07E5101F5E0014FF000024FF053
:10490000404303F58013FCF71FFB46F6D400C2F2C8
:1049100000004FF0010143F23A72FBF7D5FF4FF070
:1049200000004FF0804101F500214FF000024FF0F0
:10493000804303F50023FCF707FB46F6D000C2F2E4
:1049400000004FF0010143F23A72FBF7BDFF4FF058
:1049500000004FF000014FF000024FF0404303F51C
:104960000023FCF7F1FA46F6D400C2F200004FF043
:10497000010143F23A72FBF7A7FF4FF000004FF03E
:10498000404101F500214FF000024FF0804303F554
:104990000023FCF7D9FA46F6D000C2F200004FF02F
:1049A000010143F23A72FBF78FFF4FF000004FF026
:1049B000804101F580114FF000024FF07E5303F566
:1049C000E003FCF7C1FADAE2FB79792B6ED14FF004
:1049D00000004FF07E5101F5E0014FF000024FF072
:1049E000404303F58013FCF7AFFA46F6D400C2F259
:1049F00000004FF0010143F23A72FBF765FF4FF000
:104A000000004FF07E5101F5F0014FF000024FF031
:104A10007E5303F5F003FCF797FA46F6D000C2F296
:104A200000004FF0010143F23A72FBF74DFF4FF0E7
:104A300000004FF07E5101F5F0014FF000024FF001
:104A40003F4303F57803FCF77FFA46F6D400C2F241
:104A500000004FF0010143F23A72FBF735FF4FF0CF
:104A600000004FF0404101F500214FF000024FF0EF
:104A7000804303F50023FCF767FA46F6D000C2F244
:104A800000004FF0010143F23A72FBF71DFF4FF0B7
:104A900000004FF0804101F580114FF000024FF00F
:104AA0007E5303F5E003FCF74FFA68E2FB797A2BBB
:104AB00056D14FF000004FF07E5101F5E0014FF06C
:104AC00000024FF0404303F58013FCF73DFA46F631
:104AD000D400C2F200004FF0010143F23A72FBF73A
:104AE000F3FE4FF000004FF0804101F500214FF040
:104AF00000024FF00003FCF727FA4FF000004FF0E0
:104B0000404101F500214FF000024FF0804303F5D2
:104B10000023FCF719FA4FF000004FF0804101F537
:104B200000214FF000024FF00003FCF70DFA46F6AB
:104B3000D000C2F200004FF0010143F23A72FBF7DD
:104B4000C3FE4FF000004FF07E5101F5E0014FF041
:104B500000024FF07E5303F5E003FCF7F5F90EE297
:104B6000FB79202B0CD14FF000004FF0804101F574
:104B7000A0114FF000024FF00003FCF7E5F9FEE151
:104B8000FB795B2B5ED14FF000004FF080414FF07E
:104B900000024FF03F4303F57003FCF7D5F946F6EA
:104BA000D400C2F200004FF0010143F23A72FBF769
:104BB0008BFE4FF000004FF000014FF000024FF06D
:104BC000404303F5C013FCF7BFF94FF000004FF06E
:104BD000804101F5C0114FF000024FF00003FCF7D7
:104BE000B3F94FF000004FF000014FF000024FF01A
:104BF000804303F5C013FCF7A7F94FF000004FF016
:104C0000404101F5C0114FF000024FF00003FCF7E6
:104C10009BF946F6D000C2F200004FF0010143F2CA
:104C20003A72FBF751FE4FF000004FF0804101F562
:104C300000114FF000024FF07E5303F5E003FCF744
:104C400083F99CE1FB791A4646F67803C2F2000329
:104C50009A425DD14FF000004FF080414FF00002CA
:104C60004FF03F4303F57003FCF76EF946F6D400AE
:104C7000C2F200004FF0010143F23A72FBF724FE4A
:104C80004FF000004FF0804101F500211CA3D3E953
:104C90000023FCF759F94FF000004FF0804101F577
:104CA000002119A3D3E90023FCF74EF94FF00000CF
:104CB0004FF0404101F5C0114FF000024FF00003EA
:104CC000FCF742F946F6D000C2F200004FF00101B5
:104CD00043F23A72FBF7F8FD4FF000004FF08041CD
:104CE00001F500114FF000024FF07E5303F5E00391
:104CF000FCF72AF943E100BFCDCCCCCCCCCC0440AE
:104D0000C3F5285C8FC214C0C3F5285C8FC2144061
:104D1000FB791A4646F67C03C2F200039A4240F041
:104D20002E814FF000004FF0804101F500114FF04F
:104D300000024FF0404303F58013FCF705F946F6F7
:104D4000D400C2F200004FF0010143F23A72FBF7C7
:104D5000BBFD8DA1D1E900018DA3D3E90023FCF7B0
:104D6000F3F88DA1D1E900018DA3D3E90023FCF76D
:104D7000EBF88DA1D1E900018DA3D3E90023FCF765
:104D8000E3F88DA1D1E900018DA3D3E90023FCF75D
:104D9000DBF88BA1D1E9000187A3D3E90023FCF75D
:104DA000D3F889A1D1E900017FA3D3E90023FCF75F
:104DB000CBF87BA1D1E9000177A3D3E90023FCF76D
:104DC000C3F873A1D1E900016FA3D3E90023FCF775
:104DD000BBF86FA1D1E900017DA3D3E90023FCF763
:104DE000B3F86FA1D1E900017BA3D3E90023FCF75D
:104DF000ABF86FA1D1E9000179A3D3E90023FCF757
:104E0000A3F86FA1D1E9000177A3D3E90023FCF750
:104E10009BF877A1D1E9000177A3D3E90023FCF740
:104E200093F877A1D1E9000177A3D3E90023FCF738
:104E30008BF859A1D1E9000175A3D3E90023FCF750
:104E400083F875A1D1E9000175A3D3E90023FCF72C
:104E50007BF875A1D1E9000171A3D3E90023FCF728
:104E600073F85DA1D1E9000169A3D3E90023FCF740
:104E70006BF86FA1D1E9000163A3D3E90023FCF72C
:104E800063F86DA1D1E900015BA3D3E90023FCF72E
:104E90005BF859A1D1E9000167A3D3E90023FCF72E
:104EA00053F859A1D1E9000161A3D3E90023FCF72C
:104EB0004BF857A1D1E9000147A3D3E90023FCF740
:104EC00043F857A1D1E9000157A3D3E90023FCF728
:104ED0003BF853A1D1E900014FA3D3E90023FCF72C
:104EE00033F84BA1D1E900012BA3D3E90023FCF750
:104EF0002BF853A1D1E9000141A3D3E90023FCF72A
:104F000023F83DA1D1E9000139A3D3E90023FCF73F
:104F10001BF835A1D1E9000129A3D3E90023FCF74F
:104F200013F82FA1D1E9000121A3D3E90023FCF755
:104F30000BF829A1D1E9000119A3D3E90023FCF75B
:104F400003F823A1D1E9000111A3D3E90023FBF762
:104F5000FBFF46F6D000C2F200004FF0010143F221
:104F60003A72FBF7B1FC4FF000004FF080414FF078
:104F700000024FF0804303F58013FBF7E5FF07F1D4
:104F80000807BD4680BD00BFD104E275FD82ADBFFC
:104F9000B48EAA2688BAE2BF99F5622827DAC5BF7F
:104FA000DFF8DA334B02E2BFB815DEE522BED1BF2F
:104FB0009BC937DBDC98E0BFBBBC1DE1B4E0D7BFC9
:104FC000D5CF9B8A5418DDBFA4C937DBDC98E0BF7E
:104FD000D104E275FD82AD3F99F5622827DAC53F1D
:104FE000B815DEE522BED13FBBBC1DE1B4E0D73F22
:104FF000A9BC1DE1B4E0D7BFD5CF9B8A5418DD3FD3
:10500000CA15DEE522BED1BF9BC937DBDC98E03F85
:10501000DFF8DA334B02E23F6C04E275FD82ADBF8C
:10502000B48EAA2688BAE23F6C04E275FD82AD3FD9
:10503000CA15DEE522BED13FA9BC1DE1B4E0D73FD1
:10504000A4C937DBDC98E03F80B584B000AF78605E
:1050500046F60823C2F200031B681A4647F2C02333
:10506000C2F200031344786819464FF4AF6200F0AF
:10507000EDFA0346FB6046F60823C2F200031A6805
:10508000FB681A4446F60823C2F200031A6046F68B
:105090000823C2F200031A6840F277539A4206DDF1
:1050A00046F60823C2F200034FF000021A6046F6EB
:1050B0001023C2F200034FF001021A7007F110072B
:1050C000BD4680BD80B582B000AF4FF000037B606D
:1050D00046F60C23C2F200031B687B6014E07A687A
:1050E00047F2C023C2F200039B5C1846FCF7F8F9B4
:1050F0007A6847F2C023C2F200034FF0440199548A
:105100007B6803F101037B607A6847F2C023C2F237
:1051100000039B5C0D2BE2D046F61023C2F2000385
:105120004FF000021A707B6803F1010246F60C236F
:10513000C2F200031A6046F60C23C2F200031A689A
:1051400040F277539A4206DD46F60C23C2F2000382
:105150004FF000021A6007F10807BD4680BD00BF8E
:1051600080B582B000AF46F68003C2F200031B7820
:105170003B7146F68403C2F200031B783B7048F291
:10518000CC00C2F200004FF461414FF0030200F086
:10519000E9F848F2A400C2F200004FF461414FF078
:1051A000030200F0DFF848F2CC00C2F2000045F242
:1051B0004901C2F200014FF0000200F0C7FB4FF0BE
:1051C00007004FF0070100F053F81DA1D1E90001DD
:1051D0001DA3D3E90023FBF707FE02E000BF00E0B8
:1051E00000BF46F6CC03C2F200031B6803F10103C3
:1051F000032BF3D801A252F823F000BF0D52002078
:105200000F520020235200202552002014E046F6C1
:105210001023C2F200031B78002B01D0FFF752FFCE
:105220000AE009E046F61023C2F200031B78002BC7
:10523000D6D0FBF7C5FBD4E7D3E700BFAFF30080C0
:105240000000000000804C4000000000004055407D
:1052500080B483B000AF786043F20003C4F201036E
:105260007A68C3F8882007F10C07BD4680BC7047F8
:1052700080B582B000AF786039603B684FEAC30206
:105280007B6842EA03031846FFF7E2FF07F10807CD
:10529000BD4680BD80B485B000AF786039604FF006
:1052A0000003FB607B68002B08D07B6803F1FF33B1
:1052B00043F00403FA6842EA0303FB603B68002BF7
:1052C0000AD03B6803F1FF334FEA430343F008037E
:1052D000FA6842EA0303FB6040F20003C4F20503EC
:1052E000FA681A6007F11407BD4680BC704700BF1A
:1052F00080B483B000AF0346FB804EF20013CEF2C1
:105300000003B7F906204FEA5212F98801F01F0195
:105310004FF0010000FA01F143F8221007F10C07E9
:10532000BD4680BC704700BF80B483B000AF034669
:10533000FB804EF20013CEF20003B7F906204FEACD
:105340005212F98801F01F014FF0010000FA01F13B
:1053500002F1600243F8221007F10C07BD4680BC41
:10536000704700BF80B588B000AFF860B9601346E1
:10537000FB714FF00103FB824FF00003BB61FA6841
:1053800048F2CC03C2F200039A4207D0FA6848F20E
:10539000A403C2F200039A4200D000BEBB68002BF7
:1053A00000D100BE00F058FBFA6848F2CC03C2F20C
:1053B00000039A422ED1FB684FF080421A60FB68CE
:1053C0004FF084425A60FB684FF00A021A8146F699
:1053D000F803C2F200031B68BB6142F20003CEF285
:1053E000040342F20002CEF20402126B42F0800289
:1053F0001A634FF00A00FFF797FF42F20003CEF264
:10540000040342F20002CEF20402126B22F0800288
:105410001A6331E0FA6840F20003C4F2010313603A
:10542000FA6840F20003C4F220235360FB684FF097
:105430000B021A8146F6FC03C2F200031B68BB6133
:1054400042F20003CEF2040342F20002CEF2040262
:10545000126B42F480721A634FF00B00FFF764FF87
:1054600042F20003CEF2040342F20002CEF2040242
:10547000126B22F480721A63FB681B684FF0000203
:105480001A71BB68002B21D0BA69BB68B2FBF3F379
:10549000FB61FB6903F00803002B06D0FB694FEAB0
:1054A000131303F10103FB6103E0FB694FEA1313DC
:1054B000FB61FA694FF6FF739A4200D900BEFA69A0
:1054C0004FF6FF739A4201D8FB69FB82FB685B6869
:1054D0004FF00102C3F89C21FB681B68FA8A4FEA6F
:1054E000122292B2D2B21A71FB681B68FA8AD2B247
:1054F0001A70FB685B684FF00002C3F89C21FB68E0
:105500001B68FA791A73FB681B684FF00E021A7257
:10551000FB685B684FF00002C3F81022FB684FF095
:1055200000021A61FB684FF00002DA60FB684FF07E
:1055300000025A61FB684FF00002DA61FA6845F632
:105540004503C2F200031362FB684FF000029A6148
:10555000FB684FF000025A62FB684FF000029A723B
:1055600007F12007BD4680BD80B489B000AFF86068
:10557000B9607A604FF000033B61FA6848F2CC03EF
:10558000C2F200039A4207D0FA6848F2A403C2F2BA
:1055900000039A4200D000BEBB68002B00D100BEC1
:1055A0007B68002B00D100BEFA6848F2CC03C2F23F
:1055B00000039A4206D0FA6848F2A403C2F200033C
:1055C0009A423DD1BB68002B3AD07B68002B37D084
:1055D000FB681B681B7DFB76FB689A7AFB7E42EAC0
:1055E0000303DAB2FB689A72FB7E03F02003002B00
:1055F00023D04FF01003FB617B680F2B01D87B6831
:10560000FB614FF000037B610EE0FB681B68B9682B
:105610003A690A4412781A703B6903F101033B614D
:105620007B6903F101037B617A69FB699A42ECD3E0
:105630007A687B69C3EB02037B607B68002BC7D170
:1056400007F12407BD4680BC704700BF80B487B017
:1056500000AFF860B9607A604FF000033B614FF033
:105660000003FB75FA6848F2CC03C2F200039A42C9
:1056700007D0FA6848F2A403C2F200039A4200D0AD
:1056800000BEBB68002B00D100BE7B68002B00D1A0
:1056900000BEFA6848F2CC03C2F200039A4206D078
:1056A000FA6848F2A403C2F200039A4234D1BB68FC
:1056B000002B31D07B68002B2ED0FB681B681B7D34
:1056C000FB75FB689A7AFB7D42EA0303DAB2FB685A
:1056D0009A7217E0BA683B691344FA681268127844
:1056E000D2B21A703B6903F101033B61FB681B688E
:1056F0001B7DFB75FB689A7AFB7D42EA0303DAB2F5
:10570000FB689A72FB7D03F00103DBB2002B03D030
:105710003A697B689A42DDD33B69184607F11C075A
:10572000BD4680BC704700BF80B584B000AF7860D4
:105730007A6848F2CC03C2F200039A4207D07A6832
:1057400048F2A403C2F200039A4200D000BE7A6875
:1057500048F2CC03C2F200039A4206D07A6848F2BB
:10576000A403C2F200039A4267D17B681B681B7ACC
:10577000DBB203F00F03FB73FB7B0C2B54D801A2AD
:1057800052F823F0B957002029580020D55700209F
:1057900029580020F1570020295800200D580020DA
:1057A0002958002029580020295800202958002075
:1057B00029580020F15700207B685B6A002B00D13C
:1057C00000BE7B685B6A002B30D07B685B6A7868C0
:1057D000984732E07B681B6A002B00D100BE7B68D3
:1057E0001B6A002B24D07B681B6A7868984724E0EA
:1057F0007B68DB69002B00D100BE7B68DB69002B76
:1058000018D07B68DB697868984716E07B689B69ED
:10581000002B00D100BE7B689B69002B0CD07B68FD
:105820009B697868984708E000BE06E000BF04E086
:1058300000BF02E000BF00E000BF07F11007BD4657
:1058400080BD00BF80B487B000AF78607A6848F24E
:10585000CC03C2F200039A4207D07A6848F2A4034C
:10586000C2F200039A4200D000BE7B68DB68002BC6
:1058700000D100BE7B681B69002B00D100BE7A6896
:1058800048F2CC03C2F200039A4206D07A6848F28A
:10589000A403C2F200039A4252D17B68DB68002B5A
:1058A0004ED07B681B69002B4AD07B681B681B7D30
:1058B000FB727B689A7AFB7A42EA0303DAB27B686E
:1058C0009A72FB7A03F02003002B29D04FF01003CB
:1058D0003B617B681A697B685B69C3EB02037B6190
:1058E0007B690F2B01D87B693B614FF00003FB60A4
:1058F00012E07B681B687A68D1687A6852690A444A
:1059000012781A707B685B6903F101027B685A6147
:10591000FB6803F10103FB60FA683B699A42E8D334
:105920007B685A697B681B699A4209D17B684FF092
:1059300000021A617B685B684FF00002C3F88420A4
:1059400007F11C07BD4680BC704700BF80B584B01E
:1059500000AFF860B9601346FB71FA6848F2CC03F7
:10596000C2F200039A4207D0FA6848F2A403C2F2D6
:1059700000039A4200D000BEBB68002B00D100BEDD
:10598000FB79C02B00D900BEFA6848F2CC03C2F202
:1059900000039A4206D0FA6848F2A403C2F2000358
:1059A0009A4223D1BB68002B20D0FB79C02B1DD895
:1059B000FB68BA68DA61FB681A68FB7903F0C00318
:1059C00043F00A03DBB21372FB681B891BB2184653
:1059D000FFF7AAFCFB685B684FF00102C3F8802068
:1059E000FB681B891BB21846FFF782FC07F1100702
:1059F000BD4680BD684620F007018D4689B500AFE1
:105A000048F2CC00C2F20000FFF78EFE4FF00A0011
:105A1000FFF78AFCBD46BDE889408546704700BF58
:105A2000684620F007018D4689B500AF48F2A40012
:105A3000C2F20000FFF778FE4FF00B00FFF774FC96
:105A4000BD46BDE889408546704700BF80B400AFC1
:105A5000BD4680BC704700BF80B58AB000AF46F637
:105A60008803C2F20003BC460FCB8CE80F0042F261
:105A70000003CEF204039B6C4FEA930303F003038D
:105A80004FEA830307F12802134453F8283C3B6193
:105A900042F20003CEF204039B6C4FEA131303F0AF
:105AA00003034FEA830307F12802134453F8283C09
:105AB0007B6142F20003CEF204039B6C4FEA931326
:105AC00003F003034FEA830307F12802134453F85A
:105AD000283CBB6142F20003CEF20403DB6C4FEAC8
