:020000042000DA
:100000000000012099020020090300200B030020BA
:100010000D0300200F03002011030020000000004A
:10002000000000000000000000000000130300209A
:100030001503002000000000170300201903002012
:100040001B0300201D0300201F03002021030020AC
:10005000230300202503002027030020290300207C
:100060002B0300202D0300202F030020310300204C
:10007000330300203503002037030020390300201C
:100080003B0300203D0300203F03002041030020EC
:100090009108002045030020470300204903002069
:1000A0004B030020000000000000000000000000E2
:1000B0000000000000000000000000004D030020D0
:1000C0004F0300205103002053030020550300205C
:1000D00057030020590300205B0300205D0300202C
:1000E0005F030020610300206303002065030020FC
:1000F00067030020690300206B0300206D030020CC
:100100006F0300207103002073030020750300209B
:1001100077030020790300207B0300207D0300206B
:100120007F0300208103002083030020850300203B
:1001300087030020890300208B0300208D0300200B
:100140008F030020910300209303002095030020DB
:1001500097030020990300209B0300209D030020AB
:100160009F030020A1030020A3030020A50300207B
:10017000A7030020A9030020AB030020AD0300204B
:10018000AF030020B1030020B3030020B50300201B
:10019000B7030020B9030020BB030020BD030020EB
:1001A000BF030020C1030020C3030020C5030020BB
:1001B000C7030020C9030020CB030020CD0300208B
:1001C000CF030020D1030020D3030020D50300205B
:1001D000D7030020D9030020DB030020DD0300202B
:1001E000DF030020E1030020E3030020E5030020FB
:1001F000E7030020E9030020EB030020ED030020CB
:10020000EF030020F1030020F3030020F50300209A
:10021000F7030020F9030020FB030020FD0300206A
:10022000FF03002001040020030400200504002037
:1002300007040020090400200B0400200D04002006
:100240000F040020110400201304002015040020D6
:1002500017040020190400201B0400201D040020A6
:100260001F04002021040020230400202504002076
:1002700027040020290400202B0400202D04002046
:100280002F04002031040020330400203504002016
:100290003704002039040020684880476848002857
:1002A0000BD168486849694A884206D091421CBF10
:1002B00050F8043B41F8043BF8D165486549664A6B
:1002C000884206D091421CBF50F8043B41F8043BE1
:1002D000F8D162486249634A914218BF41F8040B61
:1002E000FAD1000000000000000000000000000043
:1002F000DFF874010FF2030E00474FF000004FF0DB
:100300000001DFF868F1FEE7FEE7FEE7FEE7FEE743
:10031000FEE7FEE7FEE7FEE7FEE7FEE7FEE7FEE7B5
:10032000FEE7FEE7FEE7FEE7FEE7FEE7FEE7FEE7A5
:10033000FEE7FEE7FEE7FEE7FEE7FEE7FEE7FEE795
:10034000FEE7FEE7FEE7FEE7FEE7FEE7FEE7FEE785
:10035000FEE7FEE7FEE7FEE7FEE7FEE7FEE7FEE775
:10036000FEE7FEE7FEE7FEE7FEE7FEE7FEE7FEE765
:10037000FEE7FEE7FEE7FEE7FEE7FEE7FEE7FEE755
:10038000FEE7FEE7FEE7FEE7FEE7FEE7FEE7FEE745
:10039000FEE7FEE7FEE7FEE7FEE7FEE7FEE7FEE735
:1003A000FEE7FEE7FEE7FEE7FEE7FEE7FEE7FEE725
:1003B000FEE7FEE7FEE7FEE7FEE7FEE7FEE7FEE715
:1003C000FEE7FEE7FEE7FEE7FEE7FEE7FEE7FEE705
:1003D000FEE7FEE7FEE7FEE7FEE7FEE7FEE7FEE7F5
:1003E000FEE7FEE7FEE7FEE7FEE7FEE7FEE7FEE7E5
:1003F000FEE7FEE7FEE7FEE7FEE7FEE7FEE7FEE7D5
:10040000FEE7FEE7FEE7FEE7FEE7FEE7FEE7FEE7C4
:10041000FEE7FEE7FEE7FEE7FEE7FEE7FEE7FEE7B4
:10042000FEE7FEE7FEE7FEE7FEE7FEE7FEE7FEE7A4
:10043000FEE7FEE7FEE7FEE7FEE70000B10A002068
:10044000000000000000002000000020A813002091
:10045000A8130020A8130020B818002000000000F6
:10046000B818002000190020BD0A002069090020EA
:1004700041F6B803C2F200031A780AB901201870D5
:10048000704700BF41F2A830C2F2000008B503680F
:100490002BB140F20003C0F2000303B1984708BD3E
:1004A00080B483B000AF0346FB804EF20013CEF25F
:1004B0000003B7F906204FEA5212F98801F01F0134
:1004C0004FF0010000FA01F143F8221007F10C0788
:1004D000BD4680BC704700BF80B483B000AF034608
:1004E000FB804EF20013CEF20003B7F906204FEA6C
:1004F0005212F98801F01F014FF0010000FA01F1DA
:1005000002F1200243F8221007F10C07BD4680BC1F
:10051000704700BF80B483B000AF0346FB804EF24B
:100520000013CEF20003B7F906204FEA5212F98801
:1005300001F01F014FF0010000FA01F102F1600229
:1005400043F8221007F10C07BD4680BC704700BF7E
:1005500080B582B000AF0346FB714FF01400FFF787
:10056000BBFF42F20003CEF2040342F20002CEF2DD
:100570000402126B22F040021A6345F20003C4F237
:1005800000034FF000025A6540F20003C4F20A2350
:100590004FF00002C3F8802140F20003C4F20A23A6
:1005A0004FF00002C3F8882140F20003C4F20A238E
:1005B000FA79C3F8842145F20003C4F200034FF036
:1005C00001021A614FF01400FFF7A4FF07F10807BA
:1005D000BD4680BD80B400AF40F20003C4F20A23E0
:1005E0004FF00102C3F88021BD4680BC704700BFB8
:1005F00080B483B000AF786045F20003C4F200031A
:100600007A685A6007F10C07BD4680BC704700BF8E
:1006100080B500AF40F20003C4F20A234FF001029C
:10062000C3F888214FF01400FFF73AFF80BD00BFE8
:1006300080B400AF45F20003C4F200034FF00102A2
:100640001A61BFF34F8FBD4680BC704780B500AFC5
:100650004FF00000FFF77CFF41F6BC03C2F200033D
:100660001B689B681846FFF7C3FFFFF7B3FFFFF750
:10067000CFFF80BD80B485B000AF786041F6BC0389
:10068000C2F200031B68002B06D141F6BC03C2F284
:1006900000037A681A603AE041F6BC03C2F2000334
:1006A0001B68FB6030E0FB685A687B685B689A42B5
:1006B0001CD9FB685B69002B05D141F6BC03C2F273
:1006C00000037A681A60FB685B69002B03D0FB6843
:1006D0005B697A681A61FB685A697B685A61FB68D2
:1006E0007A685A617B68FA681A6110E0FB681B69D6
:1006F000002B06D1FB687A681A617B68FA685A6138
:1007000005E0FB681B69FB60FB68002BCBD107F1A0
:100710001407BD4680BC704780B582B000AF7860DA
:1007200078684FF0000100F035F907F10807BD4681
:1007300080BD00BF80B582B000AF78604FF0000090
:10074000796800F027F907F10807BD4680BD00BFB2
:1007500080B584B000AF786039604FF00003FB6073
:100760004FF0180000F0DAF90346FB60FB687A6886
:100770001A60FB683A689A60FB683A685A60FB68DE
:100780004FF00002DA60FB684FF000021A61FB686C
:100790004FF000025A61F868FFF76CFF07F110078D
:1007A000BD4680BD80B582B000AF41F6BC03C2F249
:1007B00000031B683B603B681B693B600EE03B68C5
:1007C0005A6841F6BC03C2F200031B685B68C3EBC6
:1007D00002023B685A603B681B693B603B68002B28
:1007E000EDD141F6BC03C2F200031B681B69002B6C
:1007F0001CD141F6BC03C2F200031B68DB68002B6E
:100800000CD141F6BC03C2F200031A6841F6BC03E6
:10081000C2F200031B689B68536035E041F6BC03DD
:10082000C2F200034FF000021A602DE041F6BC0353
:10083000C2F200031B687B6041F6BC03C2F20003F6
:100840001B681A6941F6BC03C2F200031A607B6898
:100850004FF000021A6141F6BC03C2F200031B68AC
:100860004FF000025A617B68DB68002B0BD17B687C
:100870001A687B689B6810461946FFF769FF78681D
:1008800000F044F900E000BF07F10807BD4680BD55
:1008900080B582B000AF41F6BC03C2F200031B6812
:1008A0001B68002B08D041F2AC33C2F200031B6876
:1008B0001846FFF731FF07E041F2B033C2F2000300
:1008C0001B681846FFF736FFFFF76CFF41F6BC03C5
:1008D000C2F200031B683B6031E04FF000037B6015
:1008E0003B685B68002B1DD141F6BC03C2F20003DC
:1008F0001B681B68002B08D041F2AC33C2F2000326
:100900001B681846FFF708FF07E041F2B033C2F258
:1009100000031B681846FFF70DFFFFF743FF4FF07A
:1009200001037B607B68002B06D041F6BC03C2F25A
:1009300000031B683B6002E03B681B693B603B684F
:10094000002BCAD1FFF774FE41F6BC03C2F20003CC
:100950001B685B681846FFF74BFEFFF777FE07F151
:100960000807BD4680BD00BF80B500AF4FF0010055
:1009700048F2A061C0F20101FFF7EAFE4FF000006B
:1009800040F64051C0F20301FFF7E2FEFFF75EFEC2
:10099000FEE700BF80B485B000AF786039604FF0EB
:1009A0000003FB607B68002B08D07B6803F1FF33FA
:1009B00043F00403FA6842EA0303FB603B68002B40
:1009C0000AD03B6803F1FF334FEA430343F00803C7
:1009D000FA6842EA0303FB6040F20003C4F2050335
:1009E000FA681A6007F11407BD4680BC704700BF63
:1009F00080B483B000AF7860FEE700BF80B485B0FC
:100A000000AFF860B9607A603B604FF000031846B1
:100A100007F11407BD4680BC704700BF80B584B0A5
:100A200000AF786041F6C003C2F200031B68002BE0
:100A300008D141F6C003C2F2000341F60012C2F22F
:100A400000021A6041F6C003C2F200031B68BB60DB
:100A5000EFF30883FB6041F6C003C2F200031A689B
:100A60007B681A44FB689A420FD94FF000004FF0A0
:100A7000010141F26832C2F200024FF01903FFF7A0
:100A8000BDFF4FF00100FFF7B3FF41F6C003C2F214
:100A900000031A687B681A4441F6C003C2F20003DF
:100AA0001A60BB68184607F11007BD4680BD00BF3D
:100AB00080B400AFBD4680BC704700BF70B541F246
:100AC000A03641F2A035C2F20006C2F20005761B44
:100AD000B61006D0002455F8243001349847A642B9
:100AE000F9D841F2A03541F2A436C2F20005C2F2B3
:100AF0000006761B00F048FCB61006D0002455F81E
:100B0000243001349847A642F9D870BD41F2B4337D
:100B10000146C2F20003186800F046BB41F2B4334C
:100B20000146C2F20003186800F000B82DE9F04F4A
:100B300001F10B04162C83B006462FD80023102495
:100B40008C422CBF194643F00101002930D13046B8
:100B500000F0BEFAB4F5FC7F2ED24FEAD40E41F27B
:100B6000A845C2F2000505EBCE02D368934200F01F
:100B700006825A6803F10805D968304622F0030C52
:100B80009A6863445C688A6044F00104D1605C60E8
:100B900000F0A0FA284603B0BDE8F08F24F0070467
:100BA000E30F8C422CBF194643F001010029CED03F
:100BB0000C2300253360EDE75FEA542E04BF4FEAB3
:100BC000D40E4FEACE0040F0908041F2A845C2F228
:100BD00000052818C368984206D10DE0002A80F26B
:100BE0006F81DB68984207D0596821F003010A1B26
:100BF0000F2AF3DD0EF1FF3E0EF1010E41F2A84780
:100C0000C2F2000707F108018B68994208BF7A68B1
:100C100026D05A6822F0030CC4EB0C020F2A00F312
:100C20009481002AC960896080F29980BCF5007FB8
:100C300080F065814FEADC0C4FF0010A7A6807EB1F
:100C4000CC004FEAAC0C0AFA0CFCD860D0F8088053
:100C50004CEA02027A60C3F80880C8F80C3083605E
:100C60004FF0010C4FEAAE030CFA03FC944500F27E
:100C7000828012EA0C0F08D12EF0030E4FEA4C0CC2
:100C80000EF1040E12EA0C0FF8D007EBCE09F24673
:100C9000C846D8F80C30984507D168E1002A80F2A0
:100CA0007881DB68984500F06281586820F0030085
:100CB000021B0F2AF2DD1D461F19D3F80CC044F0A9
:100CC000010E55F8084F3046BA5042F00102C3F801
:100CD00004E0CCF80840C4F80CC08F60CF607A60A4
:100CE000B960F96000F0F6F954E7BEF1040F9EBF59
:100CF0004FEA941E0EF1380E4FEACE007FF665AF34
:100D0000BEF1140F9CBF0EF15B0E4FEACE007FF6D2
:100D10005CAFBEF1540F9EBF4FEA143E0EF16E0E53
:100D20004FEACE007FF651AFBEF5AA7F9EBF4FEAD5
:100D3000D43E0EF1770E4FEACE007FF646AF40F27A
:100D400054539E4595BF4FEA944E4FF47C700EF17C
:100D50007C0E4FF07E0E98BF4FEACE0035E703EBD6
:100D60000C0203F108053046536843F00103536059
:100D700000F0B0F90EE7D7F80880D8F8043023F077
:100D80000309C4EB09024C4594BF002301230F2A39
:100D9000D8BF43F00103002B00F0A18041F6C40B43
:100DA000D5F80824C2F2000BDBF8003010331B1911
:100DB000B2F1FF3F06D003F57E631F3323F47E6359
:100DC00023F01F0319463046019300F085F9019B7B
:100DD000B0F1FF3F824600F0F48008EB0901814248
:100DE00000F2EC80DBF804209A185145CBF804207F
:100DF00000F04581D5F8085441F2A840C2F2000045
:100E0000B5F1FF3F08BFC0F808A403D05244511AFF
:100E1000CBF804101AF00705304617BFC5F10805D6
:100E20004FF48055AA4405F5805553441B051B0D0E
:100E3000ED1A294600F050F9B0F1FF3F00F02C8187
:100E4000CAEB0001491941F00101DBF8042041F629
:100E5000C403C7F808A0C2F20003AA18B845CBF82B
:100E60000420CAF8041017D0B9F10F0F40F2DF8048
:100E7000A9F10C01052521F0070108EB01000F295C
:100E800085604560D8F8040000F0010041EA0000E8
:100E9000C8F8040000F2AC80D04641F6C403DBF889
:100EA0002C10C2F200038A42DBF8301088BFDA62ED
:100EB00041F6C403C2F200038A4288BF1A6382E08B
:100EC0005C189A68D9683046666803F108058A603C
:100ED00046F00103D160636000F0FCF85AE608EBCD
:100EE000040342F0010244F001043046C8F8044013
:100EF00008F108055A60BB6000F0ECF84AE64FEADA
:100F00005C22042A54D9142A00F289805B324FEA09
:100F1000C208A84441F2A847C2F20007D8F8080066
:100F2000404503D16FE08068804504D0426822F0DC
:100F300003029445F7D3D0F80CC0C3F80CC09860F6
:100F40007A68C360CCF808308AE61F19304644F04E
:100F50000104CF605C6003F10805BA5042F0010261
:100F60008F607A60B960F96000F0B4F812E60AF1B7
:100F7000010A1AF0030F5FD003F1080889E603F1B4
:100F80000802D3689A4208BF0EF1020E3FF436AE53
:100F9000EFE51D461918DA68304655F8083F4C68E9
:100FA000936044F00104DA604C6000F093F8F1E5DE
:100FB0004FEA9C1238324FEAC208AAE7B8453FF41C
:100FC00011AFD7F80880D8F8042022F00302944229
:100FD00094BF00230123121B0F2AD8BF43F0010343
:100FE000002B3FF47CAF3046002500F073F8D1E5CC
:100FF00008F108013046019300F0D6F8019BD7F8BC
:1010000008805A6849E74FF0010AD7F80480921027
:1010100084460AFA02F248EA02027A608DE7542A0C
:1010200024D84FEA1C326E324FEAC20871E701231E
:10103000D046CAF80430C6E74A461EF0030F1346EE
:101040000EF1FF3E33D053F808299A42F5D07B6861
:101050004FEA4C0C9C453FF68EAEBCF1000F3FF4BE
:101060008AAE1CEA030F27D0D6460EE6B2F5AA7F59
:1010700015D84FEADC3277324FEAC20849E7080553
:10108000000D00287FF4B6AED7F808804B4443F03B
:101090000103C8F8043000E701210025D5E640F23D
:1010A000545082420DD94FF47C787E2231E77B6820
:1010B00023EA0C037B60CBE74FEA4C0C0AF1040AED
:1010C000CFE74FEA9C427C324FEAC20821E700BFDB
:1010D000704700BF704700BF38B541F6F804C2F250
:1010E00000040546084600232360FFF797FCB0F193
:1010F000FF3F00D038BD2368002BFBD02B6038BDEC
:10110000F8B541F2A844C2F200040F460546FFF7C5
:10111000DFFFA3685E6826F0030606F57E630F33E3
:10112000DF1B3F0B013F3F03B7F5805F07DB00216B
:101130002846FFF7D1FFA368F318834204D028465E
:10114000FFF7C8FF0020F8BD79422846FFF7C4FF2B
:10115000B0F1FF3F10D0A26841F6C803C2F200030D
:10116000F61B46F00106284656601A68D71B1F601A
:10117000FFF7B0FF0120F8BD00212846FFF7ACFFC4
:10118000A368C21A0F2ADADD41F6B00441F6C8019D
:10119000C2F20004C2F2000142F001022468001B06
:1011A00008605A60CBE700BF2DE9F04105460C46C8
:1011B000002900F08880FFF78BFFA4F1080241F2BC
:1011C000A8405668C2F2000026F00103D0F808C01B
:1011D000D1188C454F6827F0030700F0958016F072
:1011E00001064F605FD00026CC19646814F0010F2F
:1011F00006D1DB19002E7AD08C68C9688C60E1605A
:1012000043F00101D3505160002E47D1B3F5007F68
:101210005BD3590A04299EBF4FEA931C0CF1380C8A
:101220004FEACC0428D914299CBF01F15B0C4FEA8A
:10123000CC0421D954299EBF4FEA133C0CF16E0C0B
:101240004FEACC0418D9B1F5AA7F9EBF4FEAD33C30
:101250000CF1770C4FEACC040ED940F2545C614596
:1012600095BF4FEA934C4FF47C740CF17C0C4FF01B
:101270007E0C98BF4FEACC040419A168A14203D1A7
:1012800064E089688C4204D0486820F003008342FF
:10129000F7D3CB68D3609160CA609A602846BDE8F6
:1012A000F041FFF717BF54F8084C00F1080C121B6F
:1012B0001B199468644547D0D2F80CC0CCF808409C
:1012C000C4F80CC090E7BDE8F081DB084FF0010CDA
:1012D000466800EBC3019B100CFA03F3D1608C68E5
:1012E00046EA030343609460E2608A60D6E78C6854
:1012F0001C4FBC4281D1D35043F00103E260A26095
:1013000053609460D460C9E7FB1816F0010F07D151
:1013100054F8081C521A5B18D4689168A160CC601C
:1013200041F6B4018260C2F2000143F00100506056
:101330000A689342B2D341F6C4032846C2F20003BE
:101340001968FFF7DDFEA9E701264DE7012644688D
:101350004FEAAC0C0B4606FA0CFC44EA0C04446061
:1013600098E700BFB01400204865617020616E648A
:1013700020737461636B20636F6C6C6973696F6E4B
:101380000A00000043000000F8B500BFF8BC08BC2C
:101390009E467047F8B500BFF8BC08BC9E46704733
:0813A000850400207104002007
:1013A800000000000100000002000000B813002047
:1013B8000000000000000000000000000000000025
:1013C8000000000000000000000000000000000015
:1013D800841300200000000000000000000000004E
:1013E80000000000000000000000000000000000F5
:1013F80000000000000000000000000000000000E5
:1014080000000000000000000000000000000000D4
:1014180000000000000000000000000000000000C4
:1014280000000000000000000000000000000000B4
:1014380000000000000000000000000000000000A4
:101448000000000000000000000000000000000094
:101458000000000000000000000000000000000084
:101468000000000000000000000000000000000074
:101478000000000000000000000000000000000064
:101488000000000000000000000000000000000054
:101498000000000000000000000000000000000044
:1014A8000000000000000000A8140020A81400207C
:1014B800B0140020B0140020B8140020B814002084
:1014C800C0140020C0140020C8140020C814002034
:1014D800D0140020D0140020D8140020D8140020E4
:1014E800E0140020E0140020E8140020E814002094
:1014F800F0140020F0140020F8140020F814002044
:1015080000150020001500200815002008150020EF
:10151800101500201015002018150020181500209F
:10152800201500202015002028150020281500204F
:1015380030150020301500203815002038150020FF
:1015480040150020401500204815002048150020AF
:10155800501500205015002058150020581500205F
:10156800601500206015002068150020681500200F
:1015780070150020701500207815002078150020BF
:10158800801500208015002088150020881500206F
:10159800901500209015002098150020981500201F
:1015A800A0150020A0150020A8150020A8150020CF
:1015B800B0150020B0150020B8150020B81500207F
:1015C800C0150020C0150020C8150020C81500202F
:1015D800D0150020D0150020D8150020D8150020DF
:1015E800E0150020E0150020E8150020E81500208F
:1015F800F0150020F0150020F8150020F81500203F
:1016080000160020001600200816002008160020EA
:10161800101600201016002018160020181600209A
:10162800201600202016002028160020281600204A
:1016380030160020301600203816002038160020FA
:1016480040160020401600204816002048160020AA
:10165800501600205016002058160020581600205A
:10166800601600206016002068160020681600200A
:1016780070160020701600207816002078160020BA
:10168800801600208016002088160020881600206A
:10169800901600209016002098160020981600201A
:1016A800A0160020A0160020A8160020A8160020CA
:1016B800B0160020B0160020B8160020B81600207A
:1016C800C0160020C0160020C8160020C81600202A
:1016D800D0160020D0160020D8160020D8160020DA
:1016E800E0160020E0160020E8160020E81600208A
:1016F800F0160020F0160020F8160020F81600203A
:1017080000170020001700200817002008170020E5
:101718001017002010170020181700201817002095
:101728002017002020170020281700202817002045
:1017380030170020301700203817002038170020F5
:1017480040170020401700204817002048170020A5
:101758005017002050170020581700205817002055
:101768006017002060170020681700206817002005
:1017780070170020701700207817002078170020B5
:101788008017002080170020881700208817002065
:101798009017002090170020981700209817002015
:1017A800A0170020A0170020A8170020A8170020C5
:1017B800B0170020B0170020B8170020B817002075
:1017C800C0170020C0170020C8170020C817002025
:1017D800D0170020D0170020D8170020D8170020D5
:1017E800E0170020E0170020E8170020E817002085
:1017F800F0170020F0170020F8170020F817002035
:1018080000180020001800200818002008180020E0
:101818001018002010180020181800201818002090
:101828002018002020180020281800202818002040
:1018380030180020301800203818002038180020F0
:1018480040180020401800204818002048180020A0
:101858005018002050180020581800205818002050
:101868006018002060180020681800206818002000
:1018780070180020701800207818002078180020B0
:101888008018002080180020881800208818002060
:101898009018002090180020981800209818002010
:1018A800A0180020A0180020FFFFFFFF0000020082
:04000005200002993C
:00000001FF
