S02800005768697465426F6172645F506C6F747465725F4D53535F434D335F305F6170702E7372656327
S315200000000000012099020020090300200B03002094
S315200000100D0300200F030020110300200000000024
S315200000200000000000000000000000001303002074
S3152000003015030020000000001703002019030020EC
S315200000401B0300201D0300201F0300202103002086
S315200000502303002025030020270300202903002056
S315200000602B0300202D0300202F0300203103002026
S3152000007033030020350300203703002039030020F6
S315200000803B0300203D0300203F03002041030020C6
S31520000090790900204503002047030020490300205A
S315200000A04B030020000000000000000000000000BC
S315200000B00000000000000000000000004D030020AA
S315200000C04F03002051030020530300205503002036
S315200000D057030020590300205B0300205D03002006
S315200000E05F030020610300206303002065030020D6
S315200000F067030020690300206B0300206D030020A6
S315200001006F03002071030020730300207503002075
S3152000011077030020790300207B0300207D03002045
S315200001207F03002081030020830300208503002015
S3152000013087030020890300208B0300208D030020E5
S315200001408F030020910300209303002095030020B5
S3152000015097030020990300209B0300209D03002085
S315200001609F030020A1030020A3030020A503002055
S31520000170A7030020A9030020AB030020AD03002025
S31520000180AF030020B1030020B3030020B5030020F5
S31520000190B7030020B9030020BB030020BD030020C5
S315200001A0BF030020C1030020C3030020C503002095
S315200001B0C7030020C9030020CB030020CD03002065
S315200001C0CF030020D1030020D3030020D503002035
S315200001D0D7030020D9030020DB030020DD03002005
S315200001E0DF030020E1030020E3030020E5030020D5
S315200001F0E7030020E9030020EB030020ED030020A5
S31520000200EF030020F1030020F3030020F503002074
S31520000210F7030020F9030020FB030020FD03002044
S31520000220FF03002001040020030400200504002011
S3152000023007040020090400200B0400200D040020E0
S315200002400F040020110400201304002015040020B0
S3152000025017040020190400201B0400201D04002080
S315200002601F04002021040020230400202504002050
S3152000027027040020290400202B0400202D04002020
S315200002802F040020310400203304002035040020F0
S315200002903704002039040020684880476848002831
S315200002A00BD168486849694A884206D091421CBFEA
S315200002B050F8043B41F8043BF8D165486549664A45
S315200002C0884206D091421CBF50F8043B41F8043BBB
S315200002D0F8D162486249634A914218BF41F8040B3B
S315200002E0FAD100000000000000000000000000001D
S315200002F0DFF874010FF2030E00474FF000004FF0B5
S315200003000001DFF868F1FEE7FEE7FEE7FEE7FEE71D
S31520000310FEE7FEE7FEE7FEE7FEE7FEE7FEE7FEE78F
S31520000320FEE7FEE7FEE7FEE7FEE7FEE7FEE7FEE77F
S31520000330FEE7FEE7FEE7FEE7FEE7FEE7FEE7FEE76F
S31520000340FEE7FEE7FEE7FEE7FEE7FEE7FEE7FEE75F
S31520000350FEE7FEE7FEE7FEE7FEE7FEE7FEE7FEE74F
S31520000360FEE7FEE7FEE7FEE7FEE7FEE7FEE7FEE73F
S31520000370FEE7FEE7FEE7FEE7FEE7FEE7FEE7FEE72F
S31520000380FEE7FEE7FEE7FEE7FEE7FEE7FEE7FEE71F
S31520000390FEE7FEE7FEE7FEE7FEE7FEE7FEE7FEE70F
S315200003A0FEE7FEE7FEE7FEE7FEE7FEE7FEE7FEE7FF
S315200003B0FEE7FEE7FEE7FEE7FEE7FEE7FEE7FEE7EF
S315200003C0FEE7FEE7FEE7FEE7FEE7FEE7FEE7FEE7DF
S315200003D0FEE7FEE7FEE7FEE7FEE7FEE7FEE7FEE7CF
S315200003E0FEE7FEE7FEE7FEE7FEE7FEE7FEE7FEE7BF
S315200003F0FEE7FEE7FEE7FEE7FEE7FEE7FEE7FEE7AF
S31520000400FEE7FEE7FEE7FEE7FEE7FEE7FEE7FEE79E
S31520000410FEE7FEE7FEE7FEE7FEE7FEE7FEE7FEE78E
S31520000420FEE7FEE7FEE7FEE7FEE7FEE7FEE7FEE77E
S31520000430FEE7FEE7FEE7FEE7FEE70000D90F002015
S315200004400000000000000020000000207024002092
S315200004507024002070240020842900200000000041
S3152000046088290020002A0020D5180020290E0020E7
S3152000047042F68813C2F200031A780AB901201870CE
S31520000480704700BF42F27040C2F2000008B5036810
S315200004902BB140F20003C0F2000303B1984708BD18
S315200004A080B483B000AF0346FB804EF20013CEF239
S315200004B00003B7F906204FEA5212F98801F01F010E
S315200004C04FF0010000FA01F143F8221007F10C0762
S315200004D0BD4680BC704700BF80B483B000AF0346E2
S315200004E0FB804EF20013CEF20003B7F906204FEA46
S315200004F05212F98801F01F014FF0010000FA01F1B4
S3152000050002F1200243F8221007F10C07BD4680BCF9
S31520000510704700BF80B483B000AF0346FB804EF225
S315200005200013CEF20003B7F906204FEA5212F988DB
S3152000053001F01F014FF0010000FA01F102F1600203
S3152000054043F8221007F10C07BD4680BC704700BF58
S3152000055080B582B000AF0346FB714FF01400FFF761
S31520000560BBFF42F20003CEF2040342F20002CEF2B7
S315200005700402126B22F040021A6345F20003C4F211
S3152000058000034FF000025A6540F20003C4F20A232A
S315200005904FF00002C3F8802140F20003C4F20A2380
S315200005A04FF00002C3F8882140F20003C4F20A2368
S315200005B0FA79C3F8842145F20003C4F200034FF010
S315200005C001021A614FF01400FFF7A4FF07F1080794
S315200005D0BD4680BD80B400AF40F20003C4F20A23BA
S315200005E04FF00102C3F88021BD4680BC704700BF92
S315200005F080B483B000AF786045F20003C4F20003F4
S315200006007A685A6007F10C07BD4680BC704700BF68
S3152000061080B500AF40F20003C4F20A234FF0010276
S31520000620C3F888214FF01400FFF73AFF80BD00BFC2
S3152000063080B400AF45F20003C4F200034FF001027C
S315200006401A61BFF34F8FBD4680BC704780B500AF9F
S315200006504FF00000FFF77CFF42F68C13C2F2000336
S315200006601B689B681846FFF7C3FFFFF7B3FFFFF72A
S31520000670CFFF80BD80B485B000AF786042F68C1382
S31520000680C2F200031B68002B06D142F68C13C2F27D
S3152000069000037A681A603AE042F68C13C2F200032D
S315200006A01B68FB6030E0FB685A687B685B689A428F
S315200006B01CD9FB685B69002B05D142F68C13C2F26C
S315200006C000037A681A60FB685B69002B03D0FB681D
S315200006D05B697A681A61FB685A697B685A61FB68AC
S315200006E07A685A617B68FA681A6110E0FB681B69B0
S315200006F0002B06D1FB687A681A617B68FA685A6112
S3152000070005E0FB681B69FB60FB68002BCBD107F17A
S315200007101407BD4680BC704780B582B000AF7860B4
S3152000072078684FF0000100F0C9FB7B68022B17D1D7
S3152000073042F6F013C2F20003D3E90023104619460D
S3152000074017A3D3E9002300F053FC02460B461046BC
S31520000750194642F6F013C2F20003C3E9000119E07C
S315200007607B68012B16D142F6F013C2F20003D3E9BF
S315200007700023104619460AA3D3E9002300F036FCCD
S3152000078002460B461046194642F6F013C2F2000303
S31520000790C3E9000107F10807BD4680BDAFF300801D
S315200007A0DBF97E6ABC74533F80B582B000AF7860B7
S315200007B04FF00000796800F081FB7B68012B17D190
S315200007C042F6D013C2F20003D3E90023104619469D
S315200007D017A3D3E9002300F00BFC02460B46104674
S315200007E0194642F6D013C2F20003C3E9000119E00C
S315200007F07B68022B16D142F6D013C2F20003D3E94E
S315200008000023104619460AA3D3E9002300F0EEFB85
S3152000081002460B461046194642F6D013C2F2000392
S31520000820C3E9000107F10807BD4680BDAFF300808C
S31520000830DBF97E6ABC74533F80B584B000AF786024
S3152000084039604FF00003FB604FF0180001F072F89A
S315200008500346FB60FB687A681A60FB683A689A6010
S31520000860FB683A685A60FB684FF00002DA60FB6862
S315200008704FF000021A61FB684FF000025A61F868D7
S31520000880FFF7F8FE07F11007BD4680BD80B582B0A0
S3152000089000AF42F68C13C2F200031B683B603B6834
S315200008A01B693B600EE03B685A6842F68C13C2F225
S315200008B000031B685B68C3EB02023B685A603B6817
S315200008C01B693B603B68002BEDD142F68C13C2F2CC
S315200008D000031B681B69002B1CD142F68C13C2F245
S315200008E000031B68DB68002B0CD142F68C13C2F286
S315200008F000031A6842F68C13C2F200031B689B6839
S31520000900536035E042F68C13C2F200034FF000022A
S315200009101A602DE042F68C13C2F200031B687B603E
S3152000092042F68C13C2F200031B681A6942F68C1336
S31520000930C2F200031A607B684FF000021A6142F689
S315200009408C13C2F200031B684FF000025A617B68C9
S31520000950DB68002B0BD17B681A687B689B68104686
S315200009601946FFF769FF786800F0DCFF00E000BF5A
S3152000097007F10807BD4680BD80B582B000AF42F6BC
S315200009808C13C2F200031B681B68002B08D042F2AE
S315200009907443C2F200031B681846FFF7BDFE07E04A
S315200009A042F27843C2F200031B681846FFF7FCFEAA
S315200009B0FFF76CFF42F68C13C2F200031B683B6004
S315200009C031E04FF000037B603B685B68002B1DD154
S315200009D042F68C13C2F200031B681B68002B08D05A
S315200009E042F27443C2F200031B681846FFF794FED6
S315200009F007E042F27843C2F200031B681846FFF76D
S31520000A00D3FEFFF743FF4FF001037B607B68002B8B
S31520000A1006D042F68C13C2F200031B683B6002E04C
S31520000A203B681B693B603B68002BCAD1FFF700FE81
S31520000A3042F68C13C2F200031B685B681846FFF768
S31520000A40D7FDFFF703FE07F10807BD4680BD00BFAF
S31520000A5080B582B000AF42F68C13C2F200031B6849
S31520000A60002B2FD042F68C13C2F200031B687B604A
S31520000A7042F68C13C2F200031B681A6942F68C13E5
S31520000A80C2F200031A60786800F04CFF13E042F6C9
S31520000A908C13C2F200031B687B6042F68C13C2F2F1
S31520000AA000031B681A6942F68C13C2F200031A600F
S31520000AB0786800F037FF42F68C13C2F200031B68F9
S31520000AC0002BE4D107F10807BD4680BDB0B582B042
S31520000AD000AF78603960786800F0D6FB42F6E01304
S31520000AE0C2F20003C3E90001386800F0CDFB42F6EC
S31520000AF0C813C2F20003C3E9000142F6C813C2F2CA
S31520000B000003D3E90023104619464FF000024FF0A8
S31520000B10804300F049FD02460B461046194642F630
S31520000B20E813C2F20003C3E9000142F6E013C2F261
S31520000B300003D3E90023104619464FF000024FF078
S31520000B40804300F031FD02460B461046194642F618
S31520000B50D813C2F20003C3E9000142F6E813C2F239
S31520000B600003D3E900231046194600F0F3FB0246A2
S31520000B700B4614461D4642F6D813C2F20003D3E9AB
S31520000B8000231046194600F0E5FB02460B46204698
S31520000B90294600F02DFA02460B461046194601F06A
S31520000BA0EFFA42F6F013C2F20003C3E9000142F65F
S31520000BB0C813C2F20003D3E9000142F6E813C2F2D9
S31520000BC00003D3E9002300F011FA02460B46104633
S31520000BD0194600F0BFFB02460B4614461D4642F658
S31520000BE0D813C2F20003D3E900231046194600F0B9
S31520000BF0B1FB02460B462046294600F0F9F902468B
S31520000C000B461046194601F0BBFA42F6D013C2F243
S31520000C100003C3E9000107F10807BD46B0BD00BFC8
S31520000C20B0B58EB000AFF860B960C7E9002342F2D4
S31520000C307443C2F20003FA681A6042F27843C2F2A1
S31520000C400003BA681A60D7E900231046194600F057
S31520000C5081FB02460B4614461D46D7E91223104651
S31520000C60194600F077FB02460B462046294600F03F
S31520000C70BFF902460B461046194601F081FA024694
S31520000C800B46C7E9042342F6C813C2F20003D3E990
S31520000C90002310461946D7E9002300F0A7F902469B
S31520000CA00B461046194600F055FB02460B461446E5
S31520000CB01D46D7E912231046194600F04BFB024683
S31520000CC00B462046294600F093F902460B4610466D
S31520000CD0194601F055FA02460B46C7E9062342F6A5
S31520000CE0F013C2F20003D3E9002310461946D7E9D0
S31520000CF0042300F07BF902460B46C7E9082342F697
S31520000D00D013C2F20003D3E9002310461946D7E9CF
S31520000D10062300F06BF902460B46C7E90A234FF07B
S31520000D2000031C46D7E908014FF000024FF00003EC
S31520000D3000F082FD0346002B02D04FF001031C4633
S31520000D40E3B2002B05D03B6A3B627B6A83F000430B
S31520000D507B624FF000031C46D7E90A014FF00002E0
S31520000D604FF0000300F068FD0346002B02D04FF041
S31520000D7001031C46E3B2002B05D0BB6ABB62FB6AAB
S31520000D8083F00043FB624FF000031C46D7E90801BD
S31520000D9021A3D3E9002300F04FFD0346002B02D008
S31520000DA04FF001031C46E3B2002B08D1D7E9080116
S31520000DB019A3D3E9002300F03FFD0346002BD7E912
S31520000DC00801D7E90A2300F0EFFB02460B46C7E9E4
S31520000DD00C23FFF73DFE4FF0010048F2A061C0F260
S31520000DE00101FFF729FD0EA1D1E90001D7E90C2366
S31520000DF000F0DAFB02460B461046194600F044FD89
S31520000E0003464FF000001946FFF716FDFFF71EFCBC
S31520000E1019E700BFAFF30080DBF97E6ABC74533F4D
S31520000E2000000000006AF84080B582B002AF4FF0A3
S31520000E3000004FF0000100F02FF84FF036004FF081
S31520000E405301FFF743FE4FF000024FF0804303F5B6
S31520000E502013CDE900234FF001004FF001014FF0A0
S31520000E6000024FF0804303F52013FFF7D9FE4FF021
S31520000E7000031846BD4680BD80B483B000AF7860BD
S31520000E8043F20003C4F201037A68C3F8882007F10D
S31520000E900C07BD4680BC704780B582B000AF786035
S31520000EA039603B684FEAC3027B6842EA030318466F
S31520000EB0FFF7E2FF07F10807BD4680BD80B485B085
S31520000EC000AF786039604FF00003FB607B68002B31
S31520000ED008D07B6803F1FF3343F00403FA6842EA43
S31520000EE00303FB603B68002B0AD03B6803F1FF330A
S31520000EF04FEA430343F00803FA6842EA0303FB6020
S31520000F0040F20003C4F20503FA681A6007F11407D9
S31520000F10BD4680BC704700BF80B483B000AF786008
S31520000F20FEE700BF80B485B000AFF860B9607A6094
S31520000F303B604FF00003184607F11407BD4680BCFE
S31520000F40704700BF80B584B000AF786042F690133A
S31520000F50C2F200031B68002B08D142F69013C2F29E
S31520000F60000342F60022C2F200021A6042F69013F3
S31520000F70C2F200031B68BB60EFF30883FB6042F6F6
S31520000F809013C2F200031A687B681A44FB689A42DF
S31520000F900FD94FF000004FF0010142F22842C2F271
S31520000FA000024FF01903FFF7BDFF4FF00100FFF7D6
S31520000FB0B3FF42F69013C2F200031A687B681A4404
S31520000FC042F69013C2F200031A60BB68184607F176
S31520000FD01007BD4680BD00BF80B400AFBD4680BCB3
S31520000FE0704700BF81F0004102E000BF83F000435C
S31520000FF030B54FEA41044FEA430594EA050F08BF8E
S3152000100090EA020F1FBF54EA000C55EA020C7FEA51
S31520001010645C7FEA655C00F0E2804FEA5454D4EBCE
S315200010205555B8BF6D420CDD2C4480EA020281EA98
S31520001030030382EA000083EA010180EA020281EAD0
S315200010400303362D88BF30BD11F0004F4FEA013122
S315200010504FF4801C4CEA113102D0404261EB410131
S3152000106013F0004F4FEA03334CEA133302D05242B7
S3152000107063EB430394EA050F00F0A780A4F1010473
S31520001080D5F1200E0DDB02FA0EFC22FA05F28018AD
S3152000109041F1000103FA0EF2801843FA05F3594193
S315200010A00EE0A5F120050EF1200E012A03FA0EFC12
S315200010B028BF4CF0020C43FA05F3C01851EBE3713C
S315200010C001F0004507D54FF0000EDCF1000C7EEB59
S315200010D000006EEB0101B1F5801F1BD3B1F5001F97
S315200010E00CD349085FEA30004FEA3C0C04F10104B6
S315200010F04FEA445212F5800F80F09A80BCF1004FDF
S3152000110008BF5FEA500C50F1000041EB045141EA60
S31520001110050130BD5FEA4C0C404141EB010111F461
S31520001120801FA4F10104E9D191F0000F04BF01460C
S315200011300020B1FA81F308BF2033A3F10B03B3F1EA
S3152000114020020CDA0C3208DD02F1140CC2F10C027A
S3152000115001FA0CF021FA02F10CE002F11402D8BFD8
S31520001160C2F1200C01FA02F120FA0CFCDCBF41EAA4
S315200011700C019040E41AA2BF01EB0451294330BD73
S315200011806FEA04041F3C1CDA0C340EDC04F1140450
S31520001190C4F1200220FA04F001FA02F340EA030027
S315200011A021FA04F345EA030130BDC4F10C04C4F16D
S315200011B0200220FA02F001FA04F340EA030029464D
S315200011C030BD21FA04F0294630BD94F0000F83F497
S315200011D0801306BF81F480110134013D4EE77FEA7A
S315200011E0645C18BF7FEA655C29D094EA050F08BFC6
S315200011F090EA020F05D054EA000C04BF19461046A7
S3152000120030BD91EA030F1EBF0021002030BD5FEAEA
S31520001210545C05D14000494128BF41F0004130BD12
S3152000122014F580043CBF01F5801130BD01F0004566
S3152000123045F0FE4141F470014FF0000030BD7FEAD9
S31520001240645C1ABF194610467FEA655C1CBF0B46D4
S31520001250024650EA013406BF52EA033591EA030FEB
S3152000126041F4002130BD00BF90F0000F04BF0021E3
S31520001270704730B54FF4806404F132044FF0000516
S315200012804FF0000150E700BF90F0000F04BF00218F
S31520001290704730B54FF4806404F1320410F00045F5
S315200012A048BF40424FF000013EE700BF42004FEAF0
S315200012B0E2014FEA31014FEA02701FBF12F07F436D
S315200012C093F07F4F81F06051704792F0000F14BF6A
S315200012D093F07F4F704730B54FF4607401F00045AE
S315200012E021F0004120E700BF50EA010208BF704705
S315200012F030B54FF000050AE050EA010208BF7047FA
S3152000130030B511F0004502D5404261EB41014FF462
S31520001310806404F132045FEA915C3FF4DCAE4FF066
S3152000132003025FEADC0C18BF03325FEADC0C18BF4D
S31520001330033202EBDC02C2F1200300FA03FC20FA9E
S3152000134002F001FA03FE40EA0E0021FA02F11444EB
S31520001350C1E600BF70B54FF0FF0C4CF4E06C1CEA00
S3152000136011541DBF1CEA135594EA0C0F95EA0C0F75
S3152000137000F0DEF82C4481EA030621EA4C5123EAE8
S315200013804C5350EA013518BF52EA033541F4801117
S3152000139043F4801338D0A0FB02CE4FF00005E1FBCA
S315200013A002E506F00042E0FB03E54FF00006E1FB14
S315200013B003569CF0000F18BF4EF0010EA4F1FF0457
S315200013C0B6F5007F64F5407404D25FEA4E0E6D4197
S315200013D046EB060642EAC62141EA55514FEAC520A8
S315200013E040EA5E504FEACE2EB4F1FD0C88BFBCF524
S315200013F0E06F1ED8BEF1004F08BF5FEA500E50F1D5
S31520001400000041EB045170BD06F0004646EA01019A
S3152000141040EA020081EA0301B4EB5C04C2BFD4EBCC
S315200014200C0541EA045170BD41F480114FF0000EC5
S31520001430013C00F3AB8014F1360FDEBF002001F033
S31520001440004170BDC4F10004203C35DA0C341BDCAD
S3152000145004F11404C4F1200500FA05F320FA04F07F
S3152000146001FA05F240EA020001F0004221F00041B3
S3152000147010EBD37021FA04F642EB06015EEA430E26
S3152000148008BF20EAD37070BDC4F10C04C4F1200556
S3152000149000FA04F320FA05F001FA04F240EA020009
S315200014A001F0004110EBD37041F100015EEA430EDA
S315200014B008BF20EAD37070BDC4F1200500FA05F2FA
S315200014C04EEA020E20FA04F301FA05F243EA020379
S315200014D021FA04F001F0004121FA04F220EA020088
S315200014E000EBD3705EEA430E08BF20EAD37070BDCE
S315200014F094F0000F0FD101F00046400041EB0101AE
S3152000150011F4801F08BF013CF7D041EA060195F08F
S31520001510000F18BF704703F00046520043EB030349
S3152000152013F4801F08BF013DF7D043EA0603704736
S3152000153094EA0C0F0CEA135518BF95EA0C0F0CD041
S3152000154050EA410618BF52EA4306D1D181EA030187
S3152000155001F000414FF0000070BD50EA410606BF81
S315200015601046194652EA430619D094EA0C0F02D1C6
S3152000157050EA013613D195EA0C0F05D152EA03360B
S315200015801CBF104619460AD181EA030101F0004129
S3152000159041F0FE4141F470014FF0000070BD41F072
S315200015A0FE4141F4780170BD70B54FF0FF0C4CF44C
S315200015B0E06C1CEA11541DBF1CEA135594EA0C0F6B
S315200015C095EA0C0F00F0A7F8A4EB050481EA030EB8
S315200015D052EA03354FEA013100F088804FEA03339F
S315200015E04FF0805545EA131343EA12634FEA02226D
S315200015F045EA111545EA10654FEA00260EF000412E
S315200016009D4208BF964244F1FD0404F5407402D27F
S315200016105B084FEA3202B61A65EB03055B084FEA10
S3152000162032024FF480104FF4002CB6EB020E75EB0D
S31520001630030E22BFB61A754640EA0C005B084FEA35
S315200016403202B6EB020E75EB030E22BFB61A7546B2
S3152000165040EA5C005B084FEA3202B6EB020E75EBFD
S31520001660030E22BFB61A754640EA9C005B084FEA75
S315200016703202B6EB020E75EB030E22BFB61A754682
S3152000168040EADC0055EA060E18D04FEA051545EA71
S3152000169016754FEA06164FEAC30343EA52734FEA1A
S315200016A0C2025FEA1C1CC0D111F4801F0BD141EA93
S315200016B000014FF000004FF0004CB6E711F4801FF8
S315200016C004BF01430020B4F1FD0C88BFBCF5E06FD8
S315200016D03FF6AFAEB5EB030C04BFB6EB020C5FEAE8
S315200016E0500C50F1000041EB045170BD0EF0004E3D
S315200016F04EEA113114EB5C04C2BFD4EB0C0541EA6F
S31520001700045170BD41F480114FF0000E013C90E66B
S3152000171045EA060E8DE60CEA135594EA0C0F08BF2F
S3152000172095EA0C0F3FF43BAF94EA0C0F0AD150EA2E
S3152000173001347FF434AF95EA0C0F7FF425AF1046C1
S3152000174019462CE795EA0C0F06D152EA03353FF4E9
S31520001750FDAE1046194622E750EA410618BF52EA66
S3152000176043067FF4C5AE50EA41047FF40DAF52EA3A
S3152000177043057FF4EBAE12E74FF0FF3C06E000BFD7
S315200017804FF0010C02E000BF4FF0010C4DF804CDE4
S315200017904FEA410C7FEA6C5C4FEA430C18BF7FEAA4
S315200017A06C5C1BD001B050EA410C0CBF52EA430CD2
S315200017B091EA030F02BF90EA020F0020704710F152
S315200017C0000F91EA030F58BF994208BF90422CBFE1
S315200017D0D8176FEAE37040F0010070474FEA410CDA
S315200017E07FEA6C5C02D150EA013C07D14FEA430CF8
S315200017F07FEA6C5CD6D152EA033CD3D05DF8040B69
S31520001800704700BF8446104662468C46194663469A
S3152000181000E000BF01B5FFF7B7FF002848BF10F171
S31520001820000F01BD4DF808EDFFF7F4FF0CBF0120B6
S3152000183000205DF808FB00BF4DF808EDFFF7EAFF32
S3152000184034BF012000205DF808FB00BF4DF808EDED
S31520001850FFF7E0FF94BF012000205DF808FB00BFE2
S315200018604DF808EDFFF7CEFF94BF012000205DF86C
S3152000187008FB00BF4DF808EDFFF7C4FF34BF012079
S3152000188000205DF808FB00BF4A0011D212F50012B5
S3152000189011D20DD56FF47873B3EB62520ED44FEAA2
S315200018A0C12343F0004343EA505323FA02F0704722
S315200018B04FF00000704750EA013002D14FF0FF3060
S315200018C070474FF00000704742F27C43C2F200039B
S315200018D01868704770B542F2684642F26845C2F20F
S315200018E00006C2F20005761BB61006D0002455F875
S315200018F0243001349847A642F9D842F2684542F28C
S315200019006C46C2F20005C2F20006761B00F0A0FD6E
S31520001910B61006D0002455F8243001349847A64244
S31520001920F9D870BD42F27C430146C2F20003186822
S3152000193000F046BB42F27C430146C2F2000318681F
S3152000194000F000B82DE9F04F01F10B04162C83B0FE
S3152000195006462FD8002310248C422CBF194643F06C
S315200019600101002930D1304600F0BEFAB4F5FC7FE3
S315200019702ED24FEAD40E42F27055C2F2000505EB84
S31520001980CE02D368934200F006825A6803F1080516
S31520001990D968304622F0030C9A6863445C688A60F2
S315200019A044F00104D1605C6000F0A0FA284603B040
S315200019B0BDE8F08F24F00704E30F8C422CBF1946B4
S315200019C043F001010029CED00C2300253360EDE73A
S315200019D05FEA542E04BF4FEAD40E4FEACE0040F001
S315200019E0908042F27055C2F200052818C3689842CA
S315200019F006D10DE0002A80F26F81DB68984207D07D
S31520001A00596821F003010A1B0F2AF3DD0EF1FF3E70
S31520001A100EF1010E42F27057C2F2000707F10801DB
S31520001A208B68994208BF7A6826D05A6822F0030C40
S31520001A30C4EB0C020F2A00F39481002AC960896046
S31520001A4080F29980BCF5007F80F065814FEADC0C3E
S31520001A504FF0010A7A6807EBCC004FEAAC0C0AFA81
S31520001A600CFCD860D0F808804CEA02027A60C3F8F1
S31520001A700880C8F80C3083604FF0010C4FEAAE03A3
S31520001A800CFA03FC944500F2828012EA0C0F08D16E
S31520001A902EF0030E4FEA4C0C0EF1040E12EA0C0F38
S31520001AA0F8D007EBCE09F246C846D8F80C30984550
S31520001AB007D168E1002A80F27881DB68984500F03A
S31520001AC06281586820F00300021B0F2AF2DD1D46B2
S31520001AD01F19D3F80CC044F0010E55F8084F3046B4
S31520001AE0BA5042F00102C3F804E0CCF80840C4F82A
S31520001AF00CC08F60CF607A60B960F96000F0F6F9AB
S31520001B0054E7BEF1040F9EBF4FEA941E0EF1380E25
S31520001B104FEACE007FF665AFBEF1140F9CBF0EF1E3
S31520001B205B0E4FEACE007FF65CAFBEF1540F9EBF30
S31520001B304FEA143E0EF16E0E4FEACE007FF651AFFD
S31520001B40BEF5AA7F9EBF4FEAD43E0EF1770E4FEA2E
S31520001B50CE007FF646AF40F254539E4595BF4FEADE
S31520001B60944E4FF47C700EF17C0E4FF07E0E98BF93
S31520001B704FEACE0035E703EB0C0203F108053046A9
S31520001B80536843F00103536000F0B0F90EE7D7F82D
S31520001B900880D8F8043023F00309C4EB09024C4529
S31520001BA094BF002301230F2AD8BF43F00103002B43
S31520001BB000F0A18042F6941BD5F80824C2F2000B4F
S31520001BC0DBF8003010331B19B2F1FF3F06D003F5C6
S31520001BD07E631F3323F47E6323F01F0319463046AA
S31520001BE0019300F085F9019BB0F1FF3F824600F09A
S31520001BF0F48008EB0901814200F2EC80DBF8042036
S31520001C009A185145CBF8042000F04581D5F80854A0
S31520001C1042F27050C2F20000B5F1FF3F08BFC0F893
S31520001C2008A403D05244511ACBF804101AF0070521
S31520001C30304617BFC5F108054FF48055AA4405F56F
S31520001C40805553441B051B0DED1A294600F050F90B
S31520001C50B0F1FF3F00F02C81CAEB0001491941F099
S31520001C600101DBF8042042F69413C7F808A0C2F25B
S31520001C700003AA18B845CBF80420CAF8041017D0D8
S31520001C80B9F10F0F40F2DF80A9F10C01052521F0F3
S31520001C90070108EB01000F2985604560D8F804008C
S31520001CA000F0010041EA0000C8F8040000F2AC8010
S31520001CB0D04642F69413DBF82C10C2F200038A4277
S31520001CC0DBF8301088BFDA6242F69413C2F20003C2
S31520001CD08A4288BF1A6382E05C189A68D9683046BF
S31520001CE0666803F108058A6046F00103D1606360E7
S31520001CF000F0FCF85AE608EB040342F0010244F037
S31520001D0001043046C8F8044008F108055A60BB6053
S31520001D1000F0ECF84AE64FEA5C22042A54D9142A49
S31520001D2000F289805B324FEAC208A84442F270571B
S31520001D30C2F20007D8F80800404503D16FE080685A
S31520001D40804504D0426822F003029445F7D3D0F8A8
S31520001D500CC0C3F80CC098607A68C360CCF8083011
S31520001D608AE61F19304644F00104CF605C6003F117
S31520001D700805BA5042F001028F607A60B960F960B6
S31520001D8000F0B4F812E60AF1010A1AF0030F5FD048
S31520001D9003F1080889E603F10802D3689A4208BFCE
S31520001DA00EF1020E3FF436AEEFE51D461918DA683D
S31520001DB0304655F8083F4C68936044F00104DA60D9
S31520001DC04C6000F093F8F1E54FEA9C1238324FEA66
S31520001DD0C208AAE7B8453FF411AFD7F80880D8F86B
S31520001DE0042022F00302944294BF00230123121BF5
S31520001DF00F2AD8BF43F00103002B3FF47CAF3046B7
S31520001E00002500F073F8D1E508F10801304601936A
S31520001E1000F0D6F8019BD7F808805A6849E74FF0BA
S31520001E20010AD7F80480921084460AFA02F248EA98
S31520001E3002027A608DE7542A24D84FEA1C326E3289
S31520001E404FEAC20871E70123D046CAF80430C6E734
S31520001E504A461EF0030F13460EF1FF3E33D053F8C9
S31520001E6008299A42F5D07B684FEA4C0C9C453FF6F0
S31520001E708EAEBCF1000F3FF48AAE1CEA030F27D0CA
S31520001E80D6460EE6B2F5AA7F15D84FEADC3277326F
S31520001E904FEAC20849E70805000D00287FF4B6AED0
S31520001EA0D7F808804B4443F00103C8F8043000E714
S31520001EB001210025D5E640F2545082420DD94FF437
S31520001EC07C787E2231E77B6823EA0C037B60CBE7B4
S31520001ED04FEA4C0C0AF1040ACFE74FEA9C427C32C7
S31520001EE04FEAC20821E700BF704700BF704700BF16
S31520001EF038B542F6F814C2F2000405460846002317
S31520001F002360FFF71FF8B0F1FF3F00D038BD2368EC
S31520001F10002BFBD02B6038BDF8B542F27054C2F2CC
S31520001F2000040F460546FFF7DFFFA3685E6826F02C
S31520001F30030606F57E630F33DF1B3F0B013F3F038E
S31520001F40B7F5805F07DB00212846FFF7D1FFA3689E
S31520001F50F318834204D02846FFF7C8FF0020F8BDB7
S31520001F6079422846FFF7C4FFB0F1FF3F10D0A268A0
S31520001F7042F69813C2F20003F61B46F001062846E5
S31520001F8056601A68D71B1F60FFF7B0FF0120F8BD07
S31520001F9000212846FFF7ACFFA368C21A0F2ADADD14
S31520001FA042F6781442F69811C2F20004C2F20001F9
S31520001FB042F001022468001B08605A60CBE700BF8C
S31520001FC02DE9F04105460C46002900F08880FFF7F0
S31520001FD08BFFA4F1080242F270505668C2F200004C
S31520001FE026F00103D0F808C0D1188C454F6827F099
S31520001FF0030700F0958016F001064F605FD000269B
S31520002000CC19646814F0010F06D1DB19002E7AD0A2
S315200020108C68C9688C60E16043F00101D35051603F
S31520002020002E47D1B3F5007F5BD3590A04299EBF02
S315200020304FEA931C0CF1380C4FEACC0428D914290A
S315200020409CBF01F15B0C4FEACC0421D954299EBFD9
S315200020504FEA133C0CF16E0C4FEACC0418D9B1F5BB
S31520002060AA7F9EBF4FEAD33C0CF1770C4FEACC04F3
S315200020700ED940F2545C614595BF4FEA934C4FF41C
S315200020807C740CF17C0C4FF07E0C98BF4FEACC048C
S315200020900419A168A14203D164E089688C4204D066
S315200020A0486820F003008342F7D3CB68D360916061
S315200020B0CA609A602846BDE8F041FFF717BF54F87A
S315200020C0084C00F1080C121B1B199468644547D074
S315200020D0D2F80CC0CCF80840C4F80CC090E7BDE894
S315200020E0F081DB084FF0010C466800EBC3019B1022
S315200020F00CFA03F3D1608C6846EA030343609460CC
S31520002100E2608A60D6E78C681C4FBC4281D1D350EE
S3152000211043F00103E260A26053609460D460C9E793
S31520002120FB1816F0010F07D154F8081C521A5B1839
S31520002130D4689168A160CC6042F67C118260C2F2BC
S31520002140000143F0010050600A689342B2D342F680
S3152000215094132846C2F200031968FFF7DDFEA9E7AB
S3152000216001264DE7012644684FEAAC0C0B4606FAD9
S315200021700CFC44EA0C04446098E700BF7825002054
S315200021802DE9F04F8BB006460F4600F04FF842F689
S315200021908014C2F2000494F90030B3F1FF3F804668
S315200021A0894631D03046394600F02EF905460028BA
S315200021B02AD14FF0000A4FF0000B304639465246DE
S315200021C05B46FFF739FBF8B1247842F24843C2F266
S315200021D00003089501930123CDE902670093CDE919
S315200021E00467B4B15046594652465B46FFF7DCF9C0
S315200021F0022CCDE906010ED1FFF766FB21230360F1
S31520002200089B73B9DDE90689404649460BB0BDE80F
S31520002210F08FCDE906AB684600F004F90028EFD12F
S31520002220EAE7FFF751FB089B0360EBE740F2000C5F
S315200022300B46C7F6F07C02462DE9F047664601EAD2
S315200022400C0C0446B4450D468046894600F0BE80F7
S31520002250002940F38C805FEA215800F09680A8F58B
S315200022607E7823F07F43A8F1070823F4700318F043
S31520002270010F43F480136AD1D10F4FF0000C01EB0C
S3152000228043035200654660464FF400114418D60FAA
S3152000229052009C420CF1010C02DC1B1B6D186018CD
S315200022A04908BCF1160F06EB4303EFD100244FF08B
S315200022B00041A246264613E0834214BF0027012789
S315200022C094458CBF002707F001076FB901340746F4
S315200022D04908D00F5200202C00EB43031BD0384670
S315200022E0984201EB060CE7DA0CF000470CEB0106EE
S315200022F0B7F1004F27D007461B1A9445CCEB0202B4
S3152000230088BF013B01348A44D00F49085200202C53
S3152000231000EB4303E3D113431ED14FEA5A0A4FEA97
S31520002320680115F0010F18BF4AF0004A0905544606
S3152000233001F17E5101F5C00101EB65031D462046E2
S315200023402946BDE8F087002ED5DB471CD4E7D10F00
S31520002350520001EB43038FE7BAF1FF3F1CBF0AF09F
S3152000236001039A44D9D101354FF0000AD7E721F06D
S31520002370004C5CEA000CE2D000293AD18846D30A08
S31520002380A8F115085205002BF9D013F480112DD190
S315200023905B00013113F4801FFAD0C1F1200008F14F
S315200023A0010832FA00F0C1EB08080343A8F57E784D
S315200023B08A40A8F1070823F07F4318F0010F23F481
S315200023C0700343F480133FF457AFC0E702460B4631
S315200023D0FEF7C0FF02460B4620462946FEF708FEBA
S315200023E004460D4620462946BDE8F08720200021D8
S315200023F0D5E702460B46FEF7F9FD02460B46FFF7E8
S31520002400D3F804460D469AE702464042104321F08F
S31520002410004141EAD070C0F1FE4000F57000C00FC7
S31520002420704700BF002070474865617020616E6468
S3152000243020737461636B20636F6C6C6973696F6E54
S315200024400A0000004300000073717274000000004F
S31520002450F8B500BFF8BC08BC9E467047F8B500BF6B
S31520002460F8BC08BC9E4670478504002071040020F5
S31520002470000000000100000002000000802400206F
S315200024800000000000000000000000000000000026
S315200024900000000000000000000000000000000016
S315200024A0442400200000000000000000000000007E
S315200024B000000000000000000000000000000000F6
S315200024C000000000000000000000000000000000E6
S315200024D000000000000000000000000000000000D6
S315200024E000000000000000000000000000000000C6
S315200024F000000000000000000000000000000000B6
S3152000250000000000000000000000000000000000A5
S315200025100000000000000000000000000000000095
S315200025200000000000000000000000000000000085
S315200025300000000000000000000000000000000075
S315200025400000000000000000000000000000000065
S315200025500000000000000000000000000000000055
S315200025600000000000000000000000000000000045
S3152000257000000000000000007025002070250020CB
S315200025807825002078250020802500208025002021
S3152000259088250020882500209025002090250020D1
S315200025A09825002098250020A0250020A025002081
S315200025B0A8250020A8250020B0250020B025002031
S315200025C0B8250020B8250020C0250020C0250020E1
S315200025D0C8250020C8250020D0250020D025002091
S315200025E0D8250020D8250020E0250020E025002041
S315200025F0E8250020E8250020F0250020F0250020F1
S31520002600F8250020F825002000260020002600209E
S31520002610082600200826002010260020102600204C
S3152000262018260020182600202026002020260020FC
S3152000263028260020282600203026002030260020AC
S31520002640382600203826002040260020402600205C
S31520002650482600204826002050260020502600200C
S3152000266058260020582600206026002060260020BC
S31520002670682600206826002070260020702600206C
S31520002680782600207826002080260020802600201C
S3152000269088260020882600209026002090260020CC
S315200026A09826002098260020A0260020A02600207C
S315200026B0A8260020A8260020B0260020B02600202C
S315200026C0B8260020B8260020C0260020C0260020DC
S315200026D0C8260020C8260020D0260020D02600208C
S315200026E0D8260020D8260020E0260020E02600203C
S315200026F0E8260020E8260020F0260020F0260020EC
S31520002700F8260020F8260020002700200027002099
S315200027100827002008270020102700201027002047
S3152000272018270020182700202027002020270020F7
S3152000273028270020282700203027002030270020A7
S315200027403827002038270020402700204027002057
S315200027504827002048270020502700205027002007
S3152000276058270020582700206027002060270020B7
S315200027706827002068270020702700207027002067
S315200027807827002078270020802700208027002017
S3152000279088270020882700209027002090270020C7
S315200027A09827002098270020A0270020A027002077
S315200027B0A8270020A8270020B0270020B027002027
S315200027C0B8270020B8270020C0270020C0270020D7
S315200027D0C8270020C8270020D0270020D027002087
S315200027E0D8270020D8270020E0270020E027002037
S315200027F0E8270020E8270020F0270020F0270020E7
S31520002800F8270020F8270020002800200028002094
S315200028100828002008280020102800201028002042
S3152000282018280020182800202028002020280020F2
S3152000283028280020282800203028002030280020A2
S315200028403828002038280020402800204028002052
S315200028504828002048280020502800205028002002
S3152000286058280020582800206028002060280020B2
S315200028706828002068280020702800207028002062
S315200028807828002078280020802800208028002012
S3152000289088280020882800209028002090280020C2
S315200028A09828002098280020A0280020A028002072
S315200028B0A8280020A8280020B0280020B028002022
S315200028C0B8280020B8280020C0280020C0280020D2
S315200028D0C8280020C8280020D0280020D028002082
S315200028E0D8280020D8280020E0280020E028002032
S315200028F0E8280020E8280020F0280020F0280020E2
S31520002900F8280020F828002000290020002900208F
S31520002910082900200829002010290020102900203D
S3152000292018290020182900202029002020290020ED
S31520002930282900202829002030290020302900209D
S31520002940382900203829002040290020402900204D
S3152000295048290020482900205029002050290020FD
S3152000296058290020582900206029002060290020AD
S315200029706829002068290020FFFFFFFF00000200D1
S30920002980010000002C
S705200002993F
