:020000042000DA
:100000000000012099020020090300200B030020BA
:100010000D0300200F03002011030020000000004A
:10002000000000000000000000000000130300209A
:100030001503002000000000170300201903002012
:100040001B0300201D0300201F03002021030020AC
:10005000230300202503002027030020290300207C
:100060002B0300202D0300202F030020310300204C
:10007000330300203503002037030020390300201C
:100080003B0300203D0300203F03002041030020EC
:10009000290B0020450300204703002049030020CE
:1000A0004B030020000000000000000000000000E2
:1000B0000000000000000000000000004D030020D0
:1000C0004F0300205103002053030020550300205C
:1000D00057030020590300205B0300205D0300202C
:1000E0005F030020610300206303002065030020FC
:1000F00067030020690300206B0300206D030020CC
:100100006F0300207103002073030020750300209B
:1001100077030020790300207B0300207D0300206B
:100120007F0300208103002083030020850300203B
:1001300087030020890300208B0300208D0300200B
:100140008F030020910300209303002095030020DB
:1001500097030020990300209B0300209D030020AB
:100160009F030020A1030020A3030020A50300207B
:10017000A7030020A9030020AB030020AD0300204B
:10018000AF030020B1030020B3030020B50300201B
:10019000B7030020B9030020BB030020BD030020EB
:1001A000BF030020C1030020C3030020C5030020BB
:1001B000C7030020C9030020CB030020CD0300208B
:1001C000CF030020D1030020D3030020D50300205B
:1001D000D7030020D9030020DB030020DD0300202B
:1001E000DF030020E1030020E3030020E5030020FB
:1001F000E7030020E9030020EB030020ED030020CB
:10020000EF030020F1030020F3030020F50300209A
:10021000F7030020F9030020FB030020FD0300206A
:10022000FF03002001040020030400200504002037
:1002300007040020090400200B0400200D04002006
:100240000F040020110400201304002015040020D6
:1002500017040020190400201B0400201D040020A6
:100260001F04002021040020230400202504002076
:1002700027040020290400202B0400202D04002046
:100280002F04002031040020330400203504002016
:100290003704002039040020684880476848002857
:1002A0000BD168486849694A884206D091421CBF10
:1002B00050F8043B41F8043BF8D165486549664A6B
:1002C000884206D091421CBF50F8043B41F8043BE1
:1002D000F8D162486249634A914218BF41F8040B61
:1002E000FAD1000000000000000000000000000043
:1002F000DFF874010FF2030E00474FF000004FF0DB
:100300000001DFF868F1FEE7FEE7FEE7FEE7FEE743
:10031000FEE7FEE7FEE7FEE7FEE7FEE7FEE7FEE7B5
:10032000FEE7FEE7FEE7FEE7FEE7FEE7FEE7FEE7A5
:10033000FEE7FEE7FEE7FEE7FEE7FEE7FEE7FEE795
:10034000FEE7FEE7FEE7FEE7FEE7FEE7FEE7FEE785
:10035000FEE7FEE7FEE7FEE7FEE7FEE7FEE7FEE775
:10036000FEE7FEE7FEE7FEE7FEE7FEE7FEE7FEE765
:10037000FEE7FEE7FEE7FEE7FEE7FEE7FEE7FEE755
:10038000FEE7FEE7FEE7FEE7FEE7FEE7FEE7FEE745
:10039000FEE7FEE7FEE7FEE7FEE7FEE7FEE7FEE735
:1003A000FEE7FEE7FEE7FEE7FEE7FEE7FEE7FEE725
:1003B000FEE7FEE7FEE7FEE7FEE7FEE7FEE7FEE715
:1003C000FEE7FEE7FEE7FEE7FEE7FEE7FEE7FEE705
:1003D000FEE7FEE7FEE7FEE7FEE7FEE7FEE7FEE7F5
:1003E000FEE7FEE7FEE7FEE7FEE7FEE7FEE7FEE7E5
:1003F000FEE7FEE7FEE7FEE7FEE7FEE7FEE7FEE7D5
:10040000FEE7FEE7FEE7FEE7FEE7FEE7FEE7FEE7C4
:10041000FEE7FEE7FEE7FEE7FEE7FEE7FEE7FEE7B4
:10042000FEE7FEE7FEE7FEE7FEE7FEE7FEE7FEE7A4
:10043000FEE7FEE7FEE7FEE7FEE70000711500209D
:10044000000000000000002000000020082A00201A
:10045000082A0020082A0020282F00200000000081
:10046000282F0020903800206D1E002061130020EE
:1004700042F62873C2F200031A780AB901201870F4
:10048000704700BF42F60820C2F2000008B50368BA
:100490002BB140F20003C0F2000303B1984708BD3E
:1004A00080B483B000AF0346FB804EF20013CEF25F
:1004B0000003B7F906204FEA5212F98801F01F0134
:1004C0004FF0010000FA01F143F8221007F10C0788
:1004D000BD4680BC704700BF80B483B000AF034608
:1004E000FB804EF20013CEF20003B7F906204FEA6C
:1004F0005212F98801F01F014FF0010000FA01F1DA
:1005000002F1200243F8221007F10C07BD4680BC1F
:10051000704700BF80B483B000AF0346FB804EF24B
:100520000013CEF20003B7F906204FEA5212F98801
:1005300001F01F014FF0010000FA01F102F1600229
:1005400043F8221007F10C07BD4680BC704700BF7E
:1005500080B582B000AF0346FB714FF01400FFF787
:10056000BBFF42F20003CEF2040342F20002CEF2DD
:100570000402126B22F040021A6345F20003C4F237
:1005800000034FF000025A6540F20003C4F20A2350
:100590004FF00002C3F8802140F20003C4F20A23A6
:1005A0004FF00002C3F8882140F20003C4F20A238E
:1005B000FA79C3F8842145F20003C4F200034FF036
:1005C00001021A614FF01400FFF7A4FF07F10807BA
:1005D000BD4680BD80B400AF40F20003C4F20A23E0
:1005E0004FF00102C3F88021BD4680BC704700BFB8
:1005F00080B483B000AF786045F20003C4F200031A
:100600007A685A6007F10C07BD4680BC704700BF8E
:1006100080B500AF40F20003C4F20A234FF001029C
:10062000C3F888214FF01400FFF73AFF80BD00BFE8
:1006300080B400AF45F20003C4F200034FF00102A2
:100640001A61BFF34F8FBD4680BC7047B0B584B010
:1006500000AFC7E90201C7E90023D7E90801D7E9DC
:10066000022300F08FFF02460B461046194601F0A8
:100670003DF902460B4614461D46D7E90A01D7E963
:10068000002300F07FFF02460B461046194601F09A
:100690002DF902460B462046294600F075FF02461A
:1006A0000B461046194607F11007BD46B0BD00BF06
:1006B000F0B589B004AFC7E90201C7E90023BB6BFD
:1006C000002B3BD03EA3D3E90023CDE900234FF01C
:1006D00000024FF00003CDE90223D7E90201D7E978
:1006E0000023FFF7B3FF04460D4635A3D3E90023EB
:1006F000CDE900234FF000024FF00003CDE90223C3
:10070000D7E90A01D7E90C23FFF7A0FF02460B4601
:100710004FF000010E462046294601F077FB0346C4
:10072000002B02D04FF001031E46F3B2002B02D083
:100730004FF002033FE04FF001033CE04FF00002B6
:100740004FF00003CDE900234FF000024FF000030B
:10075000CDE90223D7E90201D7E90023FFF776FFAD
:1007600004460D464FF000024FF00003CDE9002390
:100770004FF000024FF00003CDE90223D7E90A0150
:10078000D7E90C23FFF762FF02460B464FF000014A
:100790000E462046294601F039FB0346002B02D0C5
:1007A0004FF001031E46F3B2002B02D04FF00103BD
:1007B00001E04FF00203184607F11407BD46F0BDF3
:1007C00014AE47E17AF4544080B500AF4FF000001A
:1007D000FFF7BEFE42F62C73C2F200031B689B6853
:1007E0001846FFF705FFFFF7F5FEFFF711FF80BD85
:1007F00080B485B000AF786042F62C73C2F200037B
:100800001B68002B06D142F62C73C2F200037A68F3
:100810001A603AE042F62C73C2F200031B68FB60D8
:1008200030E0FB685A687B685B689A421CD9FB68B9
:100830005B69002B05D142F62C73C2F200037A6883
:100840001A60FB685B69002B03D0FB685B697A6800
:100850001A61FB685A697B685A61FB687A685A6159
:100860007B68FA681A6110E0FB681B69002B06D1EF
:10087000FB687A681A617B68FA685A6105E0FB6870
:100880001B69FB60FB68002BCBD107F11407BD4649
:1008900080BC70470000000080B582B000AF786077
:1008A00078684FF0000100F0D5FD7B68022B17D16E
:1008B00043F68003C2F20003D3E900231046194631
:1008C0001DA3D3E9002300F05FFE02460B4610464D
:1008D000194643F68003C2F20003C3E9000119E0A0
:1008E0007B68012B16D143F68003C2F20003D3E9E3
:1008F00000231046194610A3D3E9002300F042FE5E
:1009000002460B461046194643F68003C2F2000326
:10091000C3E9000143F67003C2F200031B6803F150
:10092000010243F67003C2F200031A6007F10807E0
:10093000BD4680BDAFF30080DBF97E6ABC74533FD7
:1009400080B582B000AF78604FF00000796800F0A9
:1009500081FD7B68012B17D142F67073C2F2000350
:10096000D3E90023104619461DA3D3E9002300F064
:100970000BFE02460B461046194642F67073C2F251
:100980000003C3E9000119E07B68022B16D142F68F
:100990007073C2F20003D3E900231046194610A376
:1009A000D3E9002300F0EEFD02460B46104619463F
:1009B00042F67073C2F20003C3E9000143F670030C
:1009C000C2F200031B6803F1010243F67003C2F296
:1009D00000031A6007F10807BD4680BDAFF3008031
:1009E000DBF97E6ABC74533F80B584B000AF786099
:1009F00039604FF00003FB604FF0180001F066FA19
:100A00000346FB60FB687A681A60FB683A689A6084
:100A1000FB683A685A60FB684FF00002DA60FB68D6
:100A20004FF000021A61FB684FF000025A61F8684B
:100A3000FFF7DEFE07F11007BD4680BD80B582B02E
:100A400000AF42F62C73C2F200031B683B603B68A8
:100A50001B693B600EE03B685A6842F62C73C2F299
:100A600000031B685B68C3EB02023B685A603B688B
:100A70001B693B603B68002BEDD142F62C73C2F240
:100A800000031B681B69002B1CD142F62C73C2F2B9
:100A900000031B68DB68002B0CD142F62C73C2F2FA
:100AA00000031A6842F62C73C2F200031B689B68AD
:100AB000536035E042F62C73C2F200034FF000029F
:100AC0001A602DE042F62C73C2F200031B687B60B3
:100AD00042F62C73C2F200031B681A6942F62C73AB
:100AE000C2F200031A607B684FF000021A6142F6FE
:100AF0002C73C2F200031B684FF000025A617B683E
:100B0000DB68002B0BD17B681A687B689B681046FA
:100B10001946FFF769FF786801F0D0F900E000BFDF
:100B200007F10807BD4680BD80B582B000AF42F630
:100B30002C73C2F200031B681B68002B08D042F61E
:100B40001823C2F200031B681846FFF7A5FE07E052
:100B500042F61C23C2F200031B681846FFF7F0FEA2
:100B6000FFF76CFF42F62C73C2F200031B683B6078
:100B700031E04FF000037B603B685B68002B1DD1C8
:100B800042F62C73C2F200031B681B68002B08D0CE
:100B900042F61823C2F200031B681846FFF77CFEDA
:100BA00007E042F61C23C2F200031B681846FFF759
:100BB000C7FEFFF743FF4FF001037B607B68002B0C
:100BC00006D042F62C73C2F200031B683B6002E0C1
:100BD0003B681B693B603B68002BCAD1FFF728FDCF
:100BE00042F62C73C2F200031B685B681846FFF7DD
:100BF000FFFCFFF7E9FD07F10807BD4680BD00BF18
:100C000080B582B000AF42F62C73C2F200031B68BD
:100C1000002B2FD042F62C73C2F200031B687B60BE
:100C200042F62C73C2F200031B681A6942F62C7359
:100C3000C2F200031A60786801F040F913E042F64E
:100C40002C73C2F200031B687B6042F62C73C2F265
:100C500000031B681A6942F62C73C2F200031A6083
:100C6000786801F02BF942F62C73C2F200031B687E
:100C7000002BE4D107F10807BD4680BDB0B584B0B4
:100C800000AFC7E90201C7E9002343F66803C2F2D7
:100C90000003D7E90201C3E9000142F66873C2F21A
:100CA0000003D7E90001C3E9000142F66873C2F20C
:100CB0000003D3E90023104619464FF000024FF01D
:100CC000804300F03DFF02460B461046194643F6AE
:100CD0007803C2F20003C3E9000143F66803C2F2DD
:100CE0000003D3E90023104619464FF000024FF0ED
:100CF000804300F025FF02460B461046194642F697
:100D00007873C2F20003C3E9000143F67803C2F22C
:100D10000003D3E900231046194600F0E7FD024620
:100D20000B4614461D4642F67873C2F20003D3E91F
:100D300000231046194600F0D9FD02460B46204616
:100D4000294600F021FC02460B461046194601F0E8
:100D5000E3FC43F68003C2F20003C3E9000142F65C
:100D60006873C2F20003D3E9000143F67803C2F2CC
:100D70000003D3E9002300F005FC02460B461046B1
:100D8000194600F0B3FD02460B4614461D4642F6D6
:100D90007873C2F20003D3E900231046194600F02D
:100DA000A5FD02460B462046294600F0EDFB024613
:100DB0000B461046194601F0AFFC42F67073C2F2C2
:100DC0000003C3E9000143F67003C2F200034FF0D1
:100DD00000021A6007F11007BD46B0BD0000000018
:100DE0002DE9F04FA3B006AFC7E90A01C7E9082310
:100DF000D7E90A23C7E90C23D7E90823C7E90E235B
:100E000043F67803C2F20003D3E9000142F6787397
:100E1000C2F20003D3E90045D7E90C23CDE9002352
:100E2000D7E90E23CDE902234FF0000304932246B5
:100E30002B46FFF73DFC03463B6443F67803C2F2C2
:100E40000003D3E9000142F67873C2F20003D3E94C
:100E50000045D7E90C23CDE90023D7E90E23CDE9DE
:100E600002234FF00103049322462B46FFF720FC98
:100E700003467B6442F61823C2F200033A6C1A6000
:100E800042F61C23C2F200037A6C1A60D7E90C23E5
:100E90001046194600F02AFD02460B4614461D4630
:100EA000D7E90E231046194600F020FD02460B46F6
:100EB0002046294600F068FB02460B4610461946BC
:100EC00001F02AFC02460B46C7E9122342F668737A
:100ED000C2F20003D3E9002310461946D7E90C23D8
:100EE00000F050FB02460B461046194600F0FEFC8F
:100EF00002460B4614461D46D7E90E2310461946F6
:100F000000F0F4FC02460B462046294600F03CFB6C
:100F100002460B461046194601F0FEFB02460B4600
:100F2000C7E9142343F68003C2F20003D3E9002388
:100F300010461946D7E9122300F024FB02460B465F
:100F4000C7E9162342F67073C2F20003D3E9002307
:100F500010461946D7E9142300F014FB02460B464D
:100F6000C7E918234FF000031C46D7E916014FF0DC
:100F700000024FF0000300F02BFF0346002B02D0CD
:100F80004FF001031C46E3B2002B05D0BB6DBB65DF
:100F9000FB6D83F00043FB654FF000031C46D7E96F
:100FA00018014FF000024FF0000300F011FF03465C
:100FB000002B02D04FF001031C46E3B2002B05D0FA
:100FC0003B6E3B667B6E83F000437B66D7E9160180
:100FD000D7E9182300F0B4FD02460B46C7E91A23EF
:100FE00043F68003C2F20003D3E90023D7E91201DC
:100FF00000F0C8FA02460B461146396023F0004162
:10100000796042F61023C2F20003D3E900454FF0A5
:1010100000031E46D7E9000122462B4600F0E2FEFF
:101020000346002B02D04FF001031E46F3B2002B03
:1010300034D042F67073C2F20003D3E90023D7E93B
:10104000140100F09FFA02460B461146B96023F0E6
:101050000041F96042F61023C2F20003D3E90045D3
:101060004FF000031E46D7E9020122462B4600F04E
:10107000CDFE0346002B02D04FF001031E46F3B213
:10108000002B0BD04FF000033B644FF000024FF0F9
:101090007E5303F5E003C7E91A232BE143F68003EF
:1010A000C2F20003D3E90023D7E9120100F06AFA83
:1010B00002460B461146396123F00041796142F640
:1010C0001023C2F20003D3E900454FF000031E468F
:1010D000D7E9040122462B4600F098FE0346002B78
:1010E00002D04FF001031E46F3B2002B34D042F67B
:1010F0007073C2F20003D3E90023D7E9140100F0B2
:1011000041FA02460B461146B96123F00041F961EC
:1011100042F61023C2F20003D3E900454FF000036A
:101120001E46D7E9060122462B4600F05BFE034629
:10113000002B02D04FF001031E46F3B2002B0BD060
:101140004FF000037B644FF000024FF07E5303F535
:10115000E003C7E91A23CDE043F68003C2F200039F
:10116000D3E90023D7E9120100F00CFA02460B463E
:10117000924623F0004B42F61023C2F20003D3E95B
:1011800000454FF000031E465046594622462B4666
:1011900000F028FE0346002B02D04FF001031E464C
:1011A000F3B2002B00F0A68042F67073C2F2000387
:1011B000D3E90023D7E9140100F0E4F902460B4615
:1011C000904623F0004942F61023C2F20003D3E90F
:1011D00000454FF000031E464046494622462B4636
:1011E00000F000FE0346002B02D04FF001031E4624
:1011F000F3B2002B7ED043F68003C2F20003D3E9A2
:1012000000231046194600F071FB02460B461446B7
:101210001D4642F67073C2F20003D3E90023104664
:10122000194600F063FB02460B462046294600F0B3
:10123000A9F902460B4614461D4642F66873C2F2EF
:101240000003D3E900231046194600F04FFB024685
:101250000B462046294600F097F902460B461446F5
:101260001D4642F66873C2F20003D3E9002310461C
:10127000194600F089F902460B462046294600F03F
:101280005FFC02460B461046194643F67803C2F24D
:101290000003C3E9000143F68003C2F20003D3E96F
:1012A00000231046194600F021FB02460B46144667
:1012B0001D4643F67803C2F20003D3E9002310462B
:1012C000194600F013FB02460B462046294600F063
:1012D00059F902460B461046194601F01DFA42F62E
:1012E0007873C2F20003C3E9000107F17407BD4639
:1012F000BDE8F08FFFF784FC4FF0010048F2A061D9
:10130000C0F20101FFF770FBD7E91A0112A3D3E97C
:10131000002300F0EBFA02460B461046194600F097
:101320007FFD03464FF000001946FFF75DFBFFF716
:101330004BFA00E000BF43F67003C2F200031B68E3
:10134000092BF7DD43F67003C2F200034FF00002F1
:101350001A608FE5AFF3008000000000006AF840DB
:1013600080B500AF4FF007004FF0070100F060F8C4
:1013700015A1D1E9000116A3D3E90023FFF77EFCF4
:1013800015A1D1E9000116A3D3E90023FFF728FD39
:1013900015A1D1E9000116A3D3E90023FFF720FD31
:1013A00015A1D1E9000116A3D3E90023FFF718FD29
:1013B00015A1D1E9000112A3D3E90023FFF710FD25
:1013C0004FF00003184680BDAE47E17A144E4B4003
:1013D00014AE47E17AF4544014AE47E17AF4474042
:1013E000AE47E17A144E324014AE47E17AF44A40F7
:1013F000AE47E17A144E3B4014AE47E17A7449405F
:10140000AE47E17A14CE364014AE47E17A744640D6
:1014100080B483B000AF786043F20003C4F20103EC
:101420007A68C3F8882007F10C07BD4680BC704776
:1014300080B582B000AF786039603B684FEAC30284
:101440007B6842EA03031846FFF7E2FF07F108074B
:10145000BD4680BD80B485B000AF786039604FF084
:101460000003FB607B68002B08D07B6803F1FF332F
:1014700043F00403FA6842EA0303FB603B68002B75
:101480000AD03B6803F1FF334FEA430343F00803FC
:10149000FA6842EA0303FB6040F20003C4F205036A
:1014A000FA681A6007F11407BD4680BC704700BF98
:1014B00080B483B000AF7860FEE700BF80B485B031
:1014C00000AFF860B9607A603B604FF000031846E7
:1014D00007F11407BD4680BC704700BF80B584B0DB
:1014E00000AF786042F63073C2F200031B68002B35
:1014F00008D142F63073C2F2000343F69002C2F202
:1015000000021A6042F63073C2F200031B68BB602F
:10151000EFF30883FB6042F63073C2F200031A68EF
:101520007B681A44FB689A420FD94FF000004FF0D5
:10153000010142F6C012C2F200024FF01903FFF798
:10154000BDFF4FF00100FFF7B3FF42F63073C2F268
:1015500000031A687B681A4442F63073C2F2000333
:101560001A60BB68184607F11007BD4680BD00BF72
:1015700080B400AFBD4680BC704700BF81F0004121
:1015800002E000BF83F0004330B54FEA41044FEA68
:10159000430594EA050F08BF90EA020F1FBF54EA03
:1015A000000C55EA020C7FEA645C7FEA655C00F09F
:1015B000E2804FEA5454D4EB5555B8BF6D420CDD70
:1015C0002C4480EA020281EA030382EA000083EAF3
:1015D000010180EA020281EA0303362D88BF30BD93
:1015E00011F0004F4FEA01314FF4801C4CEA1131E9
:1015F00002D0404261EB410113F0004F4FEA033348
:101600004CEA133302D0524263EB430394EA050FD2
:1016100000F0A780A4F10104D5F1200E0DDB02FA41
:101620000EFC22FA05F2801841F1000103FA0EF2D5
:10163000801843FA05F359410EE0A5F120050EF19B
:10164000200E012A03FA0EFC28BF4CF0020C43FACC
:1016500005F3C01851EBE37101F0004507D54FF0D9
:10166000000EDCF1000C7EEB00006EEB0101B1F529
:10167000801F1BD3B1F5001F0CD349085FEA30006F
:101680004FEA3C0C04F101044FEA445212F5800F7A
:1016900080F09A80BCF1004F08BF5FEA500C50F117
:1016A000000041EB045141EA050130BD5FEA4C0CFA
:1016B000404141EB010111F4801FA4F10104E9D183
:1016C00091F0000F04BF01460020B1FA81F308BF7A
:1016D0002033A3F10B03B3F120020CDA0C3208DD46
:1016E00002F1140CC2F10C0201FA0CF021FA02F121
:1016F0000CE002F11402D8BFC2F1200C01FA02F191
:1017000020FA0CFCDCBF41EA0C019040E41AA2BFB5
:1017100001EB0451294330BD6FEA04041F3C1CDA7D
:101720000C340EDC04F11404C4F1200220FA04F09D
:1017300001FA02F340EA030021FA04F345EA030147
:1017400030BDC4F10C04C4F1200220FA02F001FA09
:1017500004F340EA0300294630BD21FA04F029468B
:1017600030BD94F0000F83F4801306BF81F4801124
:101770000134013D4EE77FEA645C18BF7FEA655C97
:1017800029D094EA050F08BF90EA020F05D054EA69
:10179000000C04BF1946104630BD91EA030F1EBF6E
:1017A0000021002030BD5FEA545C05D14000494172
:1017B00028BF41F0004130BD14F580043CBF01F565
:1017C000801130BD01F0004545F0FE4141F470014B
:1017D0004FF0000030BD7FEA645C1ABF1946104626
:1017E0007FEA655C1CBF0B46024650EA013406BF27
:1017F00052EA033591EA030F41F4002130BD00BFE6
:1018000090F0000F04BF0021704730B54FF48064A2
:1018100004F132044FF000054FF0000150E700BF23
:1018200090F0000F04BF0021704730B54FF4806482
:1018300004F1320410F0004548BF40424FF000016F
:101840003EE700BF42004FEAE2014FEA31014FEAB2
:1018500002701FBF12F07F4393F07F4F81F0605101
:10186000704792F0000F14BF93F07F4F704730B570
:101870004FF4607401F0004521F0004120E700BF03
:1018800050EA010208BF704730B54FF000050AE08A
:1018900050EA010208BF704730B511F0004502D58B
:1018A000404261EB41014FF4806404F132045FEA8D
:1018B000915C3FF4DCAE4FF003025FEADC0C18BF32
:1018C00003325FEADC0C18BF033202EBDC02C2F128
:1018D000200300FA03FC20FA02F001FA03FE40EABA
:1018E0000E0021FA02F11444C1E600BF70B54FF0BA
:1018F000FF0C4CF4E06C1CEA11541DBF1CEA13559C
:1019000094EA0C0F95EA0C0F00F0DEF82C4481EA03
:10191000030621EA4C5123EA4C5350EA013518BF23
:1019200052EA033541F4801143F4801338D0A0FB10
:1019300002CE4FF00005E1FB02E506F00042E0FBBD
:1019400003E54FF00006E1FB03569CF0000F18BFC3
:101950004EF0010EA4F1FF04B6F5007F64F540746B
:1019600004D25FEA4E0E6D4146EB060642EAC621FE
:1019700041EA55514FEAC52040EA5E504FEACE2E6B
:10198000B4F1FD0C88BFBCF5E06F1ED8BEF1004F6E
:1019900008BF5FEA500E50F1000041EB045170BDEA
:1019A00006F0004646EA010140EA020081EA03012E
:1019B000B4EB5C04C2BFD4EB0C0541EA045170BD2A
:1019C00041F480114FF0000E013C00F3AB8014F1A4
:1019D000360FDEBF002001F0004170BDC4F10004ED
:1019E000203C35DA0C341BDC04F11404C4F120056E
:1019F00000FA05F320FA04F001FA05F240EA0200C9
:101A000001F0004221F0004110EBD37021FA04F6FE
:101A100042EB06015EEA430E08BF20EAD37070BDB8
:101A2000C4F10C04C4F1200500FA04F320FA05F017
:101A300001FA04F240EA020001F0004110EBD37019
:101A400041F100015EEA430E08BF20EAD37070BD89
:101A5000C4F1200500FA05F24EEA020E20FA04F362
:101A600001FA05F243EA020321FA04F001F0004111
:101A700021FA04F220EA020000EBD3705EEA430E82
:101A800008BF20EAD37070BD94F0000F0FD101F0B1
:101A90000046400041EB010111F4801F08BF013CEA
:101AA000F7D041EA060195F0000F18BF704703F028
:101AB0000046520043EB030313F4801F08BF013DAF
:101AC000F7D043EA0603704794EA0C0F0CEA13556B
:101AD00018BF95EA0C0F0CD050EA410618BF52EA25
:101AE0004306D1D181EA030101F000414FF000002B
:101AF00070BD50EA410606BF1046194652EA430639
:101B000019D094EA0C0F02D150EA013613D195EAAC
:101B10000C0F05D152EA03361CBF104619460AD1F4
:101B200081EA030101F0004141F0FE4141F47001FE
:101B30004FF0000070BD41F0FE4141F4780170BDEE
:101B400070B54FF0FF0C4CF4E06C1CEA11541DBF53
:101B50001CEA135594EA0C0F95EA0C0F00F0A7F855
:101B6000A4EB050481EA030E52EA03354FEA013182
:101B700000F088804FEA03334FF0805545EA131395
:101B800043EA12634FEA022245EA111545EA10655D
:101B90004FEA00260EF000419D4208BF964244F1F4
:101BA000FD0404F5407402D25B084FEA3202B61A13
:101BB00065EB03055B084FEA32024FF480104FF4E7
:101BC000002CB6EB020E75EB030E22BFB61A75465B
:101BD00040EA0C005B084FEA3202B6EB020E75EBEE
:101BE000030E22BFB61A754640EA5C005B084FEA56
:101BF0003202B6EB020E75EB030E22BFB61A754623
:101C000040EA9C005B084FEA3202B6EB020E75EB2D
:101C1000030E22BFB61A754640EADC0055EA060EEE
:101C200018D04FEA051545EA16754FEA06164FEA31
:101C3000C30343EA52734FEAC2025FEA1C1CC0D1DD
:101C400011F4801F0BD141EA00014FF000004FF06A
:101C5000004CB6E711F4801F04BF01430020B4F12B
:101C6000FD0C88BFBCF5E06F3FF6AFAEB5EB030CE3
:101C700004BFB6EB020C5FEA500C50F1000041EBE0
:101C8000045170BD0EF0004E4EEA113114EB5C04AD
:101C9000C2BFD4EB0C0541EA045170BD41F4801180
:101CA0004FF0000E013C90E645EA060E8DE60CEA88
:101CB000135594EA0C0F08BF95EA0C0F3FF43BAFA5
:101CC00094EA0C0F0AD150EA01347FF434AF95EA5C
:101CD0000C0F7FF425AF104619462CE795EA0C0F40
:101CE00006D152EA03353FF4FDAE1046194622E70D
:101CF00050EA410618BF52EA43067FF4C5AE50EAE7
:101D000041047FF40DAF52EA43057FF4EBAE12E7D6
:101D10004FF0FF3C06E000BF4FF0010C02E000BFB7
:101D20004FF0010C4DF804CD4FEA410C7FEA6C5C9A
:101D30004FEA430C18BF7FEA6C5C1BD001B050EA3D
:101D4000410C0CBF52EA430C91EA030F02BF90EA28
:101D5000020F0020704710F1000F91EA030F58BFE7
:101D6000994208BF90422CBFD8176FEAE37040F049
:101D7000010070474FEA410C7FEA6C5C02D150EAE7
:101D8000013C07D14FEA430C7FEA6C5CD6D152EAA2
:101D9000033CD3D05DF8040B704700BF8446104667
:101DA00062468C461946634600E000BF01B5FFF766
:101DB000B7FF002848BF10F1000F01BD4DF808ED36
:101DC000FFF7F4FF0CBF012000205DF808FB00BF07
:101DD0004DF808EDFFF7EAFF34BF012000205DF861
:101DE00008FB00BF4DF808EDFFF7E0FF94BF0120AE
:101DF00000205DF808FB00BF4DF808EDFFF7CEFFAF
:101E000094BF012000205DF808FB00BF4DF808EDED
:101E1000FFF7C4FF34BF012000205DF808FB00BFBE
:101E20004A0011D212F5001211D20DD56FF4787359
:101E3000B3EB62520ED44FEAC12343F0004343EAAE
:101E4000505323FA02F070474FF00000704750EAF9
:101E5000013002D14FF0FF3070474FF00000704763
:101E600042F62023C2F200031868704770B542F6AC
:101E7000002642F60025C2F20006C2F20005761BDB
:101E8000B61006D0002455F8243001349847A642F5
:101E9000F9D842F6002542F60426C2F20005C2F245
:101EA0000006761B00F0A0FDB61006D0002455F801
:101EB000243001349847A642F9D870BD42F6202359
:101EC0000146C2F20003186800F046BB42F6202328
:101ED0000146C2F20003186800F000B82DE9F04F87
:101EE00001F10B04162C83B006462FD800231024D2
:101EF0008C422CBF194643F00101002930D13046F5
:101F000000F0BEFAB4F5FC7F2ED24FEAD40E42F6B2
:101F10001435C2F2000505EBCE02D368934200F0FF
:101F200006825A6803F10805D968304622F0030C8E
:101F30009A6863445C688A6044F00104D1605C6024
:101F400000F0A0FA284603B0BDE8F08F24F00704A3
:101F5000E30F8C422CBF194643F001010029CED07B
:101F60000C2300253360EDE75FEA542E04BF4FEAEF
:101F7000D40E4FEACE0040F0908042F61435C2F203
:101F800000052818C368984206D10DE0002A80F2A7
:101F90006F81DB68984207D0596821F003010A1B62
:101FA0000F2AF3DD0EF1FF3E0EF1010E42F614375B
:101FB000C2F2000707F108018B68994208BF7A68EE
:101FC00026D05A6822F0030CC4EB0C020F2A00F34F
:101FD0009481002AC960896080F29980BCF5007FF5
:101FE00080F065814FEADC0C4FF0010A7A6807EB5C
:101FF000CC004FEAAC0C0AFA0CFCD860D0F8088090
:102000004CEA02027A60C3F80880C8F80C3083609A
:102010004FF0010C4FEAAE030CFA03FC944500F2BA
:10202000828012EA0C0F08D12EF0030E4FEA4C0CFE
:102030000EF1040E12EA0C0FF8D007EBCE09F246AF
:10204000C846D8F80C30984507D168E1002A80F2DC
:102050007881DB68984500F06281586820F00300C1
:10206000021B0F2AF2DD1D461F19D3F80CC044F0E5
:10207000010E55F8084F3046BA5042F00102C3F83D
:1020800004E0CCF80840C4F80CC08F60CF607A60E0
:10209000B960F96000F0F6F954E7BEF1040F9EBF95
:1020A0004FEA941E0EF1380E4FEACE007FF665AF70
:1020B000BEF1140F9CBF0EF15B0E4FEACE007FF60F
:1020C0005CAFBEF1540F9EBF4FEA143E0EF16E0E90
:1020D0004FEACE007FF651AFBEF5AA7F9EBF4FEA12
:1020E000D43E0EF1770E4FEACE007FF646AF40F2B7
:1020F00054539E4595BF4FEA944E4FF47C700EF1B9
:102100007C0E4FF07E0E98BF4FEACE0035E703EB12
:102110000C0203F108053046536843F00103536095
:1021200000F0B0F90EE7D7F80880D8F8043023F0B3
:102130000309C4EB09024C4594BF002301230F2A75
:10214000D8BF43F00103002B00F0A18042F6347B9E
:10215000D5F80824C2F2000BDBF8003010331B194D
:10216000B2F1FF3F06D003F57E631F3323F47E6395
:1021700023F01F0319463046019300F085F9019BB7
:10218000B0F1FF3F824600F0F48008EB0901814284
:1021900000F2EC80DBF804209A185145CBF80420BB
:1021A00000F04581D5F8085442F61430C2F2000020
:1021B000B5F1FF3F08BFC0F808A403D05244511A3C
:1021C000CBF804101AF00705304617BFC5F1080513
:1021D0004FF48055AA4405F5805553441B051B0D4B
:1021E000ED1A294600F050F9B0F1FF3F00F02C81C4
:1021F000CAEB0001491941F00101DBF8042042F665
:102200003473C7F808A0C2F20003AA18B845CBF887
:102210000420CAF8041017D0B9F10F0F40F2DF8084
:10222000A9F10C01052521F0070108EB01000F2998
:1022300085604560D8F8040000F0010041EA000024
:10224000C8F8040000F2AC80D04642F63473DBF8E4
:102250002C10C2F200038A42DBF8301088BFDA6229
:1022600042F63473C2F200038A4288BF1A6382E0E6
:102270005C189A68D9683046666803F108058A6078
:1022800046F00103D160636000F0FCF85AE608EB09
:10229000040342F0010244F001043046C8F804404F
:1022A00008F108055A60BB6000F0ECF84AE64FEA16
:1022B0005C22042A54D9142A00F289805B324FEA46
:1022C000C208A84442F61437C2F20007D8F8080042
:1022D000404503D16FE08068804504D0426822F019
:1022E00003029445F7D3D0F80CC0C3F80CC0986033
:1022F0007A68C360CCF808308AE61F19304644F08B
:102300000104CF605C6003F10805BA5042F001029D
:102310008F607A60B960F96000F0B4F812E60AF1F3
:10232000010A1AF0030F5FD003F1080889E603F1F0
:102330000802D3689A4208BF0EF1020E3FF436AE8F
:10234000EFE51D461918DA68304655F8083F4C6825
:10235000936044F00104DA604C6000F093F8F1E51A
:102360004FEA9C1238324FEAC208AAE7B8453FF458
:1023700011AFD7F80880D8F8042022F00302944265
:1023800094BF00230123121B0F2AD8BF43F001037F
:10239000002B3FF47CAF3046002500F073F8D1E508
:1023A00008F108013046019300F0D6F8019BD7F8F8
:1023B00008805A6849E74FF0010AD7F80480921064
:1023C00084460AFA02F248EA02027A608DE7542A49
:1023D00024D84FEA1C326E324FEAC20871E701235B
:1023E000D046CAF80430C6E74A461EF0030F13462B
:1023F0000EF1FF3E33D053F808299A42F5D07B689E
:102400004FEA4C0C9C453FF68EAEBCF1000F3FF4FA
:102410008AAE1CEA030F27D0D6460EE6B2F5AA7F95
:1024200015D84FEADC3277324FEAC20849E708058F
:10243000000D00287FF4B6AED7F808804B4443F077
:102440000103C8F8043000E701210025D5E640F279
:10245000545082420DD94FF47C787E2231E77B685C
:1024600023EA0C037B60CBE74FEA4C0C0AF1040A29
:10247000CFE74FEA9C427C324FEAC20821E700BF17
:10248000704700BF704700BF38B543F68804C2F2FA
:1024900000040546084600232360FFF71FF8B0F14B
:1024A000FF3F00D038BD2368002BFBD02B6038BD28
:1024B000F8B542F61434C2F200040F460546FFF7A1
:1024C000DFFFA3685E6826F0030606F57E630F3320
:1024D000DF1B3F0B013F3F03B7F5805F07DB0021A8
:1024E0002846FFF7D1FFA368F318834204D028469B
:1024F000FFF7C8FF0020F8BD79422846FFF7C4FF68
:10250000B0F1FF3F10D0A26842F63873C2F2000368
:10251000F61B46F00106284656601A68D71B1F6056
:10252000FFF7B0FF0120F8BD00212846FFF7ACFF00
:10253000A368C21A0F2ADADD42F61C7442F638711B
:10254000C2F20004C2F2000142F001022468001B42
:1025500008605A60CBE700BF2DE9F04105460C4604
:10256000002900F08880FFF78BFFA4F1080242F6F3
:1025700014305668C2F2000026F00103D0F808C0FB
:10258000D1188C454F6827F0030700F0958016F0AE
:1025900001064F605FD00026CC19646814F0010F6B
:1025A00006D1DB19002E7AD08C68C9688C60E16096
:1025B00043F00101D3505160002E47D1B3F5007FA5
:1025C0005BD3590A04299EBF4FEA931C0CF1380CC7
:1025D0004FEACC0428D914299CBF01F15B0C4FEAC7
:1025E000CC0421D954299EBF4FEA133C0CF16E0C48
:1025F0004FEACC0418D9B1F5AA7F9EBF4FEAD33C6D
:102600000CF1770C4FEACC040ED940F2545C6145D2
:1026100095BF4FEA934C4FF47C740CF17C0C4FF057
:102620007E0C98BF4FEACC040419A168A14203D1E3
:1026300064E089688C4204D0486820F0030083423B
:10264000F7D3CB68D3609160CA609A602846BDE832
:10265000F041FFF717BF54F8084C00F1080C121BAB
:102660001B199468644547D0D2F80CC0CCF80840D8
:10267000C4F80CC090E7BDE8F081DB084FF0010C16
:10268000466800EBC3019B100CFA03F3D1608C6821
:1026900046EA030343609460E2608A60D6E78C6890
:1026A0001C4FBC4281D1D35043F00103E260A260D1
:1026B00053609460D460C9E7FB1816F0010F07D18E
:1026C00054F8081C521A5B18D4689168A160CC6059
:1026D00042F620718260C2F2000143F001005060B6
:1026E0000A689342B2D342F634732846C2F200031A
:1026F0001968FFF7DDFEA9E701264DE701264468CA
:102700004FEAAC0C0B4606FA0CFC44EA0C0444609D
:1027100098E700BF1C2B00202DE9F04F8BB0064638
:102720000F4600F04FF842F62474C2F2000494F908
:102730000030B3F1FF3F8046894631D030463946FC
:1027400000F02EF9054600282AD14FF0000A4FF07C
:10275000000B3046394652465B46FFF739FBF8B16D
:10276000247842F6E013C2F2000308950193012396
:10277000CDE902670093CDE90467B4B150465946EC
:1027800052465B46FFF7DCF9022CCDE906010ED17B
:10279000FFF766FB21230360089B73B9DDE9068917
:1027A000404649460BB0BDE8F08FCDE906AB684620
:1027B00000F004F90028EFD1EAE7FFF751FB089B8E
:1027C0000360EBE740F2000C0B46C7F6F07C0246D4
:1027D0002DE9F047664601EA0C0C0446B4450D4667
:1027E0008046894600F0BE80002940F38C805FEA75
:1027F000215800F09680A8F57E7823F07F43A8F159
:10280000070823F4700318F0010F43F480136AD112
:10281000D10F4FF0000C01EB4303520065466046B8
:102820004FF400114418D60F52009C420CF1010CD9
:1028300002DC1B1B6D1860184908BCF1160F06EB73
:102840004303EFD100244FF00041A246264613E097
:10285000834214BF0027012794458CBF002707F04F
:1028600001076FB9013407464908D00F5200202CE8
:1028700000EB43031BD03846984201EB060CE7DA25
:102880000CF000470CEB0106B7F1004F27D00746CC
:102890001B1A9445CCEB020288BF013B01348A44E9
:1028A000D00F49085200202C00EB4303E3D113431F
:1028B0001ED14FEA5A0A4FEA680115F0010F18BFFE
:1028C0004AF0004A0905544601F17E5101F5C00164
:1028D00001EB65031D4620462946BDE8F087002E22
:1028E000D5DB471CD4E7D10F520001EB43038FE740
:1028F000BAF1FF3F1CBF0AF001039A44D9D1013558
:102900004FF0000AD7E721F0004C5CEA000CE2D05F
:1029100000293AD18846D30AA8F115085205002BA0
:10292000F9D013F480112DD15B00013113F4801F15
:10293000FAD0C1F1200008F1010832FA00F0C1EB31
:1029400008080343A8F57E788A40A8F1070823F019
:102950007F4318F0010F23F4700343F480133FF416
:1029600057AFC0E702460B46FEF7C0FF02460B46D4
:1029700020462946FEF708FE04460D462046294615
:10298000BDE8F08720200021D5E702460B46FEF780
:10299000F9FD02460B46FFF7D3F804460D469AE7C9
:1029A00002464042104321F0004141EAD070C0F19C
:1029B000FE4000F57000C00F704700BF0020704758
:1029C0004865617020616E6420737461636B20637D
:1029D0006F6C6C6973696F6E0A0000004300000041
:1029E0007371727400000000F8B500BFF8BC08BC39
:1029F0009E467047F8B500BFF8BC08BC9E467047BD
:082A0000850400207104002090
:102A080000000000000000007B14AE47E17A943F0C
:102A18000100000002000000242A0020000000003D
:102A2800000000000000000000000000000000009E
:102A3800000000000000000000000000DC29002069
:102A4800000000000000000000000000000000007E
:102A5800000000000000000000000000000000006E
:102A6800000000000000000000000000000000005E
:102A7800000000000000000000000000000000004E
:102A8800000000000000000000000000000000003E
:102A9800000000000000000000000000000000002E
:102AA800000000000000000000000000000000001E
:102AB800000000000000000000000000000000000E
:102AC80000000000000000000000000000000000FE
:102AD80000000000000000000000000000000000EE
:102AE80000000000000000000000000000000000DE
:102AF80000000000000000000000000000000000CE
:102B080000000000000000000000000000000000BD
:102B180000000000142B0020142B00201C2B002088
:102B28001C2B0020242B0020242B00202C2B0020E1
:102B38002C2B0020342B0020342B00203C2B002091
:102B48003C2B0020442B0020442B00204C2B002041
:102B58004C2B0020542B0020542B00205C2B0020F1
:102B68005C2B0020642B0020642B00206C2B0020A1
:102B78006C2B0020742B0020742B00207C2B002051
:102B88007C2B0020842B0020842B00208C2B002001
:102B98008C2B0020942B0020942B00209C2B0020B1
:102BA8009C2B0020A42B0020A42B0020AC2B002061
:102BB800AC2B0020B42B0020B42B0020BC2B002011
:102BC800BC2B0020C42B0020C42B0020CC2B0020C1
:102BD800CC2B0020D42B0020D42B0020DC2B002071
:102BE800DC2B0020E42B0020E42B0020EC2B002021
:102BF800EC2B0020F42B0020F42B0020FC2B0020D1
:102C0800FC2B0020042C0020042C00200C2C00207D
:102C18000C2C0020142C0020142C00201C2C00202C
:102C28001C2C0020242C0020242C00202C2C0020DC
:102C38002C2C0020342C0020342C00203C2C00208C
:102C48003C2C0020442C0020442C00204C2C00203C
:102C58004C2C0020542C0020542C00205C2C0020EC
:102C68005C2C0020642C0020642C00206C2C00209C
:102C78006C2C0020742C0020742C00207C2C00204C
:102C88007C2C0020842C0020842C00208C2C0020FC
:102C98008C2C0020942C0020942C00209C2C0020AC
:102CA8009C2C0020A42C0020A42C0020AC2C00205C
:102CB800AC2C0020B42C0020B42C0020BC2C00200C
:102CC800BC2C0020C42C0020C42C0020CC2C0020BC
:102CD800CC2C0020D42C0020D42C0020DC2C00206C
:102CE800DC2C0020E42C0020E42C0020EC2C00201C
:102CF800EC2C0020F42C0020F42C0020FC2C0020CC
:102D0800FC2C0020042D0020042D00200C2D002078
:102D18000C2D0020142D0020142D00201C2D002027
:102D28001C2D0020242D0020242D00202C2D0020D7
:102D38002C2D0020342D0020342D00203C2D002087
:102D48003C2D0020442D0020442D00204C2D002037
:102D58004C2D0020542D0020542D00205C2D0020E7
:102D68005C2D0020642D0020642D00206C2D002097
:102D78006C2D0020742D0020742D00207C2D002047
:102D88007C2D0020842D0020842D00208C2D0020F7
:102D98008C2D0020942D0020942D00209C2D0020A7
:102DA8009C2D0020A42D0020A42D0020AC2D002057
:102DB800AC2D0020B42D0020B42D0020BC2D002007
:102DC800BC2D0020C42D0020C42D0020CC2D0020B7
:102DD800CC2D0020D42D0020D42D0020DC2D002067
:102DE800DC2D0020E42D0020E42D0020EC2D002017
:102DF800EC2D0020F42D0020F42D0020FC2D0020C7
:102E0800FC2D0020042E0020042E00200C2E002073
:102E18000C2E0020142E0020142E00201C2E002022
:102E28001C2E0020242E0020242E00202C2E0020D2
:102E38002C2E0020342E0020342E00203C2E002082
:102E48003C2E0020442E0020442E00204C2E002032
:102E58004C2E0020542E0020542E00205C2E0020E2
:102E68005C2E0020642E0020642E00206C2E002092
:102E78006C2E0020742E0020742E00207C2E002042
:102E88007C2E0020842E0020842E00208C2E0020F2
:102E98008C2E0020942E0020942E00209C2E0020A2
:102EA8009C2E0020A42E0020A42E0020AC2E002052
:102EB800AC2E0020B42E0020B42E0020BC2E002002
:102EC800BC2E0020C42E0020C42E0020CC2E0020B2
:102ED800CC2E0020D42E0020D42E0020DC2E002062
:102EE800DC2E0020E42E0020E42E0020EC2E002012
:102EF800EC2E0020F42E0020F42E0020FC2E0020C2
:102F0800FC2E0020042F0020042F00200C2F00206E
:102F18000C2F0020FFFFFFFF00000200010000004F
:04000005200002993C
:00000001FF
