S02800005768697465426F6172645F506C6F747465725F4D53535F434D335F305F6170702E7372656327
S315200000000000012099020020090300200B03002094
S315200000100D0300200F030020110300200000000024
S315200000200000000000000000000000001303002074
S3152000003015030020000000001703002019030020EC
S315200000401B0300201D0300201F0300202103002086
S315200000502303002025030020270300202903002056
S315200000602B0300202D030020A55C0020D15C00205E
S3152000007033030020350300203703002039030020F6
S315200000803B0300203D0300203F03002041030020C6
S315200000901D0E0020510E002047030020490300209A
S315200000A04B030020000000000000000000000000BC
S315200000B00000000000000000000000004D030020AA
S315200000C04F03002051030020530300205503002036
S315200000D057030020590300205B0300205D03002006
S315200000E05F030020610300206303002065030020D6
S315200000F067030020690300206B0300206D030020A6
S315200001006F03002071030020730300207503002075
S3152000011077030020790300207B0300207D03002045
S315200001207F03002081030020830300208503002015
S3152000013087030020890300208B0300208D030020E5
S315200001408F030020910300209303002095030020B5
S3152000015097030020990300209B0300209D03002085
S315200001609F030020A1030020A3030020A503002055
S31520000170A7030020A9030020AB030020AD03002025
S31520000180AF030020B1030020B3030020B5030020F5
S31520000190B7030020B9030020BB030020BD030020C5
S315200001A0BF030020C1030020C3030020C503002095
S315200001B0C7030020C9030020CB030020CD03002065
S315200001C0CF030020D1030020D3030020D503002035
S315200001D0D7030020D9030020DB030020DD03002005
S315200001E0DF030020E1030020E3030020E5030020D5
S315200001F0E7030020E9030020EB030020ED030020A5
S31520000200EF030020F1030020F3030020F503002074
S31520000210F7030020F9030020FB030020FD03002044
S31520000220FF03002001040020030400200504002011
S3152000023007040020090400200B0400200D040020E0
S315200002400F040020110400201304002015040020B0
S3152000025017040020190400201B0400201D04002080
S315200002601F04002021040020230400202504002050
S3152000027027040020290400202B0400202D04002020
S315200002802F040020310400203304002035040020F0
S315200002903704002039040020684880476848002831
S315200002A00BD168486849694A884206D091421CBFEA
S315200002B050F8043B41F8043BF8D165486549664A45
S315200002C0884206D091421CBF50F8043B41F8043BBB
S315200002D0F8D162486249634A914218BF41F8040B3B
S315200002E0FAD100000000000000000000000000001D
S315200002F0DFF874010FF2030E00474FF000004FF0B5
S315200003000001DFF868F1FEE7FEE7FEE7FEE7FEE71D
S31520000310FEE7FEE7FEE7FEE7FEE7FEE7FEE7FEE78F
S31520000320FEE7FEE7FEE7FEE7FEE7FEE7FEE7FEE77F
S31520000330FEE7FEE7FEE7FEE7FEE7FEE7FEE7FEE76F
S31520000340FEE7FEE7FEE7FEE7FEE7FEE7FEE7FEE75F
S31520000350FEE7FEE7FEE7FEE7FEE7FEE7FEE7FEE74F
S31520000360FEE7FEE7FEE7FEE7FEE7FEE7FEE7FEE73F
S31520000370FEE7FEE7FEE7FEE7FEE7FEE7FEE7FEE72F
S31520000380FEE7FEE7FEE7FEE7FEE7FEE7FEE7FEE71F
S31520000390FEE7FEE7FEE7FEE7FEE7FEE7FEE7FEE70F
S315200003A0FEE7FEE7FEE7FEE7FEE7FEE7FEE7FEE7FF
S315200003B0FEE7FEE7FEE7FEE7FEE7FEE7FEE7FEE7EF
S315200003C0FEE7FEE7FEE7FEE7FEE7FEE7FEE7FEE7DF
S315200003D0FEE7FEE7FEE7FEE7FEE7FEE7FEE7FEE7CF
S315200003E0FEE7FEE7FEE7FEE7FEE7FEE7FEE7FEE7BF
S315200003F0FEE7FEE7FEE7FEE7FEE7FEE7FEE7FEE7AF
S31520000400FEE7FEE7FEE7FEE7FEE7FEE7FEE7FEE79E
S31520000410FEE7FEE7FEE7FEE7FEE7FEE7FEE7FEE78E
S31520000420FEE7FEE7FEE7FEE7FEE7FEE7FEE7FEE77E
S31520000430FEE7FEE7FEE7FEE7FEE70000FD5C0020A4
S31520000440000000000000002000000020046D0020B5
S31520000450086D0020086D0020406E0020000000007E
S31520000460406E00202885002031680020F9530020A6
S3152000047046F64063C2F200031A780AB901201870C2
S31520000480704700BF46F60850C2F2000008B5036860
S315200004902BB140F20003C0F2000303B1984708BD18
S315200004A080B483B000AF0346FB804EF20013CEF239
S315200004B00003B7F906204FEA5212F98801F01F010E
S315200004C04FF0010000FA01F143F8221007F10C0762
S315200004D0BD4680BC704700BF80B483B000AF0346E2
S315200004E0FB804EF20013CEF20003B7F906204FEA46
S315200004F05212F98801F01F014FF0010000FA01F1B4
S3152000050002F1200243F8221007F10C07BD4680BCF9
S31520000510704700BF80B483B000AF0346FB804EF225
S315200005200013CEF20003B7F906204FEA5212F988DB
S3152000053001F01F014FF0010000FA01F102F1600203
S3152000054043F8221007F10C07BD4680BC704700BF58
S3152000055080B582B000AF0346FB714FF01400FFF761
S31520000560BBFF42F20003CEF2040342F20002CEF2B7
S315200005700402126B22F040021A6345F20003C4F211
S3152000058000034FF000025A6540F20003C4F20A232A
S315200005904FF00002C3F8802140F20003C4F20A2380
S315200005A04FF00002C3F8882140F20003C4F20A2368
S315200005B0FA79C3F8842145F20003C4F200034FF010
S315200005C001021A614FF01400FFF7A4FF07F1080794
S315200005D0BD4680BD80B400AF40F20003C4F20A23BA
S315200005E04FF00102C3F88021BD4680BC704700BF92
S315200005F080B483B000AF786045F20003C4F20003F4
S315200006007A685A6007F10C07BD4680BC704700BF68
S3152000061080B500AF40F20003C4F20A234FF0010276
S31520000620C3F888214FF01400FFF73AFF80BD00BFC2
S3152000063080B400AF45F20003C4F200034FF001027C
S315200006401A61BFF34F8FBD4680BC704780B582B01C
S3152000065000AF0346FB714FF01500FFF73DFF42F256
S315200006600003CEF2040342F20002CEF20402126B21
S3152000067022F040021A6345F20003C4F200034FF051
S3152000068000025A6540F20003C4F20A234FF000022A
S31520000690C3F8802440F20003C4F20A234FF000027C
S315200006A0C3F8882440F20003C4F20A23FA79C3F877
S315200006B0842445F20003C4F200034FF001029A623B
S315200006C04FF01500FFF726FF07F10807BD4680BD4E
S315200006D080B400AF40F20003C4F20A234FF00102B7
S315200006E0C3F88024BD4680BC704700BF80B483B069
S315200006F000AF786045F20003C4F200037A68DA613D
S3152000070007F10C07BD4680BC704700BF80B500AF1F
S3152000071040F20003C4F20A234FF00102C3F88824F2
S315200007204FF01500FFF7BCFE80BD00BF80B400AFC0
S3152000073045F20003C4F200034FF001029A62BFF3B0
S315200007404F8FBD4680BC7047B0B584B000AFC7E9B7
S315200007500201C7E90023D7E90801D7E9022305F0FA
S31520000760F3FB02460B461046194605F0A1FD02464C
S315200007700B4614461D46D7E90A01D7E9002305F0A2
S31520000780E3FB02460B461046194605F091FD02464C
S315200007900B462046294605F0D9FB02460B46104655
S315200007A0194607F11007BD46B0BD00BF0000000086
S315200007B0F0B589B004AFC7E90201C7E90023BB6BD6
S315200007C0002B3BD03EA3D3E90023CDE900234FF0F5
S315200007D000024FF00003CDE90223D7E90201D7E951
S315200007E00023FFF7B1FF04460D4635A3D3E90023C6
S315200007F0CDE900234FF000024FF00003CDE902239C
S31520000800D7E90A01D7E90C23FFF79EFF02460B46DC
S315200008104FF000010E462046294605F0D9FF034633
S31520000820002B02D04FF001031E46F3B2002B02D05C
S315200008304FF002033FE04FF001033CE04FF000028F
S315200008404FF00003CDE900234FF000024FF00003E4
S31520000850CDE90223D7E90201D7E90023FFF774FF88
S3152000086004460D464FF000024FF00003CDE9002369
S315200008704FF000024FF00003CDE90223D7E90A0129
S31520000880D7E90C23FFF760FF02460B464FF0000125
S315200008900E462046294605F09BFF0346002B02D034
S315200008A04FF001031E46F3B2002B02D04FF0010396
S315200008B001E04FF00203184607F11407BD46F0BDCC
S315200008C014AE47E17AF4544080B588B000AF786022
S315200008D013460A46FA703B804FF07E033B724FF078
S315200008E000037B724FF00C03BB724FF00003FB72C8
S315200008F04FF001033B734FF00503BB610BE0BB696F
S3152000090007F120010B444FF0000203F8182CBB69B5
S3152000091003F10103BB61BB690A2BF0DD3B884FEA7B
S3152000092013239BB2DBB2FB743B88DBB23B754FF0E3
S3152000093000037B754FF00003BB610FE0BB6903F139
S315200009400E03B9697A680A44127807F120010B442C
S3152000095003F8182CBB6903F10103BB61FA78BB6964
S315200009609A42EBDC4FF00003FB774FF00303BB61A9
S315200009700CE0BB6907F12002134413F8182CFB7F07
S315200009801344FB77BB6903F10103BB61BB690E2BE3
S31520000990EFDDFB7F6FEA0303DBB2FB7507F108038C
S315200009A048F2D440C2F2000019464FF0100204F07B
S315200009B033FF07F12007BD4680BD00BF80B5ADF5EA
S315200009C0B16D00AF07F10803A3F10403186007F126
S315200009D00803A3F1040307F10802186811464FF42F
S315200009E0AF6204F08BFF0346C7F8803546F64463B2
S315200009F0C2F200031B681A4647F2D833C2F200033C
S31520000A0002EB0301D7F8803507F1080208461146A4
S31520000A101A4605F035FF46F64463C2F200031A680B
S31520000A20D7F880351A4446F64463C2F200031A60AA
S31520000A3046F64463C2F200031A6840F21F139A4234
S31520000A4006DD46F64463C2F200034FF000021A6048
S31520000A504FF00003C7F88435EFE0D7F8842547F236
S31520000A60D833C2F200039B5C7E2B65D1D7F8843540
S31520000A7003F1030247F2D833C2F200039B5C812BB9
S31520000A805AD1D7F8843503F1040247F2D833C2F29B
S31520000A9000039B5C372B4FD1D7F8843503F1050231
S31520000AA047F2D833C2F200039B5C3C2B44D1D7F8E3
S31520000AB0843503F1080247F2D833C2F200039B5C67
S31520000AC0FF2B39D1D7F8843503F1090247F2D83301
S31520000AD0C2F200039B5CFF2B2ED1D7F8843503F19D
S31520000AE00A0247F2D833C2F200039B5CFF2B23D1C4
S31520000AF0D7F8843503F10B0247F2D833C2F200034C
S31520000B009B5CFF2B18D1D7F8843503F10C0247F2F2
S31520000B10D833C2F200039B5C1A4646F60C53C2F247
S31520000B2000031A60D7F8842547F2D833C2F20003AF
S31520000B304FF0000199547AE0D7F8842547F2D8334C
S31520000B40C2F200039B5C7E2B71D1D7F8843503F16A
S31520000B50030247F2D833C2F200039B5C812B66D195
S31520000B60D7F8843503F1040247F2D833C2F20003E2
S31520000B709B5C372B5BD1D7F8843503F1050247F20E
S31520000B80D833C2F200039B5C3C2B50D1D7F8843576
S31520000B9003F10B0247F2D833C2F200039A5C48F203
S31520000BA0D043C2F200031A70D7F8843503F10C0241
S31520000BB047F2D833C2F200039A5C48F28033C2F27D
S31520000BC000031A7046F64863C2F200031A6848F218
S31520000BD08033C2F20003197848F29033C2F2000340
S31520000BE0995402F1010246F64863C2F200031A60E4
S31520000BF046F64863C2F200031A6848F2D043C2F2AE
S31520000C000003197848F29033C2F20003995402F196
S31520000C10010246F64863C2F200031A60D7F884251B
S31520000C2047F2D833C2F200034FF000019954D7F8A7
S31520000C30843503F10103C7F88435D7F8842540F2BB
S31520000C402B139A427FF709AF07F5C47707F580671C
S31520000C50BD4680BD0000000080B582B000AF786040
S31520000C6078684FF0000104F06DFC7B68022B17D1E9
S31520000C7048F2C843C2F20003D3E9002310461946BE
S31520000C801DA3D3E9002305F061F902460B46104661
S31520000C90194648F2C843C2F20003C3E9000119E02D
S31520000CA07B68012B16D148F2C843C2F20003D3E970
S31520000CB000231046194610A3D3E9002305F044F972
S31520000CC002460B461046194648F2C843C2F20003B4
S31520000CD0C3E9000148F28433C2F200031B6803F122
S31520000CE0010248F28433C2F200031A6007F10807B2
S31520000CF0BD4680BDAFF30080DBF97E6ABC74533FEE
S31520000D0080B582B000AF78604FF00000796804F0BB
S31520000D1019FC7B68012B17D147F20853C2F2000356
S31520000D20D3E90023104619461DA3D3E9002305F075
S31520000D300DF902460B461046194647F20853C2F2F1
S31520000D400003C3E9000119E07B68022B16D147F2A4
S31520000D500853C2F20003D3E900231046194610A314
S31520000D60D3E9002305F0F0F802460B461046194653
S31520000D7047F20853C2F20003C3E9000148F2843364
S31520000D80C2F200031B6803F1010248F28433C2F267
S31520000D9000031A6007F10807BD4680BDAFF3008047
S31520000DA0DBF97E6ABC74533F80B500AF4FF000007C
S31520000DB0FFF7CEFB46F62053C2F200031B68184607
S31520000DC0FFF716FCFFF706FCFFF722FC80BD00BFED
S31520000DD080B500AF4FF00000FFF738FC46F62053F1
S31520000DE0C2F200031B68184605F0FCF948F2883366
S31520000DF0C2F20003D3E9002305F05AFA02460B4655
S31520000E001046194605F0EEFC03461846FFF76EFC21
S31520000E10FFF75EFCFFF77AFC80BD00BF80B500AF10
S31520000E2046F61853C2F200031B681846FFF714FF54
S31520000E30FFF7FEFB46F62053C2F200031B68184656
S31520000E40FFF7D6FBFFF7C6FBFFF7E2FB80BD00BF2F
S31520000E5080B500AF46F61C53C2F200031B68184645
S31520000E60FFF74EFFFFF762FC46F62053C2F200035F
S31520000E701B68184605F0B6F948F28833C2F200031B
S31520000E80D3E9002305F014FA02460B46104619460C
S31520000E9005F0A8FC03461846FFF728FCFFF718FCC8
S31520000EA0FFF734FC80BD00BFB0B584B000AFC7E902
S31520000EB00201C7E9002348F27833C2F20003D7E9DA
S31520000EC00201C3E9000147F2D033C2F20003D7E999
S31520000ED00001C3E9000147F2D033C2F20003D3E98F
S31520000EE00023104619464FF000024FF0804305F0CC
S31520000EF009FB02460B461046194648F2C043C2F289
S31520000F000003C3E9000148F27833C2F20003D3E9B3
S31520000F100023104619464FF000024FF0804305F09B
S31520000F20F1FA02460B461046194647F21053C2F212
S31520000F300003C3E9000148F2C043C2F20003D3E92B
S31520000F4000231046194605F0B3F902460B4614460F
S31520000F501D4647F21053C2F20003D3E90023104680
S31520000F60194605F0A5F902460B462046294604F007
S31520000F70EDFF02460B461046194605F049FD48F29C
S31520000F80C843C2F20003C3E9000147F2D033C2F2DC
S31520000F900003D3E9000148F2C043C2F20003D3E9BB
S31520000FA0002304F0D1FF02460B461046194605F0F1
S31520000FB07FF902460B4614461D4647F21053C2F2ED
S31520000FC00003D3E900231046194605F071F90246BD
S31520000FD00B462046294604F0B9FF02460B4610462A
S31520000FE0194605F015FD47F20853C2F20003C3E97E
S31520000FF0000148F28433C2F200034FF000021A6067
S3152000100007F11007BD46B0BD2DE9F04FA1B006AFE0
S31520001010C7E90A01C7E9082348F2C043C2F2000320
S31520001020D3E90023D7E90A0104F090FF02460B46D4
S31520001030C7E90C2347F21053C2F20003D3E9002379
S31520001040D7E9080104F082FF02460B46C7E90E23C2
S3152000105048F2C043C2F20003D3E9000147F210531D
S31520001060C2F20003D3E90045D7E90C23CDE90023DA
S31520001070D7E90E23CDE902234FF00003049322463D
S315200010802B46FFF795FB03463B6448F2C043C2F26A
S315200010900003D3E9000147F21053C2F20003D3E95B
S315200010A00045D7E90C23CDE90023D7E90E23CDE966
S315200010B002234FF00103049322462B46FFF778FBC9
S315200010C003467B6446F61853C2F200033A6C1A6054
S315200010D046F61C53C2F200037A6C1A60D7E90C2339
S315200010E01046194605F0E4F802460B4614461D46FE
S315200010F0D7E90E231046194605F0DAF802460B46C4
S315200011002046294604F022FF02460B461046194681
S3152000111005F07EFC02460B46C7E9122347F2D03380
S31520001120C2F20003D3E9002310461946D7E90C235F
S3152000113004F00AFF02460B461046194605F0B8F899
S3152000114002460B4614461D46D7E90E23104619467D
S3152000115005F0AEF802460B462046294604F0F6FE78
S3152000116002460B461046194605F052FC02460B462F
S31520001170C7E9142348F2C843C2F20003D3E9002387
S3152000118010461946D7E9122304F0DEFE02460B4626
S31520001190C7E9162347F20853C2F20003D3E9002316
S315200011A010461946D7E9142304F0CEFE02460B4614
S315200011B0C7E918234FF000031C46D7E916014FF064
S315200011C000024FF0000305F0E5FA0346002B02D09B
S315200011D04FF001031C46E3B2002B05D0BB6DBB6567
S315200011E0FB6D83F00043FB654FF000031C46D7E9F7
S315200011F018014FF000024FF0000305F0CBFA03462A
S31520001200002B02D04FF001031C46E3B2002B05D081
S315200012103B6E3B667B6E83F000437B66D7E9160107
S31520001220D7E9182305F06EF902460B4610461946F3
S3152000123048F28833C2F20003C3E9000148F2C843EA
S31520001240C2F20003D3E90023D7E9120104F07CFEA1
S3152000125002460B461146396023F00041796046F676
S315200012602853C2F20003D3E900454FF000031E467F
S31520001270D7E9000122462B4605F096FA0346002BB5
S3152000128002D04FF001031E46F3B2002B3CD047F2AA
S315200012900853C2F20003D3E90023D7E9140104F06E
S315200012A053FE02460B461146B96023F00041F96011
S315200012B046F62853C2F20003D3E900454FF0000357
S315200012C01E46D7E9020122462B4605F081FA03463F
S315200012D0002B02D04FF001031E46F3B2002B13D091
S315200012E046F61853C2F200034FF000021A6048F285
S315200012F08833C2F200034FF000004FF07E5101F513
S31520001300E001C3E9000133E148F2C843C2F2000319
S31520001310D3E90023D7E9120104F016FE02460B4654
S315200013201146396123F00041796146F62853C2F20D
S315200013300003D3E900454FF000031E46D7E9040118
S3152000134022462B4605F044FA0346002B02D04FF0E6
S3152000135001031E46F3B2002B3CD047F20853C2F2DB
S315200013600003D3E90023D7E9140104F0EDFD02467A
S315200013700B461146B96123F00041F96146F6285320
S31520001380C2F20003D3E900454FF000031E46D7E919
S31520001390060122462B4605F007FA0346002B02D00B
S315200013A04FF001031E46F3B2002B13D046F61C5312
S315200013B0C2F200034FF000021A6048F28833C2F2EC
S315200013C000034FF000004FF07E5101F5E001C3E924
S315200013D00001CDE048F2C843C2F20003D3E900235E
S315200013E0D7E9120104F0B0FD02460B46924623F0DF
S315200013F0004B46F62853C2F20003D3E900454FF0CE
S3152000140000031E465046594622462B4605F0CCF987
S315200014100346002B02D04FF001031E46F3B2002BE9
S3152000142000F0A68047F20853C2F20003D3E9002356
S31520001430D7E9140104F088FD02460B46904623F0B6
S31520001440004946F62853C2F20003D3E900454FF07F
S3152000145000031E464046494622462B4605F0A4F97F
S315200014600346002B02D04FF001031E46F3B2002B99
S315200014707ED048F2C843C2F20003D3E900231046C7
S31520001480194604F015FF02460B4614461D4647F240
S315200014900853C2F20003D3E900231046194604F08C
S315200014A007FF02460B462046294604F04DFD02461C
S315200014B00B4614461D4647F2D033C2F20003D3E949
S315200014C000231046194604F0F3FE02460B4620463A
S315200014D0294604F03BFD02460B4614461D4647F2BC
S315200014E0D033C2F20003D3E900231046194604F094
S315200014F02DFD02460B462046294605F003F80246F6
S315200015000B461046194648F2C043C2F20003C3E90F
S31520001510000148F2C843C2F20003D3E90023104673
S31520001520194604F0C5FE02460B4614461D4648F2EF
S31520001530C043C2F20003D3E900231046194604F043
S31520001540B7FE02460B462046294604F0FDFC02461D
S315200015500B461046194605F05BFA47F21053C2F2C5
S315200015600003C3E9000107F16C07BD46BDE8F08F13
S31520001570FFF71AFCFFF72CFC00E000BF48F284338B
S31520001580C2F200031B68092BF7DD48F28433C2F24E
S3152000159000034FF000021A6094E500BF000000002F
S315200015A080B582B000AF0346FB71FB79302B40F04B
S315200015B098804FF000004FF080414FF000024FF02E
S315200015C03F4303F57003FFF71FFD46F61450C2F2A2
S315200015D000004FF0010143F23A72FFF775F94FF020
S315200015E000004FF03F4101F570014FF000024FF02F
S315200015F0404303F58023FFF707FD4FF000004FF02F
S3152000160000014FF000024FF03F4303F57803FFF748
S31520001610FBFC4FF000004FF07E5101F5E0014FF04A
S3152000162000024FF0404303F58023FFF7EDFC4FF017
S3152000163000004FF07E5101F5E0014FF000024FF01F
S315200016400003FFF7E1FC4FF000004FF07E5101F55B
S31520001650E0014FF000024FF0804303F58023FFF7AF
S31520001660D3FC4FF000004FF000014FF000024FF086
S315200016707E5303F5F003FFF7C7FC4FF000004FF051
S315200016803F4101F570014FF000024FF07E5303F504
S31520001690F003FFF7B9FC4FF000004FF03F4101F592
S315200016A070014FF000024FF00003FFF7ADFC46F645
S315200016B01050C2F200004FF0010143F23A72FFF7D8
S315200016C003F94FF000004FF0804101F500214FF063
S315200016D000024FF07E5303F5E003FFF795FC03F07D
S315200016E0AEBCFB79312B77D14FF000004FF07E5105
S315200016F001F5E0014FF000024FF03F4303F5700380
S31520001700FFF782FC46F61450C2F200004FF00101AA
S3152000171043F23A72FFF7D8F84FF000004FF08041BD
S3152000172001F540214FF000024FF00003FFF76CFC5B
S3152000173046F61050C2F200004FF0010143F23A7211
S31520001740FFF7C2F84FF000004FF03F4101F57C0152
S315200017504FF000024FF00003FFF756FC46F61450F8
S31520001760C2F200004FF0010143F23A72FFF7ACF8E3
S315200017704FF000004FF000014FF000024FF04043C1
S3152000178003F59013FFF740FC4FF000004FF03F4168
S3152000179001F578014FF000024FF07E5303F5F00378
S315200017A0FFF732FC46F61050C2F200004FF001015E
S315200017B043F23A72FFF788F84FF000004FF080416D
S315200017C001F560214FF000024FF0804303F58013AE
S315200017D0FFF71AFC03F033BCFB79322B6BD14FF0A9
S315200017E000004FF0804101F580114FF000024FF0CC
S315200017F03F4303F57003FFF707FC46F61450C2F289
S3152000180000004FF0010143F23A72FFF75DF84FF006
S3152000181000004FF0404101F500214FF000024FF04B
S315200018200003FFF7F1FB4FF000004FF000014FF0EF
S3152000183000024FF04043FFF7E7FB4FF000004FF068
S31520001840804101F500214FF000024FF00003FFF721
S31520001850DBFB4FF000004FF000014FF000024FF08D
S315200018603F4303F57803FFF7CFFB4FF000004FF01F
S31520001870404101F500214FF000024FF00003FFF731
S31520001880C3FB46F61050C2F200004FF0010143F2AE
S315200018903A72FFF719F84FF000004FF0804101F53A
S315200018A080114FF000024FF0804303F59013FFF7AD
S315200018B0ABFB03F0C4BBFB79332B40F084804FF0A5
S315200018C000004FF07E5101F5E0014FF000024FF08D
S315200018D04043FFF799FB46F61450C2F200004FF042
S315200018E0010143F23A72FEF7EFFF4FF000004FF08E
S315200018F07E5101F5F0014FF000024FF07E5303F5C3
S31520001900E003FFF781FB4FF000004FF07E5101F519
S31520001910F0014FF000024FF03F4303F57003FFF74D
S3152000192073FB4FF000004FF03F4101F578014FF077
S3152000193000024FF03F4303F57803FFF765FB4FF0B6
S3152000194000004FF07E5101F5F0014FF000024FF0FC
S315200019503F4303F57803FFF757FB4FF000004FF0A6
S315200019603F4101F578014FF000024FF03F4303F568
S315200019707003FFF749FB4FF000004FF03F4101F5A0
S3152000198078014FF000024FF07E5303F5E003FFF796
S315200019903BFB46F61050C2F200004FF0010143F225
S315200019A03A72FEF791FF4FF000004FF0804101F5AB
S315200019B080114FF000024FF0804303F5A013FFF78C
S315200019C023FB03F03CBBFB79342B53D14FF00000B3
S315200019D04FF0804101F500214FF000024FF03F43C8
S315200019E003F57003FFF710FB46F61450C2F2000011
S315200019F04FF0010143F23A72FEF766FF4FF0000006
S31520001A004FF000014FF000024FF0404303F59013D2
S31520001A10FFF7FAFA4FF000004FF040414FF0000276
S31520001A204FF08043FFF7F0FA4FF000004FF080416F
S31520001A3001F540214FF000024FF00003FFF7E4FAD2
S31520001A4046F61050C2F200004FF0010143F23A72FE
S31520001A50FEF73AFF4FF000004FF07E5101F5C0012E
S31520001A604FF000024FF0804303F59013FFF7CCFAB6
S31520001A7003F0E5BAFB79352B6BD14FF000004FF020
S31520001A807E5101F5E0014FF000024FF03F4303F590
S31520001A907003FFF7B9FA46F61450C2F200004FF071
S31520001AA0010143F23A72FEF70FFF4FF000004FF0AC
S31520001AB0804101F500214FF000024FF00003FFF7AF
S31520001AC0A3FA4FF000004FF000014FF000024FF054
S31520001AD04043FFF799FA4FF000004FF0404101F5DF
S31520001AE000214FF000024FF00003FFF78DFA4FF070
S31520001AF000004FF000014FF000024FF03F4303F586
S31520001B007803FFF781FA4FF000004FF0804101F58E
S31520001B1000214FF000024FF00003FFF775FA46F65A
S31520001B201050C2F200004FF0010143F23A72FEF764
S31520001B30CBFE4FF000004FF07E5101F5E0014FF053
S31520001B4000024FF0804303F59013FFF75DFA03F090
S31520001B5076BAFB79362B75D14FF000004FF07E51C7
S31520001B6001F5E0014FF000024FF0404303F500235A
S31520001B70FFF74AFA46F61450C2F200004FF0010170
S31520001B8043F23A72FEF7A0FE4FF000004FF000013C
S31520001B904FF000024FF04043FFF736FA4FF00000B7
S31520001BA04FF0804101F500214FF000024FF0000375
S31520001BB0FFF72AFA4FF000004FF000014FF0000225
S31520001BC04FF04043FFF720FA4FF000004FF040411E
S31520001BD001F500214FF000024FF00003FFF714FA41
S31520001BE04FF000004FF000014FF000024FF03F434E
S31520001BF003F57803FFF708FA4FF000004FF0804115
S31520001C0001F500214FF000024FF00003FFF7FCF929
S31520001C1046F61050C2F200004FF0010143F23A722C
S31520001C20FEF752FE4FF000004FF07E5101F5E00125
S31520001C304FF000024FF0804303F59013FFF7E4F9CD
S31520001C4003F0FDB9FB79372B49D14FF000004FF057
S31520001C507E5101F5E0014FF000024FF0404303F5BD
S31520001C60A013FFF7D1F946F61450C2F200004FF048
S31520001C70010143F23A72FEF727FE4FF000004FF0C3
S31520001C80804101F500214FF000024FF00003FFF7DD
S31520001C90BBF94FF000004FF040414FF000024FF0EB
S31520001CA0804303F58013FFF7AFF946F61050C2F2D2
S31520001CB000004FF0010143F23A72FEF705FE4FF0A5
S31520001CC000004FF07E5101F5E0014FF000024FF089
S31520001CD07E5303F5E003FFF797F903F0B0B9FB79DC
S31520001CE0382B40F08E804FF000004FF07E5101F5EA
S31520001CF0E0014FF000024FF03F4303F57003FFF77A
S31520001D0083F946F61450C2F200004FF0010143F267
S31520001D103A72FEF7D9FD4FF000004FF000014FF068
S31520001D2000024FF0404303F5A013FFF76DF94FF083
S31520001D3000004FF0804101F500214FF000024FF0E6
S31520001D400003FFF761F94FF000004FF000014FF05C
S31520001D5000024FF0804303F5A013FFF755F94FF02B
S31520001D6000004FF0404101F500214FF000024FF0F6
S31520001D700003FFF749F946F61050C2F200004FF073
S31520001D80010143F23A72FEF79FFD4FF000004FF03B
S31520001D9000014FF000024FF0404303F58023FFF788
S31520001DA033F946F61450C2F200004FF0010143F217
S31520001DB03A72FEF789FD4FF000004FF0804101F5A1
S31520001DC000214FF000024FF00003FFF71DF946F601
S31520001DD01050C2F200004FF0010143F23A72FEF7B2
S31520001DE073FD4FF000004FF07E5101F5E0014FF0FA
S31520001DF000024FF0804303F54023FFF705F903F077
S31520001E001EB9FB79392B6DD14FF000004FF07E5172
S31520001E1001F5E0014FF000024FF03F4303F5700358
S31520001E20FFF7F2F846F61450C2F200004FF0010117
S31520001E3043F23A72FEF748FD4FF000004FF0804122
S31520001E4001F500214FF000024FF00003FFF7DCF808
S31520001E504FF000004FF000014FF000024FF04043DA
S31520001E6003F5A013FFF7D0F84FF000004FF04041E4
S31520001E7001F500214FF000024FF00003FFF7C4F8F0
S31520001E804FF000004FF000014FF000024FF080436A
S31520001E9003F58023FFF7B8F84FF000004FF080419C
S31520001EA001F500214FF000024FF00003FFF7ACF8D8
S31520001EB046F61050C2F200004FF0010143F23A728A
S31520001EC0FEF702FD4FF000004FF07E5101F5E001D4
S31520001ED04FF000024FF0804303F54023FFF794F8BC
S31520001EE003F0ADB8FB79412B6DD14FF000004FF0D8
S31520001EF07E5101F5E0014FF000024FF03F4303F51C
S31520001F007003FFF781F846F61450C2F200004FF036
S31520001F10010143F23A72FEF7D7FC4FF000004FF072
S31520001F2000014FF000024FF0404303F5C013FFF7C6
S31520001F306BF84FF000004FF0804101F500214FF083
S31520001F4000024FF00003FFF75FF84FF000004FF05C
S31520001F5000014FF000024FF0804303F5C013FFF756
S31520001F6053F84FF000004FF000014FF000024FF001
S31520001F70404303F50023FFF747F84FF000004FF0EA
S31520001F80404101F500214FF000024FF00003FFF71A
S31520001F903BF846F61050C2F200004FF0010143F222
S31520001FA03A72FEF791FC4FF000004FF0804101F5A8
S31520001FB080114FF000024FF0804303F58013FFF7A6
S31520001FC023F803F03CB8FB79422B40F086804FF093
S31520001FD000004FF07E5101F5E0014FF000024FF076
S31520001FE03F4303F57003FFF70FF846F61450C2F28D
S31520001FF000004FF0010143F23A72FEF765FC4FF004
S3152000200000004FF000014FF000024FF0404303F56F
S31520002010C013FEF7F9FF4FF000004FF0804101F5A5
S3152000202000214FF000024FF00003FEF7EDFF4FF0C6
S3152000203000004FF000014FF000024FF0804303F5FF
S315200020400023FEF7E1FF4FF000004FF0404101F57D
S3152000205000214FF000024FF00003FEF7D5FF4FF0AE
S3152000206000004FF0804101F500214FF000024FF0B3
S315200020700003FEF7C9FF4FF000004FF000014FF0BC
S3152000208000024FF0804303F50023FEF7BDFF4FF01B
S3152000209000004FF0404101F500214FF000024FF0C3
S315200020A00003FEF7B1FF46F61050C2F200004FF0D3
S315200020B0010143F23A72FEF707FC4FF000004FF0A1
S315200020C0804101F580114FF000024FF07E5303F559
S315200020D0E003FEF799FF02F0B2BFFB79432B55D1FF
S315200020E04FF000004FF0804101F580114FF00002C3
S315200020F04FF03F4303F57003FEF786FF46F6145074
S31520002100C2F200004FF0010143F23A72FEF7DCFB07
S315200021104FF000004FF0404101F500214FF0000242
S315200021204FF00003FEF770FF4FF000004FF0000164
S315200021304FF000024FF0404303F5C013FEF764FF53
S315200021404FF000004FF0804101F500214FF00002D2
S315200021504FF00003FEF758FF46F61050C2F200007B
S315200021604FF0010143F23A72FEF7AEFB4FF000004A
S315200021704FF07E5101F5E0014FF000024FF0804311
S3152000218003F5E013FEF740FF02F059BFFB79442B1D
S3152000219079D14FF000004FF0804101F580114FF0CA
S315200021A000024FF03F4303F57003FEF72DFF46F67E
S315200021B01450C2F200004FF0010143F23A72FEF7CA
S315200021C083FB4FF000004FF0404101F500214FF016
S315200021D000024FF00003FEF717FF4FF000004FF00C
S315200021E000014FF000024FF07E5303F5C003FEF7C7
S315200021F00BFF4FF000004FF000014FF000024FF0B0
S31520002200404303F5E013FEF7FFFE4FF000004FF0CA
S3152000221000014FF000024FF07E5303F5C003FEF796
S31520002220F3FE4FF000004FF0804101F500214FF002
S3152000223000024FF00003FEF7E7FE4FF000004FF0DC
S3152000224000014FF000024FF0804303F5C013FEF764
S31520002250DBFE46F61050C2F200004FF0010143F2B9
S315200022603A72FEF731FB4FF000004FF07E5101F538
S31520002270E0014FF000024FF0804303F5E013FEF734
S31520002280C3FE02F0DCBEFB79452B79D14FF000006E
S315200022904FF0804101F580114FF000024FF040438E
S315200022A003F5E013FEF7B0FE46F61450C2F2000026
S315200022B04FF0010143F23A72FEF706FB4FF00000A1
S315200022C04FF0404101F500214FF000024FF000038E
S315200022D0FEF79AFE4FF000004FF000014FF000028B
S315200022E04FF0804303F50023FEF78EFE4FF00000EB
S315200022F04FF0804101F500214FF000024FF000031E
S31520002300FEF782FE4FF000004FF0404101F500211C
S315200023104FF000024FF00003FEF776FE4FF000006C
S315200023204FF000014FF000024FF0804303F50023E9
S31520002330FEF76AFE4FF000004FF0804101F50021C4
S315200023404FF000024FF00003FEF75EFE46F61050F7
S31520002350C2F200004FF0010143F23A72FEF7B4FADE
S315200023604FF000004FF07E5101F5E0014FF00002E2
S315200023704FF07E5303F5E003FEF746FE02F05FBE04
S31520002380FB79462B6DD14FF000004FF0804101F5CF
S3152000239080114FF000024FF0404303F5E013FEF7A3
S315200023A033FE46F61450C2F200004FF0010143F20C
S315200023B03A72FEF789FA4FF000004FF0404101F5DE
S315200023C000214FF000024FF00003FEF71DFE4FF0F4
S315200023D000004FF000014FF000024FF0804303F55C
S315200023E00023FEF711FE4FF000004FF0804101F56B
S315200023F000214FF000024FF00003FEF705FE4FF0DC
S3152000240000004FF0404101F500214FF000024FF04F
S315200024100003FEF7F9FD4FF000004FF000014FF0EA
S3152000242000024FF0804303F50023FEF7EDFD46F64C
S315200024301050C2F200004FF0010143F23A72FEF74B
S3152000244043FA4FF000004FF07E5101F5E0014FF0C6
S3152000245000024FF07E5303F5E003FEF7D5FD02F0B0
S31520002460EEBDFB79472B6BD14FF000004FF080413A
S3152000247001F580114FF000024FF0404303F5E013C1
S31520002480FEF7C2FD46F61450C2F200004FF00101DD
S3152000249043F23A72FEF718FA4FF000004FF040412F
S315200024A001F500214FF000024FF00003FEF7ACFDCE
S315200024B04FF000004FF000014FF000024FF0804334
S315200024C003F5C013FEF7A0FD4FF000004FF080414A
S315200024D001F500214FF000024FF00003FEF794FDB6
S315200024E04FF000004FF000014FF000024FF0804304
S315200024F003F50023FEF788FD4FF000004FF0404122
S315200025004FF000024FF00003FEF77EFD46F6105016
S31520002510C2F200004FF0010143F23A72FEF7D4F9FD
S315200025204FF000004FF0804101F500214FF00002EE
S315200025304FF0804303F58013FEF766FD02F07FBD62
S31520002540FB79482B6DD14FF000004FF07E5101F5FD
S31520002550E0014FF000024FF03F4303F57003FEF712
S3152000256053FD46F61450C2F200004FF0010143F22B
S315200025703A72FEF7A9F94FF000004FF000014FF034
S3152000258000024FF0404303F5C013FEF73DFD4FF028
S3152000259000004FF000014FF000024FF0804303F59A
S315200025A00023FEF731FD4FF000004FF0404101F5CA
S315200025B000214FF000024FF00003FEF725FD4FF0FB
S315200025C000004FF000014FF000024FF0404303F5AA
S315200025D00023FEF719FD4FF000004FF000014FF0E9
S315200025E000024FF0804303F5C013FEF70DFD46F6BB
S315200025F01050C2F200004FF0010143F23A72FEF78A
S3152000260063F94FF000004FF07E5101F5E0014FF0E5
S3152000261000024FF07E5303F5E003FEF7F5FC02F0CF
S315200026200EBDFB79492B6DD14FF000004FF07E5146
S3152000263001F5E0014FF000024FF03F4303F5700330
S31520002640FEF7E2FC46F61450C2F200004FF00101FC
S3152000265043F23A72FEF738F94FF000004FF080410E
S3152000266001F500214FF000024FF00003FEF7CCFCED
S315200026704FF000004FF03F4101F578014FF0000286
S315200026804FF00003FEF7C0FC4FF000004FF00001B2
S315200026904FF000024FF0404303F5C013FEF7B4FCA1
S315200026A04FF000004FF03F4101F578014FF0000256
S315200026B04FF00003FEF7A8FC4FF000004FF08041DA
S315200026C001F500214FF000024FF00003FEF79CFCBD
S315200026D046F61050C2F200004FF0010143F23A7262
S315200026E0FEF7F2F84FF000004FF07E5101F5E001C1
S315200026F04FF000024FF0804303F5E013FEF784FC11
S3152000270002F09DBCFB794A2B6DD14FF000004FF0B3
S31520002710804101F580114FF000024FF0404303F550
S31520002720E013FEF771FC46F61450C2F200004FF09B
S31520002730010143F23A72FEF7C7F84FF000004FF05E
S31520002740404101F500214FF000024FF00003FEF753
S315200027505BFC4FF000004FF03F4101F578014FF050
S3152000276000024FF00003FEF74FFC4FF000004FF041
S3152000277000014FF000024FF0804303F5C013FEF72F
S3152000278043FC4FF000004FF03F4101F578014FF038
S3152000279000024FF00003FEF737FC4FF000004FF029
S315200027A000014FF000024FF0804303F50023FEF7AF
S315200027B02BFC46F61050C2F200004FF0010143F206
S315200027C03A72FEF781F84FF000004FF0804101F594
S315200027D080114FF000024FF0804303F58013FEF77F
S315200027E013FC02F02CBCFB794B2B40F082804FF07F
S315200027F000004FF07E5101F5E0014FF000024FF04E
S315200028003F4303F57003FEF7FFFB46F61450C2F272
S3152000281000004FF0010143F23A72FEF755F84FF0EF
S3152000282000004FF000014FF000024FF0404303F547
S31520002830C013FEF7E9FB4FF000004FF000014FF008
S3152000284000024FF0804303F50023FEF7DDFB4FF037
S3152000285000004FF0804101F500214FF000024FF0BB
S31520002860404303F50023FEF7CFFB4FF000004FF067
S31520002870404101F500214FF000024FF0804303F55F
S315200028800023FEF7C1FB4FF000004FF0804101F519
S3152000289000214FF000024FF0804303F50023FEF79E
S315200028A0B3FB4FF000004FF0404101F500214FF0FF
S315200028B000024FF0404303F50023FEF7A5FB46F642
S315200028C01050C2F200004FF0010143F23A72FDF7B8
S315200028D0FBFF4FF000004FF0804101F580114FF0D3
S315200028E000024FF0804303F58013FEF78DFB02F0C4
S315200028F0A6BBFB794C2B49D14FF000004FF07E51FF
S3152000290001F5E0014FF000024FF0404303F5E013DC
S31520002910FEF77AFB46F61450C2F200004FF0010192
S3152000292043F23A72FDF7D0FF4FF000004FF000015E
S315200029304FF000024FF0804303F5C013FEF764FB0F
S315200029404FF000004FF0804101F500214FF00002CA
S315200029504FF00003FEF758FB46F61050C2F2000077
S315200029604FF0010143F23A72FDF7AEFF4FF000003F
S315200029704FF07E5101F5E0014FF000024FF07E53FB
S3152000298003F5E003FEF740FB02F059BBFB794D2B24
S3152000299065D14FF000004FF07E5101F5E0014FF078
S315200029A000024FF03F4303F57003FEF72DFB46F67A
S315200029B01450C2F200004FF0010143F23A72FDF7C3
S315200029C083FF4FF000004FF000014FF000024FF060
S315200029D0404303F5C013FEF717FB4FF000004FF0FE
S315200029E07E5101F5F0014FF000024FF0804303F5D0
S315200029F0C013FEF709FB4FF000004FF07E5101F5A2
S31520002A00F0014FF000024FF0404303F5C013FEF7EC
S31520002A10FBFA4FF000004FF000014FF000024FF09C
S31520002A20804303F5C013FEF7EFFA46F61050C2F2C4
S31520002A3000004FF0010143F23A72FDF745FF4FF0D7
S31520002A4000004FF07E5101F5E0014FF000024FF0FB
S31520002A507E5303F5E003FEF7D7FA02F0F0BAFB79CE
S31520002A604E2B57D14FF000004FF07E5101F5E0017B
S31520002A704FF000024FF03F4303F57003FEF7C4FA10
S31520002A8046F61450C2F200004FF0010143F23A72AA
S31520002A90FDF71AFF4FF000004FF000014FF0000243
S31520002AA04FF0404303F5C013FEF7AEFA4FF0000097
S31520002AB04FF0804101F500214FF000024FF0804396
S31520002AC003F5C013FEF7A0FA4FF000004FF0000107
S31520002AD04FF000024FF0404303F5C013FEF794FA7F
S31520002AE046F61050C2F200004FF0010143F23A724E
S31520002AF0FDF7EAFE4FF000004FF07E5101F5E001B0
S31520002B004FF000024FF07E5303F5E003FEF77CFA08
S31520002B1002F095BAFB794F2B61D14FF000004FF0B0
S31520002B20804101F580114FF000024FF03F4303F53D
S31520002B307003FEF769FA46F61450C2F200004FF011
S31520002B40010143F23A72FDF7BFFE4FF000004FF04D
S31520002B50404101F500214FF000024FF00003FEF73F
S31520002B6053FA4FF000004FF000014FF000024FF0F3
S31520002B70404303F5C013FEF747FA4FF000004FF02D
S31520002B80804101F500214FF000024FF00003FEF7CF
S31520002B903BFA4FF000004FF000014FF000024FF0DB
S31520002BA0804303F5C013FEF72FFA46F61050C2F203
S31520002BB000004FF0010143F23A72FDF785FE4FF017
S31520002BC000004FF07E5101F5E0014FF000024FF07A
S31520002BD07E5303F5E003FEF717FA02F030BAFB79CD
S31520002BE0502B61D14FF000004FF07E5101F5E001EE
S31520002BF04FF000024FF03F4303F57003FEF704FA4F
S31520002C0046F61450C2F200004FF0010143F23A7228
S31520002C10FDF75AFE4FF000004FF000014FF0000282
S31520002C204FF0404303F5C013FEF7EEF94FF00000D6
S31520002C304FF0804101F500214FF000024FF00003D4
S31520002C40FEF7E2F94FF000004FF000014FF00002CE
S31520002C504FF0804303F50023FEF7D6F94FF000002E
S31520002C604FF0404101F500214FF000024FF00003E4
S31520002C70FEF7CAF946F61050C2F200004FF00101E5
S31520002C8043F23A72FDF720FE4FF000004FF08041EC
S31520002C9001F580114FF000024FF0804303F58013B9
S31520002CA0FEF7B2F902F0CBB9FB79512B40F09080B8
S31520002CB04FF000004FF07E5101F5E0014FF0000289
S31520002CC04FF04043FEF7A0F946F61450C2F200003A
S31520002CD04FF0010143F23A72FDF7F6FD4FF0000086
S31520002CE04FF000014FF000024FF0404303F5A013D0
S31520002CF0FEF78AF94FF000004FF0804101F50021E0
S31520002D004FF000024FF00003FEF77EF94FF000006F
S31520002D104FF000014FF000024FF0804303F5A0135F
S31520002D20FEF772F94FF000004FF0404101F5002107
S31520002D304FF000024FF00003FEF766F946F61050FA
S31520002D40C2F200004FF0010143F23A72FDF7BCFDDA
S31520002D504FF000004FF07E5101F5F0014FF00002D8
S31520002D604FF0804303F58023FEF74EF946F61450C4
S31520002D70C2F200004FF0010143F23A72FDF7A4FDC2
S31520002D804FF000004FF07E5101F5F0014FF00002A8
S31520002D904FF0804303F54023FEF736F946F61050F0
S31520002DA0C2F200004FF0010143F23A72FDF78CFDAA
S31520002DB04FF000004FF07E5101F5E0014FF0000288
S31520002DC04FF07E5303F5E003FEF71EF902F037B904
S31520002DD0FB79522B6FD14FF000004FF07E5101F559
S31520002DE0E0014FF000024FF03F4303F57003FEF77A
S31520002DF00BF946F61450C2F200004FF0010143F2DF
S31520002E003A72FDF761FD4FF000004FF000014FF0E0
S31520002E1000024FF0404303F5C013FEF7F5F84FF0DC
S31520002E2000004FF0804101F500214FF000024FF0E5
S31520002E300003FEF7E9F84FF000004FF000014FF0D5
S31520002E4000024FF0804303F50023FEF7DDF84FF034
S31520002E5000004FF0404101F500214FF000024FF0F5
S31520002E600003FEF7D1F84FF000004FF0804101F546
S31520002E7000214FF000024FF0804303F50023FEF7B8
S31520002E80C3F846F61050C2F200004FF0010143F29B
S31520002E903A72FDF719FD4FF000004FF07E5101F513
S31520002EA0E0014FF000024FF07E5303F5E003FEF7FA
S31520002EB0ABF802F0C4B8FB79532B6DD14FF000006C
S31520002EC04FF07E5101F5E0014FF000024FF03F43F5
S31520002ED003F57003FEF798F846F61450C2F2000088
S31520002EE04FF0010143F23A72FDF7EEFC4FF000007D
S31520002EF04FF0804101F500214FF000024FF0000312
S31520002F00FEF782F84FF000004FF000014FF000026C
S31520002F104FF0404303F50023FEF776F84FF000000C
S31520002F204FF0404101F500214FF000024FF0000321
S31520002F30FEF76AF84FF000004FF000014FF0000254
S31520002F404FF0404303F50023FEF75EF84FF00000F4
S31520002F504FF0804101F500214FF000024FF00003B1
S31520002F60FEF752F846F61050C2F200004FF001016B
S31520002F7043F23A72FDF7A8FC4FF000004FF07E5165
S31520002F8001F5E0014FF000024FF0404303F5E01356
S31520002F90FEF73AF802F053B8FB79542B55D14FF08F
S31520002FA000004FF0804101F580214FF000024FF0E4
S31520002FB03F4303F57003FEF727F846F61450C2F296
S31520002FC000004FF0010143F23A72FDF77DFC4FF00D
S31520002FD000004FF000014FF000024FF0404303F590
S31520002FE0C013FEF711F84FF000004FF03F4101F5F6
S31520002FF078014FF000024FF00003FEF705F84FF07E
S3152000300000004FF0804101F500214FF000024FF003
S315200030100003FDF7F9FF46F61050C2F200004FF00C
S31520003020010143F23A72FDF74FFC4FF000004FF0DA
S315200030307E5101F5E0014FF000024FF0804303F589
S31520003040E013FDF7E1FF01F0FABFFB79552B55D1CF
S315200030504FF000004FF07E5101F5E0014FF00002E5
S315200030604FF0404303F5E013FDF7CEFF46F614502C
S31520003070C2F200004FF0010143F23A72FDF724FC40
S315200030804FF000004FF000014FF000024FF0804358
S3152000309003F5C013FDF7B8FF4FF000004FF0804155
S315200030A001F500214FF000024FF00003FDF7ACFFC1
S315200030B04FF000004FF000014FF000024FF0404368
S315200030C003F5C013FDF7A0FF46F61050C2F200002C
S315200030D04FF0010143F23A72FDF7F6FB4FF0000084
S315200030E04FF07E5101F5E0014FF000024FF0804392
S315200030F003F5E013FDF788FF01F0A1BFFB79562BFE
S315200031004DD14FF000004FF07E5101F5E0014FF018
S3152000311000024FF0404303F5E013FDF775FF46F636
S315200031201450C2F200004FF0010143F23A72FDF74B
S31520003130CBFB4FF000004FF07E5101F5F0014FF030
S3152000314000024FF0804303F5C013FDF75DFF4FF0FB
S3152000315000004FF07E5101F5F0014FF000024FF0D4
S31520003160404303F5C013FDF74FFF46F61050C2F259
S3152000317000004FF0010143F23A72FDF7A5FB4FF034
S3152000318000004FF07E5101F5E0014FF000024FF0B4
S31520003190804303F5E013FDF737FF01F050BFFB79BD
S315200031A0572B65D14FF000004FF07E5101F5E0011D
S315200031B04FF000024FF0404303F5E013FDF724FFE4
S315200031C046F61450C2F200004FF0010143F23A7263
S315200031D0FDF77AFB4FF000004FF000014FF00002A0
S315200031E04FF0804303F5C013FDF70EFF4FF00000AC
S315200031F04FF07E5101F5F0014FF000024FF04043B1
S3152000320003F5C013FDF700FF4FF000004FF07E518D
S3152000321001F5F0014FF000024FF0804303F5C01393
S31520003220FDF7F2FE4FF000004FF000014FF00002D4
S315200032304FF0404303F5C013FDF7E6FE46F6105067
S31520003240C2F200004FF0010143F23A72FDF73CFB57
S315200032504FF000004FF07E5101F5E0014FF00002E3
S315200032604FF0804303F5E013FDF7CEFE01F0E7BEF5
S31520003270FB79582B6DD14FF000004FF07E5101F5B0
S31520003280E0014FF000024FF0404303F5E013FDF755
S31520003290BBFE46F61450C2F200004FF0010143F285
S315200032A03A72FDF711FB4FF000004FF0804101F517
S315200032B000214FF000024FF0804303F5C013FDF7C5
S315200032C0A3FE46F61050C2F200004FF0010143F271
S315200032D03A72FDF7F9FA4FF000004FF000014FF077
S315200032E000024FF0404303F5C013FDF78DFE46F66E
S315200032F01450C2F200004FF0010143F23A72FDF77A
S31520003300E3FA4FF000004FF0404101F500214FF065
S3152000331000024FF0804303F5C013FDF775FE46F615
S315200033201050C2F200004FF0010143F23A72FDF74D
S31520003330CBFA4FF000004FF07E5101F5E0014FF03F
S3152000334000024FF0804303F5E013FDF75DFE01F028
S3152000335076BEFB79592B67D14FF000004FF08041A4
S3152000336001F580214FF000024FF03F4303F5700333
S31520003370FDF74AFE46F61450C2F200004FF0010156
S3152000338043F23A72FDF7A0FA4FF000004FF0000129
S315200033904FF000024FF0404303F50023FDF734FEC3
S315200033A04FF000004FF03F4101F578014FF0000249
S315200033B04FF0404303F50023FDF726FE4FF00000B3
S315200033C04FF07E5101F5F0014FF000024FF080439F
S315200033D003F50023FDF718FE4FF000004FF07E5155
S315200033E001F5F0014FF000024FF0404303F50023B2
S315200033F0FDF70AFE46F61050C2F200004FF001011A
S3152000340043F23A72FDF760FA4FF000004FF07E511A
S3152000341001F5E0014FF000024FF0804303F5E01381
S31520003420FDF7F2FD01F00BBEFB795A2B57D14FF079
S3152000343000004FF07E5101F5E0014FF000024FF001
S31520003440404303F5E013FDF7DFFD46F61450C2F2C4
S3152000345000004FF0010143F23A72FDF735FA4FF0C2
S3152000346000004FF0804101F500214FF000024FF09F
S315200034700003FDF7C9FD4FF000004FF0404101F574
S3152000348000214FF000024FF0804303F5C013FDF7F3
S31520003490BBFD4FF000004FF0804101F500214FF0B9
S315200034A000024FF00003FDF7AFFD46F61050C2F2C2
S315200034B000004FF0010143F23A72FDF705FA4FF092
S315200034C000004FF07E5101F5E0014FF000024FF071
S315200034D07E5303F5E003FDF797FD01F0B0BDFB79C0
S315200034E0612B6FD14FF000004FF07E5101F5E001C6
S315200034F04FF000024FF0404303F58013FDF784FDA3
S3152000350046F61450C2F200004FF0010143F23A721F
S31520003510FDF7DAF94FF000004FF07E5101F5E0019A
S315200035204FF000024FF03F4303F57003FDF76CFDAB
S315200035304FF000004FF07E5101F5E0014FF0000200
S315200035404FF07E5303F5E003FDF75EFD4FF00000DC
S315200035504FF000014FF000024FF08043FDF754FD7D
S315200035604FF000004FF040414FF000024FF03F4334
S3152000357003F57003FDF748FD4FF000004FF0804142
S315200035804FF000024FF03F4303F57003FDF73CFD7B
S3152000359046F61050C2F200004FF0010143F23A7293
S315200035A0FDF792F94FF000004FF07E5101F5E00152
S315200035B04FF000024FF0804303F58013FDF724FD02
S315200035C001F03DBDFB79622B53D14FF000004FF047
S315200035D080414FF000024FF0404303F5C013FDF742
S315200035E013FD46F61450C2F200004FF0010143F2DB
S315200035F03A72FDF769F94FF000004FF000014FF0E5
S3152000360000024FF0804303F58013FDF7FDFC4FF0D9
S3152000361000004FF080414FF000024FF03F4303F58A
S315200036207003FDF7F1FC4FF000004FF040414FF0E2
S3152000363000024FF03F4303F57003FDF7E5FC46F625
S315200036401050C2F200004FF0010143F23A72FDF72A
S315200036503BF94FF000004FF0804101F500214FF07B
S3152000366000024FF0804303F58013FDF7CDFC01F0F7
S31520003670E6BCFB79632B73D14FF000004FF08041FD
S3152000368001F580114FF000024FF0404303F58013FF
S31520003690FDF7BAFC46F61450C2F200004FF00101C5
S315200036A043F23A72FDF710F94FF000004FF03F4118
S315200036B001F578014FF000024FF03F4303F5700308
S315200036C0FDF7A2FC4FF000004FF03F4101F57801D5
S315200036D04FF000024FF07E5303F5E003FDF794FC14
S315200036E04FF000004FF000014FF000024FF07E53E4
S315200036F003F5F003FDF788FC4FF000004FF07E51F4
S3152000370001F5F0014FF000024FF07E5303F5E00380
S31520003710FDF77AFC4FF000004FF07E5101F5F001E5
S315200037204FF000024FF03F4303F57003FDF76CFCAA
S3152000373046F61050C2F200004FF0010143F23A72F1
S31520003740FDF7C2F84FF000004FF07E5101F5E00181
S315200037504FF000024FF08043FDF756FC01F06FBC9E
S31520003760FB79642B53D14FF000004FF0804101F5D7
S3152000377000214FF000024FF0404303F50023FDF7F0
S3152000378043FC46F61450C2F200004FF0010143F20A
S315200037903A72FDF799F84FF000004FF040414FF094
S315200037A000024FF07E5303F5E003FDF72DFC4FF0AA
S315200037B000004FF080414FF000024FF07E5303F59A
S315200037C0E003FDF721FC4FF000004FF000014FF021
S315200037D000024FF0404303F58013FDF715FC46F633
S315200037E01050C2F200004FF0010143F23A72FDF789
S315200037F06BF84FF000004FF080414FF000024FF081
S31520003800804303F5A013FDF7FFFB01F018BCFB79FD
S31520003810652B7BD14FF000004FF07E5101F5F00172
S315200038204FF000024FF0404303F50023FDF7ECFB79
S3152000383046F61450C2F200004FF0010143F23A72EC
S31520003840FDF742F84FF000004FF080414FF00002A4
S315200038504FF00003FDF7D8FB4FF000004FF03F413B
S3152000386001F570014FF000024FF03F4303F5780356
S31520003870FDF7CAFB4FF000004FF040414FF0000229
S315200038804FF07E5303F5F003FDF7BEFB4FF000002B
S315200038904FF000014FF000024FF07E5303F5E00396
S315200038A0FDF7B2FB4FF000004FF07E5101F5E0012D
S315200038B04FF000024FF07E5303F5F003FDF7A4FB13
S315200038C04FF000004FF080414FF000024FF03F4391
S315200038D003F57803FDF798FB46F61050C2F2000078
S315200038E04FF0010143F23A72FCF7EEFF4FF0000071
S315200038F04FF07E5101F5F0014FF000024FF080436A
S3152000390003F58013FDF780FB01F099BBFB79662B4D
S3152000391040F084804FF000004FF080414FF00002CD
S315200039204FF03F4303F57003FDF76EFB46F6145048
S31520003930C2F200004FF0010143F23A72FCF7C4FFD5
S315200039404FF000004FF000014FF000024FF04043CF
S3152000395003F58013FDF758FB4FF000004FF07E5122
S3152000396001F5E0014FF000024FF03F4303F57003ED
S31520003970FDF74AFB4FF000004FF07E5101F5E001C4
S315200039804FF000024FF07E5303F5E003FDF73CFBBA
S3152000399046F61050C2F200004FF0010143F23A728F
S315200039A0FCF792FF4FF000004FF0404101F58021D7
S315200039B04FF000024FF08043FDF726FB46F61450E9
S315200039C0C2F200004FF0010143F23A72FCF77CFF8D
S315200039D04FF000004FF0804101F580214FF00002AA
S315200039E04FF00003FDF710FB46F61050C2F2000020
S315200039F04FF0010143F23A72FCF766FF4FF00000E8
S31520003A004FF07E5101F5E0014FF000024FF0804368
S31520003A1003F50023FDF7F8FA01F011BBFB79672BBC
S31520003A2040F090804FF000004FF07E5101F5E0010C
S31520003A304FF000024FF04043FDF7E6FA46F61450E9
S31520003A40C2F200004FF0010143F23A72FCF73CFF4C
S31520003A504FF000004FF07E5101F5F0014FF00002CB
S31520003A604FF07E5303F5E003FDF7CEFA4FF000004A
S31520003A704FF07E5101F5F0014FF000024FF03F4329
S31520003A8003F57003FDF7C0FA4FF000004FF0000178
S31520003A904FF000024FF0404303F58023FDF7B4FAC0
S31520003AA04FF000004FF03F4101F578014FF0000242
S31520003AB04FF03F4303F57803FDF7A6FA4FF00000D9
S31520003AC04FF03F4101F578014FF000024FF07E5351
S31520003AD003F5F003FDF798FA4FF000004FF07E5102
S31520003AE001F5F0014FF000024FF07E5303F5F0038D
S31520003AF0FDF78AFA4FF000004FF07E5101F5F001F4
S31520003B004FF000024FF03F4303F57803FDF77CFAB0
S31520003B1046F61050C2F200004FF0010143F23A720D
S31520003B20FCF7D2FE4FF000004FF07E5101F5E00188
S31520003B304FF000024FF0804303F59013FDF764FA2F
S31520003B4001F07DBAFB79682B40F084804FF00000AD
S31520003B504FF07E5101F5F0014FF000024FF03F4348
S31520003B6003F57003FDF750FA46F61450C2F2000032
S31520003B704FF0010143F23A72FCF7A6FE4FF0000027
S31520003B804FF000014FF000024FF0404303F5801341
S31520003B90FDF73AFA46F61050C2F200004FF0010146
S31520003BA043F23A72FCF790FE4FF000004FF000010E
S31520003BB04FF000024FF0804303F58023FDF724FAEF
S31520003BC046F61450C2F200004FF0010143F23A7259
S31520003BD0FCF77AFE4FF000004FF07E5101F5E00130
S31520003BE04FF000024FF03F4303F57003FDF70CFA48
S31520003BF04FF000004FF07E5101F5E0014FF000023A
S31520003C004FF07E5303F5E003FDF7FEF94FF0000079
S31520003C104FF000014FF000024FF08043FDF7F4F91A
S31520003C2046F61050C2F200004FF0010143F23A72FC
S31520003C30FCF74AFE4FF000004FF07E5101F5F001EF
S31520003C404FF000024FF07E5303F5E003FDF7DCF959
S31520003C5001F0F5B9FB79692B5DD14FF000004FF0EB
S31520003C60804101F580214FF000024FF03F4303F5DC
S31520003C707003FDF7C9F946F61450C2F200004FF062
S31520003C80010143F23A72FCF71FFE4FF000004FF09D
S31520003C9000014FF000024FF0404303F50023FDF7EB
S31520003CA0B3F946F61050C2F200004FF0010143F27C
S31520003CB03A72FCF709FE4FF000004FF000014FF07A
S31520003CC000024FF03F4303F57003FDF79DF946F6DA
S31520003CD01450C2F200004FF0010143F23A72FCF791
S31520003CE0F3FD46F61050C2F200004FF0010143F2F8
S31520003CF03A72FCF7E9FD4FF000004FF0804101F5E4
S31520003D0080214FF000024FF0804303F5A013FDF70A
S31520003D107BF901F094B9FB796A2B77D14FF000003B
S31520003D204FF07E5101F5F0014FF000024FF03F4376
S31520003D3003F57803FDF768F946F61450C2F2000041
S31520003D404FF0010143F23A72FCF7BEFD4FF000003E
S31520003D504FF07E5101F5E0014FF000024FF07E5307
S31520003D6003F5E003FDF750F94FF000004FF07E51C8
S31520003D7001F5E0014FF000024FF03F4303F57003D9
S31520003D80FDF742F94FF000004FF000014FF000021E
S31520003D904FF04043FDF738F946F61050C2F20000C6
S31520003DA04FF0010143F23A72FCF78EFD4FF000000E
S31520003DB04FF000014FF000024FF03F4303F5700330
S31520003DC0FDF722F946F61450C2F200004FF0010129
S31520003DD043F23A72FCF778FD46F61050C2F2000024
S31520003DE04FF0010143F23A72FCF76EFD4FF00000EE
S31520003DF04FF07E5101F5F0014FF000024FF0804365
S31520003E0003F59013FDF700F901F019B9FB796B2B37
S31520003E1079D14FF000004FF07E5101F5F0014FF0BF
S31520003E2000024FF03F4303F57003FDF7EDF846F629
S31520003E301450C2F200004FF0010143F23A72FCF72F
S31520003E4043FD4FF000004FF000014FF000024FF00D
S31520003E50404303F59013FDF7D7F846F61050C2F20B
S31520003E6000004FF0010143F23A72FCF72DFD4FF0AE
S31520003E7000004FF07E5101F5F0014FF000024FF0A7
S31520003E807E5303F5F003FDF7BFF846F61450C2F251
S31520003E9000004FF0010143F23A72FCF715FD4FF096
S31520003EA000004FF03F4101F578014FF000024FF03E
S31520003EB07E5303F5F003FDF7A7F84FF000004FF00F
S31520003EC07E5101F5F0014FF000024FF07E5303F5CD
S31520003ED0F003FDF799F846F61050C2F200004FF0B5
S31520003EE0010143F23A72FCF7EFFC4FF000004FF06D
S31520003EF080414FF000024FF07E5303F5E003FDF7BB
S31520003F0083F801F09CB8FB796C2B3DD14FF0000073
S31520003F104FF0804101F580214FF000024FF03F43E2
S31520003F2003F57003FDF770F846F61450C2F2000050
S31520003F304FF0010143F23A72FCF7C6FC4FF0000045
S31520003F404FF000014FF000024FF0404303F580137D
S31520003F50FDF75AF846F61050C2F200004FF0010164
S31520003F6043F23A72FCF7B0FC4FF000004FF080416C
S31520003F7001F580214FF000024FF0804303F5A01396
S31520003F80FDF742F801F05BB8FB796D2B67D14FF056
S31520003F9000004FF07E5101F5E0014FF000024FF096
S31520003FA03F4303F57003FDF72FF846F61450C2F28F
S31520003FB000004FF0010143F23A72FCF785FC4FF006
S31520003FC000004FF07E5101F5D0014FF000024FF076
S31520003FD0404303F58023FDF717F84FF000004FF01C
S31520003FE07E5101F5D0014FF000024FF0804303F5DA
S31520003FF08023FDF709F84FF000004FF07E5101F5C0
S31520004000D0014FF000024FF0404303F58023FCF728
S31520004010FBFF4FF000004FF07E5101F5D0010FF667
S315200040209853D3E90023FCF7EFFF46F61050C2F26F
S3152000403000004FF0010143F23A72FCF745FC4FF0C5
S3152000404000004FF07E5101F5E0014FF000024FF0E5
S315200040507E5303F5E003FCF7D7FF00F0F0BFFB79B2
S315200040606E2B40F084804FF000004FF07E5101F51A
S31520004070F0014FF000024FF03F4303F57003FCF7C9
S31520004080C3FF46F61450C2F200004FF0010143F27E
S315200040903A72FCF719FC4FF000004FF000014FF088
S315200040A000024FF0404303F50023FCF7ADFF46F630
S315200040B01050C2F200004FF0010143F23A72FCF7B1
S315200040C003FC4FF000004FF000014FF000024FF0CC
S315200040D07E5303F5E003FCF797FF46F61450C2F231
S315200040E000004FF0010143F23A72FCF7EDFB4FF06E
S315200040F000004FF07E5101F5F0014FF000024FF025
S315200041003F4303F57003FCF77FFF4FF000004FF0AD
S315200041107E5101F5F0014FF000024FF07E5303F57A
S31520004120E003FCF771FF4FF000004FF000014FF065
S3152000413000024FF08043FCF767FF46F61050C2F2AC
S3152000414000004FF0010143F23A72FCF7BDFB4FF03D
S3152000415000004FF07E5101F5C0014FF000024FF0F4
S315200041607E5303F5E003FCF74FFF00F068BFFB79B1
S315200041706F2B65D14FF000004FF07E5101F5F00115
S315200041804FF000024FF04043FCF73EFF46F6145036
S31520004190C2F200004FF0010143F23A72FCF794FBA1
S315200041A04FF000004FF07E5101F5E0014FF0000284
S315200041B04FF03F4303F57003FCF726FF4FF0000056
S315200041C04FF07E5101F5E0014FF000024FF07E5393
S315200041D003F5E003FCF718FF4FF000004FF03F41D6
S315200041E001F570014FF000024FF07E5303F5E00316
S315200041F0FCF70AFF4FF000004FF03F4101F5700138
S315200042004FF000024FF03F4303F57003FCF7FCFE2E
S3152000421046F61050C2F200004FF0010143F23A7206
S31520004220FCF752FB4FF000004FF0804101F5402192
S315200042304FF000024FF08043FCF7E6FE00F0FFBE91
S31520004240FB79702B75D14FF000004FF07E5101F5B0
S31520004250F0014FF000024FF03F4303F57003FCF7E7
S31520004260D3FE46F61450C2F200004FF0010143F28D
S315200042703A72FCF729FB4FF000004FF000014FF097
S3152000428000024FF0404303F50023FCF7BDFE4FF03C
S3152000429000004FF07E5101F5E0014FF000024FF093
S315200042A03F4303F57003FCF7AFFE4FF000004FF0DD
S315200042B07E5101F5E0014FF000024FF07E5303F5E9
S315200042C0E003FCF7A1FE4FF000004FF03F4101F55F
S315200042D070014FF000024FF07E5303F5E003FCF728
S315200042E093FE4FF000004FF03F4101F570014FF073
S315200042F000024FF03F4303F57003FCF785FE46F6B8
S315200043001050C2F200004FF0010143F23A72FCF75E
S31520004310DBFA4FF000004FF0804101F540214FF0CD
S3152000432000024FF0804303F58013FCF76DFE00F08A
S3152000433086BEFB79712B40F082804FF000004FF053
S31520004340804101F500214FF000024FF0404303F574
S315200043508013FCF759FE46F61450C2F200004FF0C7
S31520004360010143F23A72FCF7AFFA4FF000004FF02A
S315200043703F4101F570014FF000024FF07E5303F5E7
S31520004380E003FCF741FE4FF000004FF03F4101F5FE
S3152000439070014FF000024FF03F4303F57003FCF726
S315200043A033FE4FF000004FF07E5101F5E0014FF053
S315200043B000024FF03F4303F57003FCF725FE4FF054
S315200043C000004FF07E5101F5E0014FF000024FF062
S315200043D07E5303F5E003FCF717FE4FF000004FF085
S315200043E000014FF000024FF0804303F50023FCF755
S315200043F00BFE4FF000004FF07E5101F5E0014FF02B
S3152000440000024FF03F4303F57003FCF7FDFD46F62F
S315200044101050C2F200004FF0010143F23A72FCF74D
S3152000442053FA4FF000004FF07E5101F5E0014FF0B6
S3152000443000024FF08043FCF7E7FD00F000BEFB7959
S31520004440722B79D14FF000004FF07E5101F5F0012B
S315200044504FF000024FF03F4303F57003FCF7D4FD05
S3152000446046F61450C2F200004FF0010143F23A72B0
S31520004470FCF72AFA4FF000004FF000014FF000023F
S315200044804FF0404303F50023FCF7BEFD46F61050DF
S31520004490C2F200004FF0010143F23A72FCF714FA1F
S315200044A04FF000004FF000014FF000024FF07E5316
S315200044B003F5E003FCF7A8FD46F61450C2F200000F
S315200044C04FF0010143F23A72FCF7FEF94FF000007B
S315200044D04FF07E5101F5F0014FF000024FF03F43BF
S315200044E003F57803FCF790FD4FF000004FF07E5166
S315200044F001F5F0014FF000024FF07E5303F5F00373
S31520004500FCF782FD46F61050C2F200004FF0010182
S3152000451043F23A72FCF7D8F94FF000004FF07E5183
S3152000452001F5C0014FF000024FF0804303F5002350
S31520004530FCF76AFD00F083BDFB79732B77D14FF032
S3152000454000004FF07E5101F5E0014FF000024FF0E0
S315200045503F4303F57803FCF757FD46F61450C2F2A5
S3152000456000004FF0010143F23A72FCF7ADF94FF02B
S3152000457000004FF07E5101F5F0014FF000024FF0A0
S315200045807E5303F5E003FCF73FFD4FF000004FF0AC
S315200045907E5101F5F0014FF000024FF03F4303F545
S315200045A07003FCF731FD4FF000004FF0404101F55C
S315200045B000214FF000024FF03F4303F57803FCF74C
S315200045C023FD4FF000004FF07E5101F5F0014FF032
S315200045D000024FF03F4303F57003FCF715FD4FF043
S315200045E000004FF07E5101F5F0014FF000024FF030
S315200045F07E5303F5E003FCF707FD46F61050C2F2A2
S3152000460000004FF0010143F23A72FCF75DF94FF0DA
S3152000461000004FF07E5101F5E0014FF000024FF00F
S31520004620804303F50023FCF7EFFC00F008BDFB797F
S31520004630742B6BD14FF000004FF07E5101F5E00155
S315200046404FF000024FF0404303F58013FCF7DCFCEB
S3152000465046F61450C2F200004FF0010143F23A72BE
S31520004660FCF732F94FF000004FF0804101F50021B0
S315200046704FF000024FF00003FCF7C6FC46F6105040
S31520004680C2F200004FF0010143F23A72FCF71CF926
S315200046904FF000004FF03F4101F578014FF0000246
S315200046A04FF03F4303F57003FCF7AEFC46F614507B
S315200046B0C2F200004FF0010143F23A72FCF704F90E
S315200046C04FF000004FF000014FF000024FF0804302
S315200046D003F58013FCF798FC46F61050C2F2000052
S315200046E04FF0010143F23A72FCF7EEF84FF000006A
S315200046F04FF0804101F580214FF000024FF07E53AC
S3152000470003F5E003FCF780FC00F099BCFB79752BE0
S3152000471040F08E804FF000004FF07E5101F5E00111
S315200047204FF000024FF0404303F58013FCF76CFC7A
S3152000473046F61450C2F200004FF0010143F23A72DD
S31520004740FCF7C2F84FF000004FF000014FF00002D6
S315200047504FF08043FCF758FC4FF000004FF07E519D
S3152000476001F5E0014FF000024FF07E5303F5E00320
S31520004770FCF74AFC4FF000004FF07E5101F5E001B6
S315200047804FF000024FF00003FCF73EFC4FF0000014
S315200047904FF07E5101F5E0014FF000024FF03F430C
S315200047A003F57003FCF730FC46F61050C2F2000009
S315200047B04FF0010143F23A72FCF786F84FF0000001
S315200047C04FF000014FF000024FF04043FCF71CFC75
S315200047D046F61450C2F200004FF0010143F23A723D
S315200047E0FCF772F84FF000004FF000014FF0000286
S315200047F04FF0804303F50023FCF706FC46F61050E5
S31520004800C2F200004FF0010143F23A72FCF75CF865
S315200048104FF000004FF07E5101F5E0014FF000020D
S315200048204FF07E5303F5E003FCF7EEFB00F007BCE8
S31520004830FB79762B4CD14FF000004FF07E5101F5DD
S31520004840E0014FF000024FF0404303F58013FCF7E0
S31520004850DBFB46F61450C2F200004FF0010143F292
S315200048603A72FCF731F84FF000004FF07E5101F517
S31520004870F0014FF000024FF0804303F50023FCF7D0
S31520004880C3FB4FF000004FF07E5101F5F0014FF0D1
S3152000489000024FF0404303F50023FCF7B5FB46F634
S315200048A01050C2F200004FF0010143F23A72FCF7B9
S315200048B00BF84FF000004FF07E5101F5E0014FF06C
S315200048C000024FF0804303F58013FCF79DFBB6E30F
S315200048D0FB79772B68D14FF000004FF07E5101F520
S315200048E0C0014FF000024FF0404303F58013FCF760
S315200048F08BFB46F61450C2F200004FF0010143F242
S315200049003A72FBF7E1FF4FF000004FF07E5101F5C0
S31520004910E0014FF000024FF0804303F50023FCF73F
S3152000492073FB4FF000004FF07E5101F5E0014FF090
S3152000493000024FF0404303F50023FCF765FB4FF0E0
S3152000494000004FF07E5101F5E0014FF000024FF0DC
S31520004950804303F50023FCF757FB4FF000004FF090
S315200049607E5101F5E0014FF000024FF0404303F580
S315200049700023FCF749FB46F61050C2F200004FF028
S31520004980010143F23A72FBF79FFF4FF000004FF010
S315200049907E5101F5C0014FF000024FF0804303F530
S315200049A08013FCF731FB4AE3FB79782B6CD14FF06F
S315200049B000004FF07E5101F5E0014FF000024FF06C
S315200049C0404303F58013FCF71FFB46F61450C2F252
S315200049D000004FF0010143F23A72FBF775FF4FF0EA
S315200049E000004FF0804101F500214FF000024FF00A
S315200049F0804303F50023FCF707FB46F61050C2F26E
S31520004A0000004FF0010143F23A72FBF75DFF4FF0D1
S31520004A1000004FF000014FF000024FF0404303F535
S31520004A200023FCF7F1FA46F61450C2F200004FF0CC
S31520004A30010143F23A72FBF747FF4FF000004FF0B7
S31520004A40404101F500214FF000024FF0804303F56D
S31520004A500023FCF7D9FA46F61050C2F200004FF0B8
S31520004A60010143F23A72FBF72FFF4FF000004FF09F
S31520004A70804101F580114FF000024FF07E5303F57F
S31520004A80E003FCF7C1FADAE2FB79792B6ED14FF01D
S31520004A9000004FF07E5101F5E0014FF000024FF08B
S31520004AA0404303F58013FCF7AFFA46F61450C2F2E2
S31520004AB000004FF0010143F23A72FBF705FF4FF079
S31520004AC000004FF07E5101F5F0014FF000024FF04B
S31520004AD07E5303F5F003FCF797FA46F61050C2F220
S31520004AE000004FF0010143F23A72FBF7EDFE4FF062
S31520004AF000004FF07E5101F5F0014FF000024FF01B
S31520004B003F4303F57803FCF77FFA46F61450C2F2CA
S31520004B1000004FF0010143F23A72FBF7D5FE4FF049
S31520004B2000004FF0404101F500214FF000024FF008
S31520004B30804303F50023FCF767FA46F61050C2F2CD
S31520004B4000004FF0010143F23A72FBF7BDFE4FF031
S31520004B5000004FF0804101F580114FF000024FF028
S31520004B607E5303F5E003FCF74FFA68E2FB797A2BD4
S31520004B7056D14FF000004FF07E5101F5E0014FF085
S31520004B8000024FF0404303F58013FCF73DFA46F64A
S31520004B901450C2F200004FF0010143F23A72FBF7C3
S31520004BA093FE4FF000004FF0804101F500214FF0B9
S31520004BB000024FF00003FCF727FA4FF000004FF0F9
S31520004BC0404101F500214FF000024FF0804303F5EC
S31520004BD00023FCF719FA4FF000004FF0804101F551
S31520004BE000214FF000024FF00003FCF70DFA46F6C5
S31520004BF01050C2F200004FF0010143F23A72FBF767
S31520004C0063FE4FF000004FF07E5101F5E0014FF0BA
S31520004C1000024FF07E5303F5E003FCF7F5F90EE2B0
S31520004C20FB79202B0CD14FF000004FF0804101F58D
S31520004C30A0114FF000024FF00003FCF7E5F9FEE16A
S31520004C40FB795B2B5ED14FF000004FF080414FF097
S31520004C5000024FF03F4303F57003FCF7D5F946F603
S31520004C601450C2F200004FF0010143F23A72FBF7F2
S31520004C702BFE4FF000004FF000014FF000024FF0E6
S31520004C80404303F5C013FCF7BFF94FF000004FF087
S31520004C90804101F5C0114FF000024FF00003FCF7F0
S31520004CA0B3F94FF000004FF000014FF000024FF033
S31520004CB0804303F5C013FCF7A7F94FF000004FF02F
S31520004CC0404101F5C0114FF000024FF00003FCF700
S31520004CD09BF946F61050C2F200004FF0010143F254
S31520004CE03A72FBF7F1FD4FF000004FF0804101F5DD
S31520004CF000114FF000024FF07E5303F5E003FCF75E
S31520004D0083F99CE1FB791A4646F6B843C2F20003C2
S31520004D109A425DD14FF000004FF080414FF00002E3
S31520004D204FF03F4303F57003FCF76EF946F6145037
S31520004D30C2F200004FF0010143F23A72FBF7C4FDC4
S31520004D404FF000004FF0804101F500211CA3D3E96C
S31520004D500023FCF759F94FF000004FF0804101F590
S31520004D60002119A3D3E90023FCF74EF94FF00000E8
S31520004D704FF0404101F5C0114FF000024FF0000303
S31520004D80FCF742F946F61050C2F200004FF001013E
S31520004D9043F23A72FBF798FD4FF000004FF0804146
S31520004DA001F500114FF000024FF07E5303F5E003AA
S31520004DB0FCF72AF943E100BFCDCCCCCCCCCC0440C7
S31520004DC0C3F5285C8FC214C0C3F5285C8FC214407B
S31520004DD0FB791A4646F6BC43C2F200039A4240F0DB
S31520004DE02E814FF000004FF0804101F500114FF069
S31520004DF000024FF0404303F58013FCF705F946F611
S31520004E001450C2F200004FF0010143F23A72FBF750
S31520004E105BFD8DA1D1E900018DA3D3E90023FCF729
S31520004E20F3F88DA1D1E900018DA3D3E90023FCF786
S31520004E30EBF88DA1D1E900018DA3D3E90023FCF77E
S31520004E40E3F88DA1D1E900018DA3D3E90023FCF776
S31520004E50DBF88BA1D1E9000187A3D3E90023FCF776
S31520004E60D3F889A1D1E900017FA3D3E90023FCF778
S31520004E70CBF87BA1D1E9000177A3D3E90023FCF786
S31520004E80C3F873A1D1E900016FA3D3E90023FCF78E
S31520004E90BBF86FA1D1E900017DA3D3E90023FCF77C
S31520004EA0B3F86FA1D1E900017BA3D3E90023FCF776
S31520004EB0ABF86FA1D1E9000179A3D3E90023FCF770
S31520004EC0A3F86FA1D1E9000177A3D3E90023FCF76A
S31520004ED09BF877A1D1E9000177A3D3E90023FCF75A
S31520004EE093F877A1D1E9000177A3D3E90023FCF752
S31520004EF08BF859A1D1E9000175A3D3E90023FCF76A
S31520004F0083F875A1D1E9000175A3D3E90023FCF745
S31520004F107BF875A1D1E9000171A3D3E90023FCF741
S31520004F2073F85DA1D1E9000169A3D3E90023FCF759
S31520004F306BF86FA1D1E9000163A3D3E90023FCF745
S31520004F4063F86DA1D1E900015BA3D3E90023FCF747
S31520004F505BF859A1D1E9000167A3D3E90023FCF747
S31520004F6053F859A1D1E9000161A3D3E90023FCF745
S31520004F704BF857A1D1E9000147A3D3E90023FCF759
S31520004F8043F857A1D1E9000157A3D3E90023FCF741
S31520004F903BF853A1D1E900014FA3D3E90023FCF745
S31520004FA033F84BA1D1E900012BA3D3E90023FCF769
S31520004FB02BF853A1D1E9000141A3D3E90023FCF743
S31520004FC023F83DA1D1E9000139A3D3E90023FCF759
S31520004FD01BF835A1D1E9000129A3D3E90023FCF769
S31520004FE013F82FA1D1E9000121A3D3E90023FCF76F
S31520004FF00BF829A1D1E9000119A3D3E90023FCF775
S3152000500003F823A1D1E9000111A3D3E90023FBF77B
S31520005010FBFF46F61050C2F200004FF0010143F2AA
S315200050203A72FBF751FC4FF000004FF080414FF0F1
S3152000503000024FF0804303F58013FBF7E5FF07F1ED
S315200050400807BD4680BD00BFD104E275FD82ADBF15
S31520005050B48EAA2688BAE2BF99F5622827DAC5BF98
S31520005060DFF8DA334B02E2BFB815DEE522BED1BF48
S315200050709BC937DBDC98E0BFBBBC1DE1B4E0D7BFE2
S31520005080D5CF9B8A5418DDBFA4C937DBDC98E0BF97
S31520005090D104E275FD82AD3F99F5622827DAC53F36
S315200050A0B815DEE522BED13FBBBC1DE1B4E0D73F3B
S315200050B0A9BC1DE1B4E0D7BFD5CF9B8A5418DD3FEC
S315200050C0CA15DEE522BED1BF9BC937DBDC98E03F9F
S315200050D0DFF8DA334B02E23F6C04E275FD82ADBFA6
S315200050E0B48EAA2688BAE23F6C04E275FD82AD3FF3
S315200050F0CA15DEE522BED13FA9BC1DE1B4E0D73FEB
S31520005100A4C937DBDC98E03F80B584B000AF786077
S3152000511046F64C63C2F200031B681A4647F2F86350
S31520005120C2F200031344786819464FF4AF6200F0C8
S31520005130E5FB0346FB6046F64C63C2F200031A68A1
S31520005140FB681A4446F64C63C2F200031A6046F620
S315200051504C63C2F200031A6840F277539A4206DD86
S3152000516046F64C63C2F200034FF000021A6046F680
S315200051705463C2F200034FF001021A7007F11007C0
S31520005180BD4680BD80B582B000AF4FF000037B6086
S3152000519046F65063C2F200031B687B6014E07A680F
S315200051A047F2F863C2F200039B5C1846FCF7F8F955
S315200051B07A6847F2F863C2F200034FF0440199542B
S315200051C07B6803F101037B607A6847F2F863C2F2D9
S315200051D000039B5C0D2BE2D046F65463C2F200031B
S315200051E04FF000021A707B6803F1010246F6506305
S315200051F0C2F200031A6046F65063C2F200031A6830
S3152000520040F277539A4206DD46F65063C2F2000317
S315200052104FF000021A6007F10807BD4680BD00BFA7
S31520005220B0B582B000AF46F64863C2F200031B68F1
S31520005230012B40F3D38048F29033C2F200031B784F
S31520005240BB7148F29033C2F200035B78FB71BB79E5
S31520005250184600F0C7FF02460B46104619464FF087
S3152000526000024FF0804303F5101301F04BF902467C
S315200052700B46104619465CA3D3E9002300F066FED0
S3152000528002460B461046194659A3D3E9002300F0DF
S315200052905BFE02460B4614461D46FB79184600F077
S315200052A0A1FF02460B46104619464FF000024FF06A
S315200052B0804303F5101301F025F902460B461046EC
S315200052C019464FF000024FF0804303F5521300F0C9
S315200052D03DFE02460B46104619464FF000024FF09F
S315200052E0804303F5721300F02FFE02460B4620463C
S315200052F02946FBF789FE4FF002033B6066E03A68D9
S3152000530048F29033C2F200039B5C1A46BB79C3EB8A
S315200053100203184600F066FF02460B461046194661
S315200053204FF000024FF0804303F5101301F0EAF826
S3152000533002460B46104619462BA3D3E9002300F05C
S3152000534005FE02460B4614461D463B6803F1010244
S3152000535048F29033C2F200039B5C1A46FB79C3EBFA
S315200053600203184600F03EFF02460B461046194639
S315200053704FF000024FF0804303F5101301F0C2F8FE
S3152000538002460B46104619464FF000024FF0804366
S3152000539003F5521300F0DAFD02460B462046294655
S315200053A0FBF732FE3A6848F29033C2F200039B5C68
S315200053B0BB713B6803F1010248F29033C2F200034D
S315200053C09B5CFB713B6803F102033B6046F6486336
S315200053D0C2F200031B683A689A4290DB07F108077D
S315200053E0BD46B0BDAFF300800000000000C03D40C8
S315200053F0000000000040454080B582B000AF46F670
S31520005400C043C2F200031B783B7146F6C443C2F286
S3152000541000031B783B7048F2FC40C2F200004FF4B8
S3152000542061414FF0030200F0F5F848F2D440C2F291
S3152000543000004FF461414FF0030200F0EBF848F210
S31520005440FC40C2F2000045F20911C2F200014FF001
S31520005450000200F0D3FB48F2D440C2F2000040F62E
S31520005460BD11C2F200014FF0C00200F0C7FB4FF0A1
S3152000547007004FF0070100F053F81DA1D1E9000104
S315200054801DA3D3E90023FBF70FFD02E000BF00E0D8
S3152000549000BF46F60C53C2F200031B6803F101035A
S315200054A0032BF3D801A252F823F000BFBD540020ED
S315200054B0BF540020D3540020D554002014E046F6D3
S315200054C05463C2F200031B78002B01D0FFF75AFE6B
S315200054D00AE009E046F65463C2F200031B78002B6B
S315200054E0D6D0FFF79DFED4E7D3E700BFAFF3008009
