S0260000546F75636853637265656E46696E616C5F4D53535F434D335F305F6170702E737265630E
S315200000000000012099020020090300200B03002094
S315200000100D0300200F030020110300200000000024
S315200000200000000000000000000000001303002074
S3152000003015030020000000001703002019030020EC
S315200000401B0300201D0300201F0300202103002086
S315200000502303002025030020270300202903002056
S315200000602B0300202D0300202F0300203103002026
S3152000007075190020A119002037030020390300201C
S315200000803B0300203D0300203F03002041030020C6
S315200000904303002045030020470300204903002096
S315200000A04B030020000000000000000000000000BC
S315200000B00000000000000000000000004D030020AA
S315200000C04F03002051030020530300205503002036
S315200000D057030020590300205B0300205D03002006
S315200000E05F030020610300206303002065030020D6
S315200000F067030020690300206B0300206D030020A6
S315200001006F03002071030020730300207503002075
S3152000011077030020790300207B0300207D03002045
S315200001207F03002081030020830300208503002015
S3152000013087030020890300208B0300208D030020E5
S315200001408F030020910300209303002095030020B5
S3152000015097030020990300209B0300209D03002085
S315200001609F030020A1030020A3030020A503002055
S31520000170A7030020A9030020AB030020AD03002025
S31520000180AF030020B1030020B3030020B5030020F5
S31520000190B7030020B9030020BB030020BD030020C5
S315200001A0BF030020C1030020C3030020C503002095
S315200001B0C7030020C9030020CB030020CD03002065
S315200001C0CF030020D1030020D3030020D503002035
S315200001D0D7030020D9030020DB030020DD03002005
S315200001E0DF030020E1030020E3030020E5030020D5
S315200001F0E7030020E9030020EB030020ED030020A5
S31520000200EF030020F1030020F3030020F503002074
S31520000210F7030020F9030020E51D00200D1E002015
S31520000220351E00205D1E0020851E0020AD1E0020EC
S31520000230D51E0020FD1E0020251F00204D1F00205A
S31520000240751F00209D1F0020C51F0020ED1F0020C8
S31520000250152000203D200020652000208D20002034
S31520000260B5200020DD200020052100202D210020A2
S31520000270552100207D210020A5210020CD21002010
S31520000280F52100201D220020452200206D2200207D
S3152000029095220020BD220020684880476848002813
S315200002A00BD168486849694A884206D091421CBFEA
S315200002B050F8043B41F8043BF8D165486549664A45
S315200002C0884206D091421CBF50F8043B41F8043BBB
S315200002D0F8D162486249634A914218BF41F8040B3B
S315200002E0FAD100000000000000000000000000001D
S315200002F0DFF874010FF2030E00474FF000004FF0B5
S315200003000001DFF868F1FEE7FEE7FEE7FEE7FEE71D
S31520000310FEE7FEE7FEE7FEE7FEE7FEE7FEE7FEE78F
S31520000320FEE7FEE7FEE7FEE7FEE7FEE7FEE7FEE77F
S31520000330FEE7FEE7FEE7FEE7FEE7FEE7FEE7FEE76F
S31520000340FEE7FEE7FEE7FEE7FEE7FEE7FEE7FEE75F
S31520000350FEE7FEE7FEE7FEE7FEE7FEE7FEE7FEE74F
S31520000360FEE7FEE7FEE7FEE7FEE7FEE7FEE7FEE73F
S31520000370FEE7FEE7FEE7FEE7FEE7FEE7FEE7FEE72F
S31520000380FEE7FEE7FEE7FEE7FEE7FEE7FEE7FEE71F
S31520000390FEE7FEE7FEE7FEE7FEE7FEE7FEE7FEE70F
S315200003A0FEE7FEE7FEE7FEE7FEE7FEE7FEE7FEE7FF
S315200003B0FEE7FEE7FEE7FEE7FEE7FEE7FEE7FEE7EF
S315200003C0FEE7FEE7FEE7FEE7FEE7FEE7FEE7FEE7DF
S315200003D0FEE7FEE7FEE7FEE7FEE7FEE7FEE7FEE7CF
S315200003E0FEE7FEE7FEE7FEE7FEE7FEE7FEE7FEE7BF
S315200003F0FEE7FEE7FEE7FEE7FEE7FEE7FEE7FEE7AF
S31520000400FEE7FEE7FEE7FEE7FEE7FEE7FEE7FEE79E
S31520000410FEE7FEE7FEE7FEE7FEE7FEE7FEE7FEE78E
S31520000420FEE7FEE7FEE7FEE7FEE7FEE7FEE7FEE77E
S31520000430FEE7FEE7FEE7FEE7FEE70000C91B002019
S31520000440000000000000002000000020AC33002047
S31520000450AC330020AC330020F03300200000000035
S31520000460F033002018350020D12F0020A1040020D1
S3152000047043F2F033C2F200031A780AB90120187049
S31520000480704700BF43F2AC30C2F2000008B50368E3
S315200004902BB140F20003C0F2000303B1984708BD18
S315200004A080B586B002AF00F0E5F84FF01F0000F0EF
S315200004B0FDFA4FF6FF7300934FF005004FF005014C
S315200004C04FF0E6024FF49B7300F0C2FA00E000BF43
S315200004D000F046F903467B6000F0A2F90346BB60B4
S315200004E0786800F0FDF90346FB60FB680A2BEEDD19
S315200004F07B689AB2BB689BB2104619464FF6E072EB
S3152000050000F082FAE4E700BF80B483B000AF034670
S31520000510FB804EF20013CEF20003B7F906204FEA15
S315200005205212F98801F01F014FF0010000FA01F183
S3152000053002F1200243F8221007F10C07BD4680BCC9
S31520000540704700BF80B483B000AF0346FB804EF2F5
S315200005500013CEF20003B7F906204FEA5212F988AB
S3152000056001F01F014FF0010000FA01F102F16002D3
S3152000057043F8221007F10C07BD4680BC704700BF28
S3152000058080B582B000AF0346FB714FF01400FFF731
S31520000590BBFF42F20003CEF2040342F20002CEF287
S315200005A00402126B22F040021A6345F20003C4F2E1
S315200005B000034FF000025A6540F20003C4F20A23FA
S315200005C04FF00002C3F8802140F20003C4F20A2350
S315200005D04FF00002C3F8882140F20003C4F20A2338
S315200005E0FA79C3F8842145F20003C4F200034FF0E0
S315200005F001021A614FF01400FFF7A4FF07F1080764
S31520000600BD4680BD80B400AF40F20003C4F20A2389
S315200006104FF00102C3F88021BD4680BC704700BF61
S3152000062080B400AF40F20003C4F20A234FF0000268
S31520000630C3F88021BD4680BC704700BF80B400AFA0
S3152000064045F20003C4F200031B681846BD4680BC71
S31520000650704700BF80B483B000AF786045F20003D6
S31520000660C4F200037A685A6007F10C07BD4680BCC5
S31520000670704700BF80B582B000AF43F29C13C2F230
S3152000068000037B6043F20C40C2F2000000F038FC0D
S3152000069001F0BAF901F02CFA4FF000004FF00501F5
S315200006A001F0E8F943F20C20C2F2000001F028FA2A
S315200006B003461A4643F20943C2F200031A7043F274
S315200006C02020C2F2000001F01BFA03461A4643F22C
S315200006D00843C2F200031A704FF0080000F046FBF0
S315200006E000F08AFB4FF0010000F08CFA4FF09600E4
S315200006F000F04AFA1DE07B681B78BB707B6803F12B
S3152000070001037B60BB7803F07F03FB707A78FB786C
S31520000710104679681A4600F007FAFB787A6813447F
S315200007207B60BB785BB2002B03DA4FF0960000F0BB
S315200007302BFA7B681B787B707B78002B0CBF002301
S315200007400123DBB27A6802F101027A60002BD2D152
S3152000075000F05EFB07F10807BD4680BD00000000E3
S3152000076080B582B000AF4FF005004FF0020101F0D6
S3152000077081F94FF006004FF0020101F07BF94FF0AE
S3152000078007004FF0050101F075F94FF008004FF012
S31520000790050101F06FF94FF007004FF0010101F05C
S315200007A087F94FF008004FF0000101F081F94FF072
S315200007B0140000F009FA43F20943C2F200031B7841
S315200007C0184601F0D7F903467B60786801F0DCFE15
S315200007D002460B46104619460FA3D3E9002302F022
S315200007E063F802460B46104619464FF000024FF0BA
S315200007F0804303F5E80301F02DFF02460B46104621
S31520000800194602F039F903469BB21BB2184607F186
S315200008100807BD4680BD00BFCDCCCCCCCC059F40C3
S3152000082080B582B000AF4FF005004FF0050101F012
S3152000083021F94FF006004FF0050101F01BF94FF0AA
S3152000084007004FF0020101F015F94FF008004FF0B4
S31520000850020101F00FF94FF005004FF0010101F000
S3152000086027F94FF006004FF0000101F021F94FF073
S31520000870140000F0A9F943F20843C2F200031B78E2
S31520000880184601F077F903467B60786801F07CFE14
S3152000089002460B46104619460FA3D3E9002302F061
S315200008A003F802460B46104619464FF000024FF059
S315200008B0804303F5DC0301F0CDFE02460B461046CD
S315200008C0194602F0D9F803469BB21BB2184607F127
S315200008D00807BD4680BD00BFCDCCCCCCCC059F4003
S315200008E080B586B000AF0346FB804FF005004FF081
S315200008F0020101F0BFF84FF006004FF0050101F0AC
S31520000900B9F84FF007004FF0050101F0B3F84FF0AA
S3152000091008004FF0020101F0ADF84FF007004FF04C
S31520000920000101F0C5F84FF006004FF0010101F07B
S31520000930BFF843F20843C2F200031B78184601F0C1
S3152000094019F90346FB6043F20943C2F200031B7800
S31520000950184601F00FF903463B6143F20443C2F205
S3152000096000031B68002B3BD0386902F067F9034669
S315200009707B61F86802F062F903467869194602F04D
S3152000098065FA03467B6178691D4902F0A1F80346A2
S315200009907B61B7F90630184602F050F903467869AC
S315200009A0194602F09FF903467B6143F20443C2F2E3
S315200009B000031B68184602F041F903467869194678
S315200009C002F090F903467B6178690E4902F03EFAFF
S315200009D003467B61786902F0D5FA03467B8107E0FE
S315200009E03B699AB2FB689BB2C3EB02039BB27B8145
S315200009F07B891BB2184607F11807BD4680BD00BF8C
S31520000A000000803F0000804480B582B000AF1346CE
S31520000A100246FA800A46BA807B8000F0EDF9FB8810
S31520000A2003F101039AB2BB8803F101039BB2F88854
S31520000A30B98800F051F800F0F7F97B88184600F0E5
S31520000A40BFF900F0E5F907F10807BD4680BD00BFF4
S31520000A5080B586B002AFF880B9807A803B80FB886B
S31520000A60FB8118E0F889B988FA89B7F804C03B8871
S31520000A7063449BB203F1FF339BB200B209B212B2B8
S31520000A801BB2B7F818C0CDF800C000F0D1F8FB892A
S31520000A9003F10103FB81FA89F9887B880B449A428A
S31520000AA0E0DB07F11007BD4680BD00BF80B584B0EE
S31520000AB002AF0346FB80FB8800934FF000004FF007
S31520000AC000014FF0F0024FF4A073FFF7C1FF07F1CA
S31520000AD00807BD4680BD00BF80B582B000AFF88054
S31520000AE0B9807A803B804FF02A0000F08BF8FB8893
S31520000AF0184600F065F97B88184600F061F94FF03A
S31520000B002B0000F07FF8BB88184600F059F93B8887
S31520000B10184600F055F94FF02C0000F073F807F155
S31520000B200807BD4680BD00BF80B586B000AFB9605E
S31520000B3013460246FA73FB714FF000037B614FF0B8
S31520000B40080000F013F900F079F9FB7B184600F055
S31520000B5025F900F069F94FF000037B610CE0BB68D2
S31520000B601B78184600F01AF9BB6803F10103BB6035
S31520000B707B6903F101037B61FA797B699A42EEDC9A
S31520000B8007F11807BD4680BD80B582B000AF7860FA
S31520000B904FF00100FFF7F4FC7A6848F2A063C0F238
S31520000BA0010303FB02F31846FFF754FDFFF72AFD66
S31520000BB0FFF744FD0346002BFAD1FFF731FD07F17D
S31520000BC00807BD4680BD00BF80B582B000AF786003
S31520000BD04FF00100FFF7D4FC7B684FF0640202FB64
S31520000BE003F31846FFF736FDFFF70CFDFFF726FD4A
S31520000BF00346002BFAD1FFF713FD07F10807BD4680
S31520000C0080BD00BF80B582B000AF0346FB7100F007
S31520000C1015F94FF0080000F0A9F8FB79184600F006
S31520000C20BDF800F001F907F10807BD4680BD00BFF9
S31520000C3080B588B000AFF880B9807A803B80B7F95C
S31520000C400020B7F90430C3EB020383EAE372A2EB78
S31520000C50E372B7F90210B7F90630C3EB0103002B94
S31520000C60B8BF5B429A42D4BF00230123FB81B7F968
S31520000C700E30002B0BD0FB883B83BB88FB803B8B45
S31520000C80BB807B887B833B887B807B8B3B80B7F9D3
S31520000C900620B7F902309A420BDDFB88BB837B889E
S31520000CA0FB80BB8B7B80BB88FB833B88BB80FB8B1D
S31520000CB03B807A88FB88C3EB02039BB23B82B7F961
S31520000CC00020B7F90430C3EB0203002BB8BF5B4208
S31520000CD07B82B7F910304FEAD37213444FEA63038D
S31520000CE0BB82B7F90420B7F900309A4203DA4FF0F5
S31520000CF00103FB8230E04FF6FF73FB822CE0B7F94D
S31520000D000E30002B08D0B988FA883B8D084611464C
S31520000D101A46FFF779FE07E0F988BA883B8D084620
S31520000D2011461A46FFF770FEBA8A7B8AC3EB020386
S31520000D309BB2BB82B7F91430002B09DABA88FB8A3A
S31520000D4013449BB2BB80BA8A3B8A13449BB2BB82B4
S31520000D50FB8803F10103FB80B7F90620B7F90230BF
S31520000D609A42CCDD07F12007BD4680BD80B584B010
S31520000D7002AF0346FB71FB79009343F20C40C2F2AB
S31520000D8000004FF000014FF000024FF0020300F088
S31520000D9001FA07F10807BD4680BD00BF80B582B0C5
S31520000DA000AF0346FB71FB7943F20C40C2F2000010
S31520000DB0194600F04BFB07F10807BD4680BD00BF72
S31520000DC080B582B000AF0346FB80FB884FEA132331
S31520000DD09BB243F20C40C2F20000194600F036FBEB
S31520000DE0FB8843F20C40C2F20000194600F02EFBAD
S31520000DF007F10807BD4680BD80B500AF43F20C4021
S31520000E00C2F200004FF0000100F054FA80BD00BF8E
S31520000E1080B500AF43F20C40C2F200004FF0000153
S31520000E2000F0CCFA80BD00BF80B500AF4FF00000C7
S31520000E304FF0010100F03CFE80BD00BF80B500AF41
S31520000E404FF000004FF0000100F032FE80BD00BFE1
S31520000E5080B483B000AF0346FB804EF20013CEF27F
S31520000E600003B7F906204FEA5212F98801F01F0154
S31520000E704FF0010000FA01F143F8221007F10C07A8
S31520000E80BD4680BC704700BF80B483B000AF034628
S31520000E90FB804EF20013CEF20003B7F906204FEA8C
S31520000EA05212F98801F01F014FF0010000FA01F1FA
S31520000EB002F1200243F8221007F10C07BD4680BC40
S31520000EC0704700BF80B483B000AF0346FB804EF26C
S31520000ED00013CEF20003B7F906204FEA5212F98822
S31520000EE001F01F014FF0010000FA01F102F160024A
S31520000EF043F8221007F10C07BD4680BC704700BF9F
S31520000F0080B584B000AF78607A6843F29043C2F22D
S31520000F1000039A4207D07A6843F20C43C2F20003D8
S31520000F209A4200D000BE7B689B881BB21846FFF70A
S31520000F30ABFF78684FF000014FF0840202F070F8A2
S31520000F407B684FF001025A624FF00003FB810DE0EF
S31520000F50FB897A6803F106034FEAC30313444FF073
S31520000F60FF325A60FB8903F10103FB81FB89072BC2
S31520000F70EED97A6843F29043C2F200039A4226D110
S31520000F807A6841F20003C4F2000313607B684FF0D5
S31520000F900C029A8042F20003CEF2040342F20002CF
S31520000FA0CEF20402126B42F400721A634FF00C0068
S31520000FB0FFF788FF42F20003CEF2040342F200025A
S31520000FC0CEF20402126B22F400721A6325E07A68CC
S31520000FD041F20003C4F2010313607B684FF00D0257
S31520000FE09A8042F20003CEF2040342F20002CEF2CD
S31520000FF00402126B42F480621A634FF00D00FFF771
S3152000100061FF42F20003CEF2040342F20002CEF266
S315200010100402126B22F480621A637B681B687A686A
S315200010201268126822F000421A6007F11007BD46C6
S3152000103080BD00BF80B58AB000AF78607B681B6832
S315200010401B68FB607B681B689B693B617B681B6830
S315200010505B687B617B681B689B6ABB617B681B68DE
S315200010601B6BFB617B681B685B6B3B627B681B6849
S31520001070DB697B627A6843F29043C2F200039A42AC
S315200010802ED17A6841F20003C4F2000313607B6814
S315200010904FF00C029A8042F20003CEF2040342F291
S315200010A00002CEF20402126B42F400721A634FF071
S315200010B00C00FFF707FF42F20003CEF2040342F2D0
S315200010C00002CEF20402126B22F400721A637B68CD
S315200010D01B687A681268126822F000421A602DE0B6
S315200010E07A6841F20003C4F2010313607B684FF073
S315200010F00D029A8042F20003CEF2040342F200026D
S31520001100CEF20402126B42F480621A634FF00D0095
S31520001110FFF7D8FE42F20003CEF2040342F20002A9
S31520001120CEF20402126B22F480621A637B681B687B
S315200011307A681268126822F000421A60FB6823F06F
S315200011400103FB607B681B68FA681A607B681B6872
S315200011503A699A617B681B687A695A607B681B6862
S315200011607A681268126842F001021A607B681B686E
S31520001170BA699A627B681B68FA691A637B681B687E
S315200011803A6A5A637B681B687A6ADA6107F128072C
S31520001190BD4680BD80B584B000AFF8607A600A464F
S315200011A0FA72FB70FA6843F29043C2F200039A4245
S315200011B007D0FA6843F20C43C2F200039A4200D0E9
S315200011C000BEFB7A072B00D900BE3B7E202B00D920
S315200011D000BEFB689B881BB21846FFF755FEFB68CE
S315200011E04FF0000283F88020FB681B68FA681268BB
S315200011F0126822F001021A60FB681B68FA681268FE
S31520001200126842F002021A60FB681B68FA681268CC
S31520001210126842F001021A60FB7A072B3FD87B68DE
S31520001220002B0BD07B68B3F1007F07D07B68B3F12E
S31520001230807F03D07B68B3F1407F0FD1FA7A79683B
S3152000124040F20213C2F2004341EA0303F96802F1B5
S3152000125006024FEAC2020A4453600EE0FA7A79681F
S3152000126040F20213C2F2000341EA0303F96802F1D5
S3152000127006024FEAC2020A445360FB7AFA6803F177
S3152000128006034FEAC30313443A7E1A72FB7AFA68BE
S3152000129003F106034FEAC3031344FA785A72FB6834
S315200012A09B881BB21846FFF7D3FD07F11007BD46F2
S315200012B080BD00BF80B584B000AF78600B46FB7060
S315200012C07A6843F29043C2F200039A4207D07A68C2
S315200012D043F20C43C2F200039A4200D000BE7B6860
S315200012E01B681B6803F00203002B00D100BEFB78AD
S315200012F07A6803F106034FEAC30313445B68B3F12C
S31520001300FF3F00D100BE7B689B881BB21846FFF7C3
S31520001310BBFD7B681B689B6803F00403FB60FB68CE
S31520001320002B02D07868FFF785FE7B681B687A68F9
S315200013301268126822F001021A607B681A68FB782C
S31520001340796803F106034FEAC3030B445B68136015
S315200013507B681A68FB78796803F106034FEAC303B2
S315200013600B445B7A93617B681A68FB78796803F192
S3152000137006034FEAC3030B441B7A53607B681B6842
S315200013807A681268126842F001021A607B681B684C
S315200013907A681268D169FA784FF0010000FA02F2F1
S315200013A041EA0202DA617B689B881BB21846FFF786
S315200013B04FFD07F11007BD4680BD00BF80B584B044
S315200013C000AF78600B46FB707A6843F29043C2F216
S315200013D000039A4207D07A6843F20C43C2F2000314
S315200013E09A4200D000BE7B681B681B6803F002038C
S315200013F0002B00D100BE7B689B881BB21846FFF7E6
S3152000140043FD7B681B689B6803F00403FB60FB6855
S31520001410002B02D07868FFF70DFE7B681B687A6880
S315200014201268D169FA784FF0010000FA02F26FEAE9
S31520001430020201EA0202DA617B689B881BB2184627
S31520001440FFF706FD07F11007BD4680BD80B487B0C3
S3152000145000AF786039607A6843F29043C2F20003A5
S315200014609A4207D07A6843F20C43C2F200039A42AA
S3152000147000D000BE7B681B681B6803F00203002BAC
S3152000148000D100BE7B681A687B681B68196840F229
S31520001490FF03CFF6007301EA030343F4807313605E
S315200014A07B681B687A681268D26A42F00C02DA629C
S315200014B07B681B689B6803F04003FB600BE07B683E
S315200014C01B681B69BB60BB68BB607B681B689B682D
S315200014D003F04003FB60FB68002BF0D07B681B68A1
S315200014E03A685A617B681B689B6803F001037B613D
S315200014F005E07B681B689B6803F001037B617B69C1
S31520001500002BF6D07B681B689B6803F002033B61C7
S3152000151005E07B681B689B6803F002033B613B691F
S31520001520002BF6D07B681B681B69184607F11C0741
S31520001530BD4680BC704700BF80B485B000AF7860E0
S315200015404FF00003FB600EE07B681B687A689168A9
S315200015507A6812690A4412785A617B681B6903F11A
S3152000156001027B681A617B681B689B6803F48073A1
S31520001570002B05D17B681A697B68DB689A42E3D326
S315200015807B681A697B68DB689A421CD30EE07B680D
S315200015901B687A6851697A68D2690A4412785A6156
S315200015A07B68DB6903F101027B68DA617B681B6873
S315200015B09B6803F48073002B05D17B68DA697B680E
S315200015C09B699A42E3D37B685B6A002B1FD07B68BA
S315200015D01A697B68DB689A4219D37B68DA697B686B
S315200015E09B699A4213D308E07B681B684FF0000280
S315200015F05A61FB6803F10103FB607B681B689B68EB
S3152000160003F48073002B02D1FB681F2BECD907F162
S315200016101407BD4680BC704780B584B000AF7860A3
S315200016207B6893F88030022B15D10CE07B681B6811
S315200016301B69FB607B685B6F002B04D07B685B6F4C
S31520001640FA68104698477B681B689B6803F040033E
S31520001650002BEBD032E07B6893F88030012B25D12C
S3152000166017E07B681B681B69FB607B681A6B7B68CD
S31520001670DB6A9A4207D27B689A6A7B681B6B1344A3
S31520001680FA68D2B21A707B681B6B03F101027B6881
S315200016901A637B681B689B6803F04003002BE0D02D
S315200016A00CE07B681B681B69FB6000E000BF7B6861
S315200016B01B689B6803F04003002BF2D007F110074C
S315200016C0BD4680BD80B586B000AF78607B681B685C
S315200016D003F120033B617A6843F29043C2F2000390
S315200016E09A4207D07A6843F20C43C2F200039A4228
S315200016F000D000BE3B691B6803F00203002B52D0CA
S315200017007B6893F88030022B15D10CE07B681B6830
S315200017101B69FB607B685B6F002B04D07B685B6F6B
S31520001720FA68104698477B681B689B6803F040035D
S31520001730002BEBD032E07B6893F88030012B25D14B
S3152000174017E07B681B681B69FB607B681A6B7B68EC
S31520001750DB6A9A4207D27B689A6A7B681B6B1344C2
S31520001760FA68D2B21A707B681B6B03F101027B68A0
S315200017701A637B681B689B6803F04003002BE0D04C
S315200017800CE07B681B681B69FB6000E000BF7B6880
S315200017901B689B6803F04003002BF2D07B681B6814
S315200017A04FF00202DA603B691B6803F00103DBB2EB
S315200017B0002B12D07B6893F88030022B05D17B68F2
S315200017C01B687A68926F5A6102E07868FFF7B4FE68
S315200017D07B681B684FF00102DA603B691B6803F0E7
S315200017E01003002B23D07868FFF716FF7B681B6A4F
S315200017F0002B0BD07B681B6A7A68916A7A68126B19
S315200018000846114698477868FFF796FE7B684FF0A2
S3152000181001025A627B681B687A681268926A22F013
S3152000182010029A627B681B684FF01002DA603B69EF
S315200018301B6803F00403002B0FD07B681B687A68B3
S315200018401268D26A42F00402DA627868FFF7F2FB85
S315200018507B681B684FF00402DA603B691B6803F063
S315200018600803002B31D07B681B687A681268D26A1D
S3152000187042F00802DA627B6893F88030022B13D19B
S315200018807B681A687B681B68196840F2FF03CFF6ED
S31520001890007301EA030343F4807313607B681B68BB
S315200018A07A68926F5A610BE07B6893F88030012B3F
S315200018B006D17B684FF000021A617868FFF73CFE7C
S315200018C07B681B684FF00802DA603B691B6803F0EF
S315200018D02003002B49D07868FFF79EFE7B681B6BA0
S315200018E07B617B681B6A002B1CD07B684FF0000253
S315200018F05A627B684FF000025A617B684FF0000203
S315200019009A617B684FF00002DA617B681B684FF0B2
S315200019101002DA607B681B687A681268926A42F065
S3152000192010029A627B684FF000021A617B681B687E
S315200019307A681268D26A42F00C02DA627868FFF797
S31520001940FBFD7B684FF000021A637B68DB6F002B80
S3152000195006D07B68DB6F7A68926A10467969984769
S315200019607B681B684FF02002DA6007F11807BD4636
S3152000197080BD00BF684620F007018D4689B500AFBF
S3152000198043F29040C2F20000FFF79CFE4FF00C009D
S31520001990FFF798FABD46BDE889408546704700BFE7
S315200019A0684620F007018D4689B500AF43F20C400A
S315200019B0C2F20000FFF786FE4FF00D00FFF782FA15
S315200019C0BD46BDE889408546704700BF80B483B0D8
S315200019D000AF0346FB804EF20013CEF20003B7F9A8
S315200019E006204FEA5212F98801F01F014FF001003C
S315200019F000FA01F102F1600243F8221007F10C0708
S31520001A00BD4680BC704700BF80B582B000AF42F2B1
S31520001A100003CEF2040342F20002CEF20402126B5D
S31520001A2042F480421A634FF000037B600EE07A682E
S31520001A3043F2B423C2F2000333F812301BB2184625
S31520001A40FFF7C4FF7B6803F101037B607B681F2BD4
S31520001A50EDD942F20003CEF2040342F20002CEF2A6
S31520001A600402126B22F480421A6307F10807BD466E
S31520001A7080BD00BF80B485B000AF03463960FB71DE
S31520001A80FB79FB60FB681F2B00D900BEFB681F2B70
S31520001A9008D8FA6843F23423C2F2000353F82230FE
S31520001AA03A681A6007F11407BD4680BC704700BF2C
S31520001AB080B485B000AF02460B46FA71BB71FB7944
S31520001AC0FB60FB681F2B00D900BEFB681F2B09D8C3
S31520001AD040F20003C4F22623FA68B97902F5886237
S31520001AE043F8221007F11407BD4680BC704700BF9B
S31520001AF080B500AF00F066F900F06CF880BD00BF3D
S31520001B0080B584B000AF78604FF00403FB724FF0CD
S31520001B1000033B8125E03A8943F2B033C2F2000349
S31520001B204FEA021213441B68002B16D03A8943F25F
S31520001B30B033C2F200034FEA021213441B687868DE
S31520001B4019464FF0100201F0D5FA0346FB60FB68F8
S31520001B50002B02D13B89FB7206E03B8903F101038E
S31520001B603B813B89032BD6D9FB7A184607F1100710
S31520001B70BD4680BD80B485B000AF0346FB71FA79BF
S31520001B8043F2B033C2F200034FEA02121344DB8859
S31520001B90FB8140F20003C4F20203FA8902F5C06217
S31520001BA053F822304FEA1343BB81BB891BB2002B6B
S31520001BB002DA4FF00003BB81BB89184607F11407F0
S31520001BC0BD4680BC704700BF80B400AFBD4680BC18
S31520001BD0704700BF80B487B000AF40F20003C4F264
S31520001BE00203D3F8C830FB6040F20003C4F20203BC
S31520001BF04FF00002C3F8C8204FF00003FB7139E014
S31520001C00FB794FEA53037B7440F20002C4F20202CE
S31520001C10797C0B464FEA43030B444FEA03131344E4
S31520001C2003F508731B79BB74FB7903F00103FB747E
S31520001C30FB7C002B0DD0F979BB7C4FEA5313DBB22A
S31520001C401A4602F0030243F2F433C2F200035A5456
S31520001C500CE0F979BB7C4FEA5303DBB21A4602F05B
S31520001C60030243F2F433C2F200035A54FB7903F120
S31520001C700103FB71FB79092BC2D94FF00003BB602E
S31520001C8073E0BA6843F2B033C2F200034FEA02129D
S31520001C9013441B79BB75BA7D43F25C33C2F2000351
S31520001CA09B5C3B75BA7D43F22C33C2F200039B5CEE
S31520001CB0012B07D0022B27D0002B47D14FF0000352
S31520001CC0FB7547E03B7DFF2B00D100BE40F20002B2
S31520001CD0C4F20202397D0B464FEA43030B444FEA16
S31520001CE00313134403F508731B7A7B757B7D03F07E
S31520001CF00103DBB2002B03D04FF00003FB7529E074
S31520001D004FF00103FB7525E03B7DFF2B00D100BE84
S31520001D1040F20002C4F20202397D0B464FEA430329
S31520001D200B444FEA0313134403F50A731B797B759F
S31520001D307B7D03F00103DBB2002B03D04FF00003C1
S31520001D40FB7507E04FF00203FB7503E000BE4FF082
S31520001D500003FB75BA6843F20043C2F20003F97D23
S31520001D609954BB6803F10103BB60BB68032B88DD74
S31520001D7040F20003C4F20203FA68C3F8C82007F150
S31520001D801C07BD4680BC704780B483B000AF0346B5
S31520001D90FB804EF20013CEF20003B7F906204FEA7D
S31520001DA05212F98801F01F014FF0010000FA01F1EB
S31520001DB002F1600243F8221007F10C07BD4680BCF1
S31520001DC0704700BF80B400AFBD4680BC704700BFDF
S31520001DD080B483B000AF0346FB7107F10C07BD4604
S31520001DE080BC7047684620F007018D4689B500AF54
S31520001DF04FF00000FFF7ECFF4FF07600FFF7C4FF2F
S31520001E00BD46BDE889408546704700BF684620F03C
S31520001E1007018D4689B500AF4FF00100FFF7D8FFC7
S31520001E204FF07700FFF7B0FFBD46BDE889408546F5
S31520001E30704700BF684620F007018D4689B500AF80
S31520001E404FF00200FFF7C4FF4FF07800FFF79CFF2A
S31520001E50BD46BDE889408546704700BF684620F0EC
S31520001E6007018D4689B500AF4FF00300FFF7B0FF9D
S31520001E704FF07900FFF788FFBD46BDE889408546CB
S31520001E80704700BF684620F007018D4689B500AF30
S31520001E904FF00400FFF79CFF4FF07A00FFF774FF26
S31520001EA0BD46BDE889408546704700BF684620F09C
S31520001EB007018D4689B500AF4FF00500FFF788FF73
S31520001EC04FF07B00FFF760FFBD46BDE889408546A1
S31520001ED0704700BF684620F007018D4689B500AFE0
S31520001EE04FF00600FFF774FF4FF07C00FFF74CFF22
S31520001EF0BD46BDE889408546704700BF684620F04C
S31520001F0007018D4689B500AF4FF00700FFF760FF48
S31520001F104FF07D00FFF738FFBD46BDE88940854676
S31520001F20704700BF684620F007018D4689B500AF8F
S31520001F304FF00800FFF74CFF4FF07E00FFF724FF1D
S31520001F40BD46BDE889408546704700BF684620F0FB
S31520001F5007018D4689B500AF4FF00900FFF738FF1E
S31520001F604FF07F00FFF710FFBD46BDE8894085464C
S31520001F70704700BF684620F007018D4689B500AF3F
S31520001F804FF00A00FFF724FF4FF08000FFF7FCFE1A
S31520001F90BD46BDE889408546704700BF684620F0AB
S31520001FA007018D4689B500AF4FF00B00FFF710FFF4
S31520001FB04FF08100FFF7E8FEBD46BDE88940854623
S31520001FC0704700BF684620F007018D4689B500AFEF
S31520001FD04FF00C00FFF7FCFE4FF08200FFF7D4FE17
S31520001FE0BD46BDE889408546704700BF684620F05B
S31520001FF007018D4689B500AF4FF00D00FFF7E8FECB
S315200020004FF08300FFF7C0FEBD46BDE889408546F8
S31520002010704700BF684620F007018D4689B500AF9E
S315200020204FF00E00FFF7D4FE4FF08400FFF7ACFE12
S31520002030BD46BDE889408546704700BF684620F00A
S3152000204007018D4689B500AF4FF00F00FFF7C0FEA0
S315200020504FF08500FFF798FEBD46BDE889408546CE
S31520002060704700BF684620F007018D4689B500AF4E
S315200020704FF01000FFF7ACFE4FF08600FFF784FE0E
S31520002080BD46BDE889408546704700BF684620F0BA
S3152000209007018D4689B500AF4FF01100FFF798FE76
S315200020A04FF08700FFF770FEBD46BDE889408546A4
S315200020B0704700BF684620F007018D4689B500AFFE
S315200020C04FF01200FFF784FE4FF08800FFF75CFE0A
S315200020D0BD46BDE889408546704700BF684620F06A
S315200020E007018D4689B500AF4FF01300FFF770FE4C
S315200020F04FF08900FFF748FEBD46BDE8894085467A
S31520002100704700BF684620F007018D4689B500AFAD
S315200021104FF01400FFF75CFE4FF08A00FFF734FE05
S31520002120BD46BDE889408546704700BF684620F019
S3152000213007018D4689B500AF4FF01500FFF748FE21
S315200021404FF08B00FFF720FEBD46BDE8894085464F
S31520002150704700BF684620F007018D4689B500AF5D
S315200021604FF01600FFF734FE4FF08C00FFF70CFE01
S31520002170BD46BDE889408546704700BF684620F0C9
S3152000218007018D4689B500AF4FF01700FFF720FEF7
S315200021904FF08D00FFF7F8FDBD46BDE88940854626
S315200021A0704700BF684620F007018D4689B500AF0D
S315200021B04FF01800FFF70CFE4FF08E00FFF7E4FDFE
S315200021C0BD46BDE889408546704700BF684620F079
S315200021D007018D4689B500AF4FF01900FFF7F8FDCE
S315200021E04FF08F00FFF7D0FDBD46BDE889408546FC
S315200021F0704700BF684620F007018D4689B500AFBD
S315200022004FF01A00FFF7E4FD4FF09000FFF7BCFDFA
S31520002210BD46BDE889408546704700BF684620F028
S3152000222007018D4689B500AF4FF01B00FFF7D0FDA3
S315200022304FF09100FFF7A8FDBD46BDE889408546D1
S31520002240704700BF684620F007018D4689B500AF6C
S315200022504FF01C00FFF7BCFD4FF09200FFF794FDF6
S31520002260BD46BDE889408546704700BF684620F0D8
S3152000227007018D4689B500AF4FF01D00FFF7A8FD79
S315200022804FF09300FFF780FDBD46BDE889408546A7
S31520002290704700BF684620F007018D4689B500AF1C
S315200022A04FF01E00FFF794FD4FF09400FFF76CFDF2
S315200022B0BD46BDE889408546704700BF684620F088
S315200022C007018D4689B500AF4FF01F00FFF780FD4F
S315200022D04FF09500FFF758FDBD46BDE8894085467D
S315200022E0704700BF81F0004102E000BF83F0004349
S315200022F030B54FEA41044FEA430594EA050F08BF7B
S3152000230090EA020F1FBF54EA000C55EA020C7FEA3E
S31520002310645C7FEA655C00F0E2804FEA5454D4EBBB
S315200023205555B8BF6D420CDD2C4480EA020281EA85
S31520002330030382EA000083EA010180EA020281EABD
S315200023400303362D88BF30BD11F0004F4FEA01310F
S315200023504FF4801C4CEA113102D0404261EB41011E
S3152000236013F0004F4FEA03334CEA133302D05242A4
S3152000237063EB430394EA050F00F0A780A4F1010460
S31520002380D5F1200E0DDB02FA0EFC22FA05F280189A
S3152000239041F1000103FA0EF2801843FA05F3594180
S315200023A00EE0A5F120050EF1200E012A03FA0EFCFF
S315200023B028BF4CF0020C43FA05F3C01851EBE37129
S315200023C001F0004507D54FF0000EDCF1000C7EEB46
S315200023D000006EEB0101B1F5801F1BD3B1F5001F84
S315200023E00CD349085FEA30004FEA3C0C04F10104A3
S315200023F04FEA445212F5800F80F09A80BCF1004FCC
S3152000240008BF5FEA500C50F1000041EB045141EA4D
S31520002410050130BD5FEA4C0C404141EB010111F44E
S31520002420801FA4F10104E9D191F0000F04BF0146F9
S315200024300020B1FA81F308BF2033A3F10B03B3F1D7
S3152000244020020CDA0C3208DD02F1140CC2F10C0267
S3152000245001FA0CF021FA02F10CE002F11402D8BFC5
S31520002460C2F1200C01FA02F120FA0CFCDCBF41EA91
S315200024700C019040E41AA2BF01EB0451294330BD60
S315200024806FEA04041F3C1CDA0C340EDC04F114043D
S31520002490C4F1200220FA04F001FA02F340EA030014
S315200024A021FA04F345EA030130BDC4F10C04C4F15A
S315200024B0200220FA02F001FA04F340EA030029463A
S315200024C030BD21FA04F0294630BD94F0000F83F484
S315200024D0801306BF81F480110134013D4EE77FEA67
S315200024E0645C18BF7FEA655C29D094EA050F08BFB3
S315200024F090EA020F05D054EA000C04BF1946104694
S3152000250030BD91EA030F1EBF0021002030BD5FEAD7
S31520002510545C05D14000494128BF41F0004130BDFF
S3152000252014F580043CBF01F5801130BD01F0004553
S3152000253045F0FE4141F470014FF0000030BD7FEAC6
S31520002540645C1ABF194610467FEA655C1CBF0B46C1
S31520002550024650EA013406BF52EA033591EA030FD8
S3152000256041F4002130BD00BF90F0000F04BF0021D0
S31520002570704730B54FF4806404F132044FF0000503
S315200025804FF0000150E700BF90F0000F04BF00217C
S31520002590704730B54FF4806404F1320410F00045E2
S315200025A048BF40424FF000013EE700BF42004FEADD
S315200025B0E2014FEA31014FEA02701FBF12F07F435A
S315200025C093F07F4F81F06051704792F0000F14BF57
S315200025D093F07F4F704730B54FF4607401F000459B
S315200025E021F0004120E700BF50EA010208BF7047F2
S315200025F030B54FF000050AE050EA010208BF7047E7
S3152000260030B511F0004502D5404261EB41014FF44F
S31520002610806404F132045FEA915C3FF4DCAE4FF053
S3152000262003025FEADC0C18BF03325FEADC0C18BF3A
S31520002630033202EBDC02C2F1200300FA03FC20FA8B
S3152000264002F001FA03FE40EA0E0021FA02F11444D8
S31520002650C1E600BF70B54FF0FF0C4CF4E06C1CEAED
S3152000266011541DBF1CEA135594EA0C0F95EA0C0F62
S3152000267000F0DEF82C4481EA030621EA4C5123EAD5
S315200026804C5350EA013518BF52EA033541F4801104
S3152000269043F4801338D0A0FB02CE4FF00005E1FBB7
S315200026A002E506F00042E0FB03E54FF00006E1FB01
S315200026B003569CF0000F18BF4EF0010EA4F1FF0444
S315200026C0B6F5007F64F5407404D25FEA4E0E6D4184
S315200026D046EB060642EAC62141EA55514FEAC52095
S315200026E040EA5E504FEACE2EB4F1FD0C88BFBCF511
S315200026F0E06F1ED8BEF1004F08BF5FEA500E50F1C2
S31520002700000041EB045170BD06F0004646EA010187
S3152000271040EA020081EA0301B4EB5C04C2BFD4EBB9
S315200027200C0541EA045170BD41F480114FF0000EB2
S31520002730013C00F3AB8014F1360FDEBF002001F020
S31520002740004170BDC4F10004203C35DA0C341BDC9A
S3152000275004F11404C4F1200500FA05F320FA04F06C
S3152000276001FA05F240EA020001F0004221F00041A0
S3152000277010EBD37021FA04F642EB06015EEA430E13
S3152000278008BF20EAD37070BDC4F10C04C4F1200543
S3152000279000FA04F320FA05F001FA04F240EA0200F6
S315200027A001F0004110EBD37041F100015EEA430EC7
S315200027B008BF20EAD37070BDC4F1200500FA05F2E7
S315200027C04EEA020E20FA04F301FA05F243EA020366
S315200027D021FA04F001F0004121FA04F220EA020075
S315200027E000EBD3705EEA430E08BF20EAD37070BDBB
S315200027F094F0000F0FD101F00046400041EB01019B
S3152000280011F4801F08BF013CF7D041EA060195F07C
S31520002810000F18BF704703F00046520043EB030336
S3152000282013F4801F08BF013DF7D043EA0603704723
S3152000283094EA0C0F0CEA135518BF95EA0C0F0CD02E
S3152000284050EA410618BF52EA4306D1D181EA030174
S3152000285001F000414FF0000070BD50EA410606BF6E
S315200028601046194652EA430619D094EA0C0F02D1B3
S3152000287050EA013613D195EA0C0F05D152EA0336F8
S315200028801CBF104619460AD181EA030101F0004116
S3152000289041F0FE4141F470014FF0000070BD41F05F
S315200028A0FE4141F4780170BD70B54FF0FF0C4CF439
S315200028B0E06C1CEA11541DBF1CEA135594EA0C0F58
S315200028C095EA0C0F00F0A7F8A4EB050481EA030EA5
S315200028D052EA03354FEA013100F088804FEA03338C
S315200028E04FF0805545EA131343EA12634FEA02225A
S315200028F045EA111545EA10654FEA00260EF000411B
S315200029009D4208BF964244F1FD0404F5407402D26C
S315200029105B084FEA3202B61A65EB03055B084FEAFD
S3152000292032024FF480104FF4002CB6EB020E75EBFA
S31520002930030E22BFB61A754640EA0C005B084FEA22
S315200029403202B6EB020E75EB030E22BFB61A75469F
S3152000295040EA5C005B084FEA3202B6EB020E75EBEA
S31520002960030E22BFB61A754640EA9C005B084FEA62
S315200029703202B6EB020E75EB030E22BFB61A75466F
S3152000298040EADC0055EA060E18D04FEA051545EA5E
S3152000299016754FEA06164FEAC30343EA52734FEA07
S315200029A0C2025FEA1C1CC0D111F4801F0BD141EA80
S315200029B000014FF000004FF0004CB6E711F4801FE5
S315200029C004BF01430020B4F1FD0C88BFBCF5E06FC5
S315200029D03FF6AFAEB5EB030C04BFB6EB020C5FEAD5
S315200029E0500C50F1000041EB045170BD0EF0004E2A
S315200029F04EEA113114EB5C04C2BFD4EB0C0541EA5C
S31520002A00045170BD41F480114FF0000E013C90E658
S31520002A1045EA060E8DE60CEA135594EA0C0F08BF1C
S31520002A2095EA0C0F3FF43BAF94EA0C0F0AD150EA1B
S31520002A3001347FF434AF95EA0C0F7FF425AF1046AE
S31520002A4019462CE795EA0C0F06D152EA03353FF4D6
S31520002A50FDAE1046194622E750EA410618BF52EA53
S31520002A6043067FF4C5AE50EA41047FF40DAF52EA27
S31520002A7043057FF4EBAE12E74FEA410212F500124E
S31520002A8015D211D56FF47873B3EB625212D94FEA8F
S31520002A90C12343F0004343EA505311F0004F23FA79
S31520002AA002F018BF404270474FF00000704750EACE
S31520002AB0013005D111F0004008BF6FF0004070478B
S31520002AC04FF00000704700BF80F0004002E000BFDA
S31520002AD081F0004142001FBF5FEA410392EA030FE3
S31520002AE07FEA226C7FEA236C6AD04FEA1262D2EB2D
S31520002AF01363C1BFD218414048404140B8BF5B4232
S31520002B00192B88BF704710F0004F40F4000020F0CA
S31520002B107F4018BF404211F0004F41F4000121F0E0
S31520002B207F4118BF494292EA030F3FD0A2F101022A
S31520002B3041FA03FC10EB0C00C3F1200301FA03F168
S31520002B4000F0004302D5494260EB4000B0F5000F8B
S31520002B5013D3B0F1807F06D340084FEA310102F14A
S31520002B600102FE2A51D2B1F1004F40EBC25008BFFC
S31520002B7020F0010040EA03007047490040EB0000C6
S31520002B8010F4000FA2F10102EDD1B0FA80FCACF1F5
S31520002B90080CB2EB0C0200FA0CF0AABF00EBC250F4
S31520002BA052421843BCBFD0401843704792F0000FE2
S31520002BB081F4000106BF80F400000132013BB5E735
S31520002BC04FEA41037FEA226C18BF7FEA236C21D0AB
S31520002BD092EA030F04D092F0000F08BF0846704710
S31520002BE090EA010F1CBF0020704712F07F4F04D1DE
S31520002BF0400028BF40F00040704712F100723CBFF1
S31520002C0000F50000704700F0004343F0FE4040F41A
S31520002C10000070477FEA226216BF08467FEA2363D8
S31520002C200146420206BF5FEA412390EA010F40F4C3
S31520002C30800070474FF0000304E000BF10F000430F
S31520002C4048BF40425FEA000C08BF704743F09643F6
S31520002C5001464FF000001CE050EA010208BF704711
S31520002C604FF000030AE000BF50EA010208BF704798
S31520002C7011F0004302D5404261EB41015FEA010CAD
S31520002C8002BF84460146002043F0B64308BFA3F1A5
S31520002C908053A3F50003BCFA8CF2083AA3EBC25387
S31520002CA010DB01FA02FC634400FA02FCC2F12002A6
S31520002CB0BCF1004F20FA02F243EB020008BF20F0DD
S31520002CC00100704702F1200201FA02FCC2F1200243
S31520002CD050EA4C0021FA02F243EB020008BF20EA38
S31520002CE0DC7070474FF0FF0C1CEAD0521EBF1CEA66
S31520002CF0D15392EA0C0F93EA0C0F6FD01A4480EA54
S31520002D00010C400218BF5FEA41211ED04FF000633C
S31520002D1043EA501043EA5111A0FB01310CF0004068
S31520002D20B1F5000F3EBF490041EAD3715B0040EA8E
S31520002D30010062F17F02FD2A1DD8B3F1004F40EB5E
S31520002D40C25008BF20F00100704790F0000F0CF031
S31520002D50004C08BF49024CEA502040EA51207F3AF5
S31520002D60C2BFD2F1FF0340EAC250704740F40000D0
S31520002D704FF00003013A5DDC12F1190FDCBF00F0C1
S31520002D8000407047C2F10002410021FA02F1C2F16F
S31520002D90200200FA02FC5FEA310040F1000053EA0B
S31520002DA04C0308BF20EADC70704792F0000F00F059
S31520002DB0004C02BF400010F4000F013AF9D040EA5F
S31520002DC00C0093F0000F01F0004C02BF490011F4F3
S31520002DD0000F013BF9D041EA0C018FE70CEAD153F1
S31520002DE092EA0C0F18BF93EA0C0F0AD030F0004C71
S31520002DF018BF31F0004CD8D180EA010000F0004025
S31520002E00704790F0000F17BF90F0004F084691F0E2
S31520002E10000F91F0004F14D092EA0C0F01D142021C
S31520002E200FD193EA0C0F03D14B0218BF084608D1E5
S31520002E3080EA010000F0004040F0FE4040F400002F
S31520002E40704740F0FE4040F4400070474FF0FF0CC2
S31520002E501CEAD0521EBF1CEAD15392EA0C0F93EA09
S31520002E600C0F69D0A2EB030280EA010C49024FEA5B
S31520002E70402037D04FF0805343EA111143EA101314
S31520002E800CF000408B4238BF5B0042F17D024FF4CC
S31520002E90000C8B4224BF5B1A40EA0C00B3EB510FA7
S31520002EA024BFA3EB510340EA5C00B3EB910F24BF90
S31520002EB0A3EB910340EA9C00B3EBD10F24BFA3EB15
S31520002EC0D10340EADC001B0118BF5FEA1C1CE0D1DD
S31520002ED0FD2A3FF650AF8B4240EBC25008BF20F090
S31520002EE0010070470CF0004C4CEA50207F32C2BFE4
S31520002EF0D2F1FF0340EAC250704740F400004FF081
S31520002F000003013A37E792F0000F00F0004C02BFB1
S31520002F10400010F4000F013AF9D040EA0C0093F07B
S31520002F20000F01F0004C02BF490011F4000F013BD5
S31520002F30F9D041EA0C0195E70CEAD15392EA0C0F3D
S31520002F4008D142027FF47DAF93EA0C0F7FF470AF75
S31520002F50084676E793EA0C0F04D14B023FF44CAFB8
S31520002F6008466EE730F0004C18BF31F0004CCAD14D
S31520002F7030F000427FF45CAF31F000437FF43CAF89
S31520002F805FE700BF4FEA4002B2F1FE4F0FD34FF08A
S31520002F909E03B3EB12620DD94FEA002343F00043A0
S31520002FA010F0004F23FA02F018BF404270474FF04E
S31520002FB00000704712F1610F01D1420205D110F0D5
S31520002FC0004008BF6FF0004070474FF00000704788
S31520002FD070B543F2A43643F2A435C2F20006C2F21B
S31520002FE00005761BB61006D0002455F8243001348F
S31520002FF09847A642F9D843F2A43543F2A836C2F23E
S315200030000005C2F20006761B00F0C0F9B61006D005
S31520003010002455F8243001349847A642F9D870BDCB
S31520003020032AC9B230B407D822B10023C1540133D0
S315200030309342FBD130BC704700EB020C034601E003
S3152000304003F8011C03F003041A460133002CF7D1C0
S315200030504FF00133C2EB0C0403FB01F31FE042F8EF
S31520003060403C42F83C3C42F8383C42F8343C42F87A
S31520003070303C42F82C3C42F8283C42F8243C42F8AA
S31520003080203C42F81C3C42F8183C42F8143C42F8DA
S31520003090103C42F80C3C42F8083C42F8043C1546E9
S315200030A040323F2CA4F14004D9DC2A46C5EB0C045F
S315200030B007E042F8103C42F80C3C42F8083C42F843
S315200030C0043C154610320F2CA4F11004F1DC2A46DC
S315200030D0C5EB0C0501E042F8043C14460432032DEE
S315200030E0A5F10405F7DC01E004F8011B6445FBD3D8
S315200030F0A0E700BF30B41346002A43D041EA0002BD
S3152000310012F0030F25D1032B04460D463DD9026844
S3152000311009688A4239D1043B34D0A2F1013121EA2F
S31520003120020212F0803F0DD02CE022682968A2F11D
S3152000313001308A4220EA020027D1043B22D010F037
S31520003140803F1FD104340435032BEED82046294670
S31520003150F3B10478013B91F800C064450FD18BB1DF
S3152000316084B1013B002202E063B15CB1013B8418CB
S315200031708D180132647895F801C06445F4D0CCEB03
S31520003180040000E0002030BC704720462946E0E7D6
S31520003190247895F800C0CCEB0400F4E7EF03038015
S315200031A002CF0300C130ED0464031281E8038500D9
S315200031B078CB05392C003402F70120EA020000C042
S315200031C00123C10110C5023E28C7018636014837B2
S315200031D001003A0155B1020018B603088227F20110
S315200031E000260101E00F0F312B0C0E084EF1370798
S315200031F010030E0900E10F000E1403110731C14818
S31520003200080F0C31360F11802980000041444344B9
S315200032106972656374496E7075745F3000000000D2
S31520003220414443446972656374496E7075745F31B5
S315200032300000000000300140043001400830014009
S315200032400C3001401030014014300140183001404C
S315200032501C300140203001402430014028300140FC
S315200032602C300140303001403430014038300140AC
S315200032703C3001404030014044300140483001405C
S315200032804C3001405030014054300140583001400C
S315200032905C300140603001406430014068300140BC
S315200032A06C3001407030014074300140783001406C
S315200032B07C3001402000210022002300240025002C
S315200032C026002700280029002A002B002C002D008C
S315200032D02E002F003000310032003300340035003C
S315200032E036003700380039003A003B003C003D00EC
S315200032F03E003F00414443446972656374496E70E1
S3152000330075745F30000000005344445F30000000B5
S31520003310414443446972656374496E7075745F31C4
S31520003320000000005344445F31000000000000010B
S31520003330020000010200000000FFFF000000000163
S31520003340020000010200000000FFFF000000000153
S3152000335002FFFFFFFF00000000FFFF00FF0000004C
S315200033600001010101FFFFFFFFFFFFFFFF02020235
S315200033700203030303FFFFFFFFFFFFFFFF04040415
S3152000338004FFFFFFFFFFFFFFFFFFFFFFF8B500BFB2
S31520003390F8BC08BC9E467047F8B500BFF8BC08BC10
S311200033A09E467047850400207104002022
S315200033AC00000000F43200200C0010000000000089
S315200033BC00000000083300200F0019000000000058
S315200033CC000000001033002019002200000000002D
S315200033DC00000000243300201F002B0000000000FA
S309200033EC00000000B7
S705200002993F
