:020000042000DA
:100000000000012099020020090300200B030020BA
:100010000D0300200F03002011030020000000004A
:10002000000000000000000000000000130300209A
:100030001503002000000000170300201903002012
:100040001B0300201D0300201F03002021030020AC
:10005000230300202503002027030020290300207C
:100060002B0300202D03002095170020C11700202E
:10007000112300203D2300203703002039030020F6
:100080003B0300203D0300203F03002041030020EC
:1000900043030020450300204703002049030020BC
:1000A0004B030020000000000000000000000000E2
:1000B0000000000000000000000000004D030020D0
:1000C0004F0300205103002053030020550300205C
:1000D00057030020590300205B0300205D0300202C
:1000E0005F030020610300206303002065030020FC
:1000F00067030020690300206B0300206D030020CC
:100100006F0300207103002073030020750300209B
:1001100077030020790300207B0300207D0300206B
:100120007F0300208103002083030020850300203B
:1001300087030020890300208B0300208D0300200B
:100140008F030020910300209303002095030020DB
:1001500097030020990300209B0300209D030020AB
:100160009F030020A1030020A3030020A50300207B
:10017000A7030020A9030020AB030020AD0300204B
:10018000AF030020B1030020B3030020B50300201B
:10019000B7030020B9030020BB030020BD030020EB
:1001A000BF030020C1030020C3030020C5030020BB
:1001B000C7030020C9030020CB030020CD0300208B
:1001C000CF030020D1030020D3030020D50300205B
:1001D000D7030020D9030020DB030020DD0300202B
:1001E000DF030020E1030020E3030020E5030020FB
:1001F000E7030020E9030020EB030020ED030020CB
:10020000EF030020F1030020F3030020F50300209A
:10021000F7030020F9030020B9290020E12900207C
:10022000092A0020312A0020592A0020812A002092
:10023000A92A0020D12A0020F92A0020212B002001
:10024000492B0020712B0020992B0020C12B00206E
:10025000E92B0020112C0020392C0020612C0020DB
:10026000892C0020B12C0020D92C0020012D002049
:10027000292D0020512D0020792D0020A12D0020B6
:10028000C92D0020F12D0020192E0020412E002024
:10029000692E0020912E0020684880476848002879
:1002A0000BD168486849694A884206D091421CBF10
:1002B00050F8043B41F8043BF8D165486549664A6B
:1002C000884206D091421CBF50F8043B41F8043BE1
:1002D000F8D162486249634A914218BF41F8040B61
:1002E000FAD1000000000000000000000000000043
:1002F000DFF874010FF2030E00474FF000004FF0DB
:100300000001DFF868F1FEE7FEE7FEE7FEE7FEE743
:10031000FEE7FEE7FEE7FEE7FEE7FEE7FEE7FEE7B5
:10032000FEE7FEE7FEE7FEE7FEE7FEE7FEE7FEE7A5
:10033000FEE7FEE7FEE7FEE7FEE7FEE7FEE7FEE795
:10034000FEE7FEE7FEE7FEE7FEE7FEE7FEE7FEE785
:10035000FEE7FEE7FEE7FEE7FEE7FEE7FEE7FEE775
:10036000FEE7FEE7FEE7FEE7FEE7FEE7FEE7FEE765
:10037000FEE7FEE7FEE7FEE7FEE7FEE7FEE7FEE755
:10038000FEE7FEE7FEE7FEE7FEE7FEE7FEE7FEE745
:10039000FEE7FEE7FEE7FEE7FEE7FEE7FEE7FEE735
:1003A000FEE7FEE7FEE7FEE7FEE7FEE7FEE7FEE725
:1003B000FEE7FEE7FEE7FEE7FEE7FEE7FEE7FEE715
:1003C000FEE7FEE7FEE7FEE7FEE7FEE7FEE7FEE705
:1003D000FEE7FEE7FEE7FEE7FEE7FEE7FEE7FEE7F5
:1003E000FEE7FEE7FEE7FEE7FEE7FEE7FEE7FEE7E5
:1003F000FEE7FEE7FEE7FEE7FEE7FEE7FEE7FEE7D5
:10040000FEE7FEE7FEE7FEE7FEE7FEE7FEE7FEE7C4
:10041000FEE7FEE7FEE7FEE7FEE7FEE7FEE7FEE7B4
:10042000FEE7FEE7FEE7FEE7FEE7FEE7FEE7FEE7A4
:10043000FEE7FEE7FEE7FEE7FEE700006525002099
:10044000000000000000002000000020AC37002069
:10045000AC370020AC37002010380020000000002E
:1004600010380020C8390020C1330020A10400202A
:1004700043F61003C2F200031A780AB9012018707B
:10048000704700BF43F2AC70C2F2000008B50368C9
:100490002BB140F20003C0F2000303B1984708BD3E
:1004A00080B584B002AF43F66C00C2F200004FF496
:1004B00061414FF0030200F025FE43F66C00C2F2EA
:1004C000000041F26D01C2F200014FF0000201F0A4
:1004D0000DF900F03DF94FF01F0000F0F9FA4FF66A
:1004E000FF7300934FF005004FF005014FF06E02CF
:1004F0004FF0980300F0BEFA4FF6FF7300934FF0F1
:1005000005004FF0A5014FF06E024FF0980300F088
:10051000B1FA4FF6FF7300934FF078004FF00501EA
:100520004FF073024FF49C7300F0A4FA4FF00000F8
:1005300000F0E4FA4FF0000000F002FB4FF0000082
:1005400000F02CFB00F078F903469BB21BB23B6035
:1005500000F0F2F903469BB21BB27B6043F2B0702D
:10056000C2F200004FF005014FF0000200F000FD64
:100570003B68002B31D07B68002B2ED000F05CF95B
:1005800003469BB21AB23B68C3EB0203002BB8BF11
:100590005B42042B21DC00F0CFF903469BB21AB278
:1005A0007B68C3EB0203002BB8BF5B42042B14DC57
:1005B0003B689BB2A3F102039AB27B689BB2A3F1A2
:1005C00002039BB24FF6E0710091104619464FF0BE
:1005D00004024FF0040300F04DFA4FF0010000F068
:1005E00063FBAFE780B483B000AF0346FB804EF2FD
:1005F0000013CEF20003B7F906204FEA5212F98831
:1006000001F01F014FF0010000FA01F102F1200298
:1006100043F8221007F10C07BD4680BC704700BFAD
:1006200080B483B000AF0346FB804EF20013CEF2DD
:100630000003B7F906204FEA5212F98801F01F01B2
:100640004FF0010000FA01F102F1600243F82210BC
:1006500007F10C07BD4680BC704700BF80B582B073
:1006600000AF0346FB714FF01400FFF7BBFF42F2EF
:100670000003CEF2040342F20002CEF20402126B37
:1006800022F040021A6345F20003C4F200034FF067
:1006900000025A6540F20003C4F20A234FF0000240
:1006A000C3F8802140F20003C4F20A234FF0000295
:1006B000C3F8882140F20003C4F20A23FA79C3F890
:1006C000842145F20003C4F200034FF001021A61D5
:1006D0004FF01400FFF7A4FF07F10807BD4680BDE7
:1006E00080B400AF40F20003C4F20A234FF00102CD
:1006F000C3F88021BD4680BC704700BF80B400AF06
:1007000040F20003C4F20A234FF00002C3F8802134
:10071000BD4680BC704700BF80B400AF45F2000307
:10072000C4F200031B681846BD4680BC704700BF7A
:1007300080B483B000AF786045F20003C4F20003D8
:100740007A685A6007F10C07BD4680BC704700BF4D
:1007500080B582B000AF43F28C53C2F200037B60DD
:1007600043F6BC00C2F2000001F098F801F01AFE56
:1007700001F08CFE4FF000004FF0050101F048FE43
:1007800043F2FC50C2F2000001F088FE03461A4614
:1007900043F62903C2F200031A7043F21060C2F25A
:1007A000000001F07BFE03461A4643F62803C2F21E
:1007B00000031A704FF0080000F068FB00F0ACFB7B
:1007C0004FF0010000F0AEFA4FF0960000F06CFA26
:1007D0001DE07B681B78BB707B6803F101037B60C5
:1007E000BB7803F07F03FB707A78FB78104679685A
:1007F0001A4600F029FAFB787A6813447B60BB78CC
:100800005BB2002B03DA4FF0960000F04DFA7B68E4
:100810001B787B707B78002B0CBF00230123DBB29D
:100820007A6802F101027A60002BD2D100F080FBDD
:1008300007F10807BD4680BD80B582B000AF4FF01C
:1008400006004FF0000101F001FE4FF005004FF0EF
:10085000020101F0DDFD4FF006004FF0020101F052
:10086000D7FD4FF007004FF0050101F0D1FD4FF02B
:1008700008004FF0050101F0CBFD4FF007004FF0ED
:10088000010101F0E3FD4FF008004FF0000101F01D
:10089000DDFD4FF4FA7000F027FA43F62903C2F2A7
:1008A00000031B78184601F033FE03463B6043F615
:1008B0002903C2F200031B78184601F029FE034603
:1008C0007B603A687B68C3EB020313F1040F05DB1E
:1008D0003A687B68C3EB0203042B02DD4FF6FF731B
:1008E0001FE03A687B6813444FEA63037B604FF074
:1008F00007004FF0000101F0A9FD7B68184602F0E7
:1009000095FB034618460A4902F098FC0346184630
:10091000084902F0DFFB0346184602F02BFD0346B0
:100920009BB21BB2184607F10807BD4680BD00BF49
:1009300000007F450000704380B582B000AF4FF0EB
:1009400005004FF0050101F063FD4FF006004FF088
:10095000050101F05DFD4FF007004FF0020101F0CD
:1009600057FD4FF008004FF0020101F051FD4FF02C
:1009700005004FF0010101F069FD4FF006004FF056
:10098000000101F063FD4FF4FA7000F0ADF943F699
:100990002803C2F200031B78184601F0B9FD034694
:1009A0003B6043F62803C2F200031B78184601F0AF
:1009B000AFFD03467B603A687B68C3EB020313F12B
:1009C000040F05DB3A687B68C3EB0203042B02DDEE
:1009D0004FF6FF731FE03A687B6813444FEA6303E6
:1009E0007B604FF005004FF0000101F02FFD7B68A8
:1009F000184602F01BFB034618460A4902F01EFC8B
:100A000003461846084902F065FB0346184602F003
:100A1000B1FC03469BB21BB2184607F10807BD465E
:100A200080BD00BF00007F450000A04380B582B0BC
:100A300000AF13460246FA800A46BA807B8000F077
:100A40006BFAFB8803F101039AB2BB8803F101033F
:100A50009BB2F888B98800F0CFF800F075FA7B886F
:100A6000184600F03DFA00F063FA07F10807BD46AA
:100A700080BD00BF80B586B002AFF880B9807A80B3
:100A80003B80FB88FB8118E0F889B988FA89B7F8C0
:100A900004C03B8863449BB203F1FF339BB200B2B6
:100AA00009B212B21BB2B7F818C0CDF800C000F0FE
:100AB0004FF9FB8903F10103FB81FA89F9887B88EF
:100AC0000B449A42E0DB07F11007BD4680BD00BF32
:100AD00080B584B002AF0346FB80FB8800934FF0E3
:100AE00000004FF000014FF0F0024FF4A073FFF749
:100AF000C1FF07F10807BD4680BD00BF80B584B0C7
:100B000002AF0346FB80FB8800934FF028004FF0B4
:100B1000D2014FF005024FF01903FFF7ABFFFB883E
:100B200000934FF028004FF0DC014FF01E024FF011
:100B30000503FFF79FFF07F10807BD4680BD00BF13
:100B400080B584B002AF0346FB80FB8800934FF072
:100B500028004FF06E014FF005024FF01403FFF72D
:100B600089FFFB8800934FF028004FF082014FF07F
:100B70001E024FF00503FFF77DFFFB8800934FF047
:100B800041004FF06E014FF005024FF01403FFF7E4
:100B900071FF07F10807BD4680BD00BF80B584B076
:100BA00002AF0346FB80FB8800934FF0A0004FF09C
:100BB000A0014FF01E024FF00503FFF75BFFFB881B
:100BC00000934FF0A0004FF0A0014FF005024FF04E
:100BD0001403FFF74FFFFB8800934FF0A5004FF081
:100BE000A0014FF005024FF01403FFF743FF07F198
:100BF0000807BD4680BD00BF80B582B000AFF88059
:100C0000B9807A803B804FF02A0000F08BF8FB8897
:100C1000184600F065F97B88184600F061F94FF03E
:100C20002B0000F07FF8BB88184600F059F93B888C
:100C3000184600F055F94FF02C0000F073F807F15A
:100C40000807BD4680BD00BF80B586B000AFB96063
:100C500013460246FA73FB714FF000037B614FF0BD
:100C6000080000F013F900F079F9FB7B184600F05A
:100C700025F900F069F94FF000037B610CE0BB68D7
:100C80001B78184600F01AF9BB6803F10103BB603A
:100C90007B6903F101037B61FA797B699A42EEDC9F
:100CA00007F11807BD4680BD80B582B000AF7860FF
:100CB0004FF00100FFF7D2FC7A6848F2A063C0F25F
:100CC000010303FB02F31846FFF732FDFFF708FDAF
:100CD000FFF722FD0346002BFAD1FFF70FFD07F1C6
:100CE0000807BD4680BD00BF80B582B000AF786008
:100CF0004FF00100FFF7B2FC7B684FF0640202FB8B
:100D000003F31846FFF714FDFFF7EAFCFFF704FDB5
:100D10000346002BFAD1FFF7F1FC07F10807BD46A7
:100D200080BD00BF80B582B000AF0346FB7100F00C
:100D300015F94FF0080000F0A9F8FB79184600F00B
:100D4000BDF800F001F907F10807BD4680BD00BFFE
:100D500080B588B000AFF880B9807A803B80B7F961
:100D60000020B7F90430C3EB020383EAE372A2EB7D
:100D7000E372B7F90210B7F90630C3EB0103002B99
:100D8000B8BF5B429A42D4BF00230123FB81B7F96D
:100D90000E30002B0BD0FB883B83BB88FB803B8B4A
:100DA000BB807B887B833B887B807B8B3B80B7F9D8
:100DB0000620B7F902309A420BDDFB88BB837B88A3
:100DC000FB80BB8B7B80BB88FB833B88BB80FB8B22
:100DD0003B807A88FB88C3EB02039BB23B82B7F966
:100DE0000020B7F90430C3EB0203002BB8BF5B420D
:100DF0007B82B7F910304FEAD37213444FEA630392
:100E0000BB82B7F90420B7F900309A4203DA4FF0F9
:100E10000103FB8230E04FF6FF73FB822CE0B7F951
:100E20000E30002B08D0B988FA883B8D0846114651
:100E30001A46FFF7FBFD07E0F988BA883B8D0846A4
:100E400011461A46FFF7F2FDBA8A7B8AC3EB02030A
:100E50009BB2BB82B7F91430002B09DABA88FB8A3F
:100E600013449BB2BB80BA8A3B8A13449BB2BB82B9
:100E7000FB8803F10103FB80B7F90620B7F90230C4
:100E80009A42CCDD07F12007BD4680BD80B584B015
:100E900002AF0346FB71FB79009343F6BC00C2F23C
:100EA00000004FF000014FF000024FF0020300F08D
:100EB0003FFE07F10807BD4680BD00BF80B582B088
:100EC00000AF0346FB71FB7943F6BC00C2F20000A1
:100ED000194600F089FF07F10807BD4680BD00BF35
:100EE00080B582B000AF0346FB80FB884FEA132336
:100EF0009BB243F6BC00C2F20000194600F074FF3A
:100F0000FB8843F6BC00C2F20000194600F06CFFFB
:100F100007F10807BD4680BD80B500AF43F6BC00B1
:100F2000C2F200004FF0000100F092FE80BD00BF51
:100F300080B500AF43F6BC00C2F200004FF00001E4
:100F400000F00AFF80BD00BF80B500AF4FF0000089
:100F50004FF0010101F07AFA80BD00BF80B500AF0B
:100F60004FF000004FF0000101F070FA80BD00BFAB
:100F700080B58AB000AF786013460A46FA703B80AD
:100F80004FF07E033B734FF000037B734FF0100371
:100F9000BB734FF00003FB734FF001033B744FF042
:100FA00005033B620BE03B6A07F128010B444FF05D
:100FB000000203F81C2C3B6A03F101033B623B6A0D
:100FC0000A2BF0DD3B884FEA13239BB2DBB2FB75A3
:100FD0003B88DBB23B764FF000037B764FF000039B
:100FE0003B620FE03B6A03F10E03396A7A680A44F8
:100FF000127807F128010B4403F81C2C3B6A03F11B
:1010000001033B62FA783B6A9A42EBDC4FF0000343
:1010100087F827304FF003033B620EE03B6A07F18D
:101020002802134413F81C2C97F82730134487F830
:1010300027303B6A03F101033B623B6A122BEDDD73
:1010400097F827306FEA0303DBB2FB7707F10C0355
:1010500043F66C00C2F2000019464FF0140200F093
:1010600053F907F12807BD4680BD00BF80B582B0A7
:1010700000AF7860786843F62C01C2F200014FF0AF
:10108000400200F0B3F907F10807BD4680BD00BF7C
:1010900080B483B000AF0346FB804EF20013CEF263
:1010A0000003B7F906204FEA5212F98801F01F0138
:1010B0004FF0010000FA01F143F8221007F10C078C
:1010C000BD4680BC704700BF80B483B000AF03460C
:1010D000FB804EF20013CEF20003B7F906204FEA70
:1010E0005212F98801F01F014FF0010000FA01F1DE
:1010F00002F1600243F8221007F10C07BD4680BCE4
:10110000704700BF80B588B000AFF860B960134683
:10111000FB714FF00103FB824FF00003BB61FA68E3
:1011200043F69403C2F200039A4207D0FA6843F6EA
:101130006C03C2F200039A4200D000BEBB68002BD1
:1011400000D100BE01F014FAFA6843F69403C2F22B
:1011500000039A422ED1FB684FF080421A60FB6870
:101160004FF084425A60FB684FF00A021A8143F242
:10117000C073C2F200031B68BB6142F20003CEF2EF
:10118000040342F20002CEF20402126B42F080022B
:101190001A634FF00A00FFF797FF42F20003CEF206
:1011A000040342F20002CEF20402126B22F080022B
:1011B0001A6331E0FA6840F20003C4F201031360DD
:1011C000FA6840F20003C4F220235360FB684FF03A
:1011D0000B021A8143F2C473C2F200031B68BB61A5
:1011E00042F20003CEF2040342F20002CEF2040205
:1011F000126B42F480721A634FF00B00FFF764FF2A
:1012000042F20003CEF2040342F20002CEF20402E4
:10121000126B22F480721A63FB681B684FF00002A5
:101220001A71BB68002B21D0BA69BB68B2FBF3F31B
:10123000FB61FB6903F00803002B06D0FB694FEA52
:10124000131303F10103FB6103E0FB694FEA13137E
:10125000FB61FA694FF6FF739A4200D900BEFA6942
:101260004FF6FF739A4201D8FB69FB82FB685B680B
:101270004FF00102C3F89C21FB681B68FA8A4FEA11
:10128000122292B2D2B21A71FB681B68FA8AD2B2E9
:101290001A70FB685B684FF00002C3F89C21FB6882
:1012A0001B68FA791A73FB681B684FF00E021A72FA
:1012B000FB685B684FF00002C3F81022FB684FF038
:1012C00000021A61FB684FF00002DA60FB684FF021
:1012D00000025A61FB684FF00002DA61FA6841F2DD
:1012E000E553C2F200031362FB684FF000029A61FB
:1012F000FB684FF000025A62FB684FF000029A72DE
:1013000007F12007BD4680BD80B489B000AFF8600A
:10131000B9607A604FF000033B61FA6843F69403CA
:10132000C2F200039A4207D0FA6843F66C03C2F295
:1013300000039A4200D000BEBB68002B00D100BE63
:101340007B68002B00D100BEFA6843F69403C2F21A
:1013500000039A4206D0FA6843F66C03C2F2000317
:101360009A423DD1BB68002B3AD07B68002B37D026
:10137000FB681B681B7DFB76FB689A7AFB7E42EA62
:101380000303DAB2FB689A72FB7E03F02003002BA2
:1013900023D04FF01003FB617B680F2B01D87B68D3
:1013A000FB614FF000037B610EE0FB681B68B968CE
:1013B0003A690A4412781A703B6903F101033B61F0
:1013C0007B6903F101037B617A69FB699A42ECD383
:1013D0007A687B69C3EB02037B607B68002BC7D113
:1013E00007F12407BD4680BC704700BF80B487B0BA
:1013F00000AFF860B9607A604FF000033B614FF0D6
:101400000003FB75FA6843F69403C2F200039A42A4
:1014100007D0FA6843F66C03C2F200039A4200D088
:1014200000BEBB68002B00D100BE7B68002B00D142
:1014300000BEFA6843F69403C2F200039A4206D053
:10144000FA6843F66C03C2F200039A4234D1BB68D7
:10145000002B31D07B68002B2ED0FB681B681B7DD6
:10146000FB75FB689A7AFB7D42EA0303DAB2FB68FC
:101470009A7217E0BA683B691344FA6812681278E6
:10148000D2B21A703B6903F101033B61FB681B6830
:101490001B7DFB75FB689A7AFB7D42EA0303DAB297
:1014A000FB689A72FB7D03F00103DBB2002B03D0D3
:1014B0003A697B689A42DDD33B69184607F11C07FD
:1014C000BD4680BC704700BF80B584B000AF786077
:1014D0007A6843F69403C2F200039A4207D07A680E
:1014E00043F66C03C2F200039A4200D000BE7A6851
:1014F00043F69403C2F200039A4206D07A6843F698
:101500006C03C2F200039A4267D17B681B681B7AA6
:10151000DBB203F00F03FB73FB7B0C2B54D801A24F
:1015200052F823F059150020C91500207515002028
:10153000C915002091150020C9150020AD15002007
:10154000C9150020C9150020C9150020C9150020A3
:10155000C9150020911500207B685B6A002B00D123
:1015600000BE7B685B6A002B30D07B685B6A786862
:10157000984732E07B681B6A002B00D100BE7B6875
:101580001B6A002B24D07B681B6A7868984724E08C
:101590007B68DB69002B00D100BE7B68DB69002B18
:1015A00018D07B68DB697868984716E07B689B6990
:1015B000002B00D100BE7B689B69002B0CD07B68A0
:1015C0009B697868984708E000BE06E000BF04E029
:1015D00000BF02E000BF00E000BF07F11007BD46FA
:1015E00080BD00BF80B487B000AF78607A6843F6F2
:1015F0009403C2F200039A4207D07A6843F66C0360
:10160000C2F200039A4200D000BE7B68DB68002B68
:1016100000D100BE7B681B69002B00D100BE7A6838
:1016200043F69403C2F200039A4206D07A6843F666
:101630006C03C2F200039A4252D17B68DB68002B34
:101640004ED07B681B69002B4AD07B681B681B7DD2
:10165000FB727B689A7AFB7A42EA0303DAB27B6810
:101660009A72FB7A03F02003002B29D04FF010036D
:101670003B617B681A697B685B69C3EB02037B6132
:101680007B690F2B01D87B693B614FF00003FB6046
:1016900012E07B681B687A68D1687A6852690A44EC
:1016A00012781A707B685B6903F101027B685A61EA
:1016B000FB6803F10103FB60FA683B699A42E8D3D7
:1016C0007B685A697B681B699A4209D17B684FF035
:1016D00000021A617B685B684FF00002C3F8842047
:1016E00007F11C07BD4680BC704700BF80B584B0C1
:1016F00000AFF860B9601346FB71FA6843F69403D3
:10170000C2F200039A4207D0FA6843F66C03C2F2B1
:1017100000039A4200D000BEBB68002B00D100BE7F
:10172000FB79C02B00D900BEFA6843F69403C2F2DD
:1017300000039A4206D0FA6843F66C03C2F2000333
:101740009A4223D1BB68002B20D0FB79C02B1DD837
:10175000FB68BA68DA61FB681A68FB7903F0C003BA
:1017600043F00A03DBB21372FB681B891BB21846F5
:10177000FFF7AAFCFB685B684FF00102C3F880200A
:10178000FB681B891BB21846FFF782FC07F11007A4
:10179000BD4680BD684620F007018D4689B500AF83
:1017A00043F69400C2F20000FFF78EFE4FF00A00ED
:1017B000FFF78AFCBD46BDE889408546704700BFFB
:1017C000684620F007018D4689B500AF43F66C00EE
:1017D000C2F20000FFF778FE4FF00B00FFF774FC39
:1017E000BD46BDE889408546704700BF80B483B0E0
:1017F00000AF0346FB804EF20013CEF20003B7F9B0
:1018000006204FEA5212F98801F01F014FF0010043
:1018100000FA01F143F8221007F10C07BD4680BC25
:10182000704700BF80B483B000AF0346FB804EF228
:101830000013CEF20003B7F906204FEA5212F988DE
:1018400001F01F014FF0010000FA01F102F1200246
:1018500043F8221007F10C07BD4680BC704700BF5B
:1018600080B483B000AF0346FB804EF20013CEF28B
:101870000003B7F906204FEA5212F98801F01F0160
:101880004FF0010000FA01F102F1600243F822106A
:1018900007F10C07BD4680BC704700BF80B584B01F
:1018A00000AF78607A6843F64013C2F200039A42B0
:1018B00007D07A6843F6BC03C2F200039A4200D014
:1018C00000BE7B689B881BB21846FFF7ABFF7868A9
:1018D0004FF000014FF0840201F09AFD7B684FF059
:1018E00001025A624FF00003FB810DE0FB897A6828
:1018F00003F106034FEAC30313444FF0FF325A606B
:10190000FB8903F10103FB81FB89072BEED97A6880
:1019100043F64013C2F200039A4226D17A6841F29C
:101920000003C4F2000313607B684FF00C029A803E
:1019300042F20003CEF2040342F20002CEF20402AD
:10194000126B42F400721A634FF00C00FFF788FF2D
:1019500042F20003CEF2040342F20002CEF204028D
:10196000126B22F400721A6325E07A6841F20003D8
:10197000C4F2010313607B684FF00D029A8042F2BB
:101980000003CEF2040342F20002CEF20402126B14
:1019900042F480621A634FF00D00FFF761FF42F2DC
:1019A0000003CEF2040342F20002CEF20402126BF4
:1019B00022F480621A637B681B687A681268126876
:1019C00022F000421A6007F11007BD4680BD00BF3B
:1019D00080B58AB000AF78607B681B681B68FB60CD
:1019E0007B681B689B693B617B681B685B687B61EC
:1019F0007B681B689B6ABB617B681B681B6BFB6118
:101A00007B681B685B6B3B627B681B68DB697B6286
:101A10007A6843F64013C2F200039A422ED17A68E4
:101A200041F20003C4F2000313607B684FF00C0224
:101A30009A8042F20003CEF2040342F20002CEF298
:101A40000402126B42F400721A634FF00C00FFF7AD
:101A500007FF42F20003CEF2040342F20002CEF28C
:101A60000402126B22F400721A637B681B687A68A6
:101A70001268126822F000421A602DE07A6841F282
:101A80000003C4F2010313607B684FF00D029A80DB
:101A900042F20003CEF2040342F20002CEF204024C
:101AA000126B42F480621A634FF00D00FFF7D8FE0C
:101AB00042F20003CEF2040342F20002CEF204022C
:101AC000126B22F480621A637B681B687A68126862
:101AD000126822F000421A60FB6823F00103FB60E9
:101AE0007B681B68FA681A607B681B683A699A61B0
:101AF0007B681B687A695A607B681B687A68126821
:101B0000126842F001021A607B681B68BA699A6227
:101B10007B681B68FA691A637B681B683A6A5A63B8
:101B20007B681B687A6ADA6107F12807BD4680BDC9
:101B300080B584B000AFF8607A600A46FA72FB7034
:101B4000FA6843F64013C2F200039A4207D0FA68DB
:101B500043F6BC03C2F200039A4200D000BEFB7AF7
:101B6000072B00D900BE3B7E202B00D900BEFB68AE
:101B70009B881BB21846FFF755FEFB684FF000022A
:101B800083F88020FB681B68FA681268126822F0EC
:101B900001021A60FB681B68FA681268126842F05A
:101BA00002021A60FB681B68FA681268126842F049
:101BB00001021A60FB7A072B3FD87B68002B0BD001
:101BC0007B68B3F1007F07D07B68B3F1807F03D0DF
:101BD0007B68B3F1407F0FD1FA7A796840F2021343
:101BE000C2F2004341EA0303F96802F106024FEA38
:101BF000C2020A4453600EE0FA7A796840F2021396
:101C0000C2F2000341EA0303F96802F106024FEA57
:101C1000C2020A445360FB7AFA6803F106034FEAF2
:101C2000C30313443A7E1A72FB7AFA6803F106037F
:101C30004FEAC3031344FA785A72FB689B881BB2BD
:101C40001846FFF7D3FD07F11007BD4680BD00BF62
:101C500080B584B000AF78600B46FB707A6843F6BD
:101C60004013C2F200039A4207D07A6843F6BC03DD
:101C7000C2F200039A4200D000BE7B681B681B685A
:101C800003F00203002B00D100BEFB787A6803F159
:101C900006034FEAC30313445B68B3F1FF3F00D16F
:101CA00000BE7B689B881BB21846FFF7BBFD7B68B4
:101CB0001B689B6803F00403FB60FB68002B02D0E9
:101CC0007868FFF785FE7B681B687A68126812687F
:101CD00022F001021A607B681A68FB78796803F1C8
:101CE00006034FEAC3030B445B6813607B681A6802
:101CF000FB78796803F106034FEAC3030B445B7A70
:101D000093617B681A68FB78796803F106034FEAF0
:101D1000C3030B441B7A53607B681B687A681268A4
:101D2000126842F001021A607B681B687A681268C8
:101D3000D169FA784FF0010000FA02F241EA02029A
:101D4000DA617B689B881BB21846FFF74FFD07F1ED
:101D50001007BD4680BD00BF80B584B000AF78607D
:101D60000B46FB707A6843F64013C2F200039A42B6
:101D700007D07A6843F6BC03C2F200039A4200D04F
:101D800000BE7B681B681B6803F00203002B00D1B8
:101D900000BE7B689B881BB21846FFF743FD7B683B
:101DA0001B689B6803F00403FB60FB68002B02D0F8
:101DB0007868FFF70DFE7B681B687A681268D16946
:101DC000FA784FF0010000FA02F26FEA020201EA2B
:101DD0000202DA617B689B881BB21846FFF706FD9A
:101DE00007F11007BD4680BD80B487B000AF7860B2
:101DF00039607A6843F64013C2F200039A4207D072
:101E00007A6843F6BC03C2F200039A4200D000BED7
:101E10007B681B681B6803F00203002B00D100BE27
:101E20007B681A687B681B68196840F2FF03CFF66D
:101E3000007301EA030343F4807313607B681B683B
:101E40007A681268D26A42F00C02DA627B681B6818
:101E50009B6803F04003FB600BE07B681B681B6919
:101E6000BB60BB68BB607B681B689B6803F040037A
:101E7000FB60FB68002BF0D07B681B683A685A61F6
:101E80007B681B689B6803F001037B6105E07B684E
:101E90001B689B6803F001037B617B69002BF6D014
:101EA0007B681B689B6803F002033B6105E07B686D
:101EB0001B689B6803F002033B613B69002BF6D073
:101EC0007B681B681B69184607F11C07BD4680BC70
:101ED000704700BF80B485B000AF78604FF000035A
:101EE000FB600EE07B681B687A6891687A6812690B
:101EF0000A4412785A617B681B6903F101027B680E
:101F00001A617B681B689B6803F48073002B05D102
:101F10007B681A697B68DB689A42E3D37B681A693D
:101F20007B68DB689A421CD30EE07B681B687A688A
:101F300051697A68D2690A4412785A617B68DB6910
:101F400003F101027B68DA617B681B689B6803F41C
:101F50008073002B05D17B68DA697B689B699A42A4
:101F6000E3D37B685B6A002B1FD07B681A697B68B0
:101F7000DB689A4219D37B68DA697B689B699A426D
:101F800013D308E07B681B684FF000025A61FB68BE
:101F900003F10103FB607B681B689B6803F480739B
:101FA000002B02D1FB681F2BECD907F11407BD46AB
:101FB00080BC704780B584B000AF78607B6893F8D0
:101FC0008030022B15D10CE07B681B681B69FB601D
:101FD0007B685B6F002B04D07B685B6FFA681046F0
:101FE00098477B681B689B6803F04003002BEBD08D
:101FF00032E07B6893F88030012B25D117E07B68B5
:102000001B681B69FB607B681A6B7B68DB6A9A4202
:1020100007D27B689A6A7B681B6B1344FA68D2B25A
:102020001A707B681B6B03F101027B681A637B6883
:102030001B689B6803F04003002BE0D00CE07B683A
:102040001B681B69FB6000E000BF7B681B689B6826
:1020500003F04003002BF2D007F11007BD4680BD0E
:1020600080B586B000AF78607B681B6803F1200301
:102070003B617A6843F64013C2F200039A4207D0EC
:102080007A6843F6BC03C2F200039A4200D000BE55
:102090003B691B6803F00203002B52D07B6893F866
:1020A0008030022B15D10CE07B681B681B69FB603C
:1020B0007B685B6F002B04D07B685B6FFA6810460F
:1020C00098477B681B689B6803F04003002BEBD0AC
:1020D00032E07B6893F88030012B25D117E07B68D4
:1020E0001B681B69FB607B681A6B7B68DB6A9A4222
:1020F00007D27B689A6A7B681B6B1344FA68D2B27A
:102100001A707B681B6B03F101027B681A637B68A2
:102110001B689B6803F04003002BE0D00CE07B6859
:102120001B681B69FB6000E000BF7B681B689B6845
:1021300003F04003002BF2D07B681B684FF00202D3
:10214000DA603B691B6803F00103DBB2002B12D09D
:102150007B6893F88030022B05D17B681B687A6816
:10216000926F5A6102E07868FFF7B4FE7B681B68E3
:102170004FF00102DA603B691B6803F01003002B8B
:1021800023D07868FFF716FF7B681B6A002B0BD003
:102190007B681B6A7A68916A7A68126B08461146F6
:1021A00098477868FFF796FE7B684FF001025A6205
:1021B0007B681B687A681268926A22F010029A6241
:1021C0007B681B684FF01002DA603B691B6803F004
:1021D0000403002B0FD07B681B687A681268D26AF0
:1021E00042F00402DA627868FFF7F2FB7B681B6852
:1021F0004FF00402DA603B691B6803F00803002B10
:1022000031D07B681B687A681268D26A42F0080293
:10221000DA627B6893F88030022B13D17B681A68EE
:102220007B681B68196840F2FF03CFF6007301EA70
:10223000030343F4807313607B681B687A68926FB2
:102240005A610BE07B6893F88030012B06D17B68E4
:102250004FF000021A617868FFF73CFE7B681B684C
:102260004FF00802DA603B691B6803F02003002B83
:1022700049D07868FFF79EFE7B681B6B7B617B68AB
:102280001B6A002B1CD07B684FF000025A627B68EF
:102290004FF000025A617B684FF000029A617B6840
:1022A0004FF00002DA617B681B684FF01002DA60C1
:1022B0007B681B687A681268926A42F010029A6220
:1022C0007B684FF000021A617B681B687A681268AD
:1022D000D26A42F00C02DA627868FFF7FBFD7B6895
:1022E0004FF000021A637B68DB6F002B06D07B681F
:1022F000DB6F7A68926A1046796998477B681B6839
:102300004FF02002DA6007F11807BD4680BD00BF1C
:10231000684620F007018D4689B500AF43F64010AE
:10232000C2F20000FFF79CFE4FF00C00FFF798FA96
:10233000BD46BDE889408546704700BF684620F02D
:1023400007018D4689B500AF43F6BC00C2F200001C
:10235000FFF786FE4FF00D00FFF782FABD46BDE89D
:1023600089408546704700BF80B483B000AF034604
:10237000FB804EF20013CEF20003B7F906204FEABD
:102380005212F98801F01F014FF0010000FA01F12B
:1023900002F1600243F8221007F10C07BD4680BC31
:1023A000704700BF80B582B000AF42F20003CEF2AA
:1023B000040342F20002CEF20402126B42F48042A5
:1023C0001A634FF000037B600EE07A6843F2A46367
:1023D000C2F2000333F812301BB21846FFF7C4FFF5
:1023E0007B6803F101037B607B681F2BEDD942F210
:1023F0000003CEF2040342F20002CEF20402126B9A
:1024000022F480421A6307F10807BD4680BD00BF71
:1024100080B485B000AF03463960FB71FB79FB6087
:10242000FB681F2B00D900BEFB681F2B08D8FA6879
:1024300043F22463C2F2000353F822303A681A6070
:1024400007F11407BD4680BC704700BF80B485B05B
:1024500000AF02460B46FA71BB71FB79FB60FB686B
:102460001F2B00D900BEFB681F2B09D840F20003C8
:10247000C4F22623FA68B97902F5886243F822107B
:1024800007F11407BD4680BC704700BF80B500AFA0
:1024900000F082FA00F088F980BD00BF80B584B0FA
:1024A00000AF78604FF00403FB724FF000033B81F4
:1024B00025E03A8943F2D073C2F200034FEA0212D8
:1024C00013441B68002B16D03A8943F2D073C2F232
:1024D00000034FEA021213441B68786819464FF054
:1024E000100200F0FFFF0346FB60FB68002B02D1E7
:1024F0003B89FB7206E03B8903F101033B813B8989
:10250000032BD6D9FB7A184607F11007BD4680BDCC
:1025100080B485B000AF0346FB71FA7943F2D07303
:10252000C2F200034FEA02121344DB88FB8140F23F
:102530000003C4F20203FA8902F5C06253F82230A4
:102540004FEA1343BB81BB891BB2002B02DA4FF069
:102550000003BB81BB89184607F11407BD4680BC48
:10256000704700BF80B400AFBD4680BC704700BF5D
:1025700080B58AB000AF43F2E463C2F20003BC4608
:102580000FCB8CE80F0042F20003CEF204039B6CE9
:102590004FEA930303F003034FEA830307F1280292
:1025A000134453F8283C3B6142F20003CEF204038B
:1025B0009B6C4FEA131303F003034FEA830307F105
:1025C0002802134453F8283C7B6142F20003CEF208
:1025D00004039B6C4FEA931303F003034FEA830356
:1025E00007F12802134453F8283CBB6142F2000370
:1025F000CEF20403DB6C4FEA132303F01F033B62AC
:1026000042F20003CEF20403DB6C4FEA533303F0D3
:1026100001037B623B6A03F10103FB617B6A002BD0
:1026200003D0FB694FEA4303FB6100F049F802461F
:1026300043F2BC73C2F200031A6043F2BC73C2F2ED
:1026400000031A683B69B2FBF3F243F2C073C2F2B3
:1026500000031A6043F2BC73C2F200031A687B697C
:10266000B2FBF3F243F2C473C2F200031A6043F206
:10267000BC73C2F200031A68BB69B2FBF3F243F207
:10268000C873C2F200031A6043F2BC73C2F20003C3
:102690001A68FB69B2FBF3F243F2CC73C2F2000397
:1026A0001A6043F2BC73C2F200031A6843F2B873B3
:1026B000C2F200031A6007F12807BD4680BD00BFC3
:1026C00080B48BB000AF4FF000037B6040F61C037A
:1026D000C6F20803BB6040F23023C6F20803FB6079
:1026E000FB681B6823F070433B613A6941F2CF13EA
:1026F000C0F2A1539A4208D14EF62C73C6F20103E0
:102700007B617B691B687B603DE0BB681A6844F2B3
:102710004133C4F654439A4235D140F64003C6F2E1
:102720000803BB61BB691B68FB61FB6923F07F4346
:10273000FB61FA6940F20033C0F201039A4222D9E8
:10274000FA694FF6FF73C0F201039A4208D841F2CA
:102750002C63C6F208033B623B6A1B687B6012E095
:10276000FA694FF6FF73C0F202039A4208D841F6A5
:10277000AC63C6F208037B627B6A1B687B6002E085
:102780004FF000037B607B68002B05D100BE47F64D
:102790004003C0F27D137B607B68184607F12C076D
:1027A000BD4680BC704700BF80B487B000AF40F228
:1027B0000003C4F20203D3F8C830FB6040F2000308
:1027C000C4F202034FF00002C3F8C8204FF0000328
:1027D000FB7139E0FB794FEA53037B7440F200024E
:1027E000C4F20202797C0B464FEA43030B444FEAE2
:1027F0000313134403F508731B79BB74FB7903F0CF
:102800000103FB74FB7C002B0DD0F979BB7C4FEAF4
:102810005313DBB21A4602F0030243F61403C2F26A
:1028200000035A540CE0F979BB7C4FEA5303DBB246
:102830001A4602F0030243F61403C2F200035A548C
:10284000FB7903F10103FB71FB79092BC2D94FF02E
:102850000003BB6073E0BA6843F2D073C2F20003B6
:102860004FEA021213441B79BB75BA7D43F25C73C5
:10287000C2F200039B5C3B75BA7D43F22C73C2F23B
:1028800000039B5C012B07D0022B27D0002B47D1E4
:102890004FF00003FB7547E03B7DFF2B00D100BEEE
:1028A00040F20002C4F20202397D0B464FEA4303B4
:1028B0000B444FEA0313134403F508731B7A7B752B
:1028C0007B7D03F00103DBB2002B03D04FF000034C
:1028D000FB7529E04FF00103FB7525E03B7DFF2BE5
:1028E00000D100BE40F20002C4F20202397D0B4664
:1028F0004FEA43030B444FEA0313134403F50A73EF
:102900001B797B757B7D03F00103DBB2002B03D0C9
:102910004FF00003FB7507E04FF00203FB7503E087
:1029200000BE4FF00003FB75BA6843F62003C2F205
:102930000003F97D9954BB6803F10103BB60BB68D8
:10294000032B88DD40F20003C4F20203FA68C3F8E7
:10295000C82007F11C07BD4680BC704780B483B017
:1029600000AF0346FB804EF20013CEF20003B7F92E
:1029700006204FEA5212F98801F01F014FF00100C2
:1029800000FA01F102F1600243F8221007F10C078E
:10299000BD4680BC704700BF80B400AFBD4680BC60
:1029A000704700BF80B483B000AF0346FB7107F1EE
:1029B0000C07BD4680BC7047684620F007018D4675
:1029C00089B500AF4FF00000FFF7ECFF4FF0760045
:1029D000FFF7C4FFBD46BDE889408546704700BF8C
:1029E000684620F007018D4689B500AF4FF0010021
:1029F000FFF7D8FF4FF07700FFF7B0FFBD46BDE807
:102A000089408546704700BF684620F007018D4623
:102A100089B500AF4FF00200FFF7C4FF4FF0780018
:102A2000FFF79CFFBD46BDE889408546704700BF63
:102A3000684620F007018D4689B500AF4FF00300CE
:102A4000FFF7B0FF4FF07900FFF788FFBD46BDE804
:102A500089408546704700BF684620F007018D46D3
:102A600089B500AF4FF00400FFF79CFF4FF07A00EC
:102A7000FFF774FFBD46BDE889408546704700BF3B
:102A8000684620F007018D4689B500AF4FF005007C
:102A9000FFF788FF4FF07B00FFF760FFBD46BDE802
:102AA00089408546704700BF684620F007018D4683
:102AB00089B500AF4FF00600FFF774FF4FF07C00C0
:102AC000FFF74CFFBD46BDE889408546704700BF13
:102AD000684620F007018D4689B500AF4FF007002A
:102AE000FFF760FF4FF07D00FFF738FFBD46BDE800
:102AF00089408546704700BF684620F007018D4633
:102B000089B500AF4FF00800FFF74CFF4FF07E0093
:102B1000FFF724FFBD46BDE889408546704700BFEA
:102B2000684620F007018D4689B500AF4FF00900D7
:102B3000FFF738FF4FF07F00FFF710FFBD46BDE8FD
:102B400089408546704700BF684620F007018D46E2
:102B500089B500AF4FF00A00FFF724FF4FF0800067
:102B6000FFF7FCFEBD46BDE889408546704700BFC3
:102B7000684620F007018D4689B500AF4FF00B0085
:102B8000FFF710FF4FF08100FFF7E8FEBD46BDE8FC
:102B900089408546704700BF684620F007018D4692
:102BA00089B500AF4FF00C00FFF7FCFE4FF082003C
:102BB000FFF7D4FEBD46BDE889408546704700BF9B
:102BC000684620F007018D4689B500AF4FF00D0033
:102BD000FFF7E8FE4FF08300FFF7C0FEBD46BDE8FB
:102BE00089408546704700BF684620F007018D4642
:102BF00089B500AF4FF00E00FFF7D4FE4FF0840010
:102C0000FFF7ACFEBD46BDE889408546704700BF72
:102C1000684620F007018D4689B500AF4FF00F00E0
:102C2000FFF7C0FE4FF08500FFF798FEBD46BDE8F8
:102C300089408546704700BF684620F007018D46F1
:102C400089B500AF4FF01000FFF7ACFE4FF08600E3
:102C5000FFF784FEBD46BDE889408546704700BF4A
:102C6000684620F007018D4689B500AF4FF011008E
:102C7000FFF798FE4FF08700FFF770FEBD46BDE8F6
:102C800089408546704700BF684620F007018D46A1
:102C900089B500AF4FF01200FFF784FE4FF08800B7
:102CA000FFF75CFEBD46BDE889408546704700BF22
:102CB000684620F007018D4689B500AF4FF013003C
:102CC000FFF770FE4FF08900FFF748FEBD46BDE8F4
:102CD00089408546704700BF684620F007018D4651
:102CE00089B500AF4FF01400FFF75CFE4FF08A008B
:102CF000FFF734FEBD46BDE889408546704700BFFA
:102D0000684620F007018D4689B500AF4FF01500E9
:102D1000FFF748FE4FF08B00FFF720FEBD46BDE8F1
:102D200089408546704700BF684620F007018D4600
:102D300089B500AF4FF01600FFF734FE4FF08C005E
:102D4000FFF70CFEBD46BDE889408546704700BFD1
:102D5000684620F007018D4689B500AF4FF0170097
:102D6000FFF720FE4FF08D00FFF7F8FDBD46BDE8F0
:102D700089408546704700BF684620F007018D46B0
:102D800089B500AF4FF01800FFF70CFE4FF08E0032
:102D9000FFF7E4FDBD46BDE889408546704700BFAA
:102DA000684620F007018D4689B500AF4FF0190045
:102DB000FFF7F8FD4FF08F00FFF7D0FDBD46BDE8EF
:102DC00089408546704700BF684620F007018D4660
:102DD00089B500AF4FF01A00FFF7E4FD4FF0900007
:102DE000FFF7BCFDBD46BDE889408546704700BF82
:102DF000684620F007018D4689B500AF4FF01B00F3
:102E0000FFF7D0FD4FF09100FFF7A8FDBD46BDE8EC
:102E100089408546704700BF684620F007018D460F
:102E200089B500AF4FF01C00FFF7BCFD4FF09200DA
:102E3000FFF794FDBD46BDE889408546704700BF59
:102E4000684620F007018D4689B500AF4FF01D00A0
:102E5000FFF7A8FD4FF09300FFF780FDBD46BDE8EA
:102E600089408546704700BF684620F007018D46BF
:102E700089B500AF4FF01E00FFF794FD4FF09400AE
:102E8000FFF76CFDBD46BDE889408546704700BF31
:102E9000684620F007018D4689B500AF4FF01F004E
:102EA000FFF780FD4FF09500FFF758FDBD46BDE8E8
:102EB00089408546704700BF80F0004002E000BFB7
:102EC00081F0004142001FBF5FEA410392EA030F15
:102ED0007FEA226C7FEA236C6AD04FEA1262D2EB5F
:102EE0001363C1BFD218414048404140B8BF5B4264
:102EF000192B88BF704710F0004F40F4000020F0FD
:102F00007F4018BF404211F0004F41F4000121F012
:102F10007F4118BF494292EA030F3FD0A2F101025C
:102F200041FA03FC10EB0C00C3F1200301FA03F19A
:102F300000F0004302D5494260EB4000B0F5000FBD
:102F400013D3B0F1807F06D340084FEA310102F17C
:102F50000102FE2A51D2B1F1004F40EBC25008BF2E
:102F600020F0010040EA03007047490040EB0000F8
:102F700010F4000FA2F10102EDD1B0FA80FCACF127
:102F8000080CB2EB0C0200FA0CF0AABF00EBC25026
:102F900052421843BCBFD0401843704792F0000F14
:102FA00081F4000106BF80F400000132013BB5E767
:102FB0004FEA41037FEA226C18BF7FEA236C21D0DD
:102FC00092EA030F04D092F0000F08BF0846704742
:102FD00090EA010F1CBF0020704712F07F4F04D110
:102FE000400028BF40F00040704712F100723CBF23
:102FF00000F50000704700F0004343F0FE4040F44D
:10300000000070477FEA226216BF08467FEA23630A
:103010000146420206BF5FEA412390EA010F40F4F5
:10302000800070474FF0000304E000BF10F0004341
:1030300048BF40425FEA000C08BF704743F0964328
:1030400001464FF000001CE050EA010208BF704743
:103050004FF000030AE000BF50EA010208BF7047CA
:1030600011F0004302D5404261EB41015FEA010CDF
:1030700002BF84460146002043F0B64308BFA3F1D7
:103080008053A3F50003BCFA8CF2083AA3EBC253B9
:1030900010DB01FA02FC634400FA02FCC2F12002D8
:1030A000BCF1004F20FA02F243EB020008BF20F00F
:1030B0000100704702F1200201FA02FCC2F1200275
:1030C00050EA4C0021FA02F243EB020008BF20EA6A
:1030D000DC7070474FF0FF0C1CEAD0521EBF1CEA98
:1030E000D15392EA0C0F93EA0C0F6FD01A4480EA86
:1030F000010C400218BF5FEA41211ED04FF000636F
:1031000043EA501043EA5111A0FB01310CF000409A
:10311000B1F5000F3EBF490041EAD3715B0040EAC0
:10312000010062F17F02FD2A1DD8B3F1004F40EB90
:10313000C25008BF20F00100704790F0000F0CF063
:10314000004C08BF49024CEA502040EA51207F3A27
:10315000C2BFD2F1FF0340EAC250704740F4000002
:103160004FF00003013A5DDC12F1190FDCBF00F0F3
:1031700000407047C2F10002410021FA02F1C2F1A1
:10318000200200FA02FC5FEA310040F1000053EA3D
:103190004C0308BF20EADC70704792F0000F00F08B
:1031A000004C02BF400010F4000F013AF9D040EA91
:1031B0000C0093F0000F01F0004C02BF490011F425
:1031C000000F013BF9D041EA0C018FE70CEAD15323
:1031D00092EA0C0F18BF93EA0C0F0AD030F0004CA3
:1031E00018BF31F0004CD8D180EA010000F0004057
:1031F000704790F0000F17BF90F0004F084691F015
:10320000000F91F0004F14D092EA0C0F01D142024E
:103210000FD193EA0C0F03D14B0218BF084608D117
:1032200080EA010000F0004040F0FE4040F4000061
:10323000704740F0FE4040F4400070474FF0FF0CF4
:103240001CEAD0521EBF1CEAD15392EA0C0F93EA3B
:103250000C0F69D0A2EB030280EA010C49024FEA8D
:10326000402037D04FF0805343EA111143EA101346
:103270000CF000408B4238BF5B0042F17D024FF4FE
:10328000000C8B4224BF5B1A40EA0C00B3EB510FD9
:1032900024BFA3EB510340EA5C00B3EB910F24BFC2
:1032A000A3EB910340EA9C00B3EBD10F24BFA3EB47
:1032B000D10340EADC001B0118BF5FEA1C1CE0D10F
:1032C000FD2A3FF650AF8B4240EBC25008BF20F0C2
:1032D000010070470CF0004C4CEA50207F32C2BF16
:1032E000D2F1FF0340EAC250704740F400004FF0B3
:1032F0000003013A37E792F0000F00F0004C02BFE4
:10330000400010F4000F013AF9D040EA0C0093F0AD
:10331000000F01F0004C02BF490011F4000F013B07
:10332000F9D041EA0C0195E70CEAD15392EA0C0F6F
:1033300008D142027FF47DAF93EA0C0F7FF470AFA7
:10334000084676E793EA0C0F04D14B023FF44CAFEA
:1033500008466EE730F0004C18BF31F0004CCAD17F
:1033600030F000427FF45CAF31F000437FF43CAFBB
:103370005FE700BF4FEA4002B2F1FE4F0FD34FF0BC
:103380009E03B3EB12620DD94FEA002343F00043D2
:1033900010F0004F23FA02F018BF404270474FF080
:1033A0000000704712F1610F01D1420205D110F007
:1033B000004008BF6FF0004070474FF000007047BA
:1033C00070B543F2A47643F2A475C2F20006C2F2CD
:1033D0000005761BB61006D0002455F824300134C1
:1033E0009847A642F9D843F2A47543F2A876C2F2F0
:1033F0000005C2F20006761B00F0C8F9B61006D030
:10340000002455F8243001349847A642F9D870BDFD
:10341000032AC9B230B407D822B10023C154013302
:103420009342FBD130BC704700EB020C034601E035
:1034300003F8011C03F003041A460133002CF7D1F2
:103440004FF00133C2EB0C0403FB01F31FE042F821
:10345000403C42F83C3C42F8383C42F8343C42F8AC
:10346000303C42F82C3C42F8283C42F8243C42F8DC
:10347000203C42F81C3C42F8183C42F8143C42F80C
:10348000103C42F80C3C42F8083C42F8043C15461B
:1034900040323F2CA4F14004D9DC2A46C5EB0C0491
:1034A00007E042F8103C42F80C3C42F8083C42F875
:1034B000043C154610320F2CA4F11004F1DC2A460E
:1034C000C5EB0C0501E042F8043C14460432032D20
:1034D000A5F10405F7DC01E004F8011B6445FBD30A
:1034E000A0E700BF30B41346002A43D041EA0002EF
:1034F00012F0030F25D1032B04460D463DD9026877
:1035000009688A4239D1043B34D0A2F1013121EA61
:10351000020212F0803F0DD02CE022682968A2F14F
:1035200001308A4220EA020027D1043B22D010F069
:10353000803F1FD104340435032BEED820462946A2
:10354000F3B10478013B91F800C064450FD18BB111
:1035500084B1013B002202E063B15CB1013B8418FD
:103560008D180132647895F801C06445F4D0CCEB35
:10357000040000E0002030BC704720462946E0E708
:10358000247895F800C0CCEB0400F4E7EF03038047
:1035900002CF0300C130ED0464031281E80385000B
:1035A00078CB05392C003402F70120EA020000C074
:1035B0000123C10110C5023E28C7018636014837E4
:1035C00001003A0155B1020018B603088227F20142
:1035D00000260101E00F0F312B0C0E084EF13707CA
:1035E00010030E0900E10F000E1403110731C1484A
:1035F000080F0C31360F11802980000041444344EC
:103600006972656374496E7075745F300000000004
:10361000414443446972656374496E7075745F31E7
:10362000000000000030014004300140083001403B
:103630000C3001401030014014300140183001407E
:103640001C3001402030014024300140283001402E
:103650002C300140303001403430014038300140DE
:103660003C3001404030014044300140483001408E
:103670004C3001405030014054300140583001403E
:103680005C300140603001406430014068300140EE
:103690006C3001407030014074300140783001409E
:1036A0007C3001402000210022002300240025005E
:1036B00026002700280029002A002B002C002D00BE
:1036C0002E002F003000310032003300340035006E
:1036D00036003700380039003A003B003C003D001E
:1036E0003E003F0001000000020000000400000056
:1036F00001000000414443446972656374496E707F
:1037000075745F30000000005344445F30000000D7
:10371000414443446972656374496E7075745F31E6
:10372000000000005344445F31000000000000012D
:10373000020000010200000000FFFF000000000185
:10374000020000010200000000FFFF000000000175
:1037500002FFFFFFFF00000000FFFF00FF0000006E
:103760000001010101FFFFFFFFFFFFFFFF02020257
:103770000203030303FFFFFFFFFFFFFFFF04040437
:1037800004FFFFFFFFFFFFFFFFFFFFFFF8B500BFD4
:10379000F8BC08BC9E467047F8B500BFF8BC08BC32
:0C37A0009E467047850400207104002044
:1037AC000000000068656C6C6F00000040787D01C3
:1037BC0040787D01105E5F00105E5F00105E5F0060
:1037CC00105E5F00F43600200C00100000000000BA
:1037DC0000000000083700200F0019000000000056
:1037EC00000000001037002019002200000000002B
:1037FC0000000000243700201F002B0000000000F8
:04380C0000000000B8
:04000005200002993C
:00000001FF
