:020000042000DA
:100000000000012099020020090300200B030020BA
:100010000D0300200F03002011030020000000004A
:10002000000000000000000000000000130300209A
:100030001503002000000000170300201903002012
:100040001B0300201D0300201F03002021030020AC
:10005000230300202503002027030020290300207C
:100060002B0300202D0300202F030020310300204C
:10007000111A00203D1A0020370300203903002008
:100080003B0300203D0300203F03002041030020EC
:1000900043030020450300204703002049030020BC
:1000A0004B030020000000000000000000000000E2
:1000B0000000000000000000000000004D030020D0
:1000C0004F0300205103002053030020550300205C
:1000D00057030020590300205B0300205D0300202C
:1000E0005F030020610300206303002065030020FC
:1000F00067030020690300206B0300206D030020CC
:100100006F0300207103002073030020750300209B
:1001100077030020790300207B0300207D0300206B
:100120007F0300208103002083030020850300203B
:1001300087030020890300208B0300208D0300200B
:100140008F030020910300209303002095030020DB
:1001500097030020990300209B0300209D030020AB
:100160009F030020A1030020A3030020A50300207B
:10017000A7030020A9030020AB030020AD0300204B
:10018000AF030020B1030020B3030020B50300201B
:10019000B7030020B9030020BB030020BD030020EB
:1001A000BF030020C1030020C3030020C5030020BB
:1001B000C7030020C9030020CB030020CD0300208B
:1001C000CF030020D1030020D3030020D50300205B
:1001D000D7030020D9030020DB030020DD0300202B
:1001E000DF030020E1030020E3030020E5030020FB
:1001F000E7030020E9030020EB030020ED030020CB
:10020000EF030020F1030020F3030020F50300209A
:10021000F7030020F9030020811E0020A91E002002
:10022000D11E0020F91E0020211F0020491F0020A0
:10023000711F0020991F0020C11F0020E91F00200E
:10024000112000203920002061200020892000207A
:10025000B1200020D92000200121002029210020E8
:100260005121002079210020A1210020C921002056
:10027000F1210020192200204122002069220020C3
:1002800091220020B9220020E12200200923002031
:1002900031230020592300206848804768480028FF
:1002A0000BD168486849694A884206D091421CBF10
:1002B00050F8043B41F8043BF8D165486549664A6B
:1002C000884206D091421CBF50F8043B41F8043BE1
:1002D000F8D162486249634A914218BF41F8040B61
:1002E000FAD1000000000000000000000000000043
:1002F000DFF874010FF2030E00474FF000004FF0DB
:100300000001DFF868F1FEE7FEE7FEE7FEE7FEE743
:10031000FEE7FEE7FEE7FEE7FEE7FEE7FEE7FEE7B5
:10032000FEE7FEE7FEE7FEE7FEE7FEE7FEE7FEE7A5
:10033000FEE7FEE7FEE7FEE7FEE7FEE7FEE7FEE795
:10034000FEE7FEE7FEE7FEE7FEE7FEE7FEE7FEE785
:10035000FEE7FEE7FEE7FEE7FEE7FEE7FEE7FEE775
:10036000FEE7FEE7FEE7FEE7FEE7FEE7FEE7FEE765
:10037000FEE7FEE7FEE7FEE7FEE7FEE7FEE7FEE755
:10038000FEE7FEE7FEE7FEE7FEE7FEE7FEE7FEE745
:10039000FEE7FEE7FEE7FEE7FEE7FEE7FEE7FEE735
:1003A000FEE7FEE7FEE7FEE7FEE7FEE7FEE7FEE725
:1003B000FEE7FEE7FEE7FEE7FEE7FEE7FEE7FEE715
:1003C000FEE7FEE7FEE7FEE7FEE7FEE7FEE7FEE705
:1003D000FEE7FEE7FEE7FEE7FEE7FEE7FEE7FEE7F5
:1003E000FEE7FEE7FEE7FEE7FEE7FEE7FEE7FEE7E5
:1003F000FEE7FEE7FEE7FEE7FEE7FEE7FEE7FEE7D5
:10040000FEE7FEE7FEE7FEE7FEE7FEE7FEE7FEE7C4
:10041000FEE7FEE7FEE7FEE7FEE7FEE7FEE7FEE7B4
:10042000FEE7FEE7FEE7FEE7FEE7FEE7FEE7FEE7A4
:10043000FEE7FEE7FEE7FEE7FEE70000651C0020A2
:10044000000000000000002000000020642C0020BC
:10045000642C0020642C0020A82C00200000000048
:10046000A82C0020D02D002089280020A1040020E5
:1004700042F6A843C2F200031A780AB901201870A4
:10048000704700BF42F66440C2F2000008B503683E
:100490002BB140F20003C0F2000303B1984708BD3E
:1004A00080B586B002AF00F019F94FF01F0000F0E0
:1004B00029FB4FF6FF7300934FF005004FF0050145
:1004C0004FF06E024FF0980300F0EEFA4FF6FF7314
:1004D00000934FF005004FF0A5014FF06E024FF072
:1004E000980300F0E1FA4FF6FF7300934FF07800A5
:1004F0004FF005014FF073024FF49C7300F0D4FAF3
:100500004FF0000000F014FB00E000BF00F05AF9CB
:1005100003469BB21BB2C3F1F0037B6000F0B0F95D
:1005200003469BB21BB2C3F5A073BB607B689BB252
:10053000184600F0FDF903469BB21BB2FB60FB6856
:10054000002BE2DB7B689BB2A3F102039AB2BB688B
:100550009BB2A3F102039BB24FF6E07100911046EB
:1005600019464FF004024FF0040300F09DFACDE766
:1005700080B483B000AF0346FB804EF20013CEF28E
:100580000003B7F906204FEA5212F98801F01F0163
:100590004FF0010000FA01F102F1200243F82210AD
:1005A00007F10C07BD4680BC704700BF80B483B024
:1005B00000AF0346FB804EF20013CEF20003B7F902
:1005C00006204FEA5212F98801F01F014FF0010096
:1005D00000FA01F102F1600243F8221007F10C0762
:1005E000BD4680BC704700BF80B582B000AF0346F7
:1005F000FB714FF01400FFF7BBFF42F20003CEF295
:10060000040342F20002CEF20402126B22F0400216
:100610001A6345F20003C4F200034FF000025A656A
:1006200040F20003C4F20A234FF00002C3F8802115
:1006300040F20003C4F20A234FF00002C3F88821FD
:1006400040F20003C4F20A23FA79C3F8842145F288
:100650000003C4F200034FF001021A614FF01400CE
:10066000FFF7A4FF07F10807BD4680BD80B400AFC7
:1006700040F20003C4F20A234FF00102C3F88021C4
:10068000BD4680BC704700BF80B400AF40F200039D
:10069000C4F20A234FF00002C3F88021BD4680BC9B
:1006A000704700BF80B400AF45F20003C4F20003FE
:1006B0001B681846BD4680BC704700BF80B483B03D
:1006C00000AF786045F20003C4F200037A685A6014
:1006D00007F10C07BD4680BC704700BF80B582B0F3
:1006E00000AF42F65423C2F200037B6042F6C440DE
:1006F000C2F2000000F052FC01F0D4F901F046FA19
:100700004FF000004FF0050101F002FA42F6C4205C
:10071000C2F2000001F042FA03461A4642F6C14313
:10072000C2F200031A7042F6D820C2F2000001F0B3
:1007300035FA03461A4642F6C043C2F200031A7065
:100740004FF0080000F060FB00F0A4FB4FF0010048
:1007500000F0A6FA4FF0960000F064FA1DE07B6806
:100760001B78BB707B6803F101037B60BB7803F0EF
:100770007F03FB707A78FB78104679681A4600F0A0
:1007800021FAFB787A6813447B60BB785BB2002B5C
:1007900003DA4FF0960000F045FA7B681B787B7017
:1007A0007B78002B0CBF00230123DBB27A6802F1B7
:1007B00001027A60002BD2D100F078FB07F1080724
:1007C000BD4680BD80B582B000AF4FF006004FF04F
:1007D000000101F0BBF94FF005004FF0020101F0FC
:1007E00097F94FF006004FF0020101F091F94FF038
:1007F00007004FF0050101F08BF94FF008004FF0B2
:10080000050101F085F94FF007004FF0010101F0FB
:100810009DF94FF008004FF0000101F097F94FF0FB
:10082000140000F01FFA42F6C143C2F200031B7825
:10083000184601F0EDF903467B604FF007004FF0DA
:10084000000101F083F9786801F054FE0346184670
:10085000094901F057FF03461846084901F09EFE7A
:100860000346184601F0EAFF03469BB21BB2184646
:1008700007F10807BD4680BD00007F4500007043BA
:1008800080B582B000AF4FF005004FF0050101F0D8
:100890003FF94FF006004FF0050101F039F94FF034
:1008A00007004FF0020101F033F94FF008004FF05C
:1008B000020101F02DF94FF005004FF0010101F0A8
:1008C00045F94FF006004FF0000101F03FF94FF0FD
:1008D000140000F0C7F942F6C043C2F200031B78CF
:1008E000184601F095F903467B604FF005004FF084
:1008F000000101F02BF9786801F0FCFD0346184671
:10090000094901F0FFFE03461846084901F046FE7A
:100910000346184601F092FF03469BB21BB21846ED
:1009200007F10807BD4680BD00007F450000A043D9
:1009300080B586B000AF0346FB804FF005004FF056
:10094000020101F0E5F84FF006004FF0050101F05B
:10095000DFF84FF007004FF0050101F0D9F84FF034
:1009600008004FF0020101F0D3F84FF007004FF0FC
:10097000000101F0EBF84FF006004FF0010101F02B
:10098000E5F842F6C043C2F200031B78184601F0B6
:100990003FF90346FB6042F6C143C2F200031B78F5
:1009A000184601F035F903463B6142F6BC43C2F2FA
:1009B00000031B68002B3AD0386901F09BFD034609
:1009C0007B61F86801F096FD03467869194601F0ED
:1009D00099FE03467B6178691F4901F0D5FC034607
:1009E0007B61FB88184601F085FD0346786919464E
:1009F00001F0D4FD03467B6142F6BC43C2F2000322
:100A00001B68184601F076FD03467869194601F027
:100A1000C5FD03467B617869104901F073FE03460A
:100A20007B61786901F00AFF03467B8107E03B693F
:100A30009AB2FB689BB2C3EB02039BB27B814FF07F
:100A400006004FF0000101F081F87B891BB21846C7
:100A500007F11807BD4680BD0000803F00007F45BC
:100A600080B582B000AF13460246FA800A46BA80CB
:100A70007B8000F00FFAFB8803F101039AB2BB8878
:100A800003F101039BB2F888B98800F073F800F015
:100A900019FA7B88184600F0E1F900F007FA07F12F
:100AA0000807BD4680BD00BF80B586B002AFF880A4
:100AB000B9807A803B80FB88FB8118E0F889B9888F
:100AC000FA89B7F804C03B8863449BB203F1FF3353
:100AD0009BB200B209B212B21BB2B7F818C0CDF87F
:100AE00000C000F0F3F8FB8903F10103FB81FA89F0
:100AF000F9887B880B449A42E0DB07F11007BD467A
:100B000080BD00BF80B584B002AF0346FB80FB8888
:100B100000934FF000004FF000014FF0F0024FF44F
:100B2000A073FFF7C1FF07F10807BD4680BD00BFF6
:100B300080B584B002AF0346FB80FB8800934FF082
:100B400028004FF0C8014FF005024FF01403FFF7E3
:100B5000ABFFFB8800934FF028004FF0D2014FF01D
:100B600023024FF00503FFF79FFF07F10807BD467B
:100B700080BD00BF80B582B000AFF880B9807A80B8
:100B80003B804FF02A0000F08BF8FB88184600F0FD
:100B900065F97B88184600F061F94FF02B0000F0F2
:100BA0007FF8BB88184600F059F93B88184600F0DA
:100BB00055F94FF02C0000F073F807F10807BD4617
:100BC00080BD00BF80B586B000AFB9601346024655
:100BD000FA73FB714FF000037B614FF0080000F0E7
:100BE00013F900F079F9FB7B184600F025F900F0C5
:100BF00069F94FF000037B610CE0BB681B78184675
:100C000000F01AF9BB6803F10103BB607B6903F1D3
:100C100001037B61FA797B699A42EEDC07F11807E0
:100C2000BD4680BD80B582B000AF78604FF0010056
:100C3000FFF7DAFC7A6848F2A063C0F2010303FB15
:100C400002F31846FFF73AFDFFF710FDFFF72AFD04
:100C50000346002BFAD1FFF717FD07F10807BD4641
:100C600080BD00BF80B582B000AF78604FF001005A
:100C7000FFF7BAFC7B684FF0640202FB03F31846EF
:100C8000FFF71CFDFFF7F2FCFFF70CFD0346002BFE
:100C9000FAD1FFF7F9FC07F10807BD4680BD00BF98
:100CA00080B582B000AF0346FB7100F015F94FF03C
:100CB000080000F0A9F8FB79184600F0BDF800F034
:100CC00001F907F10807BD4680BD00BF80B588B0B7
:100CD00000AFF880B9807A803B80B7F90020B7F97F
:100CE0000430C3EB020383EAE372A2EBE372B7F9C9
:100CF0000210B7F90630C3EB0103002BB8BF5B420B
:100D00009A42D4BF00230123FB81B7F90E30002B98
:100D10000BD0FB883B83BB88FB803B8BBB807B88F5
:100D20007B833B887B807B8B3B80B7F90620B7F9C0
:100D300002309A420BDDFB88BB837B88FB80BB8B38
:100D40007B80BB88FB833B88BB80FB8B3B807A88A6
:100D5000FB88C3EB02039BB23B82B7F90020B7F9D3
:100D60000430C3EB0203002BB8BF5B427B82B7F9B0
:100D700010304FEAD37213444FEA6303BB82B7F9D2
:100D80000420B7F900309A4203DA4FF00103FB82E6
:100D900030E04FF6FF73FB822CE0B7F90E30002BEA
:100DA00008D0B988FA883B8D084611461A46FFF7E5
:100DB00057FE07E0F988BA883B8D084611461A4667
:100DC000FFF74EFEBA8A7B8AC3EB02039BB2BB825B
:100DD000B7F91430002B09DABA88FB8A13449BB2A6
:100DE000BB80BA8A3B8A13449BB2BB82FB8803F167
:100DF0000103FB80B7F90620B7F902309A42CCDD37
:100E000007F12007BD4680BD80B584B002AF034620
:100E1000FB71FB79009342F6C440C2F200004FF030
:100E200000014FF000024FF0020300F001FA07F159
:100E30000807BD4680BD00BF80B582B000AF034645
:100E4000FB71FB7942F6C440C2F20000194600F083
:100E50004BFB07F10807BD4680BD00BF80B582B0DF
:100E600000AF0346FB80FB884FEA13239BB242F698
:100E7000C440C2F20000194600F036FBFB8842F67F
:100E8000C440C2F20000194600F02EFB07F108072B
:100E9000BD4680BD80B500AF42F6C440C2F200003E
:100EA0004FF0000100F054FA80BD00BF80B500AFE4
:100EB00042F6C440C2F200004FF0000100F0CCFA4C
:100EC00080BD00BF80B500AF4FF000004FF00101C2
:100ED00000F03CFE80BD00BF80B500AF4FF00000C9
:100EE0004FF0000100F032FE80BD00BF80B483B03F
:100EF00000AF0346FB804EF20013CEF20003B7F9B9
:100F000006204FEA5212F98801F01F014FF001004C
:100F100000FA01F143F8221007F10C07BD4680BC2E
:100F2000704700BF80B483B000AF0346FB804EF231
:100F30000013CEF20003B7F906204FEA5212F988E7
:100F400001F01F014FF0010000FA01F102F120024F
:100F500043F8221007F10C07BD4680BC704700BF64
:100F600080B483B000AF0346FB804EF20013CEF294
:100F70000003B7F906204FEA5212F98801F01F0169
:100F80004FF0010000FA01F102F1600243F8221073
:100F900007F10C07BD4680BC704700BF80B584B028
:100FA00000AF78607A6842F64853C2F200039A4272
:100FB00007D07A6842F6C443C2F200039A4200D0D6
:100FC00000BE7B689B881BB21846FFF7ABFF7868B2
:100FD0004FF000014FF0840201F07EFC7B684FF07F
:100FE00001025A624FF00003FB810DE0FB897A6831
:100FF00003F106034FEAC30313444FF0FF325A6074
:10100000FB8903F10103FB81FB89072BEED97A6889
:1010100042F64853C2F200039A4226D17A6841F25E
:101020000003C4F2000313607B684FF00C029A8047
:1010300042F20003CEF2040342F20002CEF20402B6
:10104000126B42F400721A634FF00C00FFF788FF36
:1010500042F20003CEF2040342F20002CEF2040296
:10106000126B22F400721A6325E07A6841F20003E1
:10107000C4F2010313607B684FF00D029A8042F2C4
:101080000003CEF2040342F20002CEF20402126B1D
:1010900042F480621A634FF00D00FFF761FF42F2E5
:1010A0000003CEF2040342F20002CEF20402126BFD
:1010B00022F480621A637B681B687A68126812687F
:1010C00022F000421A6007F11007BD4680BD00BF44
:1010D00080B58AB000AF78607B681B681B68FB60D6
:1010E0007B681B689B693B617B681B685B687B61F5
:1010F0007B681B689B6ABB617B681B681B6BFB6121
:101100007B681B685B6B3B627B681B68DB697B628F
:101110007A6842F64853C2F200039A422ED17A68A6
:1011200041F20003C4F2000313607B684FF00C022D
:101130009A8042F20003CEF2040342F20002CEF2A1
:101140000402126B42F400721A634FF00C00FFF7B6
:1011500007FF42F20003CEF2040342F20002CEF295
:101160000402126B22F400721A637B681B687A68AF
:101170001268126822F000421A602DE07A6841F28B
:101180000003C4F2010313607B684FF00D029A80E4
:1011900042F20003CEF2040342F20002CEF2040255
:1011A000126B42F480621A634FF00D00FFF7D8FE15
:1011B00042F20003CEF2040342F20002CEF2040235
:1011C000126B22F480621A637B681B687A6812686B
:1011D000126822F000421A60FB6823F00103FB60F2
:1011E0007B681B68FA681A607B681B683A699A61B9
:1011F0007B681B687A695A607B681B687A6812682A
:10120000126842F001021A607B681B68BA699A6230
:101210007B681B68FA691A637B681B683A6A5A63C1
:101220007B681B687A6ADA6107F12807BD4680BDD2
:1012300080B584B000AFF8607A600A46FA72FB703D
:10124000FA6842F64853C2F200039A4207D0FA689D
:1012500042F6C443C2F200039A4200D000BEFB7AB9
:10126000072B00D900BE3B7E202B00D900BEFB68B7
:101270009B881BB21846FFF755FEFB684FF0000233
:1012800083F88020FB681B68FA681268126822F0F5
:1012900001021A60FB681B68FA681268126842F063
:1012A00002021A60FB681B68FA681268126842F052
:1012B00001021A60FB7A072B3FD87B68002B0BD00A
:1012C0007B68B3F1007F07D07B68B3F1807F03D0E8
:1012D0007B68B3F1407F0FD1FA7A796840F202134C
:1012E000C2F2004341EA0303F96802F106024FEA41
:1012F000C2020A4453600EE0FA7A796840F202139F
:10130000C2F2000341EA0303F96802F106024FEA60
:10131000C2020A445360FB7AFA6803F106034FEAFB
:10132000C30313443A7E1A72FB7AFA6803F1060388
:101330004FEAC3031344FA785A72FB689B881BB2C6
:101340001846FFF7D3FD07F11007BD4680BD00BF6B
:1013500080B584B000AF78600B46FB707A6842F6C7
:101360004853C2F200039A4207D07A6842F6C44357
:10137000C2F200039A4200D000BE7B681B681B6863
:1013800003F00203002B00D100BEFB787A6803F162
:1013900006034FEAC30313445B68B3F1FF3F00D178
:1013A00000BE7B689B881BB21846FFF7BBFD7B68BD
:1013B0001B689B6803F00403FB60FB68002B02D0F2
:1013C0007868FFF785FE7B681B687A681268126888
:1013D00022F001021A607B681A68FB78796803F1D1
:1013E00006034FEAC3030B445B6813607B681A680B
:1013F000FB78796803F106034FEAC3030B445B7A79
:1014000093617B681A68FB78796803F106034FEAF9
:10141000C3030B441B7A53607B681B687A681268AD
:10142000126842F001021A607B681B687A681268D1
:10143000D169FA784FF0010000FA02F241EA0202A3
:10144000DA617B689B881BB21846FFF74FFD07F1F6
:101450001007BD4680BD00BF80B584B000AF786086
:101460000B46FB707A6842F64853C2F200039A4278
:1014700007D07A6842F6C443C2F200039A4200D011
:1014800000BE7B681B681B6803F00203002B00D1C1
:1014900000BE7B689B881BB21846FFF743FD7B6844
:1014A0001B689B6803F00403FB60FB68002B02D001
:1014B0007868FFF70DFE7B681B687A681268D1694F
:1014C000FA784FF0010000FA02F26FEA020201EA34
:1014D0000202DA617B689B881BB21846FFF706FDA3
:1014E00007F11007BD4680BD80B487B000AF7860BB
:1014F00039607A6842F64853C2F200039A4207D034
:101500007A6842F6C443C2F200039A4200D000BE99
:101510007B681B681B6803F00203002B00D100BE30
:101520007B681A687B681B68196840F2FF03CFF676
:10153000007301EA030343F4807313607B681B6844
:101540007A681268D26A42F00C02DA627B681B6821
:101550009B6803F04003FB600BE07B681B681B6922
:10156000BB60BB68BB607B681B689B6803F0400383
:10157000FB60FB68002BF0D07B681B683A685A61FF
:101580007B681B689B6803F001037B6105E07B6857
:101590001B689B6803F001037B617B69002BF6D01D
:1015A0007B681B689B6803F002033B6105E07B6876
:1015B0001B689B6803F002033B613B69002BF6D07C
:1015C0007B681B681B69184607F11C07BD4680BC79
:1015D000704700BF80B485B000AF78604FF0000363
:1015E000FB600EE07B681B687A6891687A68126914
:1015F0000A4412785A617B681B6903F101027B6817
:101600001A617B681B689B6803F48073002B05D10B
:101610007B681A697B68DB689A42E3D37B681A6946
:101620007B68DB689A421CD30EE07B681B687A6893
:1016300051697A68D2690A4412785A617B68DB6919
:1016400003F101027B68DA617B681B689B6803F425
:101650008073002B05D17B68DA697B689B699A42AD
:10166000E3D37B685B6A002B1FD07B681A697B68B9
:10167000DB689A4219D37B68DA697B689B699A4276
:1016800013D308E07B681B684FF000025A61FB68C7
:1016900003F10103FB607B681B689B6803F48073A4
:1016A000002B02D1FB681F2BECD907F11407BD46B4
:1016B00080BC704780B584B000AF78607B6893F8D9
:1016C0008030022B15D10CE07B681B681B69FB6026
:1016D0007B685B6F002B04D07B685B6FFA681046F9
:1016E00098477B681B689B6803F04003002BEBD096
:1016F00032E07B6893F88030012B25D117E07B68BE
:101700001B681B69FB607B681A6B7B68DB6A9A420B
:1017100007D27B689A6A7B681B6B1344FA68D2B263
:101720001A707B681B6B03F101027B681A637B688C
:101730001B689B6803F04003002BE0D00CE07B6843
:101740001B681B69FB6000E000BF7B681B689B682F
:1017500003F04003002BF2D007F11007BD4680BD17
:1017600080B586B000AF78607B681B6803F120030A
:101770003B617A6842F64853C2F200039A4207D0AE
:101780007A6842F6C443C2F200039A4200D000BE17
:101790003B691B6803F00203002B52D07B6893F86F
:1017A0008030022B15D10CE07B681B681B69FB6045
:1017B0007B685B6F002B04D07B685B6FFA68104618
:1017C00098477B681B689B6803F04003002BEBD0B5
:1017D00032E07B6893F88030012B25D117E07B68DD
:1017E0001B681B69FB607B681A6B7B68DB6A9A422B
:1017F00007D27B689A6A7B681B6B1344FA68D2B283
:101800001A707B681B6B03F101027B681A637B68AB
:101810001B689B6803F04003002BE0D00CE07B6862
:101820001B681B69FB6000E000BF7B681B689B684E
:1018300003F04003002BF2D07B681B684FF00202DC
:10184000DA603B691B6803F00103DBB2002B12D0A6
:101850007B6893F88030022B05D17B681B687A681F
:10186000926F5A6102E07868FFF7B4FE7B681B68EC
:101870004FF00102DA603B691B6803F01003002B94
:1018800023D07868FFF716FF7B681B6A002B0BD00C
:101890007B681B6A7A68916A7A68126B08461146FF
:1018A00098477868FFF796FE7B684FF001025A620E
:1018B0007B681B687A681268926A22F010029A624A
:1018C0007B681B684FF01002DA603B691B6803F00D
:1018D0000403002B0FD07B681B687A681268D26AF9
:1018E00042F00402DA627868FFF7F2FB7B681B685B
:1018F0004FF00402DA603B691B6803F00803002B19
:1019000031D07B681B687A681268D26A42F008029C
:10191000DA627B6893F88030022B13D17B681A68F7
:101920007B681B68196840F2FF03CFF6007301EA79
:10193000030343F4807313607B681B687A68926FBB
:101940005A610BE07B6893F88030012B06D17B68ED
:101950004FF000021A617868FFF73CFE7B681B6855
:101960004FF00802DA603B691B6803F02003002B8C
:1019700049D07868FFF79EFE7B681B6B7B617B68B4
:101980001B6A002B1CD07B684FF000025A627B68F8
:101990004FF000025A617B684FF000029A617B6849
:1019A0004FF00002DA617B681B684FF01002DA60CA
:1019B0007B681B687A681268926A42F010029A6229
:1019C0007B684FF000021A617B681B687A681268B6
:1019D000D26A42F00C02DA627868FFF7FBFD7B689E
:1019E0004FF000021A637B68DB6F002B06D07B6828
:1019F000DB6F7A68926A1046796998477B681B6842
:101A00004FF02002DA6007F11807BD4680BD00BF25
:101A1000684620F007018D4689B500AF42F6485070
:101A2000C2F20000FFF79CFE4FF00C00FFF798FA9F
:101A3000BD46BDE889408546704700BF684620F036
:101A400007018D4689B500AF42F6C440C2F20000DE
:101A5000FFF786FE4FF00D00FFF782FABD46BDE8A6
:101A600089408546704700BF80B483B000AF03460D
:101A7000FB804EF20013CEF20003B7F906204FEAC6
:101A80005212F98801F01F014FF0010000FA01F134
:101A900002F1600243F8221007F10C07BD4680BC3A
:101AA000704700BF80B582B000AF42F20003CEF2B3
:101AB000040342F20002CEF20402126B42F48042AE
:101AC0001A634FF000037B600EE07A6842F66C33D5
:101AD000C2F2000333F812301BB21846FFF7C4FFFE
:101AE0007B6803F101037B607B681F2BEDD942F219
:101AF0000003CEF2040342F20002CEF20402126BA3
:101B000022F480421A6307F10807BD4680BD00BF7A
:101B100080B485B000AF03463960FB71FB79FB6090
:101B2000FB681F2B00D900BEFB681F2B08D8FA6882
:101B300042F6EC23C2F2000353F822303A681A60EE
:101B400007F11407BD4680BC704700BF80B485B064
:101B500000AF02460B46FA71BB71FB79FB60FB6874
:101B60001F2B00D900BEFB681F2B09D840F20003D1
:101B7000C4F22623FA68B97902F5886243F8221084
:101B800007F11407BD4680BC704700BF80B500AFA9
:101B900000F066F900F06CF880BD00BF80B584B03D
:101BA00000AF78604FF00403FB724FF000033B81FD
:101BB00025E03A8942F66843C2F200034FEA021276
:101BC00013441B68002B16D03A8942F66843C2F2D0
:101BD00000034FEA021213441B68786819464FF05D
:101BE000100200F0E3FE0346FB60FB68002B02D10D
:101BF0003B89FB7206E03B8903F101033B813B8992
:101C0000032BD6D9FB7A184607F11007BD4680BDD5
:101C100080B485B000AF0346FB71FA7942F66843A1
:101C2000C2F200034FEA02121344DB88FB8140F248
:101C30000003C4F20203FA8902F5C06253F82230AD
:101C40004FEA1343BB81BB891BB2002B02DA4FF072
:101C50000003BB81BB89184607F11407BD4680BC51
:101C6000704700BF80B400AFBD4680BC704700BF66
:101C700080B487B000AF40F20003C4F20203D3F88F
:101C8000C830FB6040F20003C4F202034FF00002D0
:101C9000C3F8C8204FF00003FB7139E0FB794FEA2D
:101CA00053037B7440F20002C4F20202797C0B46BB
:101CB0004FEA43030B444FEA0313134403F508733D
:101CC0001B79BB74FB7903F00103FB74FB7C002BD5
:101CD0000DD0F979BB7C4FEA5313DBB21A4602F000
:101CE000030242F6AC43C2F200035A540CE0F97905
:101CF000BB7C4FEA5303DBB21A4602F0030242F602
:101D0000AC43C2F200035A54FB7903F10103FB71A7
:101D1000FB79092BC2D94FF00003BB6073E0BA68AE
:101D200042F66843C2F200034FEA021213441B79E1
:101D3000BB75BA7D42F61443C2F200039B5C3B754F
:101D4000BA7D42F6E433C2F200039B5C012B07D05C
:101D5000022B27D0002B47D14FF00003FB7547E043
:101D60003B7DFF2B00D100BE40F20002C4F2020214
:101D7000397D0B464FEA43030B444FEA03131344E8
:101D800003F508731B7A7B757B7D03F00103DBB2DF
:101D9000002B03D04FF00003FB7529E04FF0010347
:101DA000FB7525E03B7DFF2B00D100BE40F2000219
:101DB000C4F20202397D0B464FEA43030B444FEA5B
:101DC0000313134403F50A731B797B757B7D03F0C2
:101DD0000103DBB2002B03D04FF00003FB7507E0DB
:101DE0004FF00203FB7503E000BE4FF00003FB75EC
:101DF000BA6842F6B843C2F20003F97D9954BB6851
:101E000003F10103BB60BB68032B88DD40F20003D4
:101E1000C4F20203FA68C3F8C82007F11C07BD46E4
:101E200080BC704780B483B000AF0346FB804EF2A5
:101E30000013CEF20003B7F906204FEA5212F988D8
:101E400001F01F014FF0010000FA01F102F1600200
:101E500043F8221007F10C07BD4680BC704700BF55
:101E600080B400AFBD4680BC704700BF80B483B073
:101E700000AF0346FB7107F10C07BD4680BC7047FD
:101E8000684620F007018D4689B500AF4FF000008D
:101E9000FFF7ECFF4FF07600FFF7C4FFBD46BDE84B
:101EA00089408546704700BF684620F007018D468F
:101EB00089B500AF4FF00100FFF7D8FF4FF0770072
:101EC000FFF7B0FFBD46BDE889408546704700BFBB
:101ED000684620F007018D4689B500AF4FF002003B
:101EE000FFF7C4FF4FF07800FFF79CFFBD46BDE849
:101EF00089408546704700BF684620F007018D463F
:101F000089B500AF4FF00300FFF7B0FF4FF0790045
:101F1000FFF788FFBD46BDE889408546704700BF92
:101F2000684620F007018D4689B500AF4FF00400E8
:101F3000FFF79CFF4FF07A00FFF774FFBD46BDE846
:101F400089408546704700BF684620F007018D46EE
:101F500089B500AF4FF00500FFF788FF4FF07B0019
:101F6000FFF760FFBD46BDE889408546704700BF6A
:101F7000684620F007018D4689B500AF4FF0060096
:101F8000FFF774FF4FF07C00FFF74CFFBD46BDE844
:101F900089408546704700BF684620F007018D469E
:101FA00089B500AF4FF00700FFF760FF4FF07D00ED
:101FB000FFF738FFBD46BDE889408546704700BF42
:101FC000684620F007018D4689B500AF4FF0080044
:101FD000FFF74CFF4FF07E00FFF724FFBD46BDE842
:101FE00089408546704700BF684620F007018D464E
:101FF00089B500AF4FF00900FFF738FF4FF07F00C1
:10200000FFF710FFBD46BDE889408546704700BF19
:10201000684620F007018D4689B500AF4FF00A00F1
:10202000FFF724FF4FF08000FFF7FCFEBD46BDE840
:1020300089408546704700BF684620F007018D46FD
:1020400089B500AF4FF00B00FFF710FF4FF0810094
:10205000FFF7E8FEBD46BDE889408546704700BFF2
:10206000684620F007018D4689B500AF4FF00C009F
:10207000FFF7FCFE4FF08200FFF7D4FEBD46BDE83F
:1020800089408546704700BF684620F007018D46AD
:1020900089B500AF4FF00D00FFF7E8FE4FF0830069
:1020A000FFF7C0FEBD46BDE889408546704700BFCA
:1020B000684620F007018D4689B500AF4FF00E004D
:1020C000FFF7D4FE4FF08400FFF7ACFEBD46BDE83D
:1020D00089408546704700BF684620F007018D465D
:1020E00089B500AF4FF00F00FFF7C0FE4FF085003D
:1020F000FFF798FEBD46BDE889408546704700BFA2
:10210000684620F007018D4689B500AF4FF01000FA
:10211000FFF7ACFE4FF08600FFF784FEBD46BDE83A
:1021200089408546704700BF684620F007018D460C
:1021300089B500AF4FF01100FFF798FE4FF0870010
:10214000FFF770FEBD46BDE889408546704700BF79
:10215000684620F007018D4689B500AF4FF01200A8
:10216000FFF784FE4FF08800FFF75CFEBD46BDE838
:1021700089408546704700BF684620F007018D46BC
:1021800089B500AF4FF01300FFF770FE4FF08900E4
:10219000FFF748FEBD46BDE889408546704700BF51
:1021A000684620F007018D4689B500AF4FF0140056
:1021B000FFF75CFE4FF08A00FFF734FEBD46BDE836
:1021C00089408546704700BF684620F007018D466C
:1021D00089B500AF4FF01500FFF748FE4FF08B00B8
:1021E000FFF720FEBD46BDE889408546704700BF29
:1021F000684620F007018D4689B500AF4FF0160004
:10220000FFF734FE4FF08C00FFF70CFEBD46BDE833
:1022100089408546704700BF684620F007018D461B
:1022200089B500AF4FF01700FFF720FE4FF08D008B
:10223000FFF7F8FDBD46BDE889408546704700BF01
:10224000684620F007018D4689B500AF4FF01800B1
:10225000FFF70CFE4FF08E00FFF7E4FDBD46BDE832
:1022600089408546704700BF684620F007018D46CB
:1022700089B500AF4FF01900FFF7F8FD4FF08F0060
:10228000FFF7D0FDBD46BDE889408546704700BFD9
:10229000684620F007018D4689B500AF4FF01A005F
:1022A000FFF7E4FD4FF09000FFF7BCFDBD46BDE831
:1022B00089408546704700BF684620F007018D467B
:1022C00089B500AF4FF01B00FFF7D0FD4FF0910034
:1022D000FFF7A8FDBD46BDE889408546704700BFB1
:1022E000684620F007018D4689B500AF4FF01C000D
:1022F000FFF7BCFD4FF09200FFF794FDBD46BDE82F
:1023000089408546704700BF684620F007018D462A
:1023100089B500AF4FF01D00FFF7A8FD4FF0930007
:10232000FFF780FDBD46BDE889408546704700BF88
:10233000684620F007018D4689B500AF4FF01E00BA
:10234000FFF794FD4FF09400FFF76CFDBD46BDE82C
:1023500089408546704700BF684620F007018D46DA
:1023600089B500AF4FF01F00FFF780FD4FF09500DB
:10237000FFF758FDBD46BDE889408546704700BF60
:1023800080F0004002E000BF81F0004142001FBF2A
:102390005FEA410392EA030F7FEA226C7FEA236C33
:1023A0006AD04FEA1262D2EB1363C1BFD218414028
:1023B00048404140B8BF5B42192B88BF704710F0BE
:1023C000004F40F4000020F07F4018BF404211F061
:1023D000004F41F4000121F07F4118BF494292EAC9
:1023E000030F3FD0A2F1010241FA03FC10EB0C00F5
:1023F000C3F1200301FA03F100F0004302D5494282
:1024000060EB4000B0F5000F13D3B0F1807F06D32E
:1024100040084FEA310102F10102FE2A51D2B1F126
:10242000004F40EBC25008BF20F0010040EA03001B
:102430007047490040EB000010F4000FA2F10102C8
:10244000EDD1B0FA80FCACF1080CB2EB0C0200FA52
:102450000CF0AABF00EBC25052421843BCBFD040A0
:102460001843704792F0000F81F4000106BF80F41A
:1024700000000132013BB5E74FEA41037FEA226CDD
:1024800018BF7FEA236C21D092EA030F04D092F0A8
:10249000000F08BF0846704790EA010F1CBF0020DC
:1024A000704712F07F4F04D1400028BF40F0004039
:1024B000704712F100723CBF00F50000704700F059
:1024C000004343F0FE4040F4000070477FEA226280
:1024D00016BF08467FEA23630146420206BF5FEA51
:1024E000412390EA010F40F4800070474FF0000351
:1024F00004E000BF10F0004348BF40425FEA000C18
:1025000008BF704743F0964301464FF000001CE0BF
:1025100050EA010208BF70474FF000030AE000BF15
:1025200050EA010208BF704711F0004302D5404253
:1025300061EB41015FEA010C02BF844601460020C5
:1025400043F0B64308BFA3F18053A3F50003BCFAE0
:102550008CF2083AA3EBC25310DB01FA02FC63448D
:1025600000FA02FCC2F12002BCF1004F20FA02F294
:1025700043EB020008BF20F00100704702F1200287
:1025800001FA02FCC2F1200250EA4C0021FA02F2E8
:1025900043EB020008BF20EADC7070474FF0FF0CED
:1025A0001CEAD0521EBF1CEAD15392EA0C0F93EAE8
:1025B0000C0F6FD01A4480EA010C400218BF5FEA8A
:1025C00041211ED04FF0006343EA501043EA5111FD
:1025D000A0FB01310CF00040B1F5000F3EBF4900F7
:1025E00041EAD3715B0040EA010062F17F02FD2AFB
:1025F0001DD8B3F1004F40EBC25008BF20F00100DE
:10260000704790F0000F0CF0004C08BF49024CEAF4
:10261000502040EA51207F3AC2BFD2F1FF0340EA86
:10262000C250704740F400004FF00003013A5DDCF7
:1026300012F1190FDCBF00F000407047C2F1000238
:10264000410021FA02F1C2F1200200FA02FC5FEA25
:10265000310040F1000053EA4C0308BF20EADC706F
:10266000704792F0000F00F0004C02BF400010F4E1
:10267000000F013AF9D040EA0C0093F0000F01F08E
:10268000004C02BF490011F4000F013BF9D041EAB0
:102690000C018FE70CEAD15392EA0C0F18BF93EAB2
:1026A0000C0F0AD030F0004C18BF31F0004CD8D1DC
:1026B00080EA010000F00040704790F0000F17BF63
:1026C00090F0004F084691F0000F91F0004F14D0A9
:1026D00092EA0C0F01D142020FD193EA0C0F03D101
:1026E0004B0218BF084608D180EA010000F0004004
:1026F00040F0FE4040F40000704740F0FE4040F4DF
:10270000400070474FF0FF0C1CEAD0521EBF1CEA7D
:10271000D15392EA0C0F93EA0C0F69D0A2EB03029B
:1027200080EA010C49024FEA402037D04FF0805335
:1027300043EA111143EA10130CF000408B4238BFFA
:102740005B0042F17D024FF4000C8B4224BF5B1A08
:1027500040EA0C00B3EB510F24BFA3EB510340EA56
:102760005C00B3EB910F24BFA3EB910340EA9C0004
:10277000B3EBD10F24BFA3EBD10340EADC001B0174
:1027800018BF5FEA1C1CE0D1FD2A3FF650AF8B4218
:1027900040EBC25008BF20F0010070470CF0004C25
:1027A0004CEA50207F32C2BFD2F1FF0340EAC25050
:1027B000704740F400004FF00003013A37E792F011
:1027C000000F00F0004C02BF400010F4000F013A6F
:1027D000F9D040EA0C0093F0000F01F0004C02BF6A
:1027E000490011F4000F013BF9D041EA0C0195E7D3
:1027F0000CEAD15392EA0C0F08D142027FF47DAF6C
:1028000093EA0C0F7FF470AF084676E793EA0C0F5B
:1028100004D14B023FF44CAF08466EE730F0004C59
:1028200018BF31F0004CCAD130F000427FF45CAFE9
:1028300031F000437FF43CAF5FE700BF4FEA400256
:10284000B2F1FE4F0FD34FF09E03B3EB12620DD9DE
:102850004FEA002343F0004310F0004F23FA02F048
:1028600018BF404270474FF00000704712F1610FEF
:1028700001D1420205D110F0004008BF6FF00040C6
:1028800070474FF00000704770B542F65C4642F664
:102890005C45C2F20006C2F20005761BB61006D0F7
:1028A000002455F8243001349847A642F9D842F65E
:1028B0005C4542F66046C2F20005C2F20006761B95
:1028C00000F0C0F9B61006D0002455F824300134C9
:1028D0009847A642F9D870BD032AC9B230B407D8C8
:1028E00022B10023C15401339342FBD130BC704765
:1028F00000EB020C034601E003F8011C03F00304A3
:102900001A460133002CF7D14FF00133C2EB0C040F
:1029100003FB01F31FE042F8403C42F83C3C42F824
:10292000383C42F8343C42F8303C42F82C3C42F807
:10293000283C42F8243C42F8203C42F81C3C42F837
:10294000183C42F8143C42F8103C42F80C3C42F867
:10295000083C42F8043C154640323F2CA4F14004A8
:10296000D9DC2A46C5EB0C0407E042F8103C42F8DB
:102970000C3C42F8083C42F8043C154610320F2C3F
:10298000A4F11004F1DC2A46C5EB0C0501E042F885
:10299000043C14460432032DA5F10405F7DC01E0E4
:1029A00004F8011B6445FBD3A0E700BF30B4134615
:1029B000002A43D041EA000212F0030F25D1032B75
:1029C00004460D463DD9026809688A4239D1043B64
:1029D00034D0A2F1013121EA020212F0803F0DD081
:1029E0002CE022682968A2F101308A4220EA020024
:1029F00027D1043B22D010F0803F1FD1043404358E
:102A0000032BEED820462946F3B10478013B91F818
:102A100000C064450FD18BB184B1013B002202E0BC
:102A200063B15CB1013B84188D180132647895F86C
:102A300001C06445F4D0CCEB040000E0002030BCC1
:102A4000704720462946E0E7247895F800C0CCEB93
:102A50000400F4E7EF03038002CF0300C130ED046C
:102A600064031281E803850078CB05392C00340219
:102A7000F70120EA020000C00123C10110C5023E97
:102A800028C701863601483701003A0155B10200D6
:102A900018B603088227F20100260101E00F0F316A
:102AA0002B0C0E084EF1370710030E0900E10F0042
:102AB0000E1403110731C148080F0C31360F118075
:102AC00029800000414443446972656374496E7013
:102AD00075745F30000000004144434469726563CF
:102AE00074496E7075745F31000000000030014061
:102AF00004300140083001400C30014010300140EA
:102B000014300140183001401C3001402030014099
:102B100024300140283001402C3001403030014049
:102B200034300140383001403C30014040300140F9
:102B300044300140483001404C30014050300140A9
:102B400054300140583001405C3001406030014059
:102B500064300140683001406C3001407030014009
:102B600074300140783001407C3001402000210069
:102B70002200230024002500260027002800290029
:102B80002A002B002C002D002E002F0030003100D9
:102B90003200330034003500360037003800390089
:102BA0003A003B003C003D003E003F0041444344AE
:102BB0006972656374496E7075745F30000000005F
:102BC0005344445F300000004144434469726563EC
:102BD00074496E7075745F31000000005344445FA7
:102BE00031000000000000010200000102000000AE
:102BF00000FFFF00000000010200000102000000D1
:102C000000FFFF000000000102FFFFFFFF000000C7
:102C100000FFFF00FF0000000001010101FFFFFFB6
:102C2000FFFFFFFFFF0202020203030303FFFFFF98
:102C3000FFFFFFFFFF04040404FFFFFFFFFFFFFF90
:102C4000FFFFFFFFF8B500BFF8BC08BC9E46704709
:102C5000F8B500BFF8BC08BC9E467047850400204C
:042C600071040020DB
:102C640000000000AC2B00200C001000000000004D
:102C740000000000C02B00200F001900000000001D
:102C840000000000C82B00201900220000000000F2
:102C940000000000DC2B00201F002B0000000000BF
:042CA400000000002C
:04000005200002993C
:00000001FF
