:020000042000DA
:100000000000012099020020090300200B030020BA
:100010000D0300200F03002011030020000000004A
:10002000000000000000000000000000130300209A
:100030001503002000000000170300201903002012
:100040001B0300201D0300201F03002021030020AC
:10005000230300202503002027030020290300207C
:100060002B0300202D0300203518002065180020E8
:1000700099200020C9200020C1270020390300203A
:100080003B030020F12700203F0300204103002014
:1000900043030020450300204703002049030020BC
:1000A0004B030020000000000000000000000000E2
:1000B0000000000000000000000000004D030020D0
:1000C0004F0300205103002053030020550300205C
:1000D00057030020590300205B0300205D0300202C
:1000E0005F030020610300206303002065030020FC
:1000F00067030020690300206B0300206D030020CC
:100100006F0300207103002073030020750300209B
:1001100077030020790300207B0300207D0300206B
:100120007F0300208103002083030020850300203B
:1001300087030020890300208B0300208D0300200B
:100140008F030020910300209303002095030020DB
:1001500097030020990300209B0300209D030020AB
:100160009F030020A1030020A3030020A50300207B
:10017000A7030020A9030020AB030020AD0300204B
:10018000AF030020B1030020B3030020B50300201B
:10019000B7030020B9030020BB030020BD030020EB
:1001A000BF030020C1030020C3030020C5030020BB
:1001B000C7030020C9030020CB030020CD0300208B
:1001C000CF030020D1030020D3030020D50300205B
:1001D000D7030020D9030020DB030020DD0300202B
:1001E000DF030020E1030020E3030020E5030020FB
:1001F000E7030020E9030020EB030020ED030020CB
:10020000EF030020F1030020F3030020F50300209A
:10021000F7030020F9030020412E0020612E00206A
:10022000812E0020A12E0020C12E0020E12E0020D2
:10023000012F0020212F0020412F0020612F0020BE
:10024000812F0020A12F0020C12F0020E12F0020AE
:10025000013000202130002041300020613000209A
:1002600081300020A1300020C1300020E13000208A
:100270000131002021310020413100206131002076
:1002800081310020A1310020C1310020E131002066
:100290000132002021320020684880476848002849
:1002A0000BD168486849694A884206D091421CBF10
:1002B00050F8043B41F8043BF8D165486549664A6B
:1002C000884206D091421CBF50F8043B41F8043BE1
:1002D000F8D162486249634A914218BF41F8040B61
:1002E000FAD1000000000000000000000000000043
:1002F000DFF874010FF2030E00474FF000004FF0DB
:100300000001DFF868F1FEE7FEE7FEE7FEE7FEE743
:10031000FEE7FEE7FEE7FEE7FEE7FEE7FEE7FEE7B5
:10032000FEE7FEE7FEE7FEE7FEE7FEE7FEE7FEE7A5
:10033000FEE7FEE7FEE7FEE7FEE7FEE7FEE7FEE795
:10034000FEE7FEE7FEE7FEE7FEE7FEE7FEE7FEE785
:10035000FEE7FEE7FEE7FEE7FEE7FEE7FEE7FEE775
:10036000FEE7FEE7FEE7FEE7FEE7FEE7FEE7FEE765
:10037000FEE7FEE7FEE7FEE7FEE7FEE7FEE7FEE755
:10038000FEE7FEE7FEE7FEE7FEE7FEE7FEE7FEE745
:10039000FEE7FEE7FEE7FEE7FEE7FEE7FEE7FEE735
:1003A000FEE7FEE7FEE7FEE7FEE7FEE7FEE7FEE725
:1003B000FEE7FEE7FEE7FEE7FEE7FEE7FEE7FEE715
:1003C000FEE7FEE7FEE7FEE7FEE7FEE7FEE7FEE705
:1003D000FEE7FEE7FEE7FEE7FEE7FEE7FEE7FEE7F5
:1003E000FEE7FEE7FEE7FEE7FEE7FEE7FEE7FEE7E5
:1003F000FEE7FEE7FEE7FEE7FEE7FEE7FEE7FEE7D5
:10040000FEE7FEE7FEE7FEE7FEE7FEE7FEE7FEE7C4
:10041000FEE7FEE7FEE7FEE7FEE7FEE7FEE7FEE7B4
:10042000FEE7FEE7FEE7FEE7FEE7FEE7FEE7FEE7A4
:10043000FEE7FEE7FEE7FEE7FEE70000092C0020EE
:1004400000000000000000200000002040410020CB
:1004500040410020404100209C410020000000005D
:100460009C41002040440020553D0020A104002074
:1004700044F29C13C2F200031A780AB901201870E2
:10048000704700BF44F24010C2F2000008B5036894
:100490002BB140F20003C0F2000303B1984708BD3E
:1004A00090B589B002AF4FF0FF33FB6044F20020FB
:1004B000C2F200004FF461414FF0030201F0EAF98B
:1004C00044F20020C2F2000041F20D51C2F20001DC
:1004D0004FF0000201F05CF900F090FA4FF01F00BD
:1004E00000F070FC4FF6FF7300934FF005004FF0E3
:1004F00005014FF06E024FF0980300F0F5FB4FF648
:10050000FF7300934FF005004FF0A5014FF06E020E
:100510004FF0980300F0E8FB4FF6FF7300934FF0A5
:1005200078004FF005014FF073024FF49C7300F018
:10053000DBFB4FF0000000F07FFC4FF0000000F00C
:100540009DFC4FF0000000F0C7FCA7E000F09CFB12
:100550000346002B00F0A2809AE044F2B010C2F2F1
:10056000000044F2BA11C2F2000144F2B812C2F221
:10057000000200F037FB44F2B013C2F200031B8804
:10058000184602F0AFFF02460B4610461946BCA3C0
:10059000D3E9002303F036F902460B46104619460C
:1005A00003F018FA03463B613869B74903F062FA71
:1005B00003463B61386903F0ADFB03469AB244F24F
:1005C000B013C2F200031A8044F2BA13C2F200035D
:1005D0001B88184602F086FF02460B461046194655
:1005E000A7A3D3E9002303F00DF902460B461046FA
:1005F000194603F0EFF903463B613869A34903F05C
:1006000039FA03463B61386903F084FB03469AB22A
:1006100044F2BA13C2F200031A8044F2B013C2F2D9
:1006200000031B88C3F1F0039AB244F2B013C2F284
:1006300000031A8044F2BA13C2F200031B88C3F508
:10064000A0739AB244F2BA13C2F200031A8044F2C1
:10065000B013C2F200031B88782B03D94FF00003BC
:10066000FB6015E044F2BA13C2F200031B88A02B12
:1006700007D94FF00103FB604FF0000000F0A2FB30
:1006800006E04FF00203FB604FF6FF7000F09AFBAC
:1006900000F052FE0346002B3FF45FAFFB68B3F15E
:1006A000FF3F3FF453AFFB68002B13D14FF01F0007
:1006B00000F088FB0FE044F2B010C2F2000044F2F8
:1006C000BA11C2F2000144F2B812C2F2000200F004
:1006D00089FA00E000BF00F02FFE0346002BEAD0AD
:1006E00000E000BFFB68002BFBD100F0CDFA034611
:1006F000002B00F0BD8000F01FFE0346002B40F0F1
:10070000B78044F2B010C2F2000044F2BA11C2F253
:10071000000144F2B812C2F2000200F063FA44F29F
:10072000B013C2F200031B88184602F0DBFE02463B
:100730000B461046194652A3D3E9002303F062F892
:1007400002460B461046194603F044F903467B6106
:1007500078694D4903F08EF903467B61786903F0AF
:10076000D9FA03469AB244F2B013C2F200031A80D7
:1007700044F2BA13C2F200031B88184602F0B2FE1C
:1007800002460B46104619463DA3D3E9002303F069
:1007900039F802460B461046194603F01BF903468A
:1007A0007B617869394903F065F903467B617869B3
:1007B00003F0B0FA03469AB244F2BA13C2F200034D
:1007C0001A8044F2B013C2F200031B88C3F1F00395
:1007D0009AB244F2B013C2F200031A8044F2BA1380
:1007E000C2F200031B88C3F5A0739AB244F2BA1395
:1007F000C2F200031A8044F2B013C2F200031A8856
:1008000044F2BA13C2F200031B884FF6E071009164
:10081000104619464FF006024FF0060300F0A4FA06
:1008200044F2B013C2F200031B88184600F090FD9A
:1008300003461C4644F2BA13C2F200031B88184652
:1008400000F0B6FD03464FF000023A714FF000028F
:100850007A714FF00002BA712246FA713B7207F1C9
:10086000040318464FF005014FF0000200F0D0FDE0
:100870004FF0010000F0B6FB34E700BFAFF300809B
:10088000000000000040AF40000070430000A043A3
:1008900080B483B000AF0346FB804EF20013CEF26B
:1008A0000003B7F906204FEA5212F98801F01F0140
:1008B0004FF0010000FA01F102F1200243F822108A
:1008C00007F10C07BD4680BC704700BF80B483B001
:1008D00000AF0346FB804EF20013CEF20003B7F9DF
:1008E00006204FEA5212F98801F01F014FF0010073
:1008F00000FA01F102F1600243F8221007F10C073F
:10090000BD4680BC704700BF80B582B000AF0346D3
:10091000FB714FF01400FFF7BBFF42F20003CEF271
:10092000040342F20002CEF20402126B22F04002F3
:100930001A6345F20003C4F200034FF000025A6547
:1009400040F20003C4F20A234FF00002C3F88021F2
:1009500040F20003C4F20A234FF00002C3F88821DA
:1009600040F20003C4F20A23FA79C3F8842145F265
:100970000003C4F200034FF001021A614FF01400AB
:10098000FFF7A4FF07F10807BD4680BD80B400AFA4
:1009900040F20003C4F20A234FF00102C3F88021A1
:1009A000BD4680BC704700BF80B400AF40F200037A
:1009B000C4F20A234FF00002C3F88021BD4680BC78
:1009C000704700BF80B400AF45F20003C4F20003DB
:1009D0001B681846BD4680BC704700BF80B483B01A
:1009E00000AF786045F20003C4F200037A685A60F1
:1009F00007F10C07BD4680BC704700BF80B594B0BE
:100A000000AF43F62073C2F20003FB6444F25020AF
:100A1000C2F2000001F070FB44F2CC30C2F20000E0
:100A20004FF041014FF0040201F0E6FF02F072F8CE
:100A300002F0DCF84FF000004FF0050102F09AF8E8
:100A400043F69070C2F2000002F0AEF803461A4678
:100A500044F2BC13C2F200031A7043F6A470C2F24F
:100A6000000002F0A1F803461A4644F2B913C2F29C
:100A700000031A704FF0080000F088FB00F0CCFB78
:100A80004FF0010000F0CEFA4FF0960000F0AAFA05
:100A900024E0FB6C1B7887F84930FB6C03F1010301
:100AA000FB6497F8493003F07F0387F84A3097F8E2
:100AB000482097F84A301046F96C1A4600F062FA5E
:100AC00097F84A30FA6C1344FB6497F849305BB2EC
:100AD000002B03DA4FF0960000F084FAFB6C1B78D1
:100AE00087F8483097F84830002B0CBF00230123CB
:100AF000DBB2FA6C02F10102FA64002BC9D100F0FA
:100B000097FB4FF003004FF0020100F0B1FB4FF0F4
:100B10000A0000F067FA4FF0000387F84B300AE054
:100B200097F84B30184600F0CBFB97F84B3003F1A9
:100B3000010387F84B3097F84B30402BF0D94FF03A
:100B400004004FF0000100F093FB4FF040004FF025
:100B5000010100F08DFB4FF00A004FF0010100F0A1
:100B600087FB4FF020004FF0600100F081FB4FF059
:100B700021004FF0020100F07BFB4FF041004FF0ED
:100B8000A40100F075FB4FF056004FF0060100F095
:100B90006FFB4FF04A004FF0010100F069FB4FF08E
:100BA0004B004FF0010100F063FB4FF04B004FF0A2
:100BB000000100F05DFB4FF058004FF0010100F024
:100BC00057FB4FF00B004FF0FF0100F051FB4FF0CF
:100BD00009004FF0050100F04BFB07F15007BD463F
:100BE00080BD00BF90B587B000AFF860B9607A6093
:100BF0004FF00003FB754FF00003FB7510E0FC7D28
:100C00004FF0D70000F05CFB03461A4607F11801CD
:100C100001EB040303F8082CFB7D03F10103FB75D2
:100C2000FB7D032BEBD93B7C1A46FB681A80FB68E3
:100C30001B884FEA03139AB2FB681A80FB681A8874
:100C40007B7C4FEA1313DBB242EA03039AB2FB68E0
:100C50001A807B7C03F00F03BA681380BB681B8883
:100C60004FEA03239AB2BB681A80BB681A88BB7C20
:100C700042EA03039AB2BB681A80FA7C7B681A7056
:100C800007F11C07BD4690BD80B500AF4FF0400096
:100C900000F016FB034603F08003184680BD00BF3A
:100CA00080B582B000AF13460246FA800A46BA8089
:100CB0007B8000F0B1FAFB8803F101039AB2BB8894
:100CC00003F101039BB2F888B98800F033F900F012
:100CD000BBFA7B88184600F083FA00F0A9FA07F106
:100CE0000807BD4680BD00BF80B584B000AFF88066
:100CF000B9807A803B8000F08FFAFA887B881344B1
:100D00009AB2B9883B880B449BB2F888B98800F046
:100D100011F900F099FAFB88BB6018E0BB88FB6012
:100D200007E03B8B184600F05BFAFB6803F1010318
:100D3000FB60BA883B881A44FB689A42F1DC3B8B23
:100D4000184600F04DFABB6803F10103BB60FA8856
:100D50007B881A44BB689A42E0DC00F069FA07F12C
:100D60001007BD4680BD00BF80B586B002AFF880D9
:100D7000B9807A803B80FB88FB8118E0F889B988CC
:100D8000FA89B7F804C03B8863449BB203F1FF3390
:100D90009BB200B209B212B21BB2B7F818C0CDF8BC
:100DA00000C000F055F9FB8903F10103FB81FA89CA
:100DB000F9887B880B449A42E0DB07F11007BD46B7
:100DC00080BD00BF80B584B000AF0346FB8000F05B
:100DD00023FA4FF000004FF000014FF0EF0240F215
:100DE0003F1300F0A7F800F02FFA4FF00003BB60AC
:100DF00018E04FF00003FB6007E0FB88184600F0A6
:100E0000EFF9FB6803F10103FB60FA6840F23F135E
:100E10009A42F2DDFB88184600F0E2F9BB6803F164
:100E20000103BB60BB68EF2BE3DD00F001FA07F1C3
:100E30001007BD4680BD00BF80B584B002AF034639
:100E4000FB80FB8800934FF028004FF0D2014FF059
:100E500005024FF01903FFF787FFFB8800934FF05F
:100E600028004FF0DC014FF01E024FF00503FFF7A2
:100E70007BFF07F10807BD4680BD00BF80B584B089
:100E800002AF0346FB80FB8800934FF028004FF031
:100E90006E014FF005024FF01403FFF765FFFB886A
:100EA00000934FF028004FF082014FF01E024FF0E8
:100EB0000503FFF759FFFB8800934FF041004FF007
:100EC0006E014FF005024FF01403FFF74DFF07F1DD
:100ED0000807BD4680BD00BF80B584B002AF0346A1
:100EE000FB80FB8800934FF0A0004FF0A0014FF073
:100EF0001E024FF00503FFF737FFFB8800934FF00A
:100F0000A0004FF0A0014FF005024FF01403FFF7CF
:100F10002BFFFB8800934FF0A5004FF0A0014FF08E
:100F200005024FF01403FFF71FFF07F10807BD4646
:100F300080BD00BF80B582B000AFF880B9807A80F4
:100F40003B804FF02A0000F06DF8FB88184600F057
:100F500047F97B88184600F043F94FF02B0000F06A
:100F600061F8BB88184600F03BF93B88184600F052
:100F700037F94FF02C0000F055F807F10807BD468F
:100F800080BD00BF80B586B000AFB9601346024691
:100F9000FA73FB714FF000037B614FF0080000F023
:100FA000F5F800F05BF9FB7B184600F007F900F05C
:100FB0004BF94FF000037B610CE0BB681B781846CF
:100FC00000F0FCF8BB6803F10103BB607B6903F12F
:100FD00001037B61FA797B699A42EEDC07F118071D
:100FE000BD4680BD80B582B000AF78604FF0010093
:100FF000FFF78AFC7A6848F2A063C0F2010303FBA2
:1010000002F31846FFF7EAFCFFF7C0FCFFF7DAFC33
:101010000346002BFAD1FFF7C7FC07F10807BD46CE
:1010200080BD00BF80B582B000AF0346FB7100F009
:1010300015F94FF0080000F0A9F8FB79184600F008
:10104000BDF800F001F907F10807BD4680BD00BFFB
:1010500080B588B000AFF880B9807A803B80B7F95E
:101060000020B7F90430C3EB020383EAE372A2EB7A
:10107000E372B7F90210B7F90630C3EB0103002B96
:10108000B8BF5B429A42D4BF00230123FB81B7F96A
:101090000E30002B0BD0FB883B83BB88FB803B8B47
:1010A000BB807B887B833B887B807B8B3B80B7F9D5
:1010B0000620B7F902309A420BDDFB88BB837B88A0
:1010C000FB80BB8B7B80BB88FB833B88BB80FB8B1F
:1010D0003B807A88FB88C3EB02039BB23B82B7F963
:1010E0000020B7F90430C3EB0203002BB8BF5B420A
:1010F0007B82B7F910304FEAD37213444FEA63038F
:10110000BB82B7F90420B7F900309A4203DA4FF0F6
:101110000103FB8230E04FF6FF73FB822CE0B7F94E
:101120000E30002B08D0B988FA883B8D084611464E
:101130001A46FFF7B5FD07E0F988BA883B8D0846E7
:1011400011461A46FFF7ACFDBA8A7B8AC3EB02034D
:101150009BB2BB82B7F91430002B09DABA88FB8A3C
:1011600013449BB2BB80BA8A3B8A13449BB2BB82B6
:10117000FB8803F10103FB80B7F90620B7F90230C1
:101180009A42CCDD07F12007BD4680BD80B584B012
:1011900002AF0346FB71FB79009344F25020C2F288
:1011A00000004FF000014FF000024FF0020300F08A
:1011B0008BFC07F10807BD4680BD00BF80B582B03B
:1011C00000AF0346FB71FB7944F25020C2F20000ED
:1011D000194600F0A7FD07F10807BD4680BD00BF16
:1011E00080B582B000AF0346FB80FB884FEA132333
:1011F0009BB244F25020C2F20000194600F092FD6A
:10120000FB8844F25020C2F20000194600F08AFD2B
:1012100007F10807BD4680BD80B500AF44F25020FD
:10122000C2F200004FF0000100F0CEFC80BD00BF14
:1012300080B500AF44F25020C2F200004FF0000130
:1012400000F028FD80BD00BF80B500AF4FF000006A
:101250004FF0010101F09AFC80BD00BF80B500AFE6
:101260004FF000004FF0000101F090FC80BD00BF86
:1012700080B586B002AF02460B46FA71BB71FB79AE
:101280003B73BB797B7307F10C034FF000020092B4
:1012900044F2CC30C2F200004FF041011A464FF048
:1012A000020301F03BFB44F2CC30C2F200004FF0ED
:1012B000000100F09FFF07F11007BD4680BD00BF91
:1012C00080B586B002AF0346FB7107F107034FF00C
:1012D0000002009244F2CC30C2F200004FF0410113
:1012E0001A464FF0010301F019FB44F2CC30C2F270
:1012F00000004FF0000100F07DFF07F10F034FF0F9
:101300000002009244F2CC30C2F200004FF04101E2
:101310001A464FF0010301F091FA44F2CC30C2F2C8
:1013200000004FF0000100F065FFFB7B184607F15D
:101330001007BD4680BD00BF80B500AF4FF04B0029
:10134000FFF7BEFF034603F02003184680BD00BF31
:1013500080B584B000AF0346FB80FB88184602F0DE
:10136000C1F802460B46104619464FF000024FF0F6
:10137000804303F5DC0302F045FA02460B461046B3
:10138000194602F027FB0346FB60F868074902F0A4
:1013900071FB0346FB60F86802F0BCFC0346DBB25D
:1013A000184607F11007BD4680BD00BF00007F430F
:1013B00080B584B000AF0346FB80FB88184602F07E
:1013C00091F802460B46104619464FF000024FF0C6
:1013D000804303F5E80302F015FA02460B46104677
:1013E000194602F0F7FA0346FB60F868074902F075
:1013F00041FB0346FB60F86802F08CFC0346DBB25D
:10140000184607F11007BD4680BD00BF00007F43AE
:1014100080B58AB000AF786013460A46FA703B8008
:101420004FF07E033B734FF000037B734FF01003CC
:10143000BB734FF00003FB734FF001033B744FF09D
:1014400005033B620BE03B6A07F128010B444FF0B8
:10145000000203F81C2C3B6A03F101033B623B6A68
:101460000A2BF0DD3B884FEA13239BB2DBB2FB75FE
:101470003B88DBB23B764FF000037B764FF00003F6
:101480003B620FE03B6A03F10E03396A7A680A4453
:10149000127807F128010B4403F81C2C3B6A03F176
:1014A00001033B62FA783B6A9A42EBDC4FF000039F
:1014B00087F827304FF003033B620EE03B6A07F1E9
:1014C0002802134413F81C2C97F82730134487F88C
:1014D00027303B6A03F101033B623B6A122BEDDDCF
:1014E00097F827306FEA0303DBB2FB7707F10C03B1
:1014F00044F20020C2F2000019464FF0140200F03E
:1015000017F807F12807BD4680BD00BF80B582B03F
:1015100000AF7860786844F2C011C2F200014FF069
:10152000400200F05BF807F10807BD4680BD00BF30
:101530002DE9F00544F22823C2F20003984206D0B8
:1015400044F20023C2F20003984200D000BE01B969
:1015500000BE02B900BE44F22823C2F20003984242
:1015600005D044F20023C2F20003984233D1131E87
:1015700018BF012300290CBF002303F00103002B37
:1015800029D04FF00007B8464FF0100A03681B7DC2
:1015900090F80AC043EA0C0C80F80AC013F0200F40
:1015A00017D00F2A04D95646BC4643460F4404E0E0
:1015B0000AB943460BE01646F6E70468FD5C257061
:1015C0000CF1010C03F101039E42F6D86746C3EB10
:1015D0000202002ADAD1BDE8F005704710B40346D4
:1015E00044F22820C2F20000834206D044F20020D8
:1015F000C2F20000834200D000BE01B900BE02B9B1
:1016000000BE44F22820C2F20000834205D044F21A
:101610000020C2F2000083422AD1101E18BF012010
:1016200000290CBF002400F001040CB31C6894F8DE
:1016300014C09C7A4CEA04049C721CEA000F17D078
:101640004FF000001C6894F800C001F800C000F1E1
:1016500001001C6894F814C09C7A4CEA04049C7243
:10166000824294BF00240CF00104002CEAD101E076
:101670004FF0000010BC704708B544F22823C2F2B6
:101680000003984207D044F20023C2F200039842BC
:1016900001D000BE08BD03681B7A03F00F030C2BBA
:1016A00020D8DFE803F0071F0D1F131F191F1F1F8E
:1016B0001F1F1300436A0BB900BE08BD984708BD41
:1016C000036A0BB900BE08BD984708BDC3690BB9D2
:1016D00000BE08BD984708BD83690BB900BE08BDB0
:1016E000984708BD00BE08BD10B444F22823C2F2DA
:1016F0000003984206D044F20023C2F2000398424D
:1017000000D000BEC26802B900BE016901B900BEC6
:1017100044F22823C2F20003984205D044F2002389
:10172000C2F20003984230D1002A2ED000292CD0DA
:1017300003681B7D827A43EA0202827213F0200F53
:101740001AD002694369C3EB02030F2B04D94FF08F
:10175000100C4FF0000302E073B19C46F9E70268F9
:10176000C4684169615C1170426902F10102426121
:1017700003F101036345F2D3426903699A4201BF51
:10178000002303614268C2F8843010BC704700BF78
:1017900010B444F22823C2F20003984206D044F267
:1017A0000023C2F20003984200D000BE01B900BE7F
:1017B000C02A00D900BE44F22823C2F20003984296
:1017C00005D044F20023C2F2000398422FD1C02A70
:1017D0008CBF0023012300290CBF002303F0010369
:1017E0002BB3C161036802F0C00242F00A021A7210
:1017F000038919B24FEA511103F01F034FF00102A0
:1018000002FA03F44EF20013CEF2000301F160017C
:1018100043F821404168C1F88020018908B24FEAAD
:10182000501001F01F0102FA01F243F8202010BC11
:10183000704700BF684620F007018D4601B544F2AD
:101840002820C2F20000FFF717FF4EF20013CEF27D
:1018500000034FF48062C3F88021BDE80140854653
:10186000704700BF684620F007018D4601B544F27D
:101870000020C2F20000FFF7FFFE4EF20013CEF28E
:1018800000034FF40062C3F88021BDE801408546A3
:10189000704700BF70B504460D46164644F2282333
:1018A000C2F20003984206D044F20023C2F20003C1
:1018B000984200D000BE05B900BE01F0A7F944F27D
:1018C0002823C2F200039C4226D144F22823C2F20C
:1018D00000034FF080421A604FF084425A604FF08C
:1018E0000A021A8144F24C13C2F20003186842F251
:1018F0000003CEF204031A6B42F080021A634EF228
:101900000012CEF200024FF48061C2F880111A6B0F
:1019100022F080021A6325E040F20003C4F20103C2
:10192000236040F20003C4F2202363604FF00B03F6
:10193000238144F25013C2F20003186842F20003FC
:10194000CEF204031A6B42F480721A634EF2001254
:10195000CEF200024FF40061C2F880111A6B22F43B
:1019600080721A6323684FF000021A7115B94FF0A4
:1019700001050FE0B0FBF5F515F0080F4FEA15155E
:1019800018BF0135B5F5803F38BFADB202D300BEF8
:101990004FF0010563684FF00102C3F89C212368F2
:1019A0004FEA15221A712368EDB21D7062684FF07C
:1019B0000003C2F89C312268167322684FF00E01B2
:1019C00011726268C2F810322361E3606361E361FF
:1019D00041F2E962C2F200022262A3616362A37271
:1019E00070BD00BF2DE9F0070368D3F80080D3F87D
:1019F00018C05F689E6A1D6B5C6BD3F81CA044F234
:101A0000D423C2F20003984224D144F2D423C2F278
:101A1000000341F20002C4F200021A604FF00C0110
:101A2000998042F20003CEF20403196B41F4007175
:101A300019634EF20011CEF200014FF48059C1F843
:101A40008091196B21F400711963136823F000432E
:101A500013601FE041F20002C4F2010202604FF085
:101A60000D03838042F20003CEF20403196B41F4AC
:101A7000806119634EF20011CEF200014FF400595B
:101A8000C1F88091196B21F480611963136823F008
:101A90000043136028F0010203681A600368C3F86A
:101AA00018C003685F6003681A6842F001021A6098
:101AB00003689E6203681D6303685C630368C3F880
:101AC0001CA0BDE8F0077047F0B49DF8105044F238
:101AD000D42CC2F2000C604506D044F2502CC2F265
:101AE000000C604500D000BE072900D900BE202DA3
:101AF00000D900BEB0F804C00FFA8CF64FEA5616B3
:101B00000CF01F0C4FF0010707FA0CF74EF200140F
:101B1000CEF2000406F1200644F826704FF0000CC7
:101B200080F880C00468266826F0010626600468F4
:101B3000266846F0020626600468266846F001061C
:101B4000266007292DD8B2F1007F14BF002401249C
:101B5000624508BF44F0010454B9B2F1407F14BF9C
:101B600000240124B2F1807F08BF44F001044CB18D
:101B700000EBC10440F2021CC2F2004C42EA0C022B
:101B8000626308E000EBC10440F2021CC2F2000CE8
:101B900042EA0C02626301F1060100EBC1010D7221
:101BA0004B7283881AB24FEA521203F01F034FF0B0
:101BB000010101FA03F14EF20013CEF2000343F8E3
:101BC0002210F0BC704700BF38B5044644F2D4235D
:101BD000C2F20003984206D044F25023C2F200033E
:101BE000984200D000BE2268136813F0020F00D1A3
:101BF00000BE0D4604EBC1035B6BB3F1FF3F00D1A8
:101C000000BEA38819B24FEA511103F01F034FF031
:101C1000010000FA03F04EF20013CEF2000301F1CE
:101C2000200143F82100936813F0040F02D02046EE
:101C3000FFF7D8FE23681A6822F001021A602268B2
:101C400005F1060304EBC303596811602268597A51
:101C5000916122681B7A536023681A6842F001027E
:101C60001A602268D1694FF0010303FA05F545EACD
:101C70000105D561A28811B24FEA511102F01F028D
:101C800003FA02F24EF20013CEF2000343F82120D1
:101C900038BD00BF38B504460D4644F2D423C2F225
:101CA0000003984206D044F25023C2F20003984247
:101CB00000D000BE2268136813F0020F00D100BEEE
:101CC000A38819B24FEA511103F01F034FF001002E
:101CD00000FA03F04EF20013CEF2000301F12001EE
:101CE00043F82100936813F0040F02D02046FFF759
:101CF00079FE2268D1694FF0010303FA05F521EA64
:101D00000505D561A28811B24FEA511102F01F02F8
:101D100003FA02F24EF20013CEF2000343F8212040
:101D200038BD00BF10B483B044F2D423C2F2000324
:101D3000984206D044F25023C2F20003984200D0E9
:101D400000BE03681A6812F0020F00D100BE1C68C2
:101D500040F2FF02CFF6007204EA020242F48072FF
:101D60001A600368DA6A42F00C02DA6203689A6861
:101D700012F0400F07D11A690192019A01929A68F4
:101D800012F0400FF7D0596103689A6812F0010F02
:101D900003D19A6812F0010FFBD09A6812F0020F7B
:101DA00003D19A6812F0020FFBD0186903B010BC7F
:101DB000704700BF10B40268936813F4807F13D19A
:101DC0000369C1688B4213D28168CB5C536103699C
:101DD00003F1010303610268916811F4807F03D16C
:101DE000C1689942F0D803E00269C3689A4217D3E8
:101DF0000268936813F4807F12D1C36981698B42B2
:101E00000ED24169CB5C5361C36903F10103C36125
:101E10000268916811F4807F02D181699942F0D8FB
:101E2000436ACBB10269C3689A4215D3C269836918
:101E30009A4211D303689A6812F4807F0CD14FF054
:101E4000000214465C610368996811F4807F03D135
:101E500002F10102202AF5D110BC704710B582B002
:101E6000044690F88030022B0CD105E013690193F1
:101E7000636F13B1019898472268936813F0400F7D
:101E8000F4D023E0012B03689A6803D012F0400FCE
:101E900016D01BE012F0400F18D11B690193236B81
:101EA000E26A93423EBF0199A26AD154236B03F1C7
:101EB0000103236323689A6812F0400FEDD005E018
:101EC0001A6901929A6812F0400FF9D002B010BD61
:101ED00070B582B00446056844F2D423C2F2000310
:101EE000984206D044F25023C2F20003984200D038
:101EF00000BE2B6A13F0020F38D094F88030022B0A
:101F00000CD105E013690193636F13B101989847F1
:101F10002268936813F0400FF4D023E0012BAB68E4
:101F200003D013F0400F17D01CE013F0400F19D16D
:101F30002B461B690193236BE26A93423EBF0199D2
:101F4000A26AD154236B03F10103236323689A68C7
:101F500012F0400FEDD005E02B690193AB6813F050
:101F6000400FF9D023684FF00202DA602B6A13F0B9
:101F7000010F0ED094F88030022B03D12368A26F9A
:101F80005A6102E02046FFF715FF23684FF0010277
:101F9000DA602B6A13F0100F16D02046FFF75EFFB1
:101FA000236A2BB1A06A216B98472046FFF702FFF6
:101FB0004FF00103636223689A6A22F010029A626A
:101FC00023684FF01002DA602B6A13F0040F0BD075
:101FD0002368DA6A42F00402DA622046FFF702FD63
:101FE00023684FF00402DA602B6A13F0080F23D045
:101FF0002368DA6A42F00802DA6294F88030022B31
:102000000ED12268116840F2FF03CFF6007301EA97
:10201000030343F4807313602368A26F5A6107E0DF
:10202000012B05D14FF0000323612046FFF7C2FECC
:1020300023684FF00802DA602B6A13F0200F29D0D2
:102040002046FFF70BFF266B236A73B14FF00003A6
:1020500063626361A361E36123684FF01002DA6099
:1020600023689A6A42F010029A624FF000052561D7
:102070002368DA6A42F00C02DA622046FFF79AFE21
:102080002563E36F13B1A06A3146984723684FF088
:102090002002DA6002B070BD684620F007018D466C
:1020A00001B544F2D420C2F20000FFF711FF4EF256
:1020B0000013CEF200034FF48052C3F88021BDE834
:1020C00001408546704700BF684620F007018D46F5
:1020D00001B544F25020C2F20000FFF7F9FE4EF2C3
:1020E0000013CEF200034FF40052C3F88021BDE884
:1020F00001408546704700BF38B5044644F2D423FA
:10210000C2F20003984206D044F25023C2F2000308
:10211000984200D000BEA3881AB24FEA521203F0D0
:102120001F034FF0010505FA03F14EF20013CEF242
:10213000000302F1200243F8221020464FF0000174
:102140004FF0840201F02EFE65624FF000034FF065
:10215000FF3104EB0302516303F10803402BF8D174
:1021600044F2D423C2F200039C4220D144F2D4238F
:10217000C2F2000341F20002C4F200021A604FF002
:102180000C029A8042F20003CEF204031A6B42F46E
:1021900000721A634EF20012CEF200024FF4805128
:1021A000C2F880111A6B22F400721A631BE041F22C
:1021B0000003C4F2010323604FF00D03A38042F239
:1021C0000003CEF204031A6B42F480621A634EF2EB
:1021D0000012CEF200024FF40051C2F880111A6BC7
:1021E00022F480621A6323681A6822F000421A609F
:1021F00038BD00BF034644F25832C2F2000290429A
:1022000006D044F2CC32C2F20002904200D000BEAE
:10221000196493F83C000128FBD0704790F86830AF
:102220001BB183694FF001029A60704730B583B0EB
:10223000044644F25833C2F20003984206D044F2F6
:10224000CC33C2F20003984200D000BE6269137919
:102250008DF807309DF80730A3F10803D02B00F26A
:102260008E82DFE813F0D1008C028C028C028C028B
:102270008C028C028C02D1008C028C028C028C02AB
:102280008C028C028C0206018C028C028C028C0265
:102290008C028C028C02F7008C028C028C028C0265
:1022A0008C028C028C0206018C028C028C028C0245
:1022B0008C028C028C0244018C028C028C028C02F7
:1022C0008C028C028C02F2008C028C028C028C023A
:1022D0008C028C028C0253018C028C028C028C02C8
:1022E0008C028C028C026E018C028C028C028C029D
:1022F0008C028C028C027D018C028C028C028C027E
:102300008C028C028C028F018C028C028C028C025B
:102310008C028C028C02D0018C028C028C028C020A
:102320008C028C028C02CC018C028C028C028C02FE
:102330008C028C028C02D0018C028C028C028C02EA
:102340008C028C028C02CC018C028C028C028C02DE
:102350008C028C028C02E6018C028C028C028C02B4
:102360008C028C028C02BB018C028C028C028C02CF
:102370008C028C028C02E6018C028C028C028C0294
:102380008C028C028C02BB018C028C028C028C02AF
:102390008C028C028C02FF018C028C028C028C025B
:1023A0008C028C028C0248028C028C028C028C0201
:1023B0008C028C028C0248028C028C028C028C02F1
:1023C0008C028C028C0248028C028C028C028C02E1
:1023D0008C028C028C027A028C028C028C028C029F
:1023E0008C028C028C027A028C028C028C028C028F
:1023F0008C028C028C028C028C028C028C028C026D
:102400008C028C028C023902A3694FF000025A61DF
:10241000636922791A72A369E26AC3F80021E36A48
:102420000BB9A36203E0012B04BF0023A36394F85C
:1024300071301BB14FF0000384F8713094F87230A2
:10244000227A9A4218BF2372AFE1A3694FF00102CA
:102450005A61AAE1A3694FF001021A614FF0020329
:1024600084F83C304FF0000323722046FFF7D6FE7D
:102470009BE1A36A616A8B4206D2216AC95C117230
:1024800003F10103A36290E1237A032B05D14FF0FE
:102490000103E362A269536187E14FF000032372F5
:1024A000237C03F0010384F870303BB9A3694FF03B
:1024B00001051D612046FFF7B1FE13E0638A1AB2E1
:1024C0004FEA521203F01F034FF0010101FA03F12A
:1024D0004EF20013CEF2000302F1200243F8221064
:1024E0004FF000054FF0000384F83C305CE1A36935
:1024F0004FF001021A614FF0020384F83C304FF0B4
:10250000000323722046FFF789FE4EE1636B012B27
:1025100004D9A3694FF001029A6046E1012B04D16E
:10252000A3694FF000029A603FE1A2694FF00103F6
:102530009360A26913614FF0000384F83C3023726A
:1025400033E1A3694FF001021A614FF0020384F8EE
:102550003C304FF0000323722046FFF75FFE24E17A
:10256000A36B117A226BD15403F10103A363626B55
:1025700002F1FF329342C0F01881A3694FF00002CC
:102580009A6012E1117A226BA36BD154237C03F081
:10259000010384F870303BB9A3694FF001051D6158
:1025A0002046FFF73BFE13E0638A1AB24FEA52124D
:1025B00003F01F034FF0010101FA03F14EF2001383
:1025C000CEF2000302F1200243F822104FF0000582
:1025D0004FF00003237284F83C30E5E0A3694FF02C
:1025E00001029A604FF00003237284F85C3094F883
:1025F0007130002B00F0D980A3695A61D5E04FF00B
:10260000010384F871304FF0040323724FF000038C
:10261000A365E360A3695A6932B14FF000025A61C1
:102620004FF0010384F871304FF0010384F85C30FF
:10263000BBE0216D61B1A36D606D83420DD2127A52
:10264000CA5403F10103A365E36802EB0322E260CD
:10265000A26D636D9A42C0F0A880A3694FF000029A
:102660009A60A2E0237A042B21D1A26D236E9A42B4
:1026700004BFE368E364636EA3B12046216DB4F840
:102680005820984738B92046FFF7C8FDA3694FF096
:1026900001029A6011E0A2694FF00003936084F890
:1026A00068300AE0A3694FF001029A6005E04FF03C
:1026B0000003E3642046FFF7B1FD4FF0000384F808
:1026C0005C3094F871301BB1A3694FF001025A617C
:1026D0004FF00003237268E04FF000032372E364BD
:1026E00094F85C30012B04BF022384F85C30204650
:1026F000FFF794FD59E09DF80730A82B13D14FF058
:10270000050323724FF00003E3604FF0010384F8E8
:102710005C30A3695A6932B14FF000025A614FF040
:10272000010384F87130E36CA26C934223BF6369A8
:102730004FF0FF321A7262693FBF616CC95C11725F
:10274000013338BFE364E26CA36C9A422DD3A269D3
:102750004FF000039360E36427E04FF00003E3646D
:10276000A2694FF00101916084F85C3094F87130F7
:102770000BB1A36959614FF00003237215E0A26900
:102780004FF0000353612372E36494F83C30012B53
:1027900004BF022384F83C3094F85C30012B04BF62
:1027A000022384F85C3000E01DB1A3694FF0000201
:1027B000DA6063691B798DF8073003B030BD00BF64
:1027C000684620F007018D4601B544F25830C2F248
:1027D0000000FFF72BFD4EF20013CEF200034FF482
:1027E0008042C3F88021BDE801408546704700BFA4
:1027F000684620F007018D4601B544F2CC30C2F2A4
:102800000000FFF713FD4EF20013CEF200034FF469
:102810000032C3F88021BDE801408546704700BF03
:1028200010B500F0E9F904464FF0010000F0E8F9B6
:10283000204610BD08B500F0E3F908BD2DE9F041D0
:1028400082B004460D4616461F469DF8208044F28D
:102850005833C2F20003984206D044F2CC33C2F29D
:102860000003984200D000BEFFF7DAFF237A13B9C5
:102870004FF0020323724FF0020384F872304FEAE4
:10288000450565604FF00103E362266367634FF01F
:102890000002A26384F83C3084F8108094F85C3025
:1028A000012B0FBF84F87130A36901225A6194F89B
:1028B0007030012B1DD1A3694FF00002DA6063690B
:1028C0001B798DF807309DF807308DF80730638A43
:1028D0001AB24FEA521203F01F034FF0010101FA3E
:1028E00003F14EF20013CEF2000302F1600243F84E
:1028F0002210638A1AB24FEA521203F01F034FF0FC
:10290000010101FA03F14EF20013CEF2000343F885
:102910002210FFF78FFF02B0BDE8F0812DE9F041F2
:1029200082B004460D4616461F469DF8208044F2AC
:102930005833C2F20003984206D044F2CC33C2F2BC
:102940000003984200D000BEFFF76AFF237A13B954
:102950004FF0010323724FF0010384F8723005FA3F
:1029600003F565604FF00002E26226626762A262D0
:1029700084F83C3084F8108094F85C30012B0FBF51
:1029800084F87130A36901225A6194F87030012BE8
:102990001DD1A3694FF00002DA6063691B798DF8DD
:1029A00007309DF807308DF80730638A1AB24FEA76
:1029B000521203F01F034FF0010101FA03F14EF22E
:1029C0000013CEF2000302F1600243F82210638A82
:1029D0001AB24FEA521203F01F034FF0010101FA3D
:1029E00003F14EF20013CEF2000343F82210FFF77A
:1029F00021FF02B0BDE8F0812DE9F04104460E460A
:102A0000154644F25833C2F20003984207D044F20C
:102A1000CC33C2F2000398424FD000BE4DE0FFF726
:102A2000FFFE074644F25838C2F2000840464FF015
:102A300000014FF0740201F0B5F94FF00E03A8F851
:102A4000123042F20003C4F20003C8F8143040F21E
:102A50000003C4F20423C8F8183042F20003CEF297
:102A600004031A6B42F400621A634EF20012CEF2B3
:102A700000024FF48041C2F880111A6B22F4006208
:102A80001A63A369E3614FEA46062660C5F3800234
:102A9000DA61A369C5F340025A60A36905F0010534
:102AA0001D60636922781A73A3694FF001029A616D
:102AB0003846FFF7BFFEBDE8F081FFF7B1FE0746DD
:102AC00020464FF000014FF0740201F06BF94FF017
:102AD0001103638242F20003C4F20103636140F216
:102AE0000003C4F22423A36142F20003CEF20403E4
:102AF0001A6B42F480521A634EF20012CEF20002B8
:102B00004FF40031C2F880111A6B22F480521A631C
:102B1000B7E700BF10B442F20003CEF204031A6B11
:102B200042F480421A634FF0000343F6B870C2F2D9
:102B300000004FF0010C4EF20014CEF20004C25A15
:102B400011B24FEA511102F01F020CFA02F201F128
:102B5000600144F8212003F10203402BEFD142F23F
:102B60000003CEF204031A6B22F480421A6310BCF5
:102B7000704700BF1F2801D900BE704743F6F873A5
:102B8000C2F2000353F82030196070471F2801D9A2
:102B900000BE704740F20003C4F2262300F58860AF
:102BA00043F82010704700BF2DE9F04107464FF071
:102BB0000004254644F25C16C2F200064FF01008ED
:102BC000A15939B13846424601F056F910B9E8B278
:102BD000BDE8F08105F10105ADB204F11004042D4A
:102BE000EED14FF00400BDE8F08100BF08B500F061
:102BF00025F900F0A3F808BDEFF31080704700BF7F
:102C000080F31088704700BF704700BF30B484B0B5
:102C100044F27803C2F20003EC460FCB8CE80F00BD
:102C200042F20003CEF204039A6C02F00C0204A9F3
:102C30000A4452F8105C9A6CC2F3011201EB820252
:102C400052F8104C9A6CC2F3811201EB820252F8D6
:102C5000100CD96CDB6CC1F3042101F1010113F4F8
:102C6000005F18BF490040F23023C6F208031A681B
:102C700022F0704241F2CF13C0F2A1539A4205D123
:102C80004EF62C73C6F201031B6828E040F61C03C5
:102C9000C6F208031A6844F24133C4F654439A4218
:102CA0001ED140F64003C6F208031A6822F07F42A4
:102CB00040F20033C0F201039A4211D9B2F5003F4D
:102CC00005D241F22C63C6F208031B6807E0B2F597
:102CD000403F05D241F6AC63C6F208031B6823B936
:102CE00000BE47F64003C0F27D1344F25412C2F214
:102CF0000002136044F24C12C2F20002B3FBF5F57D
:102D0000156044F25012C2F20002B3FBF4F41460F6
:102D100044F24412C2F20002B3FBF0F0106044F23D
:102D20004812C2F20002B3FBF1F1116044F25812F2
:102D3000C2F20002136004B030BC70472DE9F00706
:102D400040F20002C4F20202D2F8C8404FF0000381
:102D5000C2F8C830104644F2A01CC2F2000CDAB22D
:102D60004FEA520101EB410100EB011101F508713D
:102D7000097912F0010F14BFC1F34111C1F34101F0
:102D80000CF8031003F101030A2BE8D14FF0000304
:102D900044F25C17C2F2000744F2C006C2F2000619
:102DA00044F2F005C2F2000540F20008C4F2020845
:102DB0009A464FF0020944F2AC1CC2F2000C1846CD
:102DC00007EB03121279B15CAA5C012A03D022B38B
:102DD000022A1FD10EE0FF2900D100BE01EB410104
:102DE00008EB011101F508710A7A82F0010202F084
:102DF000010213E0FF2900D100BE01EB410108EB05
:102E0000011101F50A710A7912F0010F08BF4A4653
:102E100004D002E000BE524600E052460CF800200A
:102E200003F10103042BCAD140F20003C4F20203F0
:102E3000C3F8C840BDE8F007704700BF704700BF47
:102E4000684620F007018D4601B44EF20013CEF221
:102E500000034FF48002C3F88C2101BC8546704703
:102E6000684620F007018D4601B44EF20013CEF201
:102E700000034FF40002C3F88C2101BC8546704763
:102E8000684620F007018D4601B44EF20013CEF2E1
:102E900000034FF08072C3F88C2101BC8546704757
:102EA000684620F007018D4601B44EF20013CEF2C1
:102EB00000034FF00072C3F88C2101BC85467047B7
:102EC000684620F007018D4601B44EF20013CEF2A1
:102ED00000034FF08062C3F88C2101BC8546704727
:102EE000684620F007018D4601B44EF20013CEF281
:102EF00000034FF00062C3F88C2101BC8546704787
:102F0000684620F007018D4601B44EF20013CEF260
:102F100000034FF08052C3F88C2101BC85467047F6
:102F2000684620F007018D4601B44EF20013CEF240
:102F300000034FF00052C3F88C2101BC8546704756
:102F4000684620F007018D4601B44EF20013CEF220
:102F500000034FF08042C3F88C2101BC85467047C6
:102F6000684620F007018D4601B44EF20013CEF200
:102F700000034FF00042C3F88C2101BC8546704726
:102F8000684620F007018D4601B44EF20013CEF2E0
:102F900000034FF00102C3F8902101BC8546704741
:102FA000684620F007018D4601B44EF20013CEF2C0
:102FB00000034FF00202C3F8902101BC8546704720
:102FC000684620F007018D4601B44EF20013CEF2A0
:102FD00000034FF00402C3F8902101BC85467047FE
:102FE000684620F007018D4601B44EF20013CEF280
:102FF00000034FF00802C3F8902101BC85467047DA
:10300000684620F007018D4601B44EF20013CEF25F
:1030100000034FF01002C3F8902101BC85467047B1
:10302000684620F007018D4601B44EF20013CEF23F
:1030300000034FF02002C3F8902101BC8546704781
:10304000684620F007018D4601B44EF20013CEF21F
:1030500000034FF04002C3F8902101BC8546704741
:10306000684620F007018D4601B44EF20013CEF2FF
:1030700000034FF08002C3F8902101BC85467047E1
:10308000684620F007018D4601B44EF20013CEF2DF
:1030900000034FF48072C3F8902101BC854670474D
:1030A000684620F007018D4601B44EF20013CEF2BF
:1030B00000034FF40072C3F8902101BC85467047AD
:1030C000684620F007018D4601B44EF20013CEF29F
:1030D00000034FF48062C3F8902101BC854670471D
:1030E000684620F007018D4601B44EF20013CEF27F
:1030F00000034FF40062C3F8902101BC854670477D
:10310000684620F007018D4601B44EF20013CEF25E
:1031100000034FF48052C3F8902101BC85467047EC
:10312000684620F007018D4601B44EF20013CEF23E
:1031300000034FF40052C3F8902101BC854670474C
:10314000684620F007018D4601B44EF20013CEF21E
:1031500000034FF48042C3F8902101BC85467047BC
:10316000684620F007018D4601B44EF20013CEF2FE
:1031700000034FF40042C3F8902101BC854670471C
:10318000684620F007018D4601B44EF20013CEF2DE
:1031900000034FF48032C3F8902101BC854670478C
:1031A000684620F007018D4601B44EF20013CEF2BE
:1031B00000034FF40032C3F8902101BC85467047EC
:1031C000684620F007018D4601B44EF20013CEF29E
:1031D00000034FF48022C3F8902101BC854670475C
:1031E000684620F007018D4601B44EF20013CEF27E
:1031F00000034FF40022C3F8902101BC85467047BC
:10320000684620F007018D4601B44EF20013CEF25D
:1032100000034FF48012C3F8902101BC854670472B
:10322000684620F007018D4601B44EF20013CEF23D
:1032300000034FF40012C3F8902101BC854670478B
:1032400081F0004102E000BF83F0004330B54FEA57
:1032500041044FEA430594EA050F08BF90EA020FC4
:103260001FBF54EA000C55EA020C7FEA645C7FEA57
:10327000655C00F0E2804FEA5454D4EB5555B8BF7A
:103280006D420CDD2C4480EA020281EA030382EAEB
:10329000000083EA010180EA020281EA0303362D7D
:1032A00088BF30BD11F0004F4FEA01314FF4801C50
:1032B0004CEA113102D0404261EB410113F0004F62
:1032C0004FEA03334CEA133302D0524263EB430319
:1032D00094EA050F00F0A780A4F10104D5F1200EB7
:1032E0000DDB02FA0EFC22FA05F2801841F1000112
:1032F00003FA0EF2801843FA05F359410EE0A5F1E6
:1033000020050EF1200E012A03FA0EFC28BF4CF016
:10331000020C43FA05F3C01851EBE37101F00045CC
:1033200007D54FF0000EDCF1000C7EEB00006EEBD9
:103330000101B1F5801F1BD3B1F5001F0CD3490863
:103340005FEA30004FEA3C0C04F101044FEA4452BA
:1033500012F5800F80F09A80BCF1004F08BF5FEA41
:10336000500C50F1000041EB045141EA050130BD21
:103370005FEA4C0C404141EB010111F4801FA4F1C4
:103380000104E9D191F0000F04BF01460020B1FA19
:1033900081F308BF2033A3F10B03B3F120020CDA51
:1033A0000C3208DD02F1140CC2F10C0201FA0CF02F
:1033B00021FA02F10CE002F11402D8BFC2F1200C94
:1033C00001FA02F120FA0CFCDCBF41EA0C0190404A
:1033D000E41AA2BF01EB0451294330BD6FEA040493
:1033E0001F3C1CDA0C340EDC04F11404C4F120027E
:1033F00020FA04F001FA02F340EA030021FA04F390
:1034000045EA030130BDC4F10C04C4F1200220FAE6
:1034100002F001FA04F340EA0300294630BD21FA24
:1034200004F0294630BD94F0000F83F4801306BFEA
:1034300081F480110134013D4EE77FEA645C18BFDE
:103440007FEA655C29D094EA050F08BF90EA020F75
:1034500005D054EA000C04BF1946104630BD91EA6D
:10346000030F1EBF0021002030BD5FEA545C05D170
:103470004000494128BF41F0004130BD14F58004AF
:103480003CBF01F5801130BD01F0004545F0FE4123
:1034900041F470014FF0000030BD7FEA645C1ABF58
:1034A000194610467FEA655C1CBF0B46024650EA8F
:1034B000013406BF52EA033591EA030F41F40021BB
:1034C00030BD00BF90F0000F04BF0021704730B541
:1034D0004FF4806404F132044FF000054FF0000116
:1034E00050E700BF90F0000F04BF0021704730B5D7
:1034F0004FF4806404F1320410F0004548BF4042AC
:103500004FF000013EE700BF42004FEAE2014FEA00
:1035100031014FEA02701FBF12F07F4393F07F4FDB
:1035200081F06051704792F0000F14BF93F07F4F0D
:10353000704730B54FF4607401F0004521F0004150
:1035400020E700BF50EA010208BF704730B54FF0D6
:1035500000050AE050EA010208BF704730B511F0DB
:10356000004502D5404261EB41014FF4806404F113
:1035700032045FEA915C3FF4DCAE4FF003025FEA95
:10358000DC0C18BF03325FEADC0C18BF033202EB1D
:10359000DC02C2F1200300FA03FC20FA02F001FA77
:1035A00003FE40EA0E0021FA02F11444C1E600BF16
:1035B00070B54FF0FF0C4CF4E06C1CEA11541DBFC9
:1035C0001CEA135594EA0C0F95EA0C0F00F0DEF894
:1035D0002C4481EA030621EA4C5123EA4C5350EA79
:1035E000013518BF52EA033541F4801143F48013CA
:1035F00038D0A0FB02CE4FF00005E1FB02E506F05B
:103600000042E0FB03E54FF00006E1FB03569CF0AF
:10361000000F18BF4EF0010EA4F1FF04B6F5007FB5
:1036200064F5407404D25FEA4E0E6D4146EB060627
:1036300042EAC62141EA55514FEAC52040EA5E50B0
:103640004FEACE2EB4F1FD0C88BFBCF5E06F1ED85A
:10365000BEF1004F08BF5FEA500E50F1000041EB91
:10366000045170BD06F0004646EA010140EA02003E
:1036700081EA0301B4EB5C04C2BFD4EB0C0541EA60
:10368000045170BD41F480114FF0000E013C00F375
:10369000AB8014F1360FDEBF002001F0004170BD99
:1036A000C4F10004203C35DA0C341BDC04F11404B2
:1036B000C4F1200500FA05F320FA04F001FA05F23E
:1036C00040EA020001F0004221F0004110EBD3700B
:1036D00021FA04F642EB06015EEA430E08BF20EA37
:1036E000D37070BDC4F10C04C4F1200500FA04F3DA
:1036F00020FA05F001FA04F240EA020001F000416C
:1037000010EBD37041F100015EEA430E08BF20EADE
:10371000D37070BDC4F1200500FA05F24EEA020E26
:1037200020FA04F301FA05F243EA020321FA04F055
:1037300001F0004121FA04F220EA020000EBD3700C
:103740005EEA430E08BF20EAD37070BD94F0000F0C
:103750000FD101F00046400041EB010111F4801F40
:1037600008BF013CF7D041EA060195F0000F18BFF1
:10377000704703F00046520043EB030313F4801F2D
:1037800008BF013DF7D043EA0603704794EA0C0FE7
:103790000CEA135518BF95EA0C0F0CD050EA4106FD
:1037A00018BF52EA4306D1D181EA030101F000417A
:1037B0004FF0000070BD50EA410606BF10461946A2
:1037C00052EA430619D094EA0C0F02D150EA0136AE
:1037D00013D195EA0C0F05D152EA03361CBF1046EF
:1037E00019460AD181EA030101F0004141F0FE418E
:1037F00041F470014FF0000070BD41F0FE4141F412
:10380000780170BD70B54FF0FF0C4CF4E06C1CEA11
:1038100011541DBF1CEA135594EA0C0F95EA0C0FC6
:1038200000F0A7F8A4EB050481EA030E52EA033581
:103830004FEA013100F088804FEA03334FF08055A2
:1038400045EA131343EA12634FEA022245EA1115CF
:1038500045EA10654FEA00260EF000419D4208BF80
:10386000964244F1FD0404F5407402D25B084FEA2D
:103870003202B61A65EB03055B084FEA32024FF4D9
:1038800080104FF4002CB6EB020E75EB030E22BF36
:10389000B61A754640EA0C005B084FEA3202B6EBF6
:1038A000020E75EB030E22BFB61A754640EA5C00A5
:1038B0005B084FEA3202B6EB020E75EB030E22BF35
:1038C000B61A754640EA9C005B084FEA3202B6EB36
:1038D000020E75EB030E22BFB61A754640EADC00F5
:1038E00055EA060E18D04FEA051545EA16754FEA57
:1038F00006164FEAC30343EA52734FEAC2025FEA75
:103900001C1CC0D111F4801F0BD141EA00014FF003
:1039100000004FF0004CB6E711F4801F04BF0143D4
:103920000020B4F1FD0C88BFBCF5E06F3FF6AFAEF0
:10393000B5EB030C04BFB6EB020C5FEA500C50F180
:10394000000041EB045170BD0EF0004E4EEA113103
:1039500014EB5C04C2BFD4EB0C0541EA045170BD0A
:1039600041F480114FF0000E013C90E645EA060E4E
:103970008DE60CEA135594EA0C0F08BF95EA0C0F7C
:103980003FF43BAF94EA0C0F0AD150EA01347FF4C4
:1039900034AF95EA0C0F7FF425AF104619462CE79B
:1039A00095EA0C0F06D152EA03353FF4FDAE1046FE
:1039B000194622E750EA410618BF52EA43067FF44F
:1039C000C5AE50EA41047FF40DAF52EA43057FF4DF
:1039D000EBAE12E74FEA4102B2F1E04324BFB3F588
:1039E000001CDCF1FE5C0DD901F0004C4FEAC00276
:1039F0004CEA5070B2F1004F40EB830008BF20F05A
:103A00000100704711F0804F21D113F13872BCBF13
:103A100001F00040704741F480114FEA5252C2F168
:103A20001802C2F1200C10FA0CF320FA02F018BFB1
:103A300040F001004FEAC1234FEAD32303FA0CFC04
:103A400040EA0C0023FA02F34FEA4303CCE77FEA93
:103A5000625307D150EA01331EBF4FF0FE4040F4DD
:103A60004000704701F0004040F0FE4040F400008C
:103A7000704700BF4FF0FF0C1CEAD0521EBF1CEA7B
:103A8000D15392EA0C0F93EA0C0F6FD01A4480EADC
:103A9000010C400218BF5FEA41211ED04FF00063C5
:103AA00043EA501043EA5111A0FB01310CF00040F1
:103AB000B1F5000F3EBF490041EAD3715B0040EA17
:103AC000010062F17F02FD2A1DD8B3F1004F40EBE7
:103AD000C25008BF20F00100704790F0000F0CF0BA
:103AE000004C08BF49024CEA502040EA51207F3A7E
:103AF000C2BFD2F1FF0340EAC250704740F4000059
:103B00004FF00003013A5DDC12F1190FDCBF00F049
:103B100000407047C2F10002410021FA02F1C2F1F7
:103B2000200200FA02FC5FEA310040F1000053EA93
:103B30004C0308BF20EADC70704792F0000F00F0E1
:103B4000004C02BF400010F4000F013AF9D040EAE7
:103B50000C0093F0000F01F0004C02BF490011F47B
:103B6000000F013BF9D041EA0C018FE70CEAD15379
:103B700092EA0C0F18BF93EA0C0F0AD030F0004CF9
:103B800018BF31F0004CD8D180EA010000F00040AD
:103B9000704790F0000F17BF90F0004F084691F06B
:103BA000000F91F0004F14D092EA0C0F01D14202A5
:103BB0000FD193EA0C0F03D14B0218BF084608D16E
:103BC00080EA010000F0004040F0FE4040F40000B8
:103BD000704740F0FE4040F4400070474FF0FF0C4B
:103BE0001CEAD0521EBF1CEAD15392EA0C0F93EA92
:103BF0000C0F69D0A2EB030280EA010C49024FEAE4
:103C0000402037D04FF0805343EA111143EA10139C
:103C10000CF000408B4238BF5B0042F17D024FF454
:103C2000000C8B4224BF5B1A40EA0C00B3EB510F2F
:103C300024BFA3EB510340EA5C00B3EB910F24BF18
:103C4000A3EB910340EA9C00B3EBD10F24BFA3EB9D
:103C5000D10340EADC001B0118BF5FEA1C1CE0D165
:103C6000FD2A3FF650AF8B4240EBC25008BF20F018
:103C7000010070470CF0004C4CEA50207F32C2BF6C
:103C8000D2F1FF0340EAC250704740F400004FF009
:103C90000003013A37E792F0000F00F0004C02BF3A
:103CA000400010F4000F013AF9D040EA0C0093F004
:103CB000000F01F0004C02BF490011F4000F013B5E
:103CC000F9D041EA0C0195E70CEAD15392EA0C0FC6
:103CD00008D142027FF47DAF93EA0C0F7FF470AFFE
:103CE000084676E793EA0C0F04D14B023FF44CAF41
:103CF00008466EE730F0004C18BF31F0004CCAD1D6
:103D000030F000427FF45CAF31F000437FF43CAF11
:103D10005FE700BF42000ED2B2F1FE4F0BD34FF06F
:103D20009E03B3EB126209D44FEA002343F0004331
:103D300023FA02F070474FF00000704712F1610F54
:103D400001D1420202D14FF0FF3070474FF0000026
:103D5000704700BF70B544F2381644F23815C2F20D
:103D60000006C2F20005761BB61006D0002455F8F6
:103D7000243001349847A642F9D844F2381544F269
:103D80003C16C2F20005C2F20006761B00F0C8F92C
:103D9000B61006D0002455F8243001349847A642C6
:103DA000F9D870BD032AC9B230B407D822B10023B4
:103DB000C15401339342FBD130BC704700EB020C7D
:103DC000034601E003F8011C03F003041A46013323
:103DD000002CF7D14FF00133C2EB0C0403FB01F3CD
:103DE0001FE042F8403C42F83C3C42F8383C42F884
:103DF000343C42F8303C42F82C3C42F8283C42F833
:103E0000243C42F8203C42F81C3C42F8183C42F862
:103E1000143C42F8103C42F80C3C42F8083C42F892
:103E2000043C154640323F2CA4F14004D9DC2A461C
:103E3000C5EB0C0407E042F8103C42F80C3C42F899
:103E4000083C42F8043C154610320F2CA4F1100433
:103E5000F1DC2A46C5EB0C0501E042F8043C1446AF
:103E60000432032DA5F10405F7DC01E004F8011B81
:103E70006445FBD3A0E700BF30B41346002A43D00B
:103E800041EA000212F0030F25D1032B04460D4630
:103E90003DD9026809688A4239D1043B34D0A2F185
:103EA000013121EA020212F0803F0DD02CE022689D
:103EB0002968A2F101308A4220EA020027D1043B9E
:103EC00022D010F0803F1FD104340435032BEED8EC
:103ED00020462946F3B10478013B91F800C06445BF
:103EE0000FD18BB184B1013B002202E063B15CB120
:103EF000013B84188D180132647895F801C064453F
:103F0000F4D0CCEB040000E0002030BC7047204629
:103F10002946E0E7247895F800C0CCEB0400F4E7EC
:103F2000EF03038002CF0300C130ED04640312816C
:103F3000E803850078CB05392C003402F70120EA2C
:103F4000020000C00123C10110C5023E28C701863E
:103F50003601483701003A0155B1020018B603088E
:103F60008227F20100260101E00F0F312B0C0E0811
:103F70004EF1370710030E0900E10F000E14031174
:103F80000731C148080F0C31360F1180298000001D
:103F9000414443446972656374496E7075745F305F
:103FA00000000000414443446972656374496E70C7
:103FB00075745F3100000000200021002200230002
:103FC0002400250026002700280029002A002B00B5
:103FD0002C002D002E002F00300031003200330065
:103FE0003400350036003700380039003A003B0015
:103FF0003C003D003E003F000030014004300140E5
:10400000083001400C3001401030014014300140B4
:10401000183001401C300140203001402430014064
:10402000283001402C300140303001403430014014
:10403000383001403C3001404030014044300140C4
:10404000483001404C300140503001405430014074
:10405000583001405C300140603001406430014024
:10406000683001406C3001407030014074300140D4
:10407000783001407C300140010000000200000067
:10408000040000000100000041444344697265637C
:1040900074496E7075745F31000000005344445FD2
:1040A00030000000414443446972656374496E7096
:1040B00075745F30000000005344445F310000001D
:1040C000FF0000000001010101FFFFFFFFFFFFFFF4
:1040D000FF0202020203030303FFFFFFFFFFFFFFD4
:1040E000FF04040404FFFFFFFFFFFFFFFFFFFFFFCC
:1040F00000000001020000010200000000FFFF00BC
:1041000000000001020000010200000000FFFF00AB
:104110000000000102FFFFFFFF00000000FFFF00A2
:10412000F8B500BFF8BC08BC9E467047F8B500BFA4
:10413000F8BC08BC9E46704785040020710400202E
:1041400000000000105E5F00105E5F00105E5F0008
:10415000105E5F0040787D0140787D01A440002022
:104160000C00100000000000000000009C40002037
:104170000F0019000000000000000000884000202F
:10418000190022000000000000000000B8400020DC
:0C4190001F002B000000000000000000D9
:04000005200002993C
:00000001FF
