S0260000546F75636853637265656E46696E616C5F4D53535F434D335F305F6170702E737265630E
S315600000000000012099020000090300000B030000B4
S315600000100D0300000F030000110300000000000044
S315600000200000000000000000000000001303000054
S31560000030150300000000000017030000190300000C
S315600000401B0300001D0300001F03000021030000C6
S315600000502303000025030000270300002903000096
S315600000602B0300002D0300003D1F00006D1F0000E4
S31560000070A1270000D1270000C92E00003903000027
S315600000803B030000F92E00003F030000410300001F
S3156000009043030000450300004703000049030000D6
S315600000A04B0300000000000000000000000000009C
S315600000B00000000000000000000000004D0300008A
S315600000C04F03000051030000530300005503000076
S315600000D057030000590300005B0300005D03000046
S315600000E05F03000061030000630300006503000016
S315600000F067030000690300006B0300006D030000E6
S315600001006F030000710300007303000075030000B5
S3156000011077030000790300007B0300007D03000085
S315600001207F03000081030000830300008503000055
S3156000013087030000890300008B0300008D03000025
S315600001408F030000910300009303000095030000F5
S3156000015097030000990300009B0300009D030000C5
S315600001609F030000A1030000A3030000A503000095
S31560000170A7030000A9030000AB030000AD03000065
S31560000180AF030000B1030000B3030000B503000035
S31560000190B7030000B9030000BB030000BD03000005
S315600001A0BF030000C1030000C3030000C5030000D5
S315600001B0C7030000C9030000CB030000CD030000A5
S315600001C0CF030000D1030000D3030000D503000075
S315600001D0D7030000D9030000DB030000DD03000045
S315600001E0DF030000E1030000E3030000E503000015
S315600001F0E7030000E9030000EB030000ED030000E5
S31560000200EF030000F1030000F3030000F5030000B4
S31560000210F7030000F9030000F53300001534000011
S315600002203534000055340000753400009534000004
S31560000230B5340000D5340000F534000015350000F3
S3156000024035350000553500007535000095350000E0
S31560000250B5350000D5350000F535000015360000CF
S3156000026035360000553600007536000095360000BC
S31560000270B5360000D5360000F536000015370000AB
S315600002803537000055370000753700009537000098
S31560000290B5370000D53700006848804768480028B1
S315600002A00BD168486849694A884206D091421CBFAA
S315600002B050F8043B41F8043BF8D165486549664A05
S315600002C0884206D091421CBF50F8043B41F8043B7B
S315600002D0F8D162486249634A914218BF41F8040BFB
S315600002E0FAD10000000000000000000000000000DD
S315600002F0DFF874010FF2030E00474FF000004FF075
S315600003000001DFF868F1FEE7FEE7FEE7FEE7FEE7DD
S31560000310FEE7FEE7FEE7FEE7FEE7FEE7FEE7FEE74F
S31560000320FEE7FEE7FEE7FEE7FEE7FEE7FEE7FEE73F
S31560000330FEE7FEE7FEE7FEE7FEE7FEE7FEE7FEE72F
S31560000340FEE7FEE7FEE7FEE7FEE7FEE7FEE7FEE71F
S31560000350FEE7FEE7FEE7FEE7FEE7FEE7FEE7FEE70F
S31560000360FEE7FEE7FEE7FEE7FEE7FEE7FEE7FEE7FF
S31560000370FEE7FEE7FEE7FEE7FEE7FEE7FEE7FEE7EF
S31560000380FEE7FEE7FEE7FEE7FEE7FEE7FEE7FEE7DF
S31560000390FEE7FEE7FEE7FEE7FEE7FEE7FEE7FEE7CF
S315600003A0FEE7FEE7FEE7FEE7FEE7FEE7FEE7FEE7BF
S315600003B0FEE7FEE7FEE7FEE7FEE7FEE7FEE7FEE7AF
S315600003C0FEE7FEE7FEE7FEE7FEE7FEE7FEE7FEE79F
S315600003D0FEE7FEE7FEE7FEE7FEE7FEE7FEE7FEE78F
S315600003E0FEE7FEE7FEE7FEE7FEE7FEE7FEE7FEE77F
S315600003F0FEE7FEE7FEE7FEE7FEE7FEE7FEE7FEE76F
S31560000400FEE7FEE7FEE7FEE7FEE7FEE7FEE7FEE75E
S31560000410FEE7FEE7FEE7FEE7FEE7FEE7FEE7FEE74E
S31560000420FEE7FEE7FEE7FEE7FEE7FEE7FEE7FEE73E
S31560000430FEE7FEE7FEE7FEE7FEE70000C1320000EA
S315600004400100000070040060700400009C4500001C
S315600004509C450060000000201C0000200000000099
S315600004601C000020B002002009430000A104000027
S3156000047040F21C03C2F200031A780AB90120187010
S31560000480704700BF40F20000C2F2000008B5036882
S315600004902BB140F20003C0F2000303B1984708BDD8
S315600004A090B593B002AF4FF0FF33BB614FF00003DE
S315600004B0FB614FF000033B624FF000037B624FF03D
S315600004C00003BB6241F28833FB6241F288333B63CF
S315600004D040F27000C2F200004FF461414FF0030237
S315600004E001F05CFD40F27000C2F2000041F6154179
S315600004F0C0F200014FF0000201F0CEFC00F02EFDCC
S315600005004FF01F0000F0F2FE4FF6E07300934FF0DD
S3156000051005004FF005014FF06E024FF0980300F0B2
S3156000052077FE4FF6E07300934FF005004FF0A5019C
S315600005304FF06E024FF0980300F06AFE4FF6E073DC
S3156000054000934FF078004FF005014FF073024FF4BF
S315600005509C7300F05DFE4FF0000000F001FF4FF06D
S31560000560000000F01FFF4FF0000000F049FFEFE0D1
S3156000057044F22C42C0F2000207F1100392E8030035
S31560000580186003F10403197040F22000C2F2000003
S3156000059040F22A01C2F2000140F22802C2F20002D1
S315600005A000F0B4FD40F22003C2F200031B88A3F101
S315600005B0C8039AB240F22003C2F200031A8040F2E6
S315600005C02A03C2F200031B88A3F5A0739AB240F215
S315600005D02A03C2F200031A8040F22003C2F200032B
S315600005E01B88184603F058FA02460B461046194611
S315600005F00FF2E473D3E9002303F0DEFB02460B46F9
S315600006001046194603F0C0FC03467B63786BDFF83F
S31560000610D81703F009FD03467B63786B03F054FE3D
S3156000062003469AB240F22003C2F200031A8040F2F7
S315600006302A03C2F200031B88184603F02DFA02460D
S315600006400B46104619460FF29873D3E9002303F060
S31560000650B3FB02460B461046194603F095FC03466B
S315600006607B63786BDFF8841703F0DEFC03467B63FD
S31560000670786B03F029FE03469AB240F22A03C2F26F
S3156000068000031A8040F22003C2F200031B88C3F104
S31560000690F0039AB240F22003C2F200031A8040F2DD
S315600006A02A03C2F200031B88C3F5A0739AB240F214
S315600006B02A03C2F200031A8040F22003C2F200034A
S315600006C01B88782B0FD94FF00003BB614FF07E0378
S315600006D03B7507F1100318464FF005014FF0000215
S315600006E001F01AFA27E040F22A03C2F200031B88DF
S315600006F0A02B0FD94FF00103BB614FF025033B756B
S3156000070007F1100318464FF005014FF0000201F0A3
S3156000071003FA10E04FF00203BB614FF05F033B75D5
S3156000072007F1100318464FF005014FF0000201F083
S31560000730F3F900E000BF01F093F80346002B3FF4A5
S3156000074017AF00E000BF00F033FD0346002BF1D188
S31560000750BB69B3F1FF3FF5D00DE040F22000C2F275
S31560000760000040F22A01C2F2000140F22802C2F201
S31560000770000200F0CBFC01F073F80346002BECD0CE
S31560000780BB69002B04D14FF6FF7000F0AFFD0BE2A2
S31560000790BB69012B04D14FF0000000F0A7FD03E216
S315600007A04FF4FC6000F0A2FD4FF6FF7300934FF02C
S315600007B005004FF005014FF06E024FF0980300F010
S315600007C027FD4FF6FF7300934FF005004FF0A5012C
S315600007D04FF06E024FF0980300F01AFD4FF6FF736C
S315600007E000934FF078004FF005014FF073024FF021
S315600007F0980300F00DFD4FF6FF7300934FF07800FD
S315600008004FF0A5014FF073024FF0980300F000FD22
S315600008104FF0000300934FF028004FF03C014FF07B
S3156000082003024FF0230300F0F3FC4FF00003009344
S315600008304FF028004FF05A014FF023024FF00303A8
S3156000084000F0E6FC4FF0000300934FF028004FF0F5
S315600008503C014FF023024FF0030300F0D9FC4FF048
S31560000860000300934FF046004FF03C014FF0030247
S315600008704FF0230300F0CCFC4FF0A0004FF0F001E6
S315600008804FF014024FF0000301F056F88CE144F289
S315600008903442C0F2000207F1080392E803001860D0
S315600008A003F10403197000F083FC0346002B00F08B
S315600008B07B8173E140F22000C2F2000040F22A011F
S315600008C0C2F2000140F22802C2F2000200F01EFCF1
S315600008D040F22003C2F200031B88A3F1C8039AB258
S315600008E040F22003C2F200031A8040F22A03C2F2E9
S315600008F000031B88A3F5A0739AB240F22A03C2F2E2
S3156000090000031A8040F22003C2F200031B881846D7
S3156000091003F0C2F802460B46104619460FF2B8437A
S31560000920D3E9002303F048FA02460B4610461946FF
S3156000093003F02AFB0346BB63B86BDFF8AC1403F025
S3156000094073FB0346BB63B86B03F0BEFC03469AB207
S3156000095040F22003C2F200031A8040F22A03C2F278
S3156000096000031B88184603F097F802460B461046AC
S3156000097019460FF26C43D3E9002303F01DFA0246D1
S315600009800B461046194603F0FFFA0346BB63B86B85
S31560000990DFF8581403F048FB0346BB63B86B03F0FB
S315600009A093FC03469AB240F22A03C2F200031A800D
S315600009B040F22003C2F200031B88C3F1F0039AB22F
S315600009C040F22003C2F200031A8040F22A03C2F208
S315600009D000031B88C3F5A0739AB240F22A03C2F2E1
S315600009E000031A8040F22003C2F200031A8840F224
S315600009F02A03C2F200031B884FF01F0100911046C4
S31560000A0019464FF002024FF0020300F041FC40F23B
S31560000A102003C2F200031B88782B48D940F22A03D0
S31560000A20C2F200031B88A52B20D94FF028033B7325
S31560000A3007F1080318464FF005014FF0000201F078
S31560000A406BF80DE040F22000C2F2000040F22A018D
S31560000A50C2F2000140F22802C2F2000200F056FB28
S31560000A6000F0FEFE0346002BECD097E04FF03C030F
S31560000A703B7307F1080318464FF005014FF000027B
S31560000A8001F04AF80DE040F22000C2F2000040F2A8
S31560000A902A01C2F2000140F22802C2F2000200F00E
S31560000AA035FB00F0DDFE0346002BECD076E040F22D
S31560000AB02A03C2F200031B88A42B2FD84FF05B03D6
S31560000AC03B7307F1080318464FF005014FF000022B
S31560000AD001F022F80DE040F22000C2F2000040F280
S31560000AE02A01C2F2000140F22802C2F2000200F0BE
S31560000AF00DFB00F0B5FE0346002BECD04EE040F255
S31560000B002000C2F2000040F22A01C2F2000140F267
S31560000B102802C2F2000200F0F9FA00E000BF00F01D
S31560000B209FFE0346002BEAD04FF0FF33BB614FF0C8
S31560000B301F0000F0DBFB4FF6E07300934FF00500FB
S31560000B404FF005014FF06E024FF0980300F060FB26
S31560000B504FF6E07300934FF005004FF0A5014FF09C
S31560000B606E024FF0980300F053FB4FF6E07300936C
S31560000B704FF078004FF005014FF073024FF49C730D
S31560000B8000F046FB4FF0000000F0EAFB4FF000007B
S31560000B9000F008FC4FF0000000F032FC00F060FE50
S31560000BA00346002B3FF486AEBB69022B3FF46FAE63
S31560000BB00CE140F22000C2F2000040F22A01C2F2CB
S31560000BC0000140F22802C2F2000200F09FFA40F2F1
S31560000BD02003C2F200031B88A3F1C8039AB240F255
S31560000BE02003C2F200031A8040F22A03C2F2000315
S31560000BF01B88A3F5A0739AB240F22A03C2F20003DF
S31560000C001A8040F22003C2F200031B88184602F0E5
S31560000C1043FF02460B46104619466FA3D3E90023ED
S31560000C2003F0CAF802460B461046194603F0ACF9C3
S31560000C300346FB63F86B6C4903F0F6F90346FB6306
S31560000C40F86B03F041FB03469AB240F22003C2F20E
S31560000C5000031A8040F22A03C2F200031B8818467A
S31560000C6002F01AFF02460B46104619465CA3D3E90A
S31560000C70002303F0A1F802460B461046194603F01E
S31560000C8083F90346FB63F86B584903F0CDF90346D5
S31560000C90FB63F86B03F018FB03469AB240F22A0333
S31560000CA0C2F200031A8040F22003C2F200031B88DE
S31560000CB0C3F1F0039AB240F22003C2F200031A8035
S31560000CC040F22A03C2F200031B88C3F5A0739AB2EE
S31560000CD040F22A03C2F200031A80FB69002B48D156
S31560000CE03B6AF92B4ADC40F22003C2F200031A8801
S31560000CF040F22A03C2F200031B884FF01F010091E5
S31560000D00104619464FF006024FF0060300F0C0FA8F
S31560000D1040F22003C2F200031B88184600F0ACFDC7
S31560000D2003466FEA0303DCB240F22A03C2F2000311
S31560000D301B88184600F0D0FD03464FF000023A705B
S31560000D404FF000027A704FF00002BA702246FA70D5
S31560000D503B713B4618464FF005014FF0000200F02C
S31560000D60DBFE3B6A03F101033B624FF00003FB616C
S31560000D7007E0FB6903F10103FB6102E000BF00E0ED
S31560000D8000BF00F06DFD0346002B3FF412AF00E09C
S31560000D9000BF00F00DFA0346002BF1D10DE040F2E2
S31560000DA02000C2F2000040F22A01C2F2000140F2C5
S31560000DB02802C2F2000200F0A9F900F051FD0346D4
S31560000DC0002BECD04FF0010000F0A0FBBB69002BBC
S31560000DD0DED000BFBCE400BF000000000024AD40D0
S31560000DE000000000002AAC40000070430000A043F1
S31560000DF080B483B000AF0346FB804EF20013CEF2A0
S31560000E000003B7F906204FEA5212F98801F01F0174
S31560000E104FF0010000FA01F102F1200243F82210BE
S31560000E2007F10C07BD4680BC704700BF80B483B035
S31560000E3000AF0346FB804EF20013CEF20003B7F913
S31560000E4006204FEA5212F98801F01F014FF00100A7
S31560000E5000FA01F102F1600243F8221007F10C0773
S31560000E60BD4680BC704700BF80B582B000AF034608
S31560000E70FB714FF01400FFF7BBFF42F20003CEF2A6
S31560000E80040342F20002CEF20402126B22F0400228
S31560000E901A6345F20003C4F200034FF000025A657C
S31560000EA040F20003C4F20A234FF00002C3F8802127
S31560000EB040F20003C4F20A234FF00002C3F888210F
S31560000EC040F20003C4F20A23FA79C3F8842145F29A
S31560000ED00003C4F200034FF001021A614FF01400E0
S31560000EE0FFF7A4FF07F10807BD4680BD80B400AFD9
S31560000EF040F20003C4F20A234FF00102C3F88021D6
S31560000F00BD4680BC704700BF80B400AF40F20003AE
S31560000F10C4F20A234FF00002C3F88021BD4680BCAC
S31560000F20704700BF80B400AF45F20003C4F200030F
S31560000F301B681846BD4680BC704700BF80B483B04E
S31560000F4000AF786045F20003C4F200037A685A6025
S31560000F5007F10C07BD4680BC704700BF80B594B0F2
S31560000F6000AF44F23C43C0F20003FB6440F2C000B1
S31560000F70C2F2000001F044FC40F23C20C2F20000E4
S31560000F804FF041014FF0000202F0BAF802F046F964
S31560000F904FF000004FF0050102F070F94FF00800C5
S31560000FA000F088FB00F0CCFB4FF0010000F0CEFAB9
S31560000FB04FF0960000F0AAFA24E0FB6C1B7887F8E5
S31560000FC04930FB6C03F10103FB6497F8493003F089
S31560000FD07F0387F84A3097F8482097F84A301046DA
S31560000FE0F96C1A4600F062FA97F84A30FA6C1344C4
S31560000FF0FB6497F849305BB2002B03DA4FF096003A
S3156000100000F084FAFB6C1B7887F8483097F8483014
S31560001010002B0CBF00230123DBB2FA6C02F1010244
S31560001020FA64002BC9D100F097FB4FF003004FF034
S31560001030020100F0B1FB4FF00A0000F067FA4FF0D2
S31560001040000387F84B300AE097F84B30184600F0FB
S31560001050CBFB97F84B3003F1010387F84B3097F8D9
S315600010604B30402BF0D94FF004004FF0000100F0F8
S3156000107093FB4FF040004FF0010100F08DFB4FF005
S315600010800A004FF0010100F087FB4FF020004FF09F
S31560001090600100F081FB4FF021004FF0020100F08B
S315600010A07BFB4FF041004FF0A40100F075FB4FF061
S315600010B056004FF0060100F06FFB4FF04A004FF00C
S315600010C0010100F069FB4FF04B004FF0010100F0A9
S315600010D063FB4FF04B004FF0000100F05DFB4FF0FB
S315600010E058004FF0010100F057FB4FF00B004FF036
S315600010F0FF0100F051FB4FF009004FF0050100F0D1
S315600011004BFB07F15007BD4680BD00BF90B587B069
S3156000111000AFF860B9607A604FF00003FB754FF07E
S315600011200003FB7510E0FC7D4FF0D70000F05CFB20
S3156000113003461A4607F1180101EB040303F8082C6D
S31560001140FB7D03F10103FB75FB7D032BEBD93B7C38
S315600011501A46FB681A80FB681B884FEA03139AB22B
S31560001160FB681A80FB681A887B7C4FEA1313DBB234
S3156000117042EA03039AB2FB681A807B7C03F00F0392
S31560001180BA681380BB681B884FEA03239AB2BB68B0
S315600011901A80BB681A88BB7C42EA03039AB2BB68B2
S315600011A01A80FA7C7B681A7007F11C07BD4690BDF1
S315600011B080B500AF4FF0400000F016FB034603F029
S315600011C08003184680BD00BF80B582B000AF13466D
S315600011D00246FA800A46BA807B8000F0B1FAFB8844
S315600011E003F101039AB2BB8803F101039BB2F8884D
S315600011F0B98800F033F900F0BBFA7B88184600F036
S3156000120083FA00F0A9FA07F10807BD4680BD00BF62
S3156000121080B584B000AFF880B9807A803B8000F0FA
S315600012208FFAFA887B8813449AB2B9883B880B4454
S315600012309BB2F888B98800F011F900F099FAFB883A
S31560001240BB6018E0BB88FB6007E03B8B184600F08C
S315600012505BFAFB6803F10103FB60BA883B881A44BA
S31560001260FB689A42F1DC3B8B184600F04DFABB688E
S3156000127003F10103BB60FA887B881A44BB689A4213
S31560001280E0DC00F069FA07F11007BD4680BD00BFDB
S3156000129080B586B002AFF880B9807A803B80FB88E3
S315600012A0FB8118E0F889B988FA89B7F804C03B88E9
S315600012B063449BB203F1FF339BB200B209B212B230
S315600012C01BB2B7F818C0CDF800C000F055F9FB891D
S315600012D003F10103FB81FA89F9887B880B449A4202
S315600012E0E0DB07F11007BD4680BD00BF80B584B066
S315600012F000AF0346FB8000F023FA4FF000004FF08A
S3156000130000014FF0EF0240F23F1300F0A7F800F043
S315600013102FFA4FF00003BB6018E04FF00003FB604C
S3156000132007E0FB88184600F0EFF9FB6803F101035C
S31560001330FB60FA6840F23F139A42F2DDFB8818467A
S3156000134000F0E2F9BB6803F10103BB60BB68EF2BF9
S31560001350E3DD00F001FA07F11007BD4680BD00BF6E
S3156000136080B584B002AF0346FB80FB8800934FF0E4
S3156000137046004FF0DC014FF005024FF01903FFF70E
S3156000138087FFFB8800934FF028004FF0E6014FF08F
S315600013901E024FF00503FFF77BFF07F10807BD4606
S315600013A080BD00BF80B584B002AF0346FB80FB887A
S315600013B000934FF028004FF046014FF005024FF0C2
S315600013C01403FFF765FFFB8800934FF028004FF08A
S315600013D046014FF01E024FF00503FFF759FFFB88E9
S315600013E000934FF041004FF046014FF005024FF079
S315600013F01403FFF74DFF07F10807BD4680BD00BF28
S3156000140080B584B002AF0346FB80FB8800934FF043
S31560001410A0004FF0A0014FF01E024FF00503FFF74A
S3156000142037FFFB8800934FF0BE004FF0A0014FF0EE
S3156000143005024FF01403FFF72BFFFB8800934FF074
S31560001440AF004FF0A0014FF005024FF01403FFF715
S315600014501FFF07F10807BD4680BD00BF80B582B09B
S3156000146000AFF880B9807A803B804FF02A0000F0A8
S315600014706DF8FB88184600F047F97B88184600F03F
S3156000148043F94FF02B0000F061F8BB88184600F076
S315600014903BF93B88184600F037F94FF02C0000F016
S315600014A055F807F10807BD4680BD00BF80B586B018
S315600014B000AFB96013460246FA73FB714FF0000342
S315600014C07B614FF0080000F0F5F800F05BF9FB7BFC
S315600014D0184600F007F900F04BF94FF000037B6106
S315600014E00CE0BB681B78184600F0FCF8BB6803F19B
S315600014F00103BB607B6903F101037B61FA797B6958
S315600015009A42EEDC07F11807BD4680BD80B582B011
S3156000151000AF78604FF00100FFF7A6FC7A6848F2EA
S31560001520A063C0F2010303FB02F31846FFF706FD52
S31560001530FFF7DCFCFFF7F6FC0346002BFAD1FFF75A
S31560001540E3FC07F10807BD4680BD00BF80B582B0E9
S3156000155000AF0346FB7100F015F94FF0080000F08C
S31560001560A9F8FB79184600F0BDF800F001F907F11B
S315600015700807BD4680BD00BF80B588B000AFF88063
S31560001580B9807A803B80B7F90020B7F90430C3EBA5
S31560001590020383EAE372A2EBE372B7F90210B7F9CA
S315600015A00630C3EB0103002BB8BF5B429A42D4BF3F
S315600015B000230123FB81B7F90E30002B0BD0FB888B
S315600015C03B83BB88FB803B8BBB807B887B833B8874
S315600015D07B807B8B3B80B7F90620B7F902309A4255
S315600015E00BDDFB88BB837B88FB80BB8B7B80BB88EA
S315600015F0FB833B88BB80FB8B3B807A88FB88C3EB95
S3156000160002039BB23B82B7F90020B7F90430C3EB03
S315600016100203002BB8BF5B427B82B7F910304FEAFA
S31560001620D37213444FEA6303BB82B7F90420B7F958
S3156000163000309A4203DA4FF00103FB8230E04FF646
S31560001640FF73FB822CE0B7F90E30002B08D0B98807
S31560001650FA883B8D084611461A46FFF7B5FD07E046
S31560001660F988BA883B8D084611461A46FFF7ACFDE5
S31560001670BA8A7B8AC3EB02039BB2BB82B7F914308A
S31560001680002B09DABA88FB8A13449BB2BB80BA8AFC
S315600016903B8A13449BB2BB82FB8803F10103FB8048
S315600016A0B7F90620B7F902309A42CCDD07F1200778
S315600016B0BD4680BD80B584B002AF0346FB71FB7941
S315600016C0009340F2C000C2F200004FF000014FF0FC
S315600016D000024FF0020300F07BFD07F10807BD46EC
S315600016E080BD00BF80B582B000AF0346FB71FB7959
S315600016F040F2C000C2F20000194600F097FE07F102
S315600017000807BD4680BD00BF80B582B000AF034606
S31560001710FB80FB884FEA13239BB240F2C000C2F203
S315600017200000194600F082FEFB8840F2C000C2F25B
S315600017300000194600F07AFE07F10807BD4680BD35
S3156000174080B500AF40F2C000C2F200004FF0000169
S3156000175000F0BEFD80BD00BF80B500AF40F2C000A6
S31560001760C2F200004FF0000100F018FE80BD00BF1D
S3156000177080B500AF4FF000004FF0010101F08AFD27
S3156000178080BD00BF80B500AF4FF000004FF0000194
S3156000179001F080FD80BD00BF80B586B002AF024615
S315600017A00B46FA71BB71FB793B73BB797B7307F1AF
S315600017B00C034FF00002009240F23C20C2F200009F
S315600017C04FF041011A464FF0020301F02BFC40F244
S315600017D03C20C2F200004FF0000101F08FF807F1E3
S315600017E01007BD4680BD00BF80B586B002AF034618
S315600017F0FB7107F107034FF00002009240F23C20B4
S31560001800C2F200004FF041011A464FF0010301F0A9
S3156000181009FC40F23C20C2F200004FF0000101F0EA
S315600018206DF807F10F034FF00002009240F23C2082
S31560001830C2F200004FF041011A464FF0010301F079
S3156000184081FB40F23C20C2F200004FF0000101F043
S3156000185055F8FB7B184607F11007BD4680BD00BFF3
S3156000186080B500AF4FF04B00FFF7BEFF034603F0B5
S315600018702003184680BD00BF80B584B000AF034624
S31560001880FB80FB88184602F007F902460B461046B5
S3156000189019464FF000024FF0804303F5DC0302F077
S315600018A08BFA02460B461046194602F06DFB03465C
S315600018B0FB60F868074902F0B7FB0346FB60F8680F
S315600018C002F002FD0346DBB2184607F11007BD467B
S315600018D080BD00BF00007F4380B584B000AF034683
S315600018E0FB80FB88184602F0D7F802460B46104686
S315600018F019464FF000024FF0804303F5E80302F00B
S315600019005BFA02460B461046194602F03DFB03465B
S31560001910FB60F868074902F087FB0346FB60F868DE
S3156000192002F0D2FC0346DBB2184607F11007BD464B
S3156000193080BD00BF00007F4380B586B000AFF880F1
S31560001940B9807A803B807B88C3F101039BB2FB81BF
S315600019504FF001033B827B881A464FEAC232C3EBE3
S3156000196002034FEA43039BB27B824FF00003BB82C4
S315600019707B88FB82F988BA887B8813449AB23B8855
S31560001980084611461A46FFF71FFCF988BA887B8815
S31560001990C3EB02039AB23B88084611461A46FFF724
S315600019A013FCFA887B88134499B2BA883B88084648
S315600019B011461A46FFF708FCFA887B88C3EB0203D8
S315600019C099B2BA883B88084611461A46FFF7FCFB6F
S315600019D097E0B7F90E30002B0DDBFB8A03F1FF337E
S315600019E0FB827B8A03F102039BB27B82FA897B8A44
S315600019F013449BB2FB81BB8A03F10103BB823B8A22
S31560001A0003F102039BB23B82FA893B8A13449BB281
S31560001A10FB81FA88BB8A134499B2BA88FB8A13445D
S31560001A209AB23B88084611461A46FFF7CDFBFA88FC
S31560001A30BB8AC3EB020399B2BA88FB8A13449AB293
S31560001A403B88084611461A46FFF7BEFBFA88BB8AF2
S31560001A50134499B2BA88FB8AC3EB02039AB23B88F5
S31560001A60084611461A46FFF7AFFBFA88BB8AC3EBF6
S31560001A70020399B2BA88FB8AC3EB02039AB23B8827
S31560001A80084611461A46FFF79FFBFA88FB8A1344FD
S31560001A9099B2BA88BB8A13449AB23B880846114603
S31560001AA01A46FFF791FBFA88FB8AC3EB020399B2E9
S31560001AB0BA88BB8A13449AB23B88084611461A46CE
S31560001AC0FFF782FBFA88FB8A134499B2BA88BB8A0D
S31560001AD0C3EB02039AB23B88084611461A46FFF7E3
S31560001AE073FBFA88FB8AC3EB020399B2BA88BB8A96
S31560001AF0C3EB02039AB23B88084611461A46FFF7C3
S31560001B0063FBB7F91420B7F916309A42FFF661AF56
S31560001B1007F11807BD4680BD80B58AB000AF786012
S31560001B2013460A46FA703B804FF07E033B734FF0D4
S31560001B3000037B734FF01003BB734FF00003FB731E
S31560001B404FF001033B744FF005033B620BE03B6AC9
S31560001B5007F128010B444FF0000203F81C2C3B6A86
S31560001B6003F101033B623B6A0A2BF0DD3B884FEAD7
S31560001B7013239BB2DBB2FB753B88DBB23B764FF03F
S31560001B8000037B764FF000033B620FE03B6A03F194
S31560001B900E03396A7A680A44127807F128010B4401
S31560001BA003F81C2C3B6A03F101033B62FA783B6A3B
S31560001BB09A42EBDC4FF0000387F827304FF00303BF
S31560001BC03B620EE03B6A07F12802134413F81C2CB3
S31560001BD097F82730134487F827303B6A03F10103EF
S31560001BE03B623B6A122BEDDD97F827306FEA030301
S31560001BF0DBB2FB7707F10C0340F27000C2F2000023
S31560001C0019464FF0140200F017F807F12807BD4691
S31560001C1080BD00BF80B582B000AF7860786840F262
S31560001C203001C2F200014FF0400200F05BF807F1AC
S31560001C300807BD4680BD00BF2DE9F00540F2980358
S31560001C40C2F20003984206D040F27003C2F200036B
S31560001C50984200D000BE01B900BE02B900BE40F293
S31560001C609803C2F20003984205D040F27003C2F2B4
S31560001C700003984233D1131E18BF012300290CBFFD
S31560001C80002303F00103002B29D04FF00007B8466C
S31560001C904FF0100A03681B7D90F80AC043EA0C0CEB
S31560001CA080F80AC013F0200F17D00F2A04D95646C1
S31560001CB0BC4643460F4404E00AB943460BE0164669
S31560001CC0F6E70468FD5C25700CF1010C03F1010375
S31560001CD09E42F6D86746C3EB0202002ADAD1BDE817
S31560001CE0F005704710B4034640F29800C2F2000057
S31560001CF0834206D040F27000C2F20000834200D0F8
S31560001D0000BE01B900BE02B900BE40F29800C2F240
S31560001D100000834205D040F27000C2F200008342A8
S31560001D202AD1101E18BF012000290CBF002400F024
S31560001D3001040CB31C6894F814C09C7A4CEA040441
S31560001D409C721CEA000F17D04FF000001C6894F8D4
S31560001D5000C001F800C000F101001C6894F814C0CE
S31560001D609C7A4CEA04049C72824294BF00240CF074
S31560001D700104002CEAD101E04FF0000010BC70476E
S31560001D8008B540F29803C2F20003984207D040F2C9
S31560001D907003C2F20003984201D000BE08BD03681A
S31560001DA01B7A03F00F030C2B20D8DFE803F0071F24
S31560001DB00D1F131F191F1F1F1F1F1300436A0BB927
S31560001DC000BE08BD984708BD036A0BB900BE08BDD2
S31560001DD0984708BDC3690BB900BE08BD984708BDE2
S31560001DE083690BB900BE08BD984708BD00BE08BD33
S31560001DF010B440F29803C2F20003984206D040F253
S31560001E007003C2F20003984200D000BEC26802B9F5
S31560001E1000BE016901B900BE40F29803C2F2000338
S31560001E20984205D040F27003C2F20003984230D166
S31560001E30002A2ED000292CD003681B7D827A43EAC3
S31560001E400202827213F0200F1AD002694369C3EB53
S31560001E5002030F2B04D94FF0100C4FF0000302E081
S31560001E6073B19C46F9E70268C4684169615C1170A8
S31560001E70426902F10102426103F101036345F2D353
S31560001E80426903699A4201BF002303614268C2F84E
S31560001E90843010BC704700BF10B440F29803C2F2A1
S31560001EA00003984206D040F27003C2F200039842E3
S31560001EB000D000BE01B900BEC02A00D900BE40F203
S31560001EC09803C2F20003984205D040F27003C2F252
S31560001ED0000398422FD1C02A8CBF0023012300291A
S31560001EE00CBF002303F001032BB3C161036802F04A
S31560001EF0C00242F00A021A72038919B24FEA5111FE
S31560001F0003F01F034FF0010202FA03F44EF20013CE
S31560001F10CEF2000301F1600143F821404168C1F847
S31560001F208020018908B24FEA501001F01F0102FAC1
S31560001F3001F243F8202010BC704700BF684620F0CD
S31560001F4007018D4601B540F29800C2F20000FFF726
S31560001F5017FF4EF20013CEF200034FF48062C3F80F
S31560001F608021BDE801408546704700BF684620F085
S31560001F7007018D4601B540F27000C2F20000FFF71E
S31560001F80FFFE4EF20013CEF200034FF40062C3F878
S31560001F908021BDE801408546704700BF70B50446A4
S31560001FA00D46164640F29803C2F20003984206D0E8
S31560001FB040F27003C2F20003984200D000BE05B939
S31560001FC000BE01F07FF940F29803C2F200039C4222
S31560001FD026D140F29803C2F200034FF080421A60A5
S31560001FE04FF084425A604FF00A021A8140F20C03A5
S31560001FF0C2F20003186842F20003CEF204031A6BC1
S3156000200042F080021A634EF20012CEF200024FF4E2
S315600020108061C2F880111A6B22F080021A6325E093
S3156000202040F20003C4F20103236040F20003C4F2ED
S31560002030202363604FF00B03238140F21003C2F24A
S315600020400003186842F20003CEF204031A6B42F4EE
S3156000205080721A634EF20012CEF200024FF40061F3
S31560002060C2F880111A6B22F480721A6323684FF0EB
S3156000207000021A7115B94FF001050FE0B0FBF5F5D6
S3156000208015F0080F4FEA151518BF0135B5F5803FF5
S3156000209038BFADB202D300BE4FF0010563684FF0A2
S315600020A00102C3F89C2123684FEA15221A7123683E
S315600020B0EDB21D7062684FF00003C2F89C31226871
S315600020C0167322684FF00E0111726268C2F8103200
S315600020D02361E3606361E36141F6F152C0F200029D
S315600020E02262A3616362A37270BD00BF2DE9F0072F
S315600020F00368D3F80080D3F818C05F689E6A1D6BCA
S315600021005C6BD3F81CA040F24413C2F20003984201
S3156000211024D140F24413C2F2000341F20002C4F239
S3156000212000021A604FF00C01998042F20003CEF271
S315600021300403196B41F4007119634EF20011CEF27B
S3156000214000014FF48059C1F88091196B21F4007138
S315600021501963136823F0004313601FE041F2000225
S31560002160C4F2010202604FF00D03838042F2000365
S31560002170CEF20403196B41F4806119634EF20011CB
S31560002180CEF200014FF40059C1F88091196B21F429
S3156000219080611963136823F00043136028F001021D
S315600021A003681A600368C3F818C003685F60036851
S315600021B01A6842F001021A6003689E6203681D6332
S315600021C003685C630368C3F81CA0BDE8F00770474A
S315600021D0F0B49DF8105040F2441CC2F2000C604509
S315600021E006D040F2C00CC2F2000C604500D000BEC2
S315600021F0072900D900BE202D00D900BEB0F804C062
S315600022000FFA8CF64FEA56160CF01F0C4FF00107CA
S3156000221007FA0CF74EF20014CEF2000406F120061F
S3156000222044F826704FF0000C80F880C00468266879
S3156000223026F0010626600468266846F002062660D7
S315600022400468266846F00106266007292DD8B2F193
S31560002250007F14BF00240124624508BF44F00104D6
S3156000226054B9B2F1407F14BF00240124B2F1807FDB
S3156000227008BF44F001044CB100EBC10440F2021CFB
S31560002280C2F2004C42EA0C02626308E000EBC10451
S3156000229040F2021CC2F2000C42EA0C02626301F1D7
S315600022A0060100EBC1010D724B7283881AB24FEAC8
S315600022B0521203F01F034FF0010101FA03F14EF2CF
S315600022C00013CEF2000343F82210F0BC704700BF43
S315600022D038B5044640F24413C2F20003984206D071
S315600022E040F2C003C2F20003984200D000BE2268EA
S315600022F0136813F0020F00D100BE0D4604EBC10354
S315600023005B6BB3F1FF3F00D100BEA38819B24FEA01
S31560002310511103F01F034FF0010000FA03F04EF273
S315600023200013CEF2000301F1200143F82100936807
S3156000233013F0040F02D02046FFF7D8FE23681A6810
S3156000234022F001021A60226805F1060304EBC3035A
S31560002350596811602268597A916122681B7A5360C4
S3156000236023681A6842F001021A602268D1694FF048
S31560002370010303FA05F545EA0105D561A28811B2A4
S315600023804FEA511102F01F0203FA02F24EF20013F5
S31560002390CEF2000343F8212038BD00BF38B50446AD
S315600023A00D4640F24413C2F20003984206D040F252
S315600023B0C003C2F20003984200D000BE22681368D0
S315600023C013F0020F00D100BEA38819B24FEA511173
S315600023D003F01F034FF0010000FA03F04EF2001302
S315600023E0CEF2000301F1200143F82100936813F057
S315600023F0040F02D02046FFF779FE2268D1694FF0BC
S31560002400010303FA05F521EA0505D561A28811B233
S315600024104FEA511102F01F0203FA02F24EF2001364
S31560002420CEF2000343F8212038BD00BF10B483B05C
S3156000243040F24413C2F20003984206D040F2C00351
S31560002440C2F20003984200D000BE03681A6812F018
S31560002450020F00D100BE1C6840F2FF02CFF6007288
S3156000246004EA020242F480721A600368DA6A42F091
S315600024700C02DA6203689A6812F0400F07D11A6993
S315600024800192019A01929A6812F0400FF7D0596151
S3156000249003689A6812F0010F03D19A6812F0010F6F
S315600024A0FBD09A6812F0020F03D19A6812F0020FFD
S315600024B0FBD0186903B010BC704700BF10B4026847
S315600024C0936813F4807F13D10369C1688B4213D27A
S315600024D08168CB5C5361036903F1010303610268A0
S315600024E0916811F4807F03D1C1689942F0D803E006
S315600024F00269C3689A4217D30268936813F4807FAF
S3156000250012D1C36981698B420ED24169CB5C53613A
S31560002510C36903F10103C3610268916811F4807FA6
S3156000252002D181699942F0D8436ACBB10269C36826
S315600025309A4215D3C26983699A4211D303689A682D
S3156000254012F4807F0CD14FF0000214465C61036880
S31560002550996811F4807F03D102F10102202AF5D136
S3156000256010BC704710B582B0044690F88030022BDC
S315600025700CD105E013690193636F13B10198984715
S315600025802268936813F0400FF4D023E0012B0368B0
S315600025909A6803D012F0400F16D01BE012F0400F7D
S315600025A018D11B690193236BE26A93423EBF01997E
S315600025B0A26AD154236B03F10103236323689A68EB
S315600025C012F0400FEDD005E01A6901929A6812F098
S315600025D0400FF9D002B010BD70B582B004460568F0
S315600025E040F24413C2F20003984206D040F2C003A0
S315600025F0C2F20003984200D000BE2B6A13F0020FAD
S3156000260038D094F88030022B0CD105E01369019321
S31560002610636F13B1019898472268936813F0400F6F
S31560002620F4D023E0012BAB6803D013F0400F17D032
S315600026301CE013F0400F19D12B461B690193236BE5
S31560002640E26A93423EBF0199A26AD154236B03F1B9
S315600026500103236323689A6812F0400FEDD005E00A
S315600026602B690193AB6813F0400FF9D023684FF0E4
S315600026700202DA602B6A13F0010F0ED094F88030F4
S31560002680022B03D12368A26F5A6102E02046FFF74E
S3156000269015FF23684FF00102DA602B6A13F0100F02
S315600026A016D02046FFF75EFF236A2BB1A06A216B26
S315600026B098472046FFF702FF4FF0010363622368E5
S315600026C09A6A22F010029A6223684FF01002DA606A
S315600026D02B6A13F0040F0BD02368DA6A42F0040207
S315600026E0DA622046FFF702FD23684FF00402DA60E3
S315600026F02B6A13F0080F23D02368DA6A42F00802C7
S31560002700DA6294F88030022B0ED12268116840F2AA
S31560002710FF03CFF6007301EA030343F4807313608B
S315600027202368A26F5A6107E0012B05D14FF00003C1
S3156000273023612046FFF7C2FE23684FF00802DA6085
S315600027402B6A13F0200F29D02046FFF70BFF266B6C
S31560002750236A73B14FF0000363626361A361E3614F
S3156000276023684FF01002DA6023689A6A42F010021A
S315600027709A624FF0000525612368DA6A42F00C021E
S31560002780DA622046FFF79AFE2563E36F13B1A06A0B
S315600027903146984723684FF02002DA6002B070BD78
S315600027A0684620F007018D4601B540F24410C2F23A
S315600027B00000FFF711FF4EF20013CEF200034FF454
S315600027C08052C3F88021BDE801408546704700BF4E
S315600027D0684620F007018D4601B540F2C000C2F29E
S315600027E00000FFF7F9FE4EF20013CEF200034FF43D
S315600027F00052C3F88021BDE801408546704700BF9E
S3156000280038B5044640F24413C2F20003984206D03B
S3156000281040F2C003C2F20003984200D000BEA38813
S315600028201AB24FEA521203F01F034FF0010505FA80
S3156000283003F14EF20013CEF2000302F1200243F8D8
S31560002840221020464FF000014FF0840201F084FD13
S3156000285065624FF000034FF0FF3104EB03025163F2
S3156000286003F10803402BF8D140F24413C2F200038F
S315600028709C4220D140F24413C2F2000341F20002AE
S31560002880C4F200021A604FF00C029A8042F2000312
S31560002890CEF204031A6B42F400721A634EF200120F
S315600028A0CEF200024FF48051C2F880111A6B22F406
S315600028B000721A631BE041F20003C4F20103236055
S315600028C04FF00D03A38042F20003CEF204031A6BAD
S315600028D042F480621A634EF20012CEF200024FF4A6
S315600028E00051C2F880111A6B22F480621A63236861
S315600028F01A6822F000421A6038BD00BF034640F2F3
S31560002900C812C2F20002904206D040F23C22C2F2E5
S315600029100002904200D000BE196493F83C00012882
S31560002920FBD0704790F868301BB183694FF00102A5
S315600029309A60704730B583B0044640F2C813C2F25D
S315600029400003984206D040F23C23C2F2000398424C
S3156000295000D000BE626913798DF807309DF80730A4
S31560002960A3F10803D02B00F28E82DFE813F0D100CA
S315600029708C028C028C028C028C028C028C02D1003E
S315600029808C028C028C028C028C028C028C020601F8
S315600029908C028C028C028C028C028C028C02F700F8
S315600029A08C028C028C028C028C028C028C020601D8
S315600029B08C028C028C028C028C028C028C0244018A
S315600029C08C028C028C028C028C028C028C02F200CD
S315600029D08C028C028C028C028C028C028C0253015B
S315600029E08C028C028C028C028C028C028C026E0130
S315600029F08C028C028C028C028C028C028C027D0111
S31560002A008C028C028C028C028C028C028C028F01EE
S31560002A108C028C028C028C028C028C028C02D0019D
S31560002A208C028C028C028C028C028C028C02CC0191
S31560002A308C028C028C028C028C028C028C02D0017D
S31560002A408C028C028C028C028C028C028C02CC0171
S31560002A508C028C028C028C028C028C028C02E60147
S31560002A608C028C028C028C028C028C028C02BB0162
S31560002A708C028C028C028C028C028C028C02E60127
S31560002A808C028C028C028C028C028C028C02BB0142
S31560002A908C028C028C028C028C028C028C02FF01EE
S31560002AA08C028C028C028C028C028C028C02480294
S31560002AB08C028C028C028C028C028C028C02480284
S31560002AC08C028C028C028C028C028C028C02480274
S31560002AD08C028C028C028C028C028C028C027A0232
S31560002AE08C028C028C028C028C028C028C027A0222
S31560002AF08C028C028C028C028C028C028C028C0200
S31560002B008C028C028C028C028C028C028C02390242
S31560002B10A3694FF000025A61636922791A72A36948
S31560002B20E26AC3F80021E36A0BB9A36203E0012BF2
S31560002B3004BF0023A36394F871301BB14FF0000308
S31560002B4084F8713094F87230227A9A4218BF2372F0
S31560002B50AFE1A3694FF001025A61AAE1A3694FF0A0
S31560002B6001021A614FF0020384F83C304FF0000313
S31560002B7023722046FFF7D6FE9BE1A36A616A8B4209
S31560002B8006D2216AC95C117203F10103A36290E166
S31560002B90237A032B05D14FF00103E362A2695361E7
S31560002BA087E14FF000032372237C03F0010384F86E
S31560002BB070303BB9A3694FF001051D612046FFF7F0
S31560002BC0B1FE13E0638A1AB24FEA521203F01F0392
S31560002BD04FF0010101FA03F14EF20013CEF2000349
S31560002BE002F1200243F822104FF000054FF0000377
S31560002BF084F83C305CE1A3694FF001021A614FF042
S31560002C00020384F83C304FF0000323722046FFF73E
S31560002C1089FE4EE1636B012B04D9A3694FF0010273
S31560002C209A6046E1012B04D1A3694FF000029A60D5
S31560002C303FE1A2694FF001039360A26913614FF00F
S31560002C40000384F83C30237233E1A3694FF001023C
S31560002C501A614FF0020384F83C304FF00003237290
S31560002C602046FFF75FFE24E1A36B117A226BD154F5
S31560002C7003F10103A363626B02F1FF329342C0F07A
S31560002C801881A3694FF000029A6012E1117A226BF3
S31560002C90A36BD154237C03F0010384F870303BB9F5
S31560002CA0A3694FF001051D612046FFF73BFE13E067
S31560002CB0638A1AB24FEA521203F01F034FF0010102
S31560002CC001FA03F14EF20013CEF2000302F1200284
S31560002CD043F822104FF000054FF00003237284F88A
S31560002CE03C30E5E0A3694FF001029A604FF00003C3
S31560002CF0237284F85C3094F87130002B00F0D98030
S31560002D00A3695A61D5E04FF0010384F871304FF042
S31560002D10040323724FF00003A365E360A3695A6955
S31560002D2032B14FF000025A614FF0010384F87130FE
S31560002D304FF0010384F85C30BBE0216D61B1A36D97
S31560002D40606D83420DD2127ACA5403F10103A36502
S31560002D50E36802EB0322E260A26D636D9A42C0F003
S31560002D60A880A3694FF000029A60A2E0237A042B40
S31560002D7021D1A26D236E9A4204BFE368E364636E59
S31560002D80A3B12046216DB4F85820984738B920463B
S31560002D90FFF7C8FDA3694FF001029A6011E0A269CE
S31560002DA04FF00003936084F868300AE0A3694FF03F
S31560002DB001029A6005E04FF00003E3642046FFF7E6
S31560002DC0B1FD4FF0000384F85C3094F871301BB1AC
S31560002DD0A3694FF001025A614FF00003237268E065
S31560002DE04FF000032372E36494F85C30012B04BF58
S31560002DF0022384F85C302046FFF794FD59E09DF885
S31560002E000730A82B13D14FF0050323724FF0000350
S31560002E10E3604FF0010384F85C30A3695A6932B10C
S31560002E204FF000025A614FF0010384F87130E36C91
S31560002E30A26C934223BF63694FF0FF321A726269D4
S31560002E403FBF616CC95C1172013338BFE364E26CE9
S31560002E50A36C9A422DD3A2694FF000039360E3649A
S31560002E6027E04FF00003E364A2694FF0010191602F
S31560002E7084F85C3094F871300BB1A36959614FF0F6
S31560002E800003237215E0A2694FF0000353612372B9
S31560002E90E36494F83C30012B04BF022384F83C3091
S31560002EA094F85C30012B04BF022384F85C3000E0A8
S31560002EB01DB1A3694FF00002DA6063691B798DF872
S31560002EC0073003B030BD00BF684620F007018D466D
S31560002ED001B540F2C810C2F20000FFF72BFD4EF2BA
S31560002EE00013CEF200034FF48042C3F88021BDE8A0
S31560002EF001408546704700BF684620F007018D4651
S31560002F0001B540F23C20C2F20000FFF713FD4EF21D
S31560002F100013CEF200034FF40032C3F88021BDE8FF
S31560002F2001408546704700BF10B500F0C1F9044600
S31560002F304FF0010000F0C0F9204610BD08B500F062
S31560002F40BBF908BD2DE9F04182B004460D46164630
S31560002F501F469DF8208040F2C813C2F200039842D3
S31560002F6006D040F23C23C2F20003984200D000BE75
S31560002F70FFF7DAFF237A13B94FF0020323724FF09B
S31560002F80020384F872304FEA450565604FF001032D
S31560002F90E362266367634FF00002A26384F83C3005
S31560002FA084F8108094F85C30012B0FBF84F8713080
S31560002FB0A36901225A6194F87030012B1DD1A3696F
S31560002FC04FF00002DA6063691B798DF807309DF86F
S31560002FD007308DF80730638A1AB24FEA521203F04F
S31560002FE01F034FF0010101FA03F14EF20013CEF216
S31560002FF0000302F1600243F82210638A1AB24FEAB4
S31560003000521203F01F034FF0010101FA03F14EF271
S315600030100013CEF2000343F82210FFF78FFF02B0D1
S31560003020BDE8F0812DE9F04182B004460D461646B2
S315600030301F469DF8208040F2C813C2F200039842F2
S3156000304006D040F23C23C2F20003984200D000BE94
S31560003050FFF76AFF237A13B94FF0010323724FF02B
S31560003060010384F8723005FA03F565604FF00002DB
S31560003070E26226626762A26284F83C3084F810805D
S3156000308094F85C30012B0FBF84F87130A36901227C
S315600030905A6194F87030012B1DD1A3694FF000027C
S315600030A0DA6063691B798DF807309DF807308DF813
S315600030B00730638A1AB24FEA521203F01F034FF0C9
S315600030C0010101FA03F14EF20013CEF2000302F1A0
S315600030D0600243F82210638A1AB24FEA521203F072
S315600030E01F034FF0010101FA03F14EF20013CEF215
S315600030F0000343F82210FFF721FF02B0BDE8F0811C
S315600031002DE9F04104460E46154640F2C813C2F258
S315600031100003984207D040F23C23C2F20003984273
S315600031204FD000BE4DE0FFF7FFFE074640F2C818DD
S31560003130C2F2000840464FF000014FF0740201F001
S315600031400BF94FF00E03A8F8123042F20003C4F2F6
S315600031500003C8F8143040F20003C4F20423C8F830
S31560003160183042F20003CEF204031A6B42F4006296
S315600031701A634EF20012CEF200024FF48041C2F89A
S3156000318080111A6B22F400621A63A369E3614FEA45
S3156000319046062660C5F38002DA61A369C5F340027C
S315600031A05A60A36905F001051D60636922781A7388
S315600031B0A3694FF001029A613846FFF7BFFEBDE88A
S315600031C0F081FFF7B1FE074620464FF000014FF051
S315600031D0740201F0C1F84FF01103638242F20003FA
S315600031E0C4F20103636140F20003C4F22423A361C5
S315600031F042F20003CEF204031A6B42F480521A6361
S315600032004EF20012CEF200024FF40031C2F8801185
S315600032101A6B22F480521A63B7E700BF10B442F209
S315600032200003CEF204031A6B42F480421A634FF035
S31560003230000344F2AC40C0F200004FF0010C4EF2C5
S315600032400014CEF20004C25A11B24FEA511102F0D4
S315600032501F020CFA02F201F1600144F8212003F129
S315600032600203402BEFD142F20003CEF204031A6B45
S3156000327022F480421A6310BC704700BF1F2801D930
S3156000328000BE704744F2EC43C0F2000353F82030AE
S31560003290196070471F2801D900BE704740F20003CD
S315600032A0C4F2262300F5886043F82010704700BFFB
S315600032B0EFF31080704700BF80F31088704700BF3F
S315600032C0704700BF30B484B044F26C53C0F2000360
S315600032D0EC460FCB8CE80F0042F20003CEF20403FB
S315600032E09A6C02F00C0204A90A4452F8105C9A6CBB
S315600032F0C2F3011201EB820252F8104C9A6CC2F3CF
S31560003300811201EB820252F8100CD96CDB6CC1F3AE
S31560003310042101F1010113F4005F18BF490040F276
S315600033203023C6F208031A6822F0704241F2CF13C6
S31560003330C0F2A1539A4205D14EF62C73C6F2010330
S315600033401B6828E040F61C03C6F208031A6844F2BC
S315600033504133C4F654439A421ED140F64003C6F246
S3156000336008031A6822F07F4240F20033C0F201037C
S315600033709A4211D9B2F5003F05D241F22C63C6F2EA
S3156000338008031B6807E0B2F5403F05D241F6AC631F
S31560003390C6F208031B6823B900BE47F64003C0F2B5
S315600033A07D1340F21402C2F20002136040F20C0276
S315600033B0C2F20002B3FBF5F5156040F21002C2F2EC
S315600033C00002B3FBF4F4146040F20402C2F200029D
S315600033D0B3FBF0F0106040F20802C2F20002B3FBE9
S315600033E0F1F1116040F21802C2F20002136004B0FB
S315600033F030BC7047684620F007018D4601B44EF236
S315600034000013CEF200034FF48002C3F88C2101BC96
S3156000341085467047684620F007018D4601B44EF236
S315600034200013CEF200034FF40002C3F88C2101BCF6
S3156000343085467047684620F007018D4601B44EF216
S315600034400013CEF200034FF08072C3F88C2101BCEA
S3156000345085467047684620F007018D4601B44EF2F6
S315600034600013CEF200034FF00072C3F88C2101BC4A
S3156000347085467047684620F007018D4601B44EF2D6
S315600034800013CEF200034FF08062C3F88C2101BCBA
S3156000349085467047684620F007018D4601B44EF2B6
S315600034A00013CEF200034FF00062C3F88C2101BC1A
S315600034B085467047684620F007018D4601B44EF296
S315600034C00013CEF200034FF08052C3F88C2101BC8A
S315600034D085467047684620F007018D4601B44EF276
S315600034E00013CEF200034FF00052C3F88C2101BCEA
S315600034F085467047684620F007018D4601B44EF256
S315600035000013CEF200034FF08042C3F88C2101BC59
S3156000351085467047684620F007018D4601B44EF235
S315600035200013CEF200034FF00042C3F88C2101BCB9
S3156000353085467047684620F007018D4601B44EF215
S315600035400013CEF200034FF00102C3F8902101BCD4
S3156000355085467047684620F007018D4601B44EF2F5
S315600035600013CEF200034FF00202C3F8902101BCB3
S3156000357085467047684620F007018D4601B44EF2D5
S315600035800013CEF200034FF00402C3F8902101BC91
S3156000359085467047684620F007018D4601B44EF2B5
S315600035A00013CEF200034FF00802C3F8902101BC6D
S315600035B085467047684620F007018D4601B44EF295
S315600035C00013CEF200034FF01002C3F8902101BC45
S315600035D085467047684620F007018D4601B44EF275
S315600035E00013CEF200034FF02002C3F8902101BC15
S315600035F085467047684620F007018D4601B44EF255
S315600036000013CEF200034FF04002C3F8902101BCD4
S3156000361085467047684620F007018D4601B44EF234
S315600036200013CEF200034FF08002C3F8902101BC74
S3156000363085467047684620F007018D4601B44EF214
S315600036400013CEF200034FF48072C3F8902101BCE0
S3156000365085467047684620F007018D4601B44EF2F4
S315600036600013CEF200034FF40072C3F8902101BC40
S3156000367085467047684620F007018D4601B44EF2D4
S315600036800013CEF200034FF48062C3F8902101BCB0
S3156000369085467047684620F007018D4601B44EF2B4
S315600036A00013CEF200034FF40062C3F8902101BC10
S315600036B085467047684620F007018D4601B44EF294
S315600036C00013CEF200034FF48052C3F8902101BC80
S315600036D085467047684620F007018D4601B44EF274
S315600036E00013CEF200034FF40052C3F8902101BCE0
S315600036F085467047684620F007018D4601B44EF254
S315600037000013CEF200034FF48042C3F8902101BC4F
S3156000371085467047684620F007018D4601B44EF233
S315600037200013CEF200034FF40042C3F8902101BCAF
S3156000373085467047684620F007018D4601B44EF213
S315600037400013CEF200034FF48032C3F8902101BC1F
S3156000375085467047684620F007018D4601B44EF2F3
S315600037600013CEF200034FF40032C3F8902101BC7F
S3156000377085467047684620F007018D4601B44EF2D3
S315600037800013CEF200034FF48022C3F8902101BCEF
S3156000379085467047684620F007018D4601B44EF2B3
S315600037A00013CEF200034FF40022C3F8902101BC4F
S315600037B085467047684620F007018D4601B44EF293
S315600037C00013CEF200034FF48012C3F8902101BCBF
S315600037D085467047684620F007018D4601B44EF273
S315600037E00013CEF200034FF40012C3F8902101BC1F
S315600037F08546704781F0004102E000BF83F00043D8
S3156000380030B54FEA41044FEA430594EA050F08BF15
S3156000381090EA020F1FBF54EA000C55EA020C7FEAD9
S31560003820645C7FEA655C00F0E2804FEA5454D4EB56
S315600038305555B8BF6D420CDD2C4480EA020281EA20
S31560003840030382EA000083EA010180EA020281EA58
S315600038500303362D88BF30BD11F0004F4FEA0131AA
S315600038604FF4801C4CEA113102D0404261EB4101B9
S3156000387013F0004F4FEA03334CEA133302D052423F
S3156000388063EB430394EA050F00F0A780A4F10104FB
S31560003890D5F1200E0DDB02FA0EFC22FA05F2801835
S315600038A041F1000103FA0EF2801843FA05F359411B
S315600038B00EE0A5F120050EF1200E012A03FA0EFC9A
S315600038C028BF4CF0020C43FA05F3C01851EBE371C4
S315600038D001F0004507D54FF0000EDCF1000C7EEBE1
S315600038E000006EEB0101B1F5801F1BD3B1F5001F1F
S315600038F00CD349085FEA30004FEA3C0C04F101043E
S315600039004FEA445212F5800F80F09A80BCF1004F66
S3156000391008BF5FEA500C50F1000041EB045141EAE8
S31560003920050130BD5FEA4C0C404141EB010111F4E9
S31560003930801FA4F10104E9D191F0000F04BF014694
S315600039400020B1FA81F308BF2033A3F10B03B3F172
S3156000395020020CDA0C3208DD02F1140CC2F10C0202
S3156000396001FA0CF021FA02F10CE002F11402D8BF60
S31560003970C2F1200C01FA02F120FA0CFCDCBF41EA2C
S315600039800C019040E41AA2BF01EB0451294330BDFB
S315600039906FEA04041F3C1CDA0C340EDC04F11404D8
S315600039A0C4F1200220FA04F001FA02F340EA0300AF
S315600039B021FA04F345EA030130BDC4F10C04C4F1F5
S315600039C0200220FA02F001FA04F340EA03002946D5
S315600039D030BD21FA04F0294630BD94F0000F83F41F
S315600039E0801306BF81F480110134013D4EE77FEA02
S315600039F0645C18BF7FEA655C29D094EA050F08BF4E
S31560003A0090EA020F05D054EA000C04BF194610462E
S31560003A1030BD91EA030F1EBF0021002030BD5FEA72
S31560003A20545C05D14000494128BF41F0004130BD9A
S31560003A3014F580043CBF01F5801130BD01F00045EE
S31560003A4045F0FE4141F470014FF0000030BD7FEA61
S31560003A50645C1ABF194610467FEA655C1CBF0B465C
S31560003A60024650EA013406BF52EA033591EA030F73
S31560003A7041F4002130BD00BF90F0000F04BF00216B
S31560003A80704730B54FF4806404F132044FF000059E
S31560003A904FF0000150E700BF90F0000F04BF002117
S31560003AA0704730B54FF4806404F1320410F000457D
S31560003AB048BF40424FF000013EE700BF42004FEA78
S31560003AC0E2014FEA31014FEA02701FBF12F07F43F5
S31560003AD093F07F4F81F06051704792F0000F14BFF2
S31560003AE093F07F4F704730B54FF4607401F0004536
S31560003AF021F0004120E700BF50EA010208BF70478D
S31560003B0030B54FF000050AE050EA010208BF704781
S31560003B1030B511F0004502D5404261EB41014FF4EA
S31560003B20806404F132045FEA915C3FF4DCAE4FF0EE
S31560003B3003025FEADC0C18BF03325FEADC0C18BFD5
S31560003B40033202EBDC02C2F1200300FA03FC20FA26
S31560003B5002F001FA03FE40EA0E0021FA02F1144473
S31560003B60C1E600BF70B54FF0FF0C4CF4E06C1CEA88
S31560003B7011541DBF1CEA135594EA0C0F95EA0C0FFD
S31560003B8000F0DEF82C4481EA030621EA4C5123EA70
S31560003B904C5350EA013518BF52EA033541F480119F
S31560003BA043F4801338D0A0FB02CE4FF00005E1FB52
S31560003BB002E506F00042E0FB03E54FF00006E1FB9C
S31560003BC003569CF0000F18BF4EF0010EA4F1FF04DF
S31560003BD0B6F5007F64F5407404D25FEA4E0E6D411F
S31560003BE046EB060642EAC62141EA55514FEAC52030
S31560003BF040EA5E504FEACE2EB4F1FD0C88BFBCF5AC
S31560003C00E06F1ED8BEF1004F08BF5FEA500E50F15C
S31560003C10000041EB045170BD06F0004646EA010122
S31560003C2040EA020081EA0301B4EB5C04C2BFD4EB54
S31560003C300C0541EA045170BD41F480114FF0000E4D
S31560003C40013C00F3AB8014F1360FDEBF002001F0BB
S31560003C50004170BDC4F10004203C35DA0C341BDC35
S31560003C6004F11404C4F1200500FA05F320FA04F007
S31560003C7001FA05F240EA020001F0004221F000413B
S31560003C8010EBD37021FA04F642EB06015EEA430EAE
S31560003C9008BF20EAD37070BDC4F10C04C4F12005DE
S31560003CA000FA04F320FA05F001FA04F240EA020091
S31560003CB001F0004110EBD37041F100015EEA430E62
S31560003CC008BF20EAD37070BDC4F1200500FA05F282
S31560003CD04EEA020E20FA04F301FA05F243EA020301
S31560003CE021FA04F001F0004121FA04F220EA020010
S31560003CF000EBD3705EEA430E08BF20EAD37070BD56
S31560003D0094F0000F0FD101F00046400041EB010135
S31560003D1011F4801F08BF013CF7D041EA060195F017
S31560003D20000F18BF704703F00046520043EB0303D1
S31560003D3013F4801F08BF013DF7D043EA06037047BE
S31560003D4094EA0C0F0CEA135518BF95EA0C0F0CD0C9
S31560003D5050EA410618BF52EA4306D1D181EA03010F
S31560003D6001F000414FF0000070BD50EA410606BF09
S31560003D701046194652EA430619D094EA0C0F02D14E
S31560003D8050EA013613D195EA0C0F05D152EA033693
S31560003D901CBF104619460AD181EA030101F00041B1
S31560003DA041F0FE4141F470014FF0000070BD41F0FA
S31560003DB0FE4141F4780170BD70B54FF0FF0C4CF4D4
S31560003DC0E06C1CEA11541DBF1CEA135594EA0C0FF3
S31560003DD095EA0C0F00F0A7F8A4EB050481EA030E40
S31560003DE052EA03354FEA013100F088804FEA033327
S31560003DF04FF0805545EA131343EA12634FEA0222F5
S31560003E0045EA111545EA10654FEA00260EF00041B5
S31560003E109D4208BF964244F1FD0404F5407402D207
S31560003E205B084FEA3202B61A65EB03055B084FEA98
S31560003E3032024FF480104FF4002CB6EB020E75EB95
S31560003E40030E22BFB61A754640EA0C005B084FEABD
S31560003E503202B6EB020E75EB030E22BFB61A75463A
S31560003E6040EA5C005B084FEA3202B6EB020E75EB85
S31560003E70030E22BFB61A754640EA9C005B084FEAFD
S31560003E803202B6EB020E75EB030E22BFB61A75460A
S31560003E9040EADC0055EA060E18D04FEA051545EAF9
S31560003EA016754FEA06164FEAC30343EA52734FEAA2
S31560003EB0C2025FEA1C1CC0D111F4801F0BD141EA1B
S31560003EC000014FF000004FF0004CB6E711F4801F80
S31560003ED004BF01430020B4F1FD0C88BFBCF5E06F60
S31560003EE03FF6AFAEB5EB030C04BFB6EB020C5FEA70
S31560003EF0500C50F1000041EB045170BD0EF0004EC5
S31560003F004EEA113114EB5C04C2BFD4EB0C0541EAF6
S31560003F10045170BD41F480114FF0000E013C90E6F3
S31560003F2045EA060E8DE60CEA135594EA0C0F08BFB7
S31560003F3095EA0C0F3FF43BAF94EA0C0F0AD150EAB6
S31560003F4001347FF434AF95EA0C0F7FF425AF104649
S31560003F5019462CE795EA0C0F06D152EA03353FF471
S31560003F60FDAE1046194622E750EA410618BF52EAEE
S31560003F7043067FF4C5AE50EA41047FF40DAF52EAC2
S31560003F8043057FF4EBAE12E74FEA4102B2F1E0433C
S31560003F9024BFB3F5001CDCF1FE5C0DD901F0004CCA
S31560003FA04FEAC0024CEA5070B2F1004F40EB83001A
S31560003FB008BF20F00100704711F0804F21D113F146
S31560003FC03872BCBF01F00040704741F480114FEA7F
S31560003FD05252C2F11802C2F1200C10FA0CF320FA08
S31560003FE002F018BF40F001004FEAC1234FEAD32325
S31560003FF003FA0CFC40EA0C0023FA02F34FEA43038F
S31560004000CCE77FEA625307D150EA01331EBF4FF017
S31560004010FE4040F44000704701F0004040F0FE4032
S3156000402040F40000704700BF4FF0FF0C1CEAD0520E
S315600040301EBF1CEAD15392EA0C0F93EA0C0F6FD0A5
S315600040401A4480EA010C400218BF5FEA41211ED083
S315600040504FF0006343EA501043EA5111A0FB01316F
S315600040600CF00040B1F5000F3EBF490041EAD37144
S315600040705B0040EA010062F17F02FD2A1DD8B3F1C0
S31560004080004F40EBC25008BF20F00100704790F02F
S31560004090000F0CF0004C08BF49024CEA502040EA81
S315600040A051207F3AC2BFD2F1FF0340EAC250704747
S315600040B040F400004FF00003013A5DDC12F1190F85
S315600040C0DCBF00F000407047C2F10002410021FAF7
S315600040D002F1C2F1200200FA02FC5FEA310040F10F
S315600040E0000053EA4C0308BF20EADC70704792F088
S315600040F0000F00F0004C02BF400010F4000F013AC0
S31560004100F9D040EA0C0093F0000F01F0004C02BFBA
S31560004110490011F4000F013BF9D041EA0C018FE729
S315600041200CEAD15392EA0C0F18BF93EA0C0F0AD02F
S3156000413030F0004C18BF31F0004CD8D180EA010055
S3156000414000F00040704790F0000F17BF90F0004FEE
S31560004150084691F0000F91F0004F14D092EA0C0FD0
S3156000416001D142020FD193EA0C0F03D14B0218BF63
S31560004170084608D180EA010000F0004040F0FE40A9
S3156000418040F40000704740F0FE4040F44000704745
S315600041904FF0FF0C1CEAD0521EBF1CEAD15392EAC4
S315600041A00C0F93EA0C0F69D0A2EB030280EA010CB4
S315600041B049024FEA402037D04FF0805343EA11114D
S315600041C043EA10130CF000408B4238BF5B0042F1AB
S315600041D07D024FF4000C8B4224BF5B1A40EA0C0050
S315600041E0B3EB510F24BFA3EB510340EA5C00B3EB82
S315600041F0910F24BFA3EB910340EA9C00B3EBD10F70
S3156000420024BFA3EBD10340EADC001B0118BF5FEAC1
S315600042101C1CE0D1FD2A3FF650AF8B4240EBC250EA
S3156000422008BF20F0010070470CF0004C4CEA5020AB
S315600042307F32C2BFD2F1FF0340EAC250704740F4FA
S3156000424000004FF00003013A37E792F0000F00F0EC
S31560004250004C02BF400010F4000F013AF9D040EA6A
S315600042600C0093F0000F01F0004C02BF490011F4FE
S31560004270000F013BF9D041EA0C0195E70CEAD153F6
S3156000428092EA0C0F08D142027FF47DAF93EA0C0FDD
S315600042907FF470AF084676E793EA0C0F04D14B02C1
S315600042A03FF44CAF08466EE730F0004C18BF31F073
S315600042B0004CCAD130F000427FF45CAF31F000436D
S315600042C07FF43CAF5FE700BF42000ED2B2F1FE4F13
S315600042D00BD34FF09E03B3EB126209D44FEA00236F
S315600042E043F0004323FA02F070474FF00000704736
S315600042F012F1610F01D1420202D14FF0FF307047D7
S315600043004FF00000704700BF70B544F2945644F217
S315600043109455C0F20006C0F20005761BB61006D0B2
S31560004320002455F8243001349847A642F9D844F25F
S31560004330945544F29856C0F20005C0F20006761B0A
S3156000434000F01CF9B61006D0002455F8243001346C
S315600043509847A642F9D870BD032AC9B230B407D8C7
S3156000436022B10023C15401339342FBD130BC704764
S3156000437000EB020C034601E003F8011C03F00304A2
S315600043801A460133002CF7D14FF00133C2EB0C040F
S3156000439003FB01F31FE042F8403C42F83C3C42F824
S315600043A0383C42F8343C42F8303C42F82C3C42F807
S315600043B0283C42F8243C42F8203C42F81C3C42F837
S315600043C0183C42F8143C42F8103C42F80C3C42F867
S315600043D0083C42F8043C154640323F2CA4F14004A8
S315600043E0D9DC2A46C5EB0C0407E042F8103C42F8DB
S315600043F00C3C42F8083C42F8043C154610320F2C3F
S31560004400A4F11004F1DC2A46C5EB0C0501E042F884
S31560004410043C14460432032DA5F10405F7DC01E0E3
S3156000442004F8011B6445FBD3A0E700BFFFFFFFFF55
S31560004430000000001111111100000000EF0303805D
S3156000444002CF0300C130ED0464031281E8038500E6
S3156000445078CB05392C003402F70120EA020000C04F
S315600044600123C10110C5023E28C7018636014837BF
S3156000447001003A0155B1020018B603088227F2011D
S3156000448000260101E00F0F312B0C0E084EF13707A5
S3156000449010030E0900E10F000E1403110731C14825
S315600044A0080F0C31360F1180298000002000210092
S315600044B0220023002400250026002700280029006A
S315600044C02A002B002C002D002E002F00300031001A
S315600044D032003300340035003600370038003900CA
S315600044E03A003B003C003D003E003F00003001408A
S315600044F004300140083001400C300140103001406A
S3156000450014300140183001401C3001402030014019
S3156000451024300140283001402C30014030300140C9
S3156000452034300140383001403C3001404030014079
S3156000453044300140483001404C3001405030014029
S3156000454054300140583001405C30014060300140D9
S3156000455064300140683001406C3001407030014089
S3156000456074300140783001407C3001400100000029
S31560004570020000000400000001000000F8B500BF62
S31560004580F8BC08BC9E467047F8B500BFF8BC08BCCE
S311600045909E467047850400007104000020
S3156000459C00000000105E5F00105E5F00105E5F0042
S311600045AC105E5F0040787D0140787D0164
S705000002995F
